{
	"contracts/Twitter.sol": {
		"Twitter": {
			"abi": [
				{
					"inputs": [],
					"stateMutability": "nonpayable",
					"type": "constructor"
				},
				{
					"inputs": [],
					"name": "MAX_TWEET_Length",
					"outputs": [
						{
							"internalType": "uint16",
							"name": "",
							"type": "uint16"
						}
					],
					"stateMutability": "view",
					"type": "function"
				},
				{
					"inputs": [
						{
							"internalType": "uint16",
							"name": "newTweetLength",
							"type": "uint16"
						}
					],
					"name": "changeTweetLength",
					"outputs": [],
					"stateMutability": "nonpayable",
					"type": "function"
				},
				{
					"inputs": [
						{
							"internalType": "string",
							"name": "_tweet",
							"type": "string"
						}
					],
					"name": "createTweet",
					"outputs": [],
					"stateMutability": "nonpayable",
					"type": "function"
				},
				{
					"inputs": [
						{
							"internalType": "uint256",
							"name": "_i",
							"type": "uint256"
						}
					],
					"name": "getTweet",
					"outputs": [
						{
							"components": [
								{
									"internalType": "uint256",
									"name": "id",
									"type": "uint256"
								},
								{
									"internalType": "address",
									"name": "author",
									"type": "address"
								},
								{
									"internalType": "string",
									"name": "content",
									"type": "string"
								},
								{
									"internalType": "uint256",
									"name": "timestamp",
									"type": "uint256"
								},
								{
									"internalType": "uint256",
									"name": "likes",
									"type": "uint256"
								}
							],
							"internalType": "struct Twitter.Tweet",
							"name": "",
							"type": "tuple"
						}
					],
					"stateMutability": "view",
					"type": "function"
				},
				{
					"inputs": [
						{
							"internalType": "address",
							"name": "_owner",
							"type": "address"
						}
					],
					"name": "getalltweets",
					"outputs": [
						{
							"components": [
								{
									"internalType": "uint256",
									"name": "id",
									"type": "uint256"
								},
								{
									"internalType": "address",
									"name": "author",
									"type": "address"
								},
								{
									"internalType": "string",
									"name": "content",
									"type": "string"
								},
								{
									"internalType": "uint256",
									"name": "timestamp",
									"type": "uint256"
								},
								{
									"internalType": "uint256",
									"name": "likes",
									"type": "uint256"
								}
							],
							"internalType": "struct Twitter.Tweet[]",
							"name": "",
							"type": "tuple[]"
						}
					],
					"stateMutability": "view",
					"type": "function"
				},
				{
					"inputs": [
						{
							"internalType": "address",
							"name": "author",
							"type": "address"
						},
						{
							"internalType": "uint256",
							"name": "id",
							"type": "uint256"
						}
					],
					"name": "likeTweet",
					"outputs": [],
					"stateMutability": "nonpayable",
					"type": "function"
				},
				{
					"inputs": [],
					"name": "owner",
					"outputs": [
						{
							"internalType": "address",
							"name": "",
							"type": "address"
						}
					],
					"stateMutability": "view",
					"type": "function"
				},
				{
					"inputs": [
						{
							"internalType": "address",
							"name": "",
							"type": "address"
						},
						{
							"internalType": "uint256",
							"name": "",
							"type": "uint256"
						}
					],
					"name": "tweets",
					"outputs": [
						{
							"internalType": "uint256",
							"name": "id",
							"type": "uint256"
						},
						{
							"internalType": "address",
							"name": "author",
							"type": "address"
						},
						{
							"internalType": "string",
							"name": "content",
							"type": "string"
						},
						{
							"internalType": "uint256",
							"name": "timestamp",
							"type": "uint256"
						},
						{
							"internalType": "uint256",
							"name": "likes",
							"type": "uint256"
						}
					],
					"stateMutability": "view",
					"type": "function"
				},
				{
					"inputs": [
						{
							"internalType": "address",
							"name": "author",
							"type": "address"
						},
						{
							"internalType": "uint256",
							"name": "id",
							"type": "uint256"
						}
					],
					"name": "unlikeTweet",
					"outputs": [],
					"stateMutability": "nonpayable",
					"type": "function"
				}
			],
			"devdoc": {
				"kind": "dev",
				"methods": {},
				"version": 1
			},
			"evm": {
				"assembly": "    /* \"contracts/Twitter.sol\":71:2351  contract Twitter {... */\n  mstore(0x40, 0x80)\n    /* \"contracts/Twitter.sol\":131:134  280 */\n  0x0118\n    /* \"contracts/Twitter.sol\":97:134  uint16 public  MAX_TWEET_Length = 280 */\n  0x00\n  dup1\n  0x0100\n  exp\n  dup2\n  sload\n  dup2\n  0xffff\n  mul\n  not\n  and\n  swap1\n  dup4\n  0xffff\n  and\n  mul\n  or\n  swap1\n  sstore\n  pop\n    /* \"contracts/Twitter.sol\":473:530  constructor()... */\n  callvalue\n  dup1\n  iszero\n  tag_1\n  jumpi\n  0x00\n  dup1\n  revert\ntag_1:\n  pop\n    /* \"contracts/Twitter.sol\":512:522  msg.sender */\n  caller\n    /* \"contracts/Twitter.sol\":503:508  owner */\n  0x02\n  0x00\n    /* \"contracts/Twitter.sol\":503:522  owner  = msg.sender */\n  0x0100\n  exp\n  dup2\n  sload\n  dup2\n  0xffffffffffffffffffffffffffffffffffffffff\n  mul\n  not\n  and\n  swap1\n  dup4\n  0xffffffffffffffffffffffffffffffffffffffff\n  and\n  mul\n  or\n  swap1\n  sstore\n  pop\n    /* \"contracts/Twitter.sol\":71:2351  contract Twitter {... */\n  dataSize(sub_0)\n  dup1\n  dataOffset(sub_0)\n  0x00\n  codecopy\n  0x00\n  return\nstop\n\nsub_0: assembly {\n        /* \"contracts/Twitter.sol\":71:2351  contract Twitter {... */\n      mstore(0x40, 0x80)\n      callvalue\n      dup1\n      iszero\n      tag_1\n      jumpi\n      0x00\n      dup1\n      revert\n    tag_1:\n      pop\n      jumpi(tag_2, lt(calldatasize, 0x04))\n      shr(0xe0, calldataload(0x00))\n      dup1\n      0x58bfa4ab\n      gt\n      tag_12\n      jumpi\n      dup1\n      0x58bfa4ab\n      eq\n      tag_7\n      jumpi\n      dup1\n      0x63378216\n      eq\n      tag_8\n      jumpi\n      dup1\n      0x7c9cd2bc\n      eq\n      tag_9\n      jumpi\n      dup1\n      0x8da5cb5b\n      eq\n      tag_10\n      jumpi\n      dup1\n      0xc3ad5ecb\n      eq\n      tag_11\n      jumpi\n      jump(tag_2)\n    tag_12:\n      dup1\n      0x05a1b4a9\n      eq\n      tag_3\n      jumpi\n      dup1\n      0x0a50bfb3\n      eq\n      tag_4\n      jumpi\n      dup1\n      0x28bb2285\n      eq\n      tag_5\n      jumpi\n      dup1\n      0x3d9b569f\n      eq\n      tag_6\n      jumpi\n    tag_2:\n      0x00\n      dup1\n      revert\n        /* \"contracts/Twitter.sol\":359:402  mapping (address => Tweet[] ) public tweets */\n    tag_3:\n      tag_13\n      0x04\n      dup1\n      calldatasize\n      sub\n      dup2\n      add\n      swap1\n      tag_14\n      swap2\n      swap1\n      tag_15\n      jump\t// in\n    tag_14:\n      tag_16\n      jump\t// in\n    tag_13:\n      mload(0x40)\n      tag_17\n      swap6\n      swap5\n      swap4\n      swap3\n      swap2\n      swap1\n      tag_18\n      jump\t// in\n    tag_17:\n      mload(0x40)\n      dup1\n      swap2\n      sub\n      swap1\n      return\n        /* \"contracts/Twitter.sol\":97:134  uint16 public  MAX_TWEET_Length = 280 */\n    tag_4:\n      tag_19\n      tag_20\n      jump\t// in\n    tag_19:\n      mload(0x40)\n      tag_21\n      swap2\n      swap1\n      tag_22\n      jump\t// in\n    tag_21:\n      mload(0x40)\n      dup1\n      swap2\n      sub\n      swap1\n      return\n        /* \"contracts/Twitter.sol\":2206:2338  function getalltweets(address _owner) public view returns (Tweet[] memory)... */\n    tag_5:\n      tag_23\n      0x04\n      dup1\n      calldatasize\n      sub\n      dup2\n      add\n      swap1\n      tag_24\n      swap2\n      swap1\n      tag_25\n      jump\t// in\n    tag_24:\n      tag_26\n      jump\t// in\n    tag_23:\n      mload(0x40)\n      tag_27\n      swap2\n      swap1\n      tag_28\n      jump\t// in\n    tag_27:\n      mload(0x40)\n      dup1\n      swap2\n      sub\n      swap1\n      return\n        /* \"contracts/Twitter.sol\":1796:1989  function unlikeTweet(address author,uint256 id) external ... */\n    tag_6:\n      tag_29\n      0x04\n      dup1\n      calldatasize\n      sub\n      dup2\n      add\n      swap1\n      tag_30\n      swap2\n      swap1\n      tag_15\n      jump\t// in\n    tag_30:\n      tag_31\n      jump\t// in\n    tag_29:\n      stop\n        /* \"contracts/Twitter.sol\":722:840  function changeTweetLength(uint16 newTweetLength) public onlyOwner{... */\n    tag_7:\n      tag_32\n      0x04\n      dup1\n      calldatasize\n      sub\n      dup2\n      add\n      swap1\n      tag_33\n      swap2\n      swap1\n      tag_34\n      jump\t// in\n    tag_33:\n      tag_35\n      jump\t// in\n    tag_32:\n      stop\n        /* \"contracts/Twitter.sol\":1547:1753  function likeTweet(address author, uint256 id) external ... */\n    tag_8:\n      tag_36\n      0x04\n      dup1\n      calldatasize\n      sub\n      dup2\n      add\n      swap1\n      tag_37\n      swap2\n      swap1\n      tag_15\n      jump\t// in\n    tag_37:\n      tag_38\n      jump\t// in\n    tag_36:\n      stop\n        /* \"contracts/Twitter.sol\":860:1388  function createTweet(string memory _tweet) public {... */\n    tag_9:\n      tag_39\n      0x04\n      dup1\n      calldatasize\n      sub\n      dup2\n      add\n      swap1\n      tag_40\n      swap2\n      swap1\n      tag_41\n      jump\t// in\n    tag_40:\n      tag_42\n      jump\t// in\n    tag_39:\n      stop\n        /* \"contracts/Twitter.sol\":411:431  address public owner */\n    tag_10:\n      tag_43\n      tag_44\n      jump\t// in\n    tag_43:\n      mload(0x40)\n      tag_45\n      swap2\n      swap1\n      tag_46\n      jump\t// in\n    tag_45:\n      mload(0x40)\n      dup1\n      swap2\n      sub\n      swap1\n      return\n        /* \"contracts/Twitter.sol\":2034:2153  function getTweet(uint _i) public view returns (Tweet memory){... */\n    tag_11:\n      tag_47\n      0x04\n      dup1\n      calldatasize\n      sub\n      dup2\n      add\n      swap1\n      tag_48\n      swap2\n      swap1\n      tag_49\n      jump\t// in\n    tag_48:\n      tag_50\n      jump\t// in\n    tag_47:\n      mload(0x40)\n      tag_51\n      swap2\n      swap1\n      tag_52\n      jump\t// in\n    tag_51:\n      mload(0x40)\n      dup1\n      swap2\n      sub\n      swap1\n      return\n        /* \"contracts/Twitter.sol\":359:402  mapping (address => Tweet[] ) public tweets */\n    tag_16:\n      mstore(0x20, 0x01)\n      dup2\n      0x00\n      mstore\n      keccak256(0x00, 0x40)\n      dup2\n      dup2\n      sload\n      dup2\n      lt\n      tag_53\n      jumpi\n      0x00\n      dup1\n      revert\n    tag_53:\n      swap1\n      0x00\n      mstore\n      keccak256(0x00, 0x20)\n      swap1\n      0x05\n      mul\n      add\n      0x00\n      swap2\n      pop\n      swap2\n      pop\n      pop\n      dup1\n      0x00\n      add\n      sload\n      swap1\n      dup1\n      0x01\n      add\n      0x00\n      swap1\n      sload\n      swap1\n      0x0100\n      exp\n      swap1\n      div\n      0xffffffffffffffffffffffffffffffffffffffff\n      and\n      swap1\n      dup1\n      0x02\n      add\n      dup1\n      sload\n      tag_55\n      swap1\n      tag_56\n      jump\t// in\n    tag_55:\n      dup1\n      0x1f\n      add\n      0x20\n      dup1\n      swap2\n      div\n      mul\n      0x20\n      add\n      mload(0x40)\n      swap1\n      dup2\n      add\n      0x40\n      mstore\n      dup1\n      swap3\n      swap2\n      swap1\n      dup2\n      dup2\n      mstore\n      0x20\n      add\n      dup3\n      dup1\n      sload\n      tag_57\n      swap1\n      tag_56\n      jump\t// in\n    tag_57:\n      dup1\n      iszero\n      tag_58\n      jumpi\n      dup1\n      0x1f\n      lt\n      tag_59\n      jumpi\n      0x0100\n      dup1\n      dup4\n      sload\n      div\n      mul\n      dup4\n      mstore\n      swap2\n      0x20\n      add\n      swap2\n      jump(tag_58)\n    tag_59:\n      dup3\n      add\n      swap2\n      swap1\n      0x00\n      mstore\n      keccak256(0x00, 0x20)\n      swap1\n    tag_60:\n      dup2\n      sload\n      dup2\n      mstore\n      swap1\n      0x01\n      add\n      swap1\n      0x20\n      add\n      dup1\n      dup4\n      gt\n      tag_60\n      jumpi\n      dup3\n      swap1\n      sub\n      0x1f\n      and\n      dup3\n      add\n      swap2\n    tag_58:\n      pop\n      pop\n      pop\n      pop\n      pop\n      swap1\n      dup1\n      0x03\n      add\n      sload\n      swap1\n      dup1\n      0x04\n      add\n      sload\n      swap1\n      pop\n      dup6\n      jump\t// out\n        /* \"contracts/Twitter.sol\":97:134  uint16 public  MAX_TWEET_Length = 280 */\n    tag_20:\n      0x00\n      dup1\n      sload\n      swap1\n      0x0100\n      exp\n      swap1\n      div\n      0xffff\n      and\n      dup2\n      jump\t// out\n        /* \"contracts/Twitter.sol\":2206:2338  function getalltweets(address _owner) public view returns (Tweet[] memory)... */\n    tag_26:\n        /* \"contracts/Twitter.sol\":2265:2279  Tweet[] memory */\n      0x60\n        /* \"contracts/Twitter.sol\":2312:2318  tweets */\n      0x01\n        /* \"contracts/Twitter.sol\":2312:2326  tweets[_owner] */\n      0x00\n        /* \"contracts/Twitter.sol\":2319:2325  _owner */\n      dup4\n        /* \"contracts/Twitter.sol\":2312:2326  tweets[_owner] */\n      0xffffffffffffffffffffffffffffffffffffffff\n      and\n      0xffffffffffffffffffffffffffffffffffffffff\n      and\n      dup2\n      mstore\n      0x20\n      add\n      swap1\n      dup2\n      mstore\n      0x20\n      add\n      0x00\n      keccak256\n        /* \"contracts/Twitter.sol\":2305:2326  return tweets[_owner] */\n      dup1\n      sload\n      dup1\n      0x20\n      mul\n      0x20\n      add\n      mload(0x40)\n      swap1\n      dup2\n      add\n      0x40\n      mstore\n      dup1\n      swap3\n      swap2\n      swap1\n      dup2\n      dup2\n      mstore\n      0x20\n      add\n      0x00\n      swap1\n    tag_62:\n      dup3\n      dup3\n      lt\n      iszero\n      tag_63\n      jumpi\n      dup4\n      dup3\n      swap1\n      0x00\n      mstore\n      keccak256(0x00, 0x20)\n      swap1\n      0x05\n      mul\n      add\n      mload(0x40)\n      dup1\n      0xa0\n      add\n      0x40\n      mstore\n      swap1\n      dup2\n      0x00\n      dup3\n      add\n      sload\n      dup2\n      mstore\n      0x20\n      add\n      0x01\n      dup3\n      add\n      0x00\n      swap1\n      sload\n      swap1\n      0x0100\n      exp\n      swap1\n      div\n      0xffffffffffffffffffffffffffffffffffffffff\n      and\n      0xffffffffffffffffffffffffffffffffffffffff\n      and\n      0xffffffffffffffffffffffffffffffffffffffff\n      and\n      dup2\n      mstore\n      0x20\n      add\n      0x02\n      dup3\n      add\n      dup1\n      sload\n      tag_65\n      swap1\n      tag_56\n      jump\t// in\n    tag_65:\n      dup1\n      0x1f\n      add\n      0x20\n      dup1\n      swap2\n      div\n      mul\n      0x20\n      add\n      mload(0x40)\n      swap1\n      dup2\n      add\n      0x40\n      mstore\n      dup1\n      swap3\n      swap2\n      swap1\n      dup2\n      dup2\n      mstore\n      0x20\n      add\n      dup3\n      dup1\n      sload\n      tag_66\n      swap1\n      tag_56\n      jump\t// in\n    tag_66:\n      dup1\n      iszero\n      tag_67\n      jumpi\n      dup1\n      0x1f\n      lt\n      tag_68\n      jumpi\n      0x0100\n      dup1\n      dup4\n      sload\n      div\n      mul\n      dup4\n      mstore\n      swap2\n      0x20\n      add\n      swap2\n      jump(tag_67)\n    tag_68:\n      dup3\n      add\n      swap2\n      swap1\n      0x00\n      mstore\n      keccak256(0x00, 0x20)\n      swap1\n    tag_69:\n      dup2\n      sload\n      dup2\n      mstore\n      swap1\n      0x01\n      add\n      swap1\n      0x20\n      add\n      dup1\n      dup4\n      gt\n      tag_69\n      jumpi\n      dup3\n      swap1\n      sub\n      0x1f\n      and\n      dup3\n      add\n      swap2\n    tag_67:\n      pop\n      pop\n      pop\n      pop\n      pop\n      dup2\n      mstore\n      0x20\n      add\n      0x03\n      dup3\n      add\n      sload\n      dup2\n      mstore\n      0x20\n      add\n      0x04\n      dup3\n      add\n      sload\n      dup2\n      mstore\n      pop\n      pop\n      dup2\n      mstore\n      0x20\n      add\n      swap1\n      0x01\n      add\n      swap1\n      jump(tag_62)\n    tag_63:\n      pop\n      pop\n      pop\n      pop\n      swap1\n      pop\n        /* \"contracts/Twitter.sol\":2206:2338  function getalltweets(address _owner) public view returns (Tweet[] memory)... */\n      swap2\n      swap1\n      pop\n      jump\t// out\n        /* \"contracts/Twitter.sol\":1796:1989  function unlikeTweet(address author,uint256 id) external ... */\n    tag_31:\n        /* \"contracts/Twitter.sol\":1910:1912  id */\n      dup1\n        /* \"contracts/Twitter.sol\":1886:1892  tweets */\n      0x01\n        /* \"contracts/Twitter.sol\":1886:1900  tweets[author] */\n      0x00\n        /* \"contracts/Twitter.sol\":1893:1899  author */\n      dup5\n        /* \"contracts/Twitter.sol\":1886:1900  tweets[author] */\n      0xffffffffffffffffffffffffffffffffffffffff\n      and\n      0xffffffffffffffffffffffffffffffffffffffff\n      and\n      dup2\n      mstore\n      0x20\n      add\n      swap1\n      dup2\n      mstore\n      0x20\n      add\n      0x00\n      keccak256\n        /* \"contracts/Twitter.sol\":1901:1903  id */\n      dup3\n        /* \"contracts/Twitter.sol\":1886:1904  tweets[author][id] */\n      dup2\n      sload\n      dup2\n      lt\n      tag_71\n      jumpi\n      tag_72\n      tag_73\n      jump\t// in\n    tag_72:\n    tag_71:\n      swap1\n      0x00\n      mstore\n      keccak256(0x00, 0x20)\n      swap1\n      0x05\n      mul\n      add\n        /* \"contracts/Twitter.sol\":1886:1907  tweets[author][id].id */\n      0x00\n      add\n      sload\n        /* \"contracts/Twitter.sol\":1886:1912  tweets[author][id].id ==id */\n      eq\n        /* \"contracts/Twitter.sol\":1878:1936  require(tweets[author][id].id ==id,\"Tweet Does not exist\") */\n      tag_75\n      jumpi\n      mload(0x40)\n      0x08c379a000000000000000000000000000000000000000000000000000000000\n      dup2\n      mstore\n      0x04\n      add\n      tag_76\n      swap1\n      tag_77\n      jump\t// in\n    tag_76:\n      mload(0x40)\n      dup1\n      swap2\n      sub\n      swap1\n      revert\n    tag_75:\n        /* \"contracts/Twitter.sol\":1951:1957  tweets */\n      0x01\n        /* \"contracts/Twitter.sol\":1951:1965  tweets[author] */\n      0x00\n        /* \"contracts/Twitter.sol\":1958:1964  author */\n      dup4\n        /* \"contracts/Twitter.sol\":1951:1965  tweets[author] */\n      0xffffffffffffffffffffffffffffffffffffffff\n      and\n      0xffffffffffffffffffffffffffffffffffffffff\n      and\n      dup2\n      mstore\n      0x20\n      add\n      swap1\n      dup2\n      mstore\n      0x20\n      add\n      0x00\n      keccak256\n        /* \"contracts/Twitter.sol\":1966:1968  id */\n      dup2\n        /* \"contracts/Twitter.sol\":1951:1969  tweets[author][id] */\n      dup2\n      sload\n      dup2\n      lt\n      tag_78\n      jumpi\n      tag_79\n      tag_73\n      jump\t// in\n    tag_79:\n    tag_78:\n      swap1\n      0x00\n      mstore\n      keccak256(0x00, 0x20)\n      swap1\n      0x05\n      mul\n      add\n        /* \"contracts/Twitter.sol\":1951:1975  tweets[author][id].likes */\n      0x04\n      add\n      0x00\n        /* \"contracts/Twitter.sol\":1951:1977  tweets[author][id].likes-- */\n      dup2\n      sload\n      dup1\n      swap3\n      swap2\n      swap1\n      tag_81\n      swap1\n      tag_82\n      jump\t// in\n    tag_81:\n      swap2\n      swap1\n      pop\n      sstore\n      pop\n        /* \"contracts/Twitter.sol\":1796:1989  function unlikeTweet(address author,uint256 id) external ... */\n      pop\n      pop\n      jump\t// out\n        /* \"contracts/Twitter.sol\":722:840  function changeTweetLength(uint16 newTweetLength) public onlyOwner{... */\n    tag_35:\n        /* \"contracts/Twitter.sol\":611:616  owner */\n      0x02\n      0x00\n      swap1\n      sload\n      swap1\n      0x0100\n      exp\n      swap1\n      div\n      0xffffffffffffffffffffffffffffffffffffffff\n      and\n        /* \"contracts/Twitter.sol\":598:616  msg.sender ==owner */\n      0xffffffffffffffffffffffffffffffffffffffff\n      and\n        /* \"contracts/Twitter.sol\":598:608  msg.sender */\n      caller\n        /* \"contracts/Twitter.sol\":598:616  msg.sender ==owner */\n      0xffffffffffffffffffffffffffffffffffffffff\n      and\n      eq\n        /* \"contracts/Twitter.sol\":590:641  require(msg.sender ==owner,\"YOU ARE NOT THE OWNER\") */\n      tag_84\n      jumpi\n      mload(0x40)\n      0x08c379a000000000000000000000000000000000000000000000000000000000\n      dup2\n      mstore\n      0x04\n      add\n      tag_85\n      swap1\n      tag_86\n      jump\t// in\n    tag_85:\n      mload(0x40)\n      dup1\n      swap2\n      sub\n      swap1\n      revert\n    tag_84:\n        /* \"contracts/Twitter.sol\":818:832  newTweetLength */\n      dup1\n        /* \"contracts/Twitter.sol\":799:815  MAX_TWEET_Length */\n      0x00\n      dup1\n        /* \"contracts/Twitter.sol\":799:832  MAX_TWEET_Length = newTweetLength */\n      0x0100\n      exp\n      dup2\n      sload\n      dup2\n      0xffff\n      mul\n      not\n      and\n      swap1\n      dup4\n      0xffff\n      and\n      mul\n      or\n      swap1\n      sstore\n      pop\n        /* \"contracts/Twitter.sol\":722:840  function changeTweetLength(uint16 newTweetLength) public onlyOwner{... */\n      pop\n      jump\t// out\n        /* \"contracts/Twitter.sol\":1547:1753  function likeTweet(address author, uint256 id) external ... */\n    tag_38:\n        /* \"contracts/Twitter.sol\":1660:1662  id */\n      dup1\n        /* \"contracts/Twitter.sol\":1636:1642  tweets */\n      0x01\n        /* \"contracts/Twitter.sol\":1636:1650  tweets[author] */\n      0x00\n        /* \"contracts/Twitter.sol\":1643:1649  author */\n      dup5\n        /* \"contracts/Twitter.sol\":1636:1650  tweets[author] */\n      0xffffffffffffffffffffffffffffffffffffffff\n      and\n      0xffffffffffffffffffffffffffffffffffffffff\n      and\n      dup2\n      mstore\n      0x20\n      add\n      swap1\n      dup2\n      mstore\n      0x20\n      add\n      0x00\n      keccak256\n        /* \"contracts/Twitter.sol\":1651:1653  id */\n      dup3\n        /* \"contracts/Twitter.sol\":1636:1654  tweets[author][id] */\n      dup2\n      sload\n      dup2\n      lt\n      tag_89\n      jumpi\n      tag_90\n      tag_73\n      jump\t// in\n    tag_90:\n    tag_89:\n      swap1\n      0x00\n      mstore\n      keccak256(0x00, 0x20)\n      swap1\n      0x05\n      mul\n      add\n        /* \"contracts/Twitter.sol\":1636:1657  tweets[author][id].id */\n      0x00\n      add\n      sload\n        /* \"contracts/Twitter.sol\":1636:1662  tweets[author][id].id ==id */\n      eq\n        /* \"contracts/Twitter.sol\":1628:1686  require(tweets[author][id].id ==id,\"Tweet Does not exist\") */\n      tag_92\n      jumpi\n      mload(0x40)\n      0x08c379a000000000000000000000000000000000000000000000000000000000\n      dup2\n      mstore\n      0x04\n      add\n      tag_93\n      swap1\n      tag_77\n      jump\t// in\n    tag_93:\n      mload(0x40)\n      dup1\n      swap2\n      sub\n      swap1\n      revert\n    tag_92:\n        /* \"contracts/Twitter.sol\":1701:1707  tweets */\n      0x01\n        /* \"contracts/Twitter.sol\":1701:1715  tweets[author] */\n      0x00\n        /* \"contracts/Twitter.sol\":1708:1714  author */\n      dup4\n        /* \"contracts/Twitter.sol\":1701:1715  tweets[author] */\n      0xffffffffffffffffffffffffffffffffffffffff\n      and\n      0xffffffffffffffffffffffffffffffffffffffff\n      and\n      dup2\n      mstore\n      0x20\n      add\n      swap1\n      dup2\n      mstore\n      0x20\n      add\n      0x00\n      keccak256\n        /* \"contracts/Twitter.sol\":1716:1718  id */\n      dup2\n        /* \"contracts/Twitter.sol\":1701:1719  tweets[author][id] */\n      dup2\n      sload\n      dup2\n      lt\n      tag_94\n      jumpi\n      tag_95\n      tag_73\n      jump\t// in\n    tag_95:\n    tag_94:\n      swap1\n      0x00\n      mstore\n      keccak256(0x00, 0x20)\n      swap1\n      0x05\n      mul\n      add\n        /* \"contracts/Twitter.sol\":1701:1725  tweets[author][id].likes */\n      0x04\n      add\n      0x00\n        /* \"contracts/Twitter.sol\":1701:1727  tweets[author][id].likes++ */\n      dup2\n      sload\n      dup1\n      swap3\n      swap2\n      swap1\n      tag_97\n      swap1\n      tag_98\n      jump\t// in\n    tag_97:\n      swap2\n      swap1\n      pop\n      sstore\n      pop\n        /* \"contracts/Twitter.sol\":1547:1753  function likeTweet(address author, uint256 id) external ... */\n      pop\n      pop\n      jump\t// out\n        /* \"contracts/Twitter.sol\":860:1388  function createTweet(string memory _tweet) public {... */\n    tag_42:\n        /* \"contracts/Twitter.sol\":1028:1044  MAX_TWEET_Length */\n      0x00\n      dup1\n      sload\n      swap1\n      0x0100\n      exp\n      swap1\n      div\n      0xffff\n      and\n        /* \"contracts/Twitter.sol\":1006:1044  bytes(_tweet).length<=MAX_TWEET_Length */\n      0xffff\n      and\n        /* \"contracts/Twitter.sol\":1012:1018  _tweet */\n      dup2\n        /* \"contracts/Twitter.sol\":1006:1026  bytes(_tweet).length */\n      mload\n        /* \"contracts/Twitter.sol\":1006:1044  bytes(_tweet).length<=MAX_TWEET_Length */\n      gt\n      iszero\n        /* \"contracts/Twitter.sol\":998:1065  require(bytes(_tweet).length<=MAX_TWEET_Length,\"Tweet is too Long\") */\n      tag_100\n      jumpi\n      mload(0x40)\n      0x08c379a000000000000000000000000000000000000000000000000000000000\n      dup2\n      mstore\n      0x04\n      add\n      tag_101\n      swap1\n      tag_102\n      jump\t// in\n    tag_101:\n      mload(0x40)\n      dup1\n      swap2\n      sub\n      swap1\n      revert\n    tag_100:\n        /* \"contracts/Twitter.sol\":1082:1103  Tweet memory newTweet */\n      0x00\n        /* \"contracts/Twitter.sol\":1106:1324  Tweet({... */\n      mload(0x40)\n      dup1\n      0xa0\n      add\n      0x40\n      mstore\n      dup1\n        /* \"contracts/Twitter.sol\":1134:1140  tweets */\n      0x01\n        /* \"contracts/Twitter.sol\":1134:1152  tweets[msg.sender] */\n      0x00\n        /* \"contracts/Twitter.sol\":1141:1151  msg.sender */\n      caller\n        /* \"contracts/Twitter.sol\":1134:1152  tweets[msg.sender] */\n      0xffffffffffffffffffffffffffffffffffffffff\n      and\n      0xffffffffffffffffffffffffffffffffffffffff\n      and\n      dup2\n      mstore\n      0x20\n      add\n      swap1\n      dup2\n      mstore\n      0x20\n      add\n      0x00\n      keccak256\n        /* \"contracts/Twitter.sol\":1134:1159  tweets[msg.sender].length */\n      dup1\n      sload\n      swap1\n      pop\n        /* \"contracts/Twitter.sol\":1106:1324  Tweet({... */\n      dup2\n      mstore\n      0x20\n      add\n        /* \"contracts/Twitter.sol\":1187:1197  msg.sender */\n      caller\n        /* \"contracts/Twitter.sol\":1106:1324  Tweet({... */\n      0xffffffffffffffffffffffffffffffffffffffff\n      and\n      dup2\n      mstore\n      0x20\n      add\n        /* \"contracts/Twitter.sol\":1226:1232  _tweet */\n      dup4\n        /* \"contracts/Twitter.sol\":1106:1324  Tweet({... */\n      dup2\n      mstore\n      0x20\n      add\n        /* \"contracts/Twitter.sol\":1263:1278  block.timestamp */\n      timestamp\n        /* \"contracts/Twitter.sol\":1106:1324  Tweet({... */\n      dup2\n      mstore\n      0x20\n      add\n        /* \"contracts/Twitter.sol\":1305:1306  0 */\n      0x00\n        /* \"contracts/Twitter.sol\":1106:1324  Tweet({... */\n      dup2\n      mstore\n      pop\n        /* \"contracts/Twitter.sol\":1082:1324  Tweet memory newTweet = Tweet({... */\n      swap1\n      pop\n        /* \"contracts/Twitter.sol\":1343:1349  tweets */\n      0x01\n        /* \"contracts/Twitter.sol\":1343:1361  tweets[msg.sender] */\n      0x00\n        /* \"contracts/Twitter.sol\":1350:1360  msg.sender */\n      caller\n        /* \"contracts/Twitter.sol\":1343:1361  tweets[msg.sender] */\n      0xffffffffffffffffffffffffffffffffffffffff\n      and\n      0xffffffffffffffffffffffffffffffffffffffff\n      and\n      dup2\n      mstore\n      0x20\n      add\n      swap1\n      dup2\n      mstore\n      0x20\n      add\n      0x00\n      keccak256\n        /* \"contracts/Twitter.sol\":1367:1375  newTweet */\n      dup2\n        /* \"contracts/Twitter.sol\":1343:1376  tweets[msg.sender].push(newTweet) */\n      swap1\n      dup1\n      0x01\n      dup2\n      sload\n      add\n      dup1\n      dup3\n      sstore\n      dup1\n      swap2\n      pop\n      pop\n      0x01\n      swap1\n      sub\n      swap1\n      0x00\n      mstore\n      keccak256(0x00, 0x20)\n      swap1\n      0x05\n      mul\n      add\n      0x00\n      swap1\n      swap2\n      swap1\n      swap2\n      swap1\n      swap2\n      pop\n      0x00\n      dup3\n      add\n      mload\n      dup2\n      0x00\n      add\n      sstore\n      0x20\n      dup3\n      add\n      mload\n      dup2\n      0x01\n      add\n      exp(0x0100, 0x00)\n      dup2\n      sload\n      dup2\n      0xffffffffffffffffffffffffffffffffffffffff\n      mul\n      not\n      and\n      swap1\n      dup4\n      0xffffffffffffffffffffffffffffffffffffffff\n      and\n      mul\n      or\n      swap1\n      sstore\n      pop\n      0x40\n      dup3\n      add\n      mload\n      dup2\n      0x02\n      add\n      swap1\n      dup2\n      tag_104\n      swap2\n      swap1\n      tag_105\n      jump\t// in\n    tag_104:\n      pop\n      0x60\n      dup3\n      add\n      mload\n      dup2\n      0x03\n      add\n      sstore\n      0x80\n      dup3\n      add\n      mload\n      dup2\n      0x04\n      add\n      sstore\n      pop\n      pop\n        /* \"contracts/Twitter.sol\":910:1388  {... */\n      pop\n        /* \"contracts/Twitter.sol\":860:1388  function createTweet(string memory _tweet) public {... */\n      pop\n      jump\t// out\n        /* \"contracts/Twitter.sol\":411:431  address public owner */\n    tag_44:\n      0x02\n      0x00\n      swap1\n      sload\n      swap1\n      0x0100\n      exp\n      swap1\n      div\n      0xffffffffffffffffffffffffffffffffffffffff\n      and\n      dup2\n      jump\t// out\n        /* \"contracts/Twitter.sol\":2034:2153  function getTweet(uint _i) public view returns (Tweet memory){... */\n    tag_50:\n        /* \"contracts/Twitter.sol\":2082:2094  Tweet memory */\n      tag_106\n      tag_107\n      jump\t// in\n    tag_106:\n        /* \"contracts/Twitter.sol\":2117:2123  tweets */\n      0x01\n        /* \"contracts/Twitter.sol\":2117:2135  tweets[msg.sender] */\n      0x00\n        /* \"contracts/Twitter.sol\":2124:2134  msg.sender */\n      caller\n        /* \"contracts/Twitter.sol\":2117:2135  tweets[msg.sender] */\n      0xffffffffffffffffffffffffffffffffffffffff\n      and\n      0xffffffffffffffffffffffffffffffffffffffff\n      and\n      dup2\n      mstore\n      0x20\n      add\n      swap1\n      dup2\n      mstore\n      0x20\n      add\n      0x00\n      keccak256\n        /* \"contracts/Twitter.sol\":2136:2138  _i */\n      dup3\n        /* \"contracts/Twitter.sol\":2117:2139  tweets[msg.sender][_i] */\n      dup2\n      sload\n      dup2\n      lt\n      tag_109\n      jumpi\n      tag_110\n      tag_73\n      jump\t// in\n    tag_110:\n    tag_109:\n      swap1\n      0x00\n      mstore\n      keccak256(0x00, 0x20)\n      swap1\n      0x05\n      mul\n      add\n        /* \"contracts/Twitter.sol\":2110:2139  return tweets[msg.sender][_i] */\n      mload(0x40)\n      dup1\n      0xa0\n      add\n      0x40\n      mstore\n      swap1\n      dup2\n      0x00\n      dup3\n      add\n      sload\n      dup2\n      mstore\n      0x20\n      add\n      0x01\n      dup3\n      add\n      0x00\n      swap1\n      sload\n      swap1\n      0x0100\n      exp\n      swap1\n      div\n      0xffffffffffffffffffffffffffffffffffffffff\n      and\n      0xffffffffffffffffffffffffffffffffffffffff\n      and\n      0xffffffffffffffffffffffffffffffffffffffff\n      and\n      dup2\n      mstore\n      0x20\n      add\n      0x02\n      dup3\n      add\n      dup1\n      sload\n      tag_112\n      swap1\n      tag_56\n      jump\t// in\n    tag_112:\n      dup1\n      0x1f\n      add\n      0x20\n      dup1\n      swap2\n      div\n      mul\n      0x20\n      add\n      mload(0x40)\n      swap1\n      dup2\n      add\n      0x40\n      mstore\n      dup1\n      swap3\n      swap2\n      swap1\n      dup2\n      dup2\n      mstore\n      0x20\n      add\n      dup3\n      dup1\n      sload\n      tag_113\n      swap1\n      tag_56\n      jump\t// in\n    tag_113:\n      dup1\n      iszero\n      tag_114\n      jumpi\n      dup1\n      0x1f\n      lt\n      tag_115\n      jumpi\n      0x0100\n      dup1\n      dup4\n      sload\n      div\n      mul\n      dup4\n      mstore\n      swap2\n      0x20\n      add\n      swap2\n      jump(tag_114)\n    tag_115:\n      dup3\n      add\n      swap2\n      swap1\n      0x00\n      mstore\n      keccak256(0x00, 0x20)\n      swap1\n    tag_116:\n      dup2\n      sload\n      dup2\n      mstore\n      swap1\n      0x01\n      add\n      swap1\n      0x20\n      add\n      dup1\n      dup4\n      gt\n      tag_116\n      jumpi\n      dup3\n      swap1\n      sub\n      0x1f\n      and\n      dup3\n      add\n      swap2\n    tag_114:\n      pop\n      pop\n      pop\n      pop\n      pop\n      dup2\n      mstore\n      0x20\n      add\n      0x03\n      dup3\n      add\n      sload\n      dup2\n      mstore\n      0x20\n      add\n      0x04\n      dup3\n      add\n      sload\n      dup2\n      mstore\n      pop\n      pop\n      swap1\n      pop\n        /* \"contracts/Twitter.sol\":2034:2153  function getTweet(uint _i) public view returns (Tweet memory){... */\n      swap2\n      swap1\n      pop\n      jump\t// out\n    tag_107:\n      mload(0x40)\n      dup1\n      0xa0\n      add\n      0x40\n      mstore\n      dup1\n      0x00\n      dup2\n      mstore\n      0x20\n      add\n      and(0xffffffffffffffffffffffffffffffffffffffff, 0x00)\n      dup2\n      mstore\n      0x20\n      add\n      0x60\n      dup2\n      mstore\n      0x20\n      add\n      0x00\n      dup2\n      mstore\n      0x20\n      add\n      0x00\n      dup2\n      mstore\n      pop\n      swap1\n      jump\t// out\n        /* \"#utility.yul\":7:82   */\n    tag_117:\n        /* \"#utility.yul\":40:46   */\n      0x00\n        /* \"#utility.yul\":73:75   */\n      0x40\n        /* \"#utility.yul\":67:76   */\n      mload\n        /* \"#utility.yul\":57:76   */\n      swap1\n      pop\n        /* \"#utility.yul\":7:82   */\n      swap1\n      jump\t// out\n        /* \"#utility.yul\":88:205   */\n    tag_118:\n        /* \"#utility.yul\":197:198   */\n      0x00\n        /* \"#utility.yul\":194:195   */\n      dup1\n        /* \"#utility.yul\":187:199   */\n      revert\n        /* \"#utility.yul\":211:328   */\n    tag_119:\n        /* \"#utility.yul\":320:321   */\n      0x00\n        /* \"#utility.yul\":317:318   */\n      dup1\n        /* \"#utility.yul\":310:322   */\n      revert\n        /* \"#utility.yul\":334:460   */\n    tag_120:\n        /* \"#utility.yul\":371:378   */\n      0x00\n        /* \"#utility.yul\":411:453   */\n      0xffffffffffffffffffffffffffffffffffffffff\n        /* \"#utility.yul\":404:409   */\n      dup3\n        /* \"#utility.yul\":400:454   */\n      and\n        /* \"#utility.yul\":389:454   */\n      swap1\n      pop\n        /* \"#utility.yul\":334:460   */\n      swap2\n      swap1\n      pop\n      jump\t// out\n        /* \"#utility.yul\":466:562   */\n    tag_121:\n        /* \"#utility.yul\":503:510   */\n      0x00\n        /* \"#utility.yul\":532:556   */\n      tag_188\n        /* \"#utility.yul\":550:555   */\n      dup3\n        /* \"#utility.yul\":532:556   */\n      tag_120\n      jump\t// in\n    tag_188:\n        /* \"#utility.yul\":521:556   */\n      swap1\n      pop\n        /* \"#utility.yul\":466:562   */\n      swap2\n      swap1\n      pop\n      jump\t// out\n        /* \"#utility.yul\":568:690   */\n    tag_122:\n        /* \"#utility.yul\":641:665   */\n      tag_190\n        /* \"#utility.yul\":659:664   */\n      dup2\n        /* \"#utility.yul\":641:665   */\n      tag_121\n      jump\t// in\n    tag_190:\n        /* \"#utility.yul\":634:639   */\n      dup2\n        /* \"#utility.yul\":631:666   */\n      eq\n        /* \"#utility.yul\":621:684   */\n      tag_191\n      jumpi\n        /* \"#utility.yul\":680:681   */\n      0x00\n        /* \"#utility.yul\":677:678   */\n      dup1\n        /* \"#utility.yul\":670:682   */\n      revert\n        /* \"#utility.yul\":621:684   */\n    tag_191:\n        /* \"#utility.yul\":568:690   */\n      pop\n      jump\t// out\n        /* \"#utility.yul\":696:835   */\n    tag_123:\n        /* \"#utility.yul\":742:747   */\n      0x00\n        /* \"#utility.yul\":780:786   */\n      dup2\n        /* \"#utility.yul\":767:787   */\n      calldataload\n        /* \"#utility.yul\":758:787   */\n      swap1\n      pop\n        /* \"#utility.yul\":796:829   */\n      tag_193\n        /* \"#utility.yul\":823:828   */\n      dup2\n        /* \"#utility.yul\":796:829   */\n      tag_122\n      jump\t// in\n    tag_193:\n        /* \"#utility.yul\":696:835   */\n      swap3\n      swap2\n      pop\n      pop\n      jump\t// out\n        /* \"#utility.yul\":841:918   */\n    tag_124:\n        /* \"#utility.yul\":878:885   */\n      0x00\n        /* \"#utility.yul\":907:912   */\n      dup2\n        /* \"#utility.yul\":896:912   */\n      swap1\n      pop\n        /* \"#utility.yul\":841:918   */\n      swap2\n      swap1\n      pop\n      jump\t// out\n        /* \"#utility.yul\":924:1046   */\n    tag_125:\n        /* \"#utility.yul\":997:1021   */\n      tag_196\n        /* \"#utility.yul\":1015:1020   */\n      dup2\n        /* \"#utility.yul\":997:1021   */\n      tag_124\n      jump\t// in\n    tag_196:\n        /* \"#utility.yul\":990:995   */\n      dup2\n        /* \"#utility.yul\":987:1022   */\n      eq\n        /* \"#utility.yul\":977:1040   */\n      tag_197\n      jumpi\n        /* \"#utility.yul\":1036:1037   */\n      0x00\n        /* \"#utility.yul\":1033:1034   */\n      dup1\n        /* \"#utility.yul\":1026:1038   */\n      revert\n        /* \"#utility.yul\":977:1040   */\n    tag_197:\n        /* \"#utility.yul\":924:1046   */\n      pop\n      jump\t// out\n        /* \"#utility.yul\":1052:1191   */\n    tag_126:\n        /* \"#utility.yul\":1098:1103   */\n      0x00\n        /* \"#utility.yul\":1136:1142   */\n      dup2\n        /* \"#utility.yul\":1123:1143   */\n      calldataload\n        /* \"#utility.yul\":1114:1143   */\n      swap1\n      pop\n        /* \"#utility.yul\":1152:1185   */\n      tag_199\n        /* \"#utility.yul\":1179:1184   */\n      dup2\n        /* \"#utility.yul\":1152:1185   */\n      tag_125\n      jump\t// in\n    tag_199:\n        /* \"#utility.yul\":1052:1191   */\n      swap3\n      swap2\n      pop\n      pop\n      jump\t// out\n        /* \"#utility.yul\":1197:1671   */\n    tag_15:\n        /* \"#utility.yul\":1265:1271   */\n      0x00\n        /* \"#utility.yul\":1273:1279   */\n      dup1\n        /* \"#utility.yul\":1322:1324   */\n      0x40\n        /* \"#utility.yul\":1310:1319   */\n      dup4\n        /* \"#utility.yul\":1301:1308   */\n      dup6\n        /* \"#utility.yul\":1297:1320   */\n      sub\n        /* \"#utility.yul\":1293:1325   */\n      slt\n        /* \"#utility.yul\":1290:1409   */\n      iszero\n      tag_201\n      jumpi\n        /* \"#utility.yul\":1328:1407   */\n      tag_202\n      tag_118\n      jump\t// in\n    tag_202:\n        /* \"#utility.yul\":1290:1409   */\n    tag_201:\n        /* \"#utility.yul\":1448:1449   */\n      0x00\n        /* \"#utility.yul\":1473:1526   */\n      tag_203\n        /* \"#utility.yul\":1518:1525   */\n      dup6\n        /* \"#utility.yul\":1509:1515   */\n      dup3\n        /* \"#utility.yul\":1498:1507   */\n      dup7\n        /* \"#utility.yul\":1494:1516   */\n      add\n        /* \"#utility.yul\":1473:1526   */\n      tag_123\n      jump\t// in\n    tag_203:\n        /* \"#utility.yul\":1463:1526   */\n      swap3\n      pop\n        /* \"#utility.yul\":1419:1536   */\n      pop\n        /* \"#utility.yul\":1575:1577   */\n      0x20\n        /* \"#utility.yul\":1601:1654   */\n      tag_204\n        /* \"#utility.yul\":1646:1653   */\n      dup6\n        /* \"#utility.yul\":1637:1643   */\n      dup3\n        /* \"#utility.yul\":1626:1635   */\n      dup7\n        /* \"#utility.yul\":1622:1644   */\n      add\n        /* \"#utility.yul\":1601:1654   */\n      tag_126\n      jump\t// in\n    tag_204:\n        /* \"#utility.yul\":1591:1654   */\n      swap2\n      pop\n        /* \"#utility.yul\":1546:1664   */\n      pop\n        /* \"#utility.yul\":1197:1671   */\n      swap3\n      pop\n      swap3\n      swap1\n      pop\n      jump\t// out\n        /* \"#utility.yul\":1677:1795   */\n    tag_127:\n        /* \"#utility.yul\":1764:1788   */\n      tag_206\n        /* \"#utility.yul\":1782:1787   */\n      dup2\n        /* \"#utility.yul\":1764:1788   */\n      tag_124\n      jump\t// in\n    tag_206:\n        /* \"#utility.yul\":1759:1762   */\n      dup3\n        /* \"#utility.yul\":1752:1789   */\n      mstore\n        /* \"#utility.yul\":1677:1795   */\n      pop\n      pop\n      jump\t// out\n        /* \"#utility.yul\":1801:1919   */\n    tag_128:\n        /* \"#utility.yul\":1888:1912   */\n      tag_208\n        /* \"#utility.yul\":1906:1911   */\n      dup2\n        /* \"#utility.yul\":1888:1912   */\n      tag_121\n      jump\t// in\n    tag_208:\n        /* \"#utility.yul\":1883:1886   */\n      dup3\n        /* \"#utility.yul\":1876:1913   */\n      mstore\n        /* \"#utility.yul\":1801:1919   */\n      pop\n      pop\n      jump\t// out\n        /* \"#utility.yul\":1925:2024   */\n    tag_129:\n        /* \"#utility.yul\":1977:1983   */\n      0x00\n        /* \"#utility.yul\":2011:2016   */\n      dup2\n        /* \"#utility.yul\":2005:2017   */\n      mload\n        /* \"#utility.yul\":1995:2017   */\n      swap1\n      pop\n        /* \"#utility.yul\":1925:2024   */\n      swap2\n      swap1\n      pop\n      jump\t// out\n        /* \"#utility.yul\":2030:2199   */\n    tag_130:\n        /* \"#utility.yul\":2114:2125   */\n      0x00\n        /* \"#utility.yul\":2148:2154   */\n      dup3\n        /* \"#utility.yul\":2143:2146   */\n      dup3\n        /* \"#utility.yul\":2136:2155   */\n      mstore\n        /* \"#utility.yul\":2188:2192   */\n      0x20\n        /* \"#utility.yul\":2183:2186   */\n      dup3\n        /* \"#utility.yul\":2179:2193   */\n      add\n        /* \"#utility.yul\":2164:2193   */\n      swap1\n      pop\n        /* \"#utility.yul\":2030:2199   */\n      swap3\n      swap2\n      pop\n      pop\n      jump\t// out\n        /* \"#utility.yul\":2205:2451   */\n    tag_131:\n        /* \"#utility.yul\":2286:2287   */\n      0x00\n        /* \"#utility.yul\":2296:2409   */\n    tag_212:\n        /* \"#utility.yul\":2310:2316   */\n      dup4\n        /* \"#utility.yul\":2307:2308   */\n      dup2\n        /* \"#utility.yul\":2304:2317   */\n      lt\n        /* \"#utility.yul\":2296:2409   */\n      iszero\n      tag_214\n      jumpi\n        /* \"#utility.yul\":2395:2396   */\n      dup1\n        /* \"#utility.yul\":2390:2393   */\n      dup3\n        /* \"#utility.yul\":2386:2397   */\n      add\n        /* \"#utility.yul\":2380:2398   */\n      mload\n        /* \"#utility.yul\":2376:2377   */\n      dup2\n        /* \"#utility.yul\":2371:2374   */\n      dup5\n        /* \"#utility.yul\":2367:2378   */\n      add\n        /* \"#utility.yul\":2360:2399   */\n      mstore\n        /* \"#utility.yul\":2332:2334   */\n      0x20\n        /* \"#utility.yul\":2329:2330   */\n      dup2\n        /* \"#utility.yul\":2325:2335   */\n      add\n        /* \"#utility.yul\":2320:2335   */\n      swap1\n      pop\n        /* \"#utility.yul\":2296:2409   */\n      jump(tag_212)\n    tag_214:\n        /* \"#utility.yul\":2443:2444   */\n      0x00\n        /* \"#utility.yul\":2434:2440   */\n      dup5\n        /* \"#utility.yul\":2429:2432   */\n      dup5\n        /* \"#utility.yul\":2425:2441   */\n      add\n        /* \"#utility.yul\":2418:2445   */\n      mstore\n        /* \"#utility.yul\":2267:2451   */\n      pop\n        /* \"#utility.yul\":2205:2451   */\n      pop\n      pop\n      pop\n      jump\t// out\n        /* \"#utility.yul\":2457:2559   */\n    tag_132:\n        /* \"#utility.yul\":2498:2504   */\n      0x00\n        /* \"#utility.yul\":2549:2551   */\n      0x1f\n        /* \"#utility.yul\":2545:2552   */\n      not\n        /* \"#utility.yul\":2540:2542   */\n      0x1f\n        /* \"#utility.yul\":2533:2538   */\n      dup4\n        /* \"#utility.yul\":2529:2543   */\n      add\n        /* \"#utility.yul\":2525:2553   */\n      and\n        /* \"#utility.yul\":2515:2553   */\n      swap1\n      pop\n        /* \"#utility.yul\":2457:2559   */\n      swap2\n      swap1\n      pop\n      jump\t// out\n        /* \"#utility.yul\":2565:2942   */\n    tag_133:\n        /* \"#utility.yul\":2653:2656   */\n      0x00\n        /* \"#utility.yul\":2681:2720   */\n      tag_217\n        /* \"#utility.yul\":2714:2719   */\n      dup3\n        /* \"#utility.yul\":2681:2720   */\n      tag_129\n      jump\t// in\n    tag_217:\n        /* \"#utility.yul\":2736:2807   */\n      tag_218\n        /* \"#utility.yul\":2800:2806   */\n      dup2\n        /* \"#utility.yul\":2795:2798   */\n      dup6\n        /* \"#utility.yul\":2736:2807   */\n      tag_130\n      jump\t// in\n    tag_218:\n        /* \"#utility.yul\":2729:2807   */\n      swap4\n      pop\n        /* \"#utility.yul\":2816:2881   */\n      tag_219\n        /* \"#utility.yul\":2874:2880   */\n      dup2\n        /* \"#utility.yul\":2869:2872   */\n      dup6\n        /* \"#utility.yul\":2862:2866   */\n      0x20\n        /* \"#utility.yul\":2855:2860   */\n      dup7\n        /* \"#utility.yul\":2851:2867   */\n      add\n        /* \"#utility.yul\":2816:2881   */\n      tag_131\n      jump\t// in\n    tag_219:\n        /* \"#utility.yul\":2906:2935   */\n      tag_220\n        /* \"#utility.yul\":2928:2934   */\n      dup2\n        /* \"#utility.yul\":2906:2935   */\n      tag_132\n      jump\t// in\n    tag_220:\n        /* \"#utility.yul\":2901:2904   */\n      dup5\n        /* \"#utility.yul\":2897:2936   */\n      add\n        /* \"#utility.yul\":2890:2936   */\n      swap2\n      pop\n        /* \"#utility.yul\":2657:2942   */\n      pop\n        /* \"#utility.yul\":2565:2942   */\n      swap3\n      swap2\n      pop\n      pop\n      jump\t// out\n        /* \"#utility.yul\":2948:3703   */\n    tag_18:\n        /* \"#utility.yul\":3173:3177   */\n      0x00\n        /* \"#utility.yul\":3211:3214   */\n      0xa0\n        /* \"#utility.yul\":3200:3209   */\n      dup3\n        /* \"#utility.yul\":3196:3215   */\n      add\n        /* \"#utility.yul\":3188:3215   */\n      swap1\n      pop\n        /* \"#utility.yul\":3225:3296   */\n      tag_222\n        /* \"#utility.yul\":3293:3294   */\n      0x00\n        /* \"#utility.yul\":3282:3291   */\n      dup4\n        /* \"#utility.yul\":3278:3295   */\n      add\n        /* \"#utility.yul\":3269:3275   */\n      dup9\n        /* \"#utility.yul\":3225:3296   */\n      tag_127\n      jump\t// in\n    tag_222:\n        /* \"#utility.yul\":3306:3378   */\n      tag_223\n        /* \"#utility.yul\":3374:3376   */\n      0x20\n        /* \"#utility.yul\":3363:3372   */\n      dup4\n        /* \"#utility.yul\":3359:3377   */\n      add\n        /* \"#utility.yul\":3350:3356   */\n      dup8\n        /* \"#utility.yul\":3306:3378   */\n      tag_128\n      jump\t// in\n    tag_223:\n        /* \"#utility.yul\":3425:3434   */\n      dup2\n        /* \"#utility.yul\":3419:3423   */\n      dup2\n        /* \"#utility.yul\":3415:3435   */\n      sub\n        /* \"#utility.yul\":3410:3412   */\n      0x40\n        /* \"#utility.yul\":3399:3408   */\n      dup4\n        /* \"#utility.yul\":3395:3413   */\n      add\n        /* \"#utility.yul\":3388:3436   */\n      mstore\n        /* \"#utility.yul\":3453:3531   */\n      tag_224\n        /* \"#utility.yul\":3526:3530   */\n      dup2\n        /* \"#utility.yul\":3517:3523   */\n      dup7\n        /* \"#utility.yul\":3453:3531   */\n      tag_133\n      jump\t// in\n    tag_224:\n        /* \"#utility.yul\":3445:3531   */\n      swap1\n      pop\n        /* \"#utility.yul\":3541:3613   */\n      tag_225\n        /* \"#utility.yul\":3609:3611   */\n      0x60\n        /* \"#utility.yul\":3598:3607   */\n      dup4\n        /* \"#utility.yul\":3594:3612   */\n      add\n        /* \"#utility.yul\":3585:3591   */\n      dup6\n        /* \"#utility.yul\":3541:3613   */\n      tag_127\n      jump\t// in\n    tag_225:\n        /* \"#utility.yul\":3623:3696   */\n      tag_226\n        /* \"#utility.yul\":3691:3694   */\n      0x80\n        /* \"#utility.yul\":3680:3689   */\n      dup4\n        /* \"#utility.yul\":3676:3695   */\n      add\n        /* \"#utility.yul\":3667:3673   */\n      dup5\n        /* \"#utility.yul\":3623:3696   */\n      tag_127\n      jump\t// in\n    tag_226:\n        /* \"#utility.yul\":2948:3703   */\n      swap7\n      swap6\n      pop\n      pop\n      pop\n      pop\n      pop\n      pop\n      jump\t// out\n        /* \"#utility.yul\":3709:3798   */\n    tag_134:\n        /* \"#utility.yul\":3745:3752   */\n      0x00\n        /* \"#utility.yul\":3785:3791   */\n      0xffff\n        /* \"#utility.yul\":3778:3783   */\n      dup3\n        /* \"#utility.yul\":3774:3792   */\n      and\n        /* \"#utility.yul\":3763:3792   */\n      swap1\n      pop\n        /* \"#utility.yul\":3709:3798   */\n      swap2\n      swap1\n      pop\n      jump\t// out\n        /* \"#utility.yul\":3804:3919   */\n    tag_135:\n        /* \"#utility.yul\":3889:3912   */\n      tag_229\n        /* \"#utility.yul\":3906:3911   */\n      dup2\n        /* \"#utility.yul\":3889:3912   */\n      tag_134\n      jump\t// in\n    tag_229:\n        /* \"#utility.yul\":3884:3887   */\n      dup3\n        /* \"#utility.yul\":3877:3913   */\n      mstore\n        /* \"#utility.yul\":3804:3919   */\n      pop\n      pop\n      jump\t// out\n        /* \"#utility.yul\":3925:4143   */\n    tag_22:\n        /* \"#utility.yul\":4016:4020   */\n      0x00\n        /* \"#utility.yul\":4054:4056   */\n      0x20\n        /* \"#utility.yul\":4043:4052   */\n      dup3\n        /* \"#utility.yul\":4039:4057   */\n      add\n        /* \"#utility.yul\":4031:4057   */\n      swap1\n      pop\n        /* \"#utility.yul\":4067:4136   */\n      tag_231\n        /* \"#utility.yul\":4133:4134   */\n      0x00\n        /* \"#utility.yul\":4122:4131   */\n      dup4\n        /* \"#utility.yul\":4118:4135   */\n      add\n        /* \"#utility.yul\":4109:4115   */\n      dup5\n        /* \"#utility.yul\":4067:4136   */\n      tag_135\n      jump\t// in\n    tag_231:\n        /* \"#utility.yul\":3925:4143   */\n      swap3\n      swap2\n      pop\n      pop\n      jump\t// out\n        /* \"#utility.yul\":4149:4478   */\n    tag_25:\n        /* \"#utility.yul\":4208:4214   */\n      0x00\n        /* \"#utility.yul\":4257:4259   */\n      0x20\n        /* \"#utility.yul\":4245:4254   */\n      dup3\n        /* \"#utility.yul\":4236:4243   */\n      dup5\n        /* \"#utility.yul\":4232:4255   */\n      sub\n        /* \"#utility.yul\":4228:4260   */\n      slt\n        /* \"#utility.yul\":4225:4344   */\n      iszero\n      tag_233\n      jumpi\n        /* \"#utility.yul\":4263:4342   */\n      tag_234\n      tag_118\n      jump\t// in\n    tag_234:\n        /* \"#utility.yul\":4225:4344   */\n    tag_233:\n        /* \"#utility.yul\":4383:4384   */\n      0x00\n        /* \"#utility.yul\":4408:4461   */\n      tag_235\n        /* \"#utility.yul\":4453:4460   */\n      dup5\n        /* \"#utility.yul\":4444:4450   */\n      dup3\n        /* \"#utility.yul\":4433:4442   */\n      dup6\n        /* \"#utility.yul\":4429:4451   */\n      add\n        /* \"#utility.yul\":4408:4461   */\n      tag_123\n      jump\t// in\n    tag_235:\n        /* \"#utility.yul\":4398:4461   */\n      swap2\n      pop\n        /* \"#utility.yul\":4354:4471   */\n      pop\n        /* \"#utility.yul\":4149:4478   */\n      swap3\n      swap2\n      pop\n      pop\n      jump\t// out\n        /* \"#utility.yul\":4484:4619   */\n    tag_136:\n        /* \"#utility.yul\":4572:4578   */\n      0x00\n        /* \"#utility.yul\":4606:4611   */\n      dup2\n        /* \"#utility.yul\":4600:4612   */\n      mload\n        /* \"#utility.yul\":4590:4612   */\n      swap1\n      pop\n        /* \"#utility.yul\":4484:4619   */\n      swap2\n      swap1\n      pop\n      jump\t// out\n        /* \"#utility.yul\":4625:4830   */\n    tag_137:\n        /* \"#utility.yul\":4745:4756   */\n      0x00\n        /* \"#utility.yul\":4779:4785   */\n      dup3\n        /* \"#utility.yul\":4774:4777   */\n      dup3\n        /* \"#utility.yul\":4767:4786   */\n      mstore\n        /* \"#utility.yul\":4819:4823   */\n      0x20\n        /* \"#utility.yul\":4814:4817   */\n      dup3\n        /* \"#utility.yul\":4810:4824   */\n      add\n        /* \"#utility.yul\":4795:4824   */\n      swap1\n      pop\n        /* \"#utility.yul\":4625:4830   */\n      swap3\n      swap2\n      pop\n      pop\n      jump\t// out\n        /* \"#utility.yul\":4836:4989   */\n    tag_138:\n        /* \"#utility.yul\":4924:4928   */\n      0x00\n        /* \"#utility.yul\":4947:4950   */\n      dup2\n        /* \"#utility.yul\":4939:4950   */\n      swap1\n      pop\n        /* \"#utility.yul\":4977:4981   */\n      0x20\n        /* \"#utility.yul\":4972:4975   */\n      dup3\n        /* \"#utility.yul\":4968:4982   */\n      add\n        /* \"#utility.yul\":4960:4982   */\n      swap1\n      pop\n        /* \"#utility.yul\":4836:4989   */\n      swap2\n      swap1\n      pop\n      jump\t// out\n        /* \"#utility.yul\":4995:5103   */\n    tag_139:\n        /* \"#utility.yul\":5072:5096   */\n      tag_240\n        /* \"#utility.yul\":5090:5095   */\n      dup2\n        /* \"#utility.yul\":5072:5096   */\n      tag_124\n      jump\t// in\n    tag_240:\n        /* \"#utility.yul\":5067:5070   */\n      dup3\n        /* \"#utility.yul\":5060:5097   */\n      mstore\n        /* \"#utility.yul\":4995:5103   */\n      pop\n      pop\n      jump\t// out\n        /* \"#utility.yul\":5109:5217   */\n    tag_140:\n        /* \"#utility.yul\":5186:5210   */\n      tag_242\n        /* \"#utility.yul\":5204:5209   */\n      dup2\n        /* \"#utility.yul\":5186:5210   */\n      tag_121\n      jump\t// in\n    tag_242:\n        /* \"#utility.yul\":5181:5184   */\n      dup3\n        /* \"#utility.yul\":5174:5211   */\n      mstore\n        /* \"#utility.yul\":5109:5217   */\n      pop\n      pop\n      jump\t// out\n        /* \"#utility.yul\":5223:5382   */\n    tag_141:\n        /* \"#utility.yul\":5297:5308   */\n      0x00\n        /* \"#utility.yul\":5331:5337   */\n      dup3\n        /* \"#utility.yul\":5326:5329   */\n      dup3\n        /* \"#utility.yul\":5319:5338   */\n      mstore\n        /* \"#utility.yul\":5371:5375   */\n      0x20\n        /* \"#utility.yul\":5366:5369   */\n      dup3\n        /* \"#utility.yul\":5362:5376   */\n      add\n        /* \"#utility.yul\":5347:5376   */\n      swap1\n      pop\n        /* \"#utility.yul\":5223:5382   */\n      swap3\n      swap2\n      pop\n      pop\n      jump\t// out\n        /* \"#utility.yul\":5388:5745   */\n    tag_142:\n        /* \"#utility.yul\":5466:5469   */\n      0x00\n        /* \"#utility.yul\":5494:5533   */\n      tag_245\n        /* \"#utility.yul\":5527:5532   */\n      dup3\n        /* \"#utility.yul\":5494:5533   */\n      tag_129\n      jump\t// in\n    tag_245:\n        /* \"#utility.yul\":5549:5610   */\n      tag_246\n        /* \"#utility.yul\":5603:5609   */\n      dup2\n        /* \"#utility.yul\":5598:5601   */\n      dup6\n        /* \"#utility.yul\":5549:5610   */\n      tag_141\n      jump\t// in\n    tag_246:\n        /* \"#utility.yul\":5542:5610   */\n      swap4\n      pop\n        /* \"#utility.yul\":5619:5684   */\n      tag_247\n        /* \"#utility.yul\":5677:5683   */\n      dup2\n        /* \"#utility.yul\":5672:5675   */\n      dup6\n        /* \"#utility.yul\":5665:5669   */\n      0x20\n        /* \"#utility.yul\":5658:5663   */\n      dup7\n        /* \"#utility.yul\":5654:5670   */\n      add\n        /* \"#utility.yul\":5619:5684   */\n      tag_131\n      jump\t// in\n    tag_247:\n        /* \"#utility.yul\":5709:5738   */\n      tag_248\n        /* \"#utility.yul\":5731:5737   */\n      dup2\n        /* \"#utility.yul\":5709:5738   */\n      tag_132\n      jump\t// in\n    tag_248:\n        /* \"#utility.yul\":5704:5707   */\n      dup5\n        /* \"#utility.yul\":5700:5739   */\n      add\n        /* \"#utility.yul\":5693:5739   */\n      swap2\n      pop\n        /* \"#utility.yul\":5470:5745   */\n      pop\n        /* \"#utility.yul\":5388:5745   */\n      swap3\n      swap2\n      pop\n      pop\n      jump\t// out\n        /* \"#utility.yul\":5803:6922   */\n    tag_143:\n        /* \"#utility.yul\":5904:5907   */\n      0x00\n        /* \"#utility.yul\":5940:5944   */\n      0xa0\n        /* \"#utility.yul\":5935:5938   */\n      dup4\n        /* \"#utility.yul\":5931:5945   */\n      add\n        /* \"#utility.yul\":6025:6029   */\n      0x00\n        /* \"#utility.yul\":6018:6023   */\n      dup4\n        /* \"#utility.yul\":6014:6030   */\n      add\n        /* \"#utility.yul\":6008:6031   */\n      mload\n        /* \"#utility.yul\":6044:6107   */\n      tag_250\n        /* \"#utility.yul\":6101:6105   */\n      0x00\n        /* \"#utility.yul\":6096:6099   */\n      dup7\n        /* \"#utility.yul\":6092:6106   */\n      add\n        /* \"#utility.yul\":6078:6090   */\n      dup3\n        /* \"#utility.yul\":6044:6107   */\n      tag_139\n      jump\t// in\n    tag_250:\n        /* \"#utility.yul\":5955:6117   */\n      pop\n        /* \"#utility.yul\":6201:6205   */\n      0x20\n        /* \"#utility.yul\":6194:6199   */\n      dup4\n        /* \"#utility.yul\":6190:6206   */\n      add\n        /* \"#utility.yul\":6184:6207   */\n      mload\n        /* \"#utility.yul\":6220:6283   */\n      tag_251\n        /* \"#utility.yul\":6277:6281   */\n      0x20\n        /* \"#utility.yul\":6272:6275   */\n      dup7\n        /* \"#utility.yul\":6268:6282   */\n      add\n        /* \"#utility.yul\":6254:6266   */\n      dup3\n        /* \"#utility.yul\":6220:6283   */\n      tag_140\n      jump\t// in\n    tag_251:\n        /* \"#utility.yul\":6127:6293   */\n      pop\n        /* \"#utility.yul\":6378:6382   */\n      0x40\n        /* \"#utility.yul\":6371:6376   */\n      dup4\n        /* \"#utility.yul\":6367:6383   */\n      add\n        /* \"#utility.yul\":6361:6384   */\n      mload\n        /* \"#utility.yul\":6431:6434   */\n      dup5\n        /* \"#utility.yul\":6425:6429   */\n      dup3\n        /* \"#utility.yul\":6421:6435   */\n      sub\n        /* \"#utility.yul\":6414:6418   */\n      0x40\n        /* \"#utility.yul\":6409:6412   */\n      dup7\n        /* \"#utility.yul\":6405:6419   */\n      add\n        /* \"#utility.yul\":6398:6436   */\n      mstore\n        /* \"#utility.yul\":6457:6530   */\n      tag_252\n        /* \"#utility.yul\":6525:6529   */\n      dup3\n        /* \"#utility.yul\":6511:6523   */\n      dup3\n        /* \"#utility.yul\":6457:6530   */\n      tag_142\n      jump\t// in\n    tag_252:\n        /* \"#utility.yul\":6449:6530   */\n      swap2\n      pop\n        /* \"#utility.yul\":6303:6541   */\n      pop\n        /* \"#utility.yul\":6628:6632   */\n      0x60\n        /* \"#utility.yul\":6621:6626   */\n      dup4\n        /* \"#utility.yul\":6617:6633   */\n      add\n        /* \"#utility.yul\":6611:6634   */\n      mload\n        /* \"#utility.yul\":6647:6710   */\n      tag_253\n        /* \"#utility.yul\":6704:6708   */\n      0x60\n        /* \"#utility.yul\":6699:6702   */\n      dup7\n        /* \"#utility.yul\":6695:6709   */\n      add\n        /* \"#utility.yul\":6681:6693   */\n      dup3\n        /* \"#utility.yul\":6647:6710   */\n      tag_139\n      jump\t// in\n    tag_253:\n        /* \"#utility.yul\":6551:6720   */\n      pop\n        /* \"#utility.yul\":6803:6807   */\n      0x80\n        /* \"#utility.yul\":6796:6801   */\n      dup4\n        /* \"#utility.yul\":6792:6808   */\n      add\n        /* \"#utility.yul\":6786:6809   */\n      mload\n        /* \"#utility.yul\":6822:6885   */\n      tag_254\n        /* \"#utility.yul\":6879:6883   */\n      0x80\n        /* \"#utility.yul\":6874:6877   */\n      dup7\n        /* \"#utility.yul\":6870:6884   */\n      add\n        /* \"#utility.yul\":6856:6868   */\n      dup3\n        /* \"#utility.yul\":6822:6885   */\n      tag_139\n      jump\t// in\n    tag_254:\n        /* \"#utility.yul\":6730:6895   */\n      pop\n        /* \"#utility.yul\":6912:6916   */\n      dup1\n        /* \"#utility.yul\":6905:6916   */\n      swap2\n      pop\n        /* \"#utility.yul\":5909:6922   */\n      pop\n        /* \"#utility.yul\":5803:6922   */\n      swap3\n      swap2\n      pop\n      pop\n      jump\t// out\n        /* \"#utility.yul\":6928:7168   */\n    tag_144:\n        /* \"#utility.yul\":7039:7049   */\n      0x00\n        /* \"#utility.yul\":7074:7162   */\n      tag_256\n        /* \"#utility.yul\":7158:7161   */\n      dup4\n        /* \"#utility.yul\":7150:7156   */\n      dup4\n        /* \"#utility.yul\":7074:7162   */\n      tag_143\n      jump\t// in\n    tag_256:\n        /* \"#utility.yul\":7060:7162   */\n      swap1\n      pop\n        /* \"#utility.yul\":6928:7168   */\n      swap3\n      swap2\n      pop\n      pop\n      jump\t// out\n        /* \"#utility.yul\":7174:7308   */\n    tag_145:\n        /* \"#utility.yul\":7265:7269   */\n      0x00\n        /* \"#utility.yul\":7297:7301   */\n      0x20\n        /* \"#utility.yul\":7292:7295   */\n      dup3\n        /* \"#utility.yul\":7288:7302   */\n      add\n        /* \"#utility.yul\":7280:7302   */\n      swap1\n      pop\n        /* \"#utility.yul\":7174:7308   */\n      swap2\n      swap1\n      pop\n      jump\t// out\n        /* \"#utility.yul\":7370:8449   */\n    tag_146:\n        /* \"#utility.yul\":7531:7534   */\n      0x00\n        /* \"#utility.yul\":7560:7635   */\n      tag_259\n        /* \"#utility.yul\":7629:7634   */\n      dup3\n        /* \"#utility.yul\":7560:7635   */\n      tag_136\n      jump\t// in\n    tag_259:\n        /* \"#utility.yul\":7651:7758   */\n      tag_260\n        /* \"#utility.yul\":7751:7757   */\n      dup2\n        /* \"#utility.yul\":7746:7749   */\n      dup6\n        /* \"#utility.yul\":7651:7758   */\n      tag_137\n      jump\t// in\n    tag_260:\n        /* \"#utility.yul\":7644:7758   */\n      swap4\n      pop\n        /* \"#utility.yul\":7784:7787   */\n      dup4\n        /* \"#utility.yul\":7829:7833   */\n      0x20\n        /* \"#utility.yul\":7821:7827   */\n      dup3\n        /* \"#utility.yul\":7817:7834   */\n      mul\n        /* \"#utility.yul\":7812:7815   */\n      dup6\n        /* \"#utility.yul\":7808:7835   */\n      add\n        /* \"#utility.yul\":7859:7936   */\n      tag_261\n        /* \"#utility.yul\":7930:7935   */\n      dup6\n        /* \"#utility.yul\":7859:7936   */\n      tag_138\n      jump\t// in\n    tag_261:\n        /* \"#utility.yul\":7959:7966   */\n      dup1\n        /* \"#utility.yul\":7990:7991   */\n      0x00\n        /* \"#utility.yul\":7975:8404   */\n    tag_262:\n        /* \"#utility.yul\":8000:8006   */\n      dup6\n        /* \"#utility.yul\":7997:7998   */\n      dup2\n        /* \"#utility.yul\":7994:8007   */\n      lt\n        /* \"#utility.yul\":7975:8404   */\n      iszero\n      tag_264\n      jumpi\n        /* \"#utility.yul\":8071:8080   */\n      dup5\n        /* \"#utility.yul\":8065:8069   */\n      dup5\n        /* \"#utility.yul\":8061:8081   */\n      sub\n        /* \"#utility.yul\":8056:8059   */\n      dup10\n        /* \"#utility.yul\":8049:8082   */\n      mstore\n        /* \"#utility.yul\":8122:8128   */\n      dup2\n        /* \"#utility.yul\":8116:8129   */\n      mload\n        /* \"#utility.yul\":8150:8256   */\n      tag_265\n        /* \"#utility.yul\":8251:8255   */\n      dup6\n        /* \"#utility.yul\":8236:8249   */\n      dup3\n        /* \"#utility.yul\":8150:8256   */\n      tag_144\n      jump\t// in\n    tag_265:\n        /* \"#utility.yul\":8142:8256   */\n      swap5\n      pop\n        /* \"#utility.yul\":8279:8360   */\n      tag_266\n        /* \"#utility.yul\":8353:8359   */\n      dup4\n        /* \"#utility.yul\":8279:8360   */\n      tag_145\n      jump\t// in\n    tag_266:\n        /* \"#utility.yul\":8269:8360   */\n      swap3\n      pop\n        /* \"#utility.yul\":8389:8393   */\n      0x20\n        /* \"#utility.yul\":8384:8387   */\n      dup11\n        /* \"#utility.yul\":8380:8394   */\n      add\n        /* \"#utility.yul\":8373:8394   */\n      swap10\n      pop\n        /* \"#utility.yul\":8035:8404   */\n      pop\n        /* \"#utility.yul\":8022:8023   */\n      0x01\n        /* \"#utility.yul\":8019:8020   */\n      dup2\n        /* \"#utility.yul\":8015:8024   */\n      add\n        /* \"#utility.yul\":8010:8024   */\n      swap1\n      pop\n        /* \"#utility.yul\":7975:8404   */\n      jump(tag_262)\n    tag_264:\n        /* \"#utility.yul\":7979:7993   */\n      pop\n        /* \"#utility.yul\":8420:8424   */\n      dup3\n        /* \"#utility.yul\":8413:8424   */\n      swap8\n      pop\n        /* \"#utility.yul\":8440:8443   */\n      dup8\n        /* \"#utility.yul\":8433:8443   */\n      swap6\n      pop\n        /* \"#utility.yul\":7536:8449   */\n      pop\n      pop\n      pop\n      pop\n      pop\n        /* \"#utility.yul\":7370:8449   */\n      swap3\n      swap2\n      pop\n      pop\n      jump\t// out\n        /* \"#utility.yul\":8455:8912   */\n    tag_28:\n        /* \"#utility.yul\":8640:8644   */\n      0x00\n        /* \"#utility.yul\":8678:8680   */\n      0x20\n        /* \"#utility.yul\":8667:8676   */\n      dup3\n        /* \"#utility.yul\":8663:8681   */\n      add\n        /* \"#utility.yul\":8655:8681   */\n      swap1\n      pop\n        /* \"#utility.yul\":8727:8736   */\n      dup2\n        /* \"#utility.yul\":8721:8725   */\n      dup2\n        /* \"#utility.yul\":8717:8737   */\n      sub\n        /* \"#utility.yul\":8713:8714   */\n      0x00\n        /* \"#utility.yul\":8702:8711   */\n      dup4\n        /* \"#utility.yul\":8698:8715   */\n      add\n        /* \"#utility.yul\":8691:8738   */\n      mstore\n        /* \"#utility.yul\":8755:8905   */\n      tag_268\n        /* \"#utility.yul\":8900:8904   */\n      dup2\n        /* \"#utility.yul\":8891:8897   */\n      dup5\n        /* \"#utility.yul\":8755:8905   */\n      tag_146\n      jump\t// in\n    tag_268:\n        /* \"#utility.yul\":8747:8905   */\n      swap1\n      pop\n        /* \"#utility.yul\":8455:8912   */\n      swap3\n      swap2\n      pop\n      pop\n      jump\t// out\n        /* \"#utility.yul\":8918:9038   */\n    tag_147:\n        /* \"#utility.yul\":8990:9013   */\n      tag_270\n        /* \"#utility.yul\":9007:9012   */\n      dup2\n        /* \"#utility.yul\":8990:9013   */\n      tag_134\n      jump\t// in\n    tag_270:\n        /* \"#utility.yul\":8983:8988   */\n      dup2\n        /* \"#utility.yul\":8980:9014   */\n      eq\n        /* \"#utility.yul\":8970:9032   */\n      tag_271\n      jumpi\n        /* \"#utility.yul\":9028:9029   */\n      0x00\n        /* \"#utility.yul\":9025:9026   */\n      dup1\n        /* \"#utility.yul\":9018:9030   */\n      revert\n        /* \"#utility.yul\":8970:9032   */\n    tag_271:\n        /* \"#utility.yul\":8918:9038   */\n      pop\n      jump\t// out\n        /* \"#utility.yul\":9044:9181   */\n    tag_148:\n        /* \"#utility.yul\":9089:9094   */\n      0x00\n        /* \"#utility.yul\":9127:9133   */\n      dup2\n        /* \"#utility.yul\":9114:9134   */\n      calldataload\n        /* \"#utility.yul\":9105:9134   */\n      swap1\n      pop\n        /* \"#utility.yul\":9143:9175   */\n      tag_273\n        /* \"#utility.yul\":9169:9174   */\n      dup2\n        /* \"#utility.yul\":9143:9175   */\n      tag_147\n      jump\t// in\n    tag_273:\n        /* \"#utility.yul\":9044:9181   */\n      swap3\n      swap2\n      pop\n      pop\n      jump\t// out\n        /* \"#utility.yul\":9187:9514   */\n    tag_34:\n        /* \"#utility.yul\":9245:9251   */\n      0x00\n        /* \"#utility.yul\":9294:9296   */\n      0x20\n        /* \"#utility.yul\":9282:9291   */\n      dup3\n        /* \"#utility.yul\":9273:9280   */\n      dup5\n        /* \"#utility.yul\":9269:9292   */\n      sub\n        /* \"#utility.yul\":9265:9297   */\n      slt\n        /* \"#utility.yul\":9262:9381   */\n      iszero\n      tag_275\n      jumpi\n        /* \"#utility.yul\":9300:9379   */\n      tag_276\n      tag_118\n      jump\t// in\n    tag_276:\n        /* \"#utility.yul\":9262:9381   */\n    tag_275:\n        /* \"#utility.yul\":9420:9421   */\n      0x00\n        /* \"#utility.yul\":9445:9497   */\n      tag_277\n        /* \"#utility.yul\":9489:9496   */\n      dup5\n        /* \"#utility.yul\":9480:9486   */\n      dup3\n        /* \"#utility.yul\":9469:9478   */\n      dup6\n        /* \"#utility.yul\":9465:9487   */\n      add\n        /* \"#utility.yul\":9445:9497   */\n      tag_148\n      jump\t// in\n    tag_277:\n        /* \"#utility.yul\":9435:9497   */\n      swap2\n      pop\n        /* \"#utility.yul\":9391:9507   */\n      pop\n        /* \"#utility.yul\":9187:9514   */\n      swap3\n      swap2\n      pop\n      pop\n      jump\t// out\n        /* \"#utility.yul\":9520:9637   */\n    tag_149:\n        /* \"#utility.yul\":9629:9630   */\n      0x00\n        /* \"#utility.yul\":9626:9627   */\n      dup1\n        /* \"#utility.yul\":9619:9631   */\n      revert\n        /* \"#utility.yul\":9643:9760   */\n    tag_150:\n        /* \"#utility.yul\":9752:9753   */\n      0x00\n        /* \"#utility.yul\":9749:9750   */\n      dup1\n        /* \"#utility.yul\":9742:9754   */\n      revert\n        /* \"#utility.yul\":9766:9946   */\n    tag_151:\n        /* \"#utility.yul\":9814:9891   */\n      0x4e487b7100000000000000000000000000000000000000000000000000000000\n        /* \"#utility.yul\":9811:9812   */\n      0x00\n        /* \"#utility.yul\":9804:9892   */\n      mstore\n        /* \"#utility.yul\":9911:9915   */\n      0x41\n        /* \"#utility.yul\":9908:9909   */\n      0x04\n        /* \"#utility.yul\":9901:9916   */\n      mstore\n        /* \"#utility.yul\":9935:9939   */\n      0x24\n        /* \"#utility.yul\":9932:9933   */\n      0x00\n        /* \"#utility.yul\":9925:9940   */\n      revert\n        /* \"#utility.yul\":9952:10233   */\n    tag_152:\n        /* \"#utility.yul\":10035:10062   */\n      tag_282\n        /* \"#utility.yul\":10057:10061   */\n      dup3\n        /* \"#utility.yul\":10035:10062   */\n      tag_132\n      jump\t// in\n    tag_282:\n        /* \"#utility.yul\":10027:10033   */\n      dup2\n        /* \"#utility.yul\":10023:10063   */\n      add\n        /* \"#utility.yul\":10165:10171   */\n      dup2\n        /* \"#utility.yul\":10153:10163   */\n      dup2\n        /* \"#utility.yul\":10150:10172   */\n      lt\n        /* \"#utility.yul\":10129:10147   */\n      0xffffffffffffffff\n        /* \"#utility.yul\":10117:10127   */\n      dup3\n        /* \"#utility.yul\":10114:10148   */\n      gt\n        /* \"#utility.yul\":10111:10173   */\n      or\n        /* \"#utility.yul\":10108:10196   */\n      iszero\n      tag_283\n      jumpi\n        /* \"#utility.yul\":10176:10194   */\n      tag_284\n      tag_151\n      jump\t// in\n    tag_284:\n        /* \"#utility.yul\":10108:10196   */\n    tag_283:\n        /* \"#utility.yul\":10216:10226   */\n      dup1\n        /* \"#utility.yul\":10212:10214   */\n      0x40\n        /* \"#utility.yul\":10205:10227   */\n      mstore\n        /* \"#utility.yul\":9995:10233   */\n      pop\n        /* \"#utility.yul\":9952:10233   */\n      pop\n      pop\n      jump\t// out\n        /* \"#utility.yul\":10239:10368   */\n    tag_153:\n        /* \"#utility.yul\":10273:10279   */\n      0x00\n        /* \"#utility.yul\":10300:10320   */\n      tag_286\n      tag_117\n      jump\t// in\n    tag_286:\n        /* \"#utility.yul\":10290:10320   */\n      swap1\n      pop\n        /* \"#utility.yul\":10329:10362   */\n      tag_287\n        /* \"#utility.yul\":10357:10361   */\n      dup3\n        /* \"#utility.yul\":10349:10355   */\n      dup3\n        /* \"#utility.yul\":10329:10362   */\n      tag_152\n      jump\t// in\n    tag_287:\n        /* \"#utility.yul\":10239:10368   */\n      swap2\n      swap1\n      pop\n      jump\t// out\n        /* \"#utility.yul\":10374:10682   */\n    tag_154:\n        /* \"#utility.yul\":10436:10440   */\n      0x00\n        /* \"#utility.yul\":10526:10544   */\n      0xffffffffffffffff\n        /* \"#utility.yul\":10518:10524   */\n      dup3\n        /* \"#utility.yul\":10515:10545   */\n      gt\n        /* \"#utility.yul\":10512:10568   */\n      iszero\n      tag_289\n      jumpi\n        /* \"#utility.yul\":10548:10566   */\n      tag_290\n      tag_151\n      jump\t// in\n    tag_290:\n        /* \"#utility.yul\":10512:10568   */\n    tag_289:\n        /* \"#utility.yul\":10586:10615   */\n      tag_291\n        /* \"#utility.yul\":10608:10614   */\n      dup3\n        /* \"#utility.yul\":10586:10615   */\n      tag_132\n      jump\t// in\n    tag_291:\n        /* \"#utility.yul\":10578:10615   */\n      swap1\n      pop\n        /* \"#utility.yul\":10670:10674   */\n      0x20\n        /* \"#utility.yul\":10664:10668   */\n      dup2\n        /* \"#utility.yul\":10660:10675   */\n      add\n        /* \"#utility.yul\":10652:10675   */\n      swap1\n      pop\n        /* \"#utility.yul\":10374:10682   */\n      swap2\n      swap1\n      pop\n      jump\t// out\n        /* \"#utility.yul\":10688:10834   */\n    tag_155:\n        /* \"#utility.yul\":10785:10791   */\n      dup3\n        /* \"#utility.yul\":10780:10783   */\n      dup2\n        /* \"#utility.yul\":10775:10778   */\n      dup4\n        /* \"#utility.yul\":10762:10792   */\n      calldatacopy\n        /* \"#utility.yul\":10826:10827   */\n      0x00\n        /* \"#utility.yul\":10817:10823   */\n      dup4\n        /* \"#utility.yul\":10812:10815   */\n      dup4\n        /* \"#utility.yul\":10808:10824   */\n      add\n        /* \"#utility.yul\":10801:10828   */\n      mstore\n        /* \"#utility.yul\":10688:10834   */\n      pop\n      pop\n      pop\n      jump\t// out\n        /* \"#utility.yul\":10840:11265   */\n    tag_156:\n        /* \"#utility.yul\":10918:10923   */\n      0x00\n        /* \"#utility.yul\":10943:11009   */\n      tag_294\n        /* \"#utility.yul\":10959:11008   */\n      tag_295\n        /* \"#utility.yul\":11001:11007   */\n      dup5\n        /* \"#utility.yul\":10959:11008   */\n      tag_154\n      jump\t// in\n    tag_295:\n        /* \"#utility.yul\":10943:11009   */\n      tag_153\n      jump\t// in\n    tag_294:\n        /* \"#utility.yul\":10934:11009   */\n      swap1\n      pop\n        /* \"#utility.yul\":11032:11038   */\n      dup3\n        /* \"#utility.yul\":11025:11030   */\n      dup2\n        /* \"#utility.yul\":11018:11039   */\n      mstore\n        /* \"#utility.yul\":11070:11074   */\n      0x20\n        /* \"#utility.yul\":11063:11068   */\n      dup2\n        /* \"#utility.yul\":11059:11075   */\n      add\n        /* \"#utility.yul\":11108:11111   */\n      dup5\n        /* \"#utility.yul\":11099:11105   */\n      dup5\n        /* \"#utility.yul\":11094:11097   */\n      dup5\n        /* \"#utility.yul\":11090:11106   */\n      add\n        /* \"#utility.yul\":11087:11112   */\n      gt\n        /* \"#utility.yul\":11084:11196   */\n      iszero\n      tag_296\n      jumpi\n        /* \"#utility.yul\":11115:11194   */\n      tag_297\n      tag_150\n      jump\t// in\n    tag_297:\n        /* \"#utility.yul\":11084:11196   */\n    tag_296:\n        /* \"#utility.yul\":11205:11259   */\n      tag_298\n        /* \"#utility.yul\":11252:11258   */\n      dup5\n        /* \"#utility.yul\":11247:11250   */\n      dup3\n        /* \"#utility.yul\":11242:11245   */\n      dup6\n        /* \"#utility.yul\":11205:11259   */\n      tag_155\n      jump\t// in\n    tag_298:\n        /* \"#utility.yul\":10924:11265   */\n      pop\n        /* \"#utility.yul\":10840:11265   */\n      swap4\n      swap3\n      pop\n      pop\n      pop\n      jump\t// out\n        /* \"#utility.yul\":11285:11625   */\n    tag_157:\n        /* \"#utility.yul\":11341:11346   */\n      0x00\n        /* \"#utility.yul\":11390:11393   */\n      dup3\n        /* \"#utility.yul\":11383:11387   */\n      0x1f\n        /* \"#utility.yul\":11375:11381   */\n      dup4\n        /* \"#utility.yul\":11371:11388   */\n      add\n        /* \"#utility.yul\":11367:11394   */\n      slt\n        /* \"#utility.yul\":11357:11479   */\n      tag_300\n      jumpi\n        /* \"#utility.yul\":11398:11477   */\n      tag_301\n      tag_149\n      jump\t// in\n    tag_301:\n        /* \"#utility.yul\":11357:11479   */\n    tag_300:\n        /* \"#utility.yul\":11515:11521   */\n      dup2\n        /* \"#utility.yul\":11502:11522   */\n      calldataload\n        /* \"#utility.yul\":11540:11619   */\n      tag_302\n        /* \"#utility.yul\":11615:11618   */\n      dup5\n        /* \"#utility.yul\":11607:11613   */\n      dup3\n        /* \"#utility.yul\":11600:11604   */\n      0x20\n        /* \"#utility.yul\":11592:11598   */\n      dup7\n        /* \"#utility.yul\":11588:11605   */\n      add\n        /* \"#utility.yul\":11540:11619   */\n      tag_156\n      jump\t// in\n    tag_302:\n        /* \"#utility.yul\":11531:11619   */\n      swap2\n      pop\n        /* \"#utility.yul\":11347:11625   */\n      pop\n        /* \"#utility.yul\":11285:11625   */\n      swap3\n      swap2\n      pop\n      pop\n      jump\t// out\n        /* \"#utility.yul\":11631:12140   */\n    tag_41:\n        /* \"#utility.yul\":11700:11706   */\n      0x00\n        /* \"#utility.yul\":11749:11751   */\n      0x20\n        /* \"#utility.yul\":11737:11746   */\n      dup3\n        /* \"#utility.yul\":11728:11735   */\n      dup5\n        /* \"#utility.yul\":11724:11747   */\n      sub\n        /* \"#utility.yul\":11720:11752   */\n      slt\n        /* \"#utility.yul\":11717:11836   */\n      iszero\n      tag_304\n      jumpi\n        /* \"#utility.yul\":11755:11834   */\n      tag_305\n      tag_118\n      jump\t// in\n    tag_305:\n        /* \"#utility.yul\":11717:11836   */\n    tag_304:\n        /* \"#utility.yul\":11903:11904   */\n      0x00\n        /* \"#utility.yul\":11892:11901   */\n      dup3\n        /* \"#utility.yul\":11888:11905   */\n      add\n        /* \"#utility.yul\":11875:11906   */\n      calldataload\n        /* \"#utility.yul\":11933:11951   */\n      0xffffffffffffffff\n        /* \"#utility.yul\":11925:11931   */\n      dup2\n        /* \"#utility.yul\":11922:11952   */\n      gt\n        /* \"#utility.yul\":11919:12036   */\n      iszero\n      tag_306\n      jumpi\n        /* \"#utility.yul\":11955:12034   */\n      tag_307\n      tag_119\n      jump\t// in\n    tag_307:\n        /* \"#utility.yul\":11919:12036   */\n    tag_306:\n        /* \"#utility.yul\":12060:12123   */\n      tag_308\n        /* \"#utility.yul\":12115:12122   */\n      dup5\n        /* \"#utility.yul\":12106:12112   */\n      dup3\n        /* \"#utility.yul\":12095:12104   */\n      dup6\n        /* \"#utility.yul\":12091:12113   */\n      add\n        /* \"#utility.yul\":12060:12123   */\n      tag_157\n      jump\t// in\n    tag_308:\n        /* \"#utility.yul\":12050:12123   */\n      swap2\n      pop\n        /* \"#utility.yul\":11846:12133   */\n      pop\n        /* \"#utility.yul\":11631:12140   */\n      swap3\n      swap2\n      pop\n      pop\n      jump\t// out\n        /* \"#utility.yul\":12146:12368   */\n    tag_46:\n        /* \"#utility.yul\":12239:12243   */\n      0x00\n        /* \"#utility.yul\":12277:12279   */\n      0x20\n        /* \"#utility.yul\":12266:12275   */\n      dup3\n        /* \"#utility.yul\":12262:12280   */\n      add\n        /* \"#utility.yul\":12254:12280   */\n      swap1\n      pop\n        /* \"#utility.yul\":12290:12361   */\n      tag_310\n        /* \"#utility.yul\":12358:12359   */\n      0x00\n        /* \"#utility.yul\":12347:12356   */\n      dup4\n        /* \"#utility.yul\":12343:12360   */\n      add\n        /* \"#utility.yul\":12334:12340   */\n      dup5\n        /* \"#utility.yul\":12290:12361   */\n      tag_128\n      jump\t// in\n    tag_310:\n        /* \"#utility.yul\":12146:12368   */\n      swap3\n      swap2\n      pop\n      pop\n      jump\t// out\n        /* \"#utility.yul\":12374:12703   */\n    tag_49:\n        /* \"#utility.yul\":12433:12439   */\n      0x00\n        /* \"#utility.yul\":12482:12484   */\n      0x20\n        /* \"#utility.yul\":12470:12479   */\n      dup3\n        /* \"#utility.yul\":12461:12468   */\n      dup5\n        /* \"#utility.yul\":12457:12480   */\n      sub\n        /* \"#utility.yul\":12453:12485   */\n      slt\n        /* \"#utility.yul\":12450:12569   */\n      iszero\n      tag_312\n      jumpi\n        /* \"#utility.yul\":12488:12567   */\n      tag_313\n      tag_118\n      jump\t// in\n    tag_313:\n        /* \"#utility.yul\":12450:12569   */\n    tag_312:\n        /* \"#utility.yul\":12608:12609   */\n      0x00\n        /* \"#utility.yul\":12633:12686   */\n      tag_314\n        /* \"#utility.yul\":12678:12685   */\n      dup5\n        /* \"#utility.yul\":12669:12675   */\n      dup3\n        /* \"#utility.yul\":12658:12667   */\n      dup6\n        /* \"#utility.yul\":12654:12676   */\n      add\n        /* \"#utility.yul\":12633:12686   */\n      tag_126\n      jump\t// in\n    tag_314:\n        /* \"#utility.yul\":12623:12686   */\n      swap2\n      pop\n        /* \"#utility.yul\":12579:12696   */\n      pop\n        /* \"#utility.yul\":12374:12703   */\n      swap3\n      swap2\n      pop\n      pop\n      jump\t// out\n        /* \"#utility.yul\":12761:13890   */\n    tag_158:\n        /* \"#utility.yul\":12872:12875   */\n      0x00\n        /* \"#utility.yul\":12908:12912   */\n      0xa0\n        /* \"#utility.yul\":12903:12906   */\n      dup4\n        /* \"#utility.yul\":12899:12913   */\n      add\n        /* \"#utility.yul\":12993:12997   */\n      0x00\n        /* \"#utility.yul\":12986:12991   */\n      dup4\n        /* \"#utility.yul\":12982:12998   */\n      add\n        /* \"#utility.yul\":12976:12999   */\n      mload\n        /* \"#utility.yul\":13012:13075   */\n      tag_316\n        /* \"#utility.yul\":13069:13073   */\n      0x00\n        /* \"#utility.yul\":13064:13067   */\n      dup7\n        /* \"#utility.yul\":13060:13074   */\n      add\n        /* \"#utility.yul\":13046:13058   */\n      dup3\n        /* \"#utility.yul\":13012:13075   */\n      tag_139\n      jump\t// in\n    tag_316:\n        /* \"#utility.yul\":12923:13085   */\n      pop\n        /* \"#utility.yul\":13169:13173   */\n      0x20\n        /* \"#utility.yul\":13162:13167   */\n      dup4\n        /* \"#utility.yul\":13158:13174   */\n      add\n        /* \"#utility.yul\":13152:13175   */\n      mload\n        /* \"#utility.yul\":13188:13251   */\n      tag_317\n        /* \"#utility.yul\":13245:13249   */\n      0x20\n        /* \"#utility.yul\":13240:13243   */\n      dup7\n        /* \"#utility.yul\":13236:13250   */\n      add\n        /* \"#utility.yul\":13222:13234   */\n      dup3\n        /* \"#utility.yul\":13188:13251   */\n      tag_140\n      jump\t// in\n    tag_317:\n        /* \"#utility.yul\":13095:13261   */\n      pop\n        /* \"#utility.yul\":13346:13350   */\n      0x40\n        /* \"#utility.yul\":13339:13344   */\n      dup4\n        /* \"#utility.yul\":13335:13351   */\n      add\n        /* \"#utility.yul\":13329:13352   */\n      mload\n        /* \"#utility.yul\":13399:13402   */\n      dup5\n        /* \"#utility.yul\":13393:13397   */\n      dup3\n        /* \"#utility.yul\":13389:13403   */\n      sub\n        /* \"#utility.yul\":13382:13386   */\n      0x40\n        /* \"#utility.yul\":13377:13380   */\n      dup7\n        /* \"#utility.yul\":13373:13387   */\n      add\n        /* \"#utility.yul\":13366:13404   */\n      mstore\n        /* \"#utility.yul\":13425:13498   */\n      tag_318\n        /* \"#utility.yul\":13493:13497   */\n      dup3\n        /* \"#utility.yul\":13479:13491   */\n      dup3\n        /* \"#utility.yul\":13425:13498   */\n      tag_142\n      jump\t// in\n    tag_318:\n        /* \"#utility.yul\":13417:13498   */\n      swap2\n      pop\n        /* \"#utility.yul\":13271:13509   */\n      pop\n        /* \"#utility.yul\":13596:13600   */\n      0x60\n        /* \"#utility.yul\":13589:13594   */\n      dup4\n        /* \"#utility.yul\":13585:13601   */\n      add\n        /* \"#utility.yul\":13579:13602   */\n      mload\n        /* \"#utility.yul\":13615:13678   */\n      tag_319\n        /* \"#utility.yul\":13672:13676   */\n      0x60\n        /* \"#utility.yul\":13667:13670   */\n      dup7\n        /* \"#utility.yul\":13663:13677   */\n      add\n        /* \"#utility.yul\":13649:13661   */\n      dup3\n        /* \"#utility.yul\":13615:13678   */\n      tag_139\n      jump\t// in\n    tag_319:\n        /* \"#utility.yul\":13519:13688   */\n      pop\n        /* \"#utility.yul\":13771:13775   */\n      0x80\n        /* \"#utility.yul\":13764:13769   */\n      dup4\n        /* \"#utility.yul\":13760:13776   */\n      add\n        /* \"#utility.yul\":13754:13777   */\n      mload\n        /* \"#utility.yul\":13790:13853   */\n      tag_320\n        /* \"#utility.yul\":13847:13851   */\n      0x80\n        /* \"#utility.yul\":13842:13845   */\n      dup7\n        /* \"#utility.yul\":13838:13852   */\n      add\n        /* \"#utility.yul\":13824:13836   */\n      dup3\n        /* \"#utility.yul\":13790:13853   */\n      tag_139\n      jump\t// in\n    tag_320:\n        /* \"#utility.yul\":13698:13863   */\n      pop\n        /* \"#utility.yul\":13880:13884   */\n      dup1\n        /* \"#utility.yul\":13873:13884   */\n      swap2\n      pop\n        /* \"#utility.yul\":12877:13890   */\n      pop\n        /* \"#utility.yul\":12761:13890   */\n      swap3\n      swap2\n      pop\n      pop\n      jump\t// out\n        /* \"#utility.yul\":13896:14253   */\n    tag_52:\n        /* \"#utility.yul\":14031:14035   */\n      0x00\n        /* \"#utility.yul\":14069:14071   */\n      0x20\n        /* \"#utility.yul\":14058:14067   */\n      dup3\n        /* \"#utility.yul\":14054:14072   */\n      add\n        /* \"#utility.yul\":14046:14072   */\n      swap1\n      pop\n        /* \"#utility.yul\":14118:14127   */\n      dup2\n        /* \"#utility.yul\":14112:14116   */\n      dup2\n        /* \"#utility.yul\":14108:14128   */\n      sub\n        /* \"#utility.yul\":14104:14105   */\n      0x00\n        /* \"#utility.yul\":14093:14102   */\n      dup4\n        /* \"#utility.yul\":14089:14106   */\n      add\n        /* \"#utility.yul\":14082:14129   */\n      mstore\n        /* \"#utility.yul\":14146:14246   */\n      tag_322\n        /* \"#utility.yul\":14241:14245   */\n      dup2\n        /* \"#utility.yul\":14232:14238   */\n      dup5\n        /* \"#utility.yul\":14146:14246   */\n      tag_158\n      jump\t// in\n    tag_322:\n        /* \"#utility.yul\":14138:14246   */\n      swap1\n      pop\n        /* \"#utility.yul\":13896:14253   */\n      swap3\n      swap2\n      pop\n      pop\n      jump\t// out\n        /* \"#utility.yul\":14259:14439   */\n    tag_159:\n        /* \"#utility.yul\":14307:14384   */\n      0x4e487b7100000000000000000000000000000000000000000000000000000000\n        /* \"#utility.yul\":14304:14305   */\n      0x00\n        /* \"#utility.yul\":14297:14385   */\n      mstore\n        /* \"#utility.yul\":14404:14408   */\n      0x22\n        /* \"#utility.yul\":14401:14402   */\n      0x04\n        /* \"#utility.yul\":14394:14409   */\n      mstore\n        /* \"#utility.yul\":14428:14432   */\n      0x24\n        /* \"#utility.yul\":14425:14426   */\n      0x00\n        /* \"#utility.yul\":14418:14433   */\n      revert\n        /* \"#utility.yul\":14445:14765   */\n    tag_56:\n        /* \"#utility.yul\":14489:14495   */\n      0x00\n        /* \"#utility.yul\":14526:14527   */\n      0x02\n        /* \"#utility.yul\":14520:14524   */\n      dup3\n        /* \"#utility.yul\":14516:14528   */\n      div\n        /* \"#utility.yul\":14506:14528   */\n      swap1\n      pop\n        /* \"#utility.yul\":14573:14574   */\n      0x01\n        /* \"#utility.yul\":14567:14571   */\n      dup3\n        /* \"#utility.yul\":14563:14575   */\n      and\n        /* \"#utility.yul\":14594:14612   */\n      dup1\n        /* \"#utility.yul\":14584:14665   */\n      tag_325\n      jumpi\n        /* \"#utility.yul\":14650:14654   */\n      0x7f\n        /* \"#utility.yul\":14642:14648   */\n      dup3\n        /* \"#utility.yul\":14638:14655   */\n      and\n        /* \"#utility.yul\":14628:14655   */\n      swap2\n      pop\n        /* \"#utility.yul\":14584:14665   */\n    tag_325:\n        /* \"#utility.yul\":14712:14714   */\n      0x20\n        /* \"#utility.yul\":14704:14710   */\n      dup3\n        /* \"#utility.yul\":14701:14715   */\n      lt\n        /* \"#utility.yul\":14681:14699   */\n      dup2\n        /* \"#utility.yul\":14678:14716   */\n      sub\n        /* \"#utility.yul\":14675:14759   */\n      tag_326\n      jumpi\n        /* \"#utility.yul\":14731:14749   */\n      tag_327\n      tag_159\n      jump\t// in\n    tag_327:\n        /* \"#utility.yul\":14675:14759   */\n    tag_326:\n        /* \"#utility.yul\":14496:14765   */\n      pop\n        /* \"#utility.yul\":14445:14765   */\n      swap2\n      swap1\n      pop\n      jump\t// out\n        /* \"#utility.yul\":14771:14951   */\n    tag_73:\n        /* \"#utility.yul\":14819:14896   */\n      0x4e487b7100000000000000000000000000000000000000000000000000000000\n        /* \"#utility.yul\":14816:14817   */\n      0x00\n        /* \"#utility.yul\":14809:14897   */\n      mstore\n        /* \"#utility.yul\":14916:14920   */\n      0x32\n        /* \"#utility.yul\":14913:14914   */\n      0x04\n        /* \"#utility.yul\":14906:14921   */\n      mstore\n        /* \"#utility.yul\":14940:14944   */\n      0x24\n        /* \"#utility.yul\":14937:14938   */\n      0x00\n        /* \"#utility.yul\":14930:14945   */\n      revert\n        /* \"#utility.yul\":14957:15127   */\n    tag_160:\n        /* \"#utility.yul\":15097:15119   */\n      0x547765657420446f6573206e6f74206578697374000000000000000000000000\n        /* \"#utility.yul\":15093:15094   */\n      0x00\n        /* \"#utility.yul\":15085:15091   */\n      dup3\n        /* \"#utility.yul\":15081:15095   */\n      add\n        /* \"#utility.yul\":15074:15120   */\n      mstore\n        /* \"#utility.yul\":14957:15127   */\n      pop\n      jump\t// out\n        /* \"#utility.yul\":15133:15499   */\n    tag_161:\n        /* \"#utility.yul\":15275:15278   */\n      0x00\n        /* \"#utility.yul\":15296:15363   */\n      tag_331\n        /* \"#utility.yul\":15360:15362   */\n      0x14\n        /* \"#utility.yul\":15355:15358   */\n      dup4\n        /* \"#utility.yul\":15296:15363   */\n      tag_130\n      jump\t// in\n    tag_331:\n        /* \"#utility.yul\":15289:15363   */\n      swap2\n      pop\n        /* \"#utility.yul\":15372:15465   */\n      tag_332\n        /* \"#utility.yul\":15461:15464   */\n      dup3\n        /* \"#utility.yul\":15372:15465   */\n      tag_160\n      jump\t// in\n    tag_332:\n        /* \"#utility.yul\":15490:15492   */\n      0x20\n        /* \"#utility.yul\":15485:15488   */\n      dup3\n        /* \"#utility.yul\":15481:15493   */\n      add\n        /* \"#utility.yul\":15474:15493   */\n      swap1\n      pop\n        /* \"#utility.yul\":15133:15499   */\n      swap2\n      swap1\n      pop\n      jump\t// out\n        /* \"#utility.yul\":15505:15924   */\n    tag_77:\n        /* \"#utility.yul\":15671:15675   */\n      0x00\n        /* \"#utility.yul\":15709:15711   */\n      0x20\n        /* \"#utility.yul\":15698:15707   */\n      dup3\n        /* \"#utility.yul\":15694:15712   */\n      add\n        /* \"#utility.yul\":15686:15712   */\n      swap1\n      pop\n        /* \"#utility.yul\":15758:15767   */\n      dup2\n        /* \"#utility.yul\":15752:15756   */\n      dup2\n        /* \"#utility.yul\":15748:15768   */\n      sub\n        /* \"#utility.yul\":15744:15745   */\n      0x00\n        /* \"#utility.yul\":15733:15742   */\n      dup4\n        /* \"#utility.yul\":15729:15746   */\n      add\n        /* \"#utility.yul\":15722:15769   */\n      mstore\n        /* \"#utility.yul\":15786:15917   */\n      tag_334\n        /* \"#utility.yul\":15912:15916   */\n      dup2\n        /* \"#utility.yul\":15786:15917   */\n      tag_161\n      jump\t// in\n    tag_334:\n        /* \"#utility.yul\":15778:15917   */\n      swap1\n      pop\n        /* \"#utility.yul\":15505:15924   */\n      swap2\n      swap1\n      pop\n      jump\t// out\n        /* \"#utility.yul\":15930:16110   */\n    tag_162:\n        /* \"#utility.yul\":15978:16055   */\n      0x4e487b7100000000000000000000000000000000000000000000000000000000\n        /* \"#utility.yul\":15975:15976   */\n      0x00\n        /* \"#utility.yul\":15968:16056   */\n      mstore\n        /* \"#utility.yul\":16075:16079   */\n      0x11\n        /* \"#utility.yul\":16072:16073   */\n      0x04\n        /* \"#utility.yul\":16065:16080   */\n      mstore\n        /* \"#utility.yul\":16099:16103   */\n      0x24\n        /* \"#utility.yul\":16096:16097   */\n      0x00\n        /* \"#utility.yul\":16089:16104   */\n      revert\n        /* \"#utility.yul\":16116:16287   */\n    tag_82:\n        /* \"#utility.yul\":16155:16158   */\n      0x00\n        /* \"#utility.yul\":16178:16202   */\n      tag_337\n        /* \"#utility.yul\":16196:16201   */\n      dup3\n        /* \"#utility.yul\":16178:16202   */\n      tag_124\n      jump\t// in\n    tag_337:\n        /* \"#utility.yul\":16169:16202   */\n      swap2\n      pop\n        /* \"#utility.yul\":16224:16228   */\n      0x00\n        /* \"#utility.yul\":16217:16222   */\n      dup3\n        /* \"#utility.yul\":16214:16229   */\n      sub\n        /* \"#utility.yul\":16211:16252   */\n      tag_338\n      jumpi\n        /* \"#utility.yul\":16232:16250   */\n      tag_339\n      tag_162\n      jump\t// in\n    tag_339:\n        /* \"#utility.yul\":16211:16252   */\n    tag_338:\n        /* \"#utility.yul\":16279:16280   */\n      0x01\n        /* \"#utility.yul\":16272:16277   */\n      dup3\n        /* \"#utility.yul\":16268:16281   */\n      sub\n        /* \"#utility.yul\":16261:16281   */\n      swap1\n      pop\n        /* \"#utility.yul\":16116:16287   */\n      swap2\n      swap1\n      pop\n      jump\t// out\n        /* \"#utility.yul\":16293:16464   */\n    tag_163:\n        /* \"#utility.yul\":16433:16456   */\n      0x594f5520415245204e4f5420544845204f574e45520000000000000000000000\n        /* \"#utility.yul\":16429:16430   */\n      0x00\n        /* \"#utility.yul\":16421:16427   */\n      dup3\n        /* \"#utility.yul\":16417:16431   */\n      add\n        /* \"#utility.yul\":16410:16457   */\n      mstore\n        /* \"#utility.yul\":16293:16464   */\n      pop\n      jump\t// out\n        /* \"#utility.yul\":16470:16836   */\n    tag_164:\n        /* \"#utility.yul\":16612:16615   */\n      0x00\n        /* \"#utility.yul\":16633:16700   */\n      tag_342\n        /* \"#utility.yul\":16697:16699   */\n      0x15\n        /* \"#utility.yul\":16692:16695   */\n      dup4\n        /* \"#utility.yul\":16633:16700   */\n      tag_130\n      jump\t// in\n    tag_342:\n        /* \"#utility.yul\":16626:16700   */\n      swap2\n      pop\n        /* \"#utility.yul\":16709:16802   */\n      tag_343\n        /* \"#utility.yul\":16798:16801   */\n      dup3\n        /* \"#utility.yul\":16709:16802   */\n      tag_163\n      jump\t// in\n    tag_343:\n        /* \"#utility.yul\":16827:16829   */\n      0x20\n        /* \"#utility.yul\":16822:16825   */\n      dup3\n        /* \"#utility.yul\":16818:16830   */\n      add\n        /* \"#utility.yul\":16811:16830   */\n      swap1\n      pop\n        /* \"#utility.yul\":16470:16836   */\n      swap2\n      swap1\n      pop\n      jump\t// out\n        /* \"#utility.yul\":16842:17261   */\n    tag_86:\n        /* \"#utility.yul\":17008:17012   */\n      0x00\n        /* \"#utility.yul\":17046:17048   */\n      0x20\n        /* \"#utility.yul\":17035:17044   */\n      dup3\n        /* \"#utility.yul\":17031:17049   */\n      add\n        /* \"#utility.yul\":17023:17049   */\n      swap1\n      pop\n        /* \"#utility.yul\":17095:17104   */\n      dup2\n        /* \"#utility.yul\":17089:17093   */\n      dup2\n        /* \"#utility.yul\":17085:17105   */\n      sub\n        /* \"#utility.yul\":17081:17082   */\n      0x00\n        /* \"#utility.yul\":17070:17079   */\n      dup4\n        /* \"#utility.yul\":17066:17083   */\n      add\n        /* \"#utility.yul\":17059:17106   */\n      mstore\n        /* \"#utility.yul\":17123:17254   */\n      tag_345\n        /* \"#utility.yul\":17249:17253   */\n      dup2\n        /* \"#utility.yul\":17123:17254   */\n      tag_164\n      jump\t// in\n    tag_345:\n        /* \"#utility.yul\":17115:17254   */\n      swap1\n      pop\n        /* \"#utility.yul\":16842:17261   */\n      swap2\n      swap1\n      pop\n      jump\t// out\n        /* \"#utility.yul\":17267:17500   */\n    tag_98:\n        /* \"#utility.yul\":17306:17309   */\n      0x00\n        /* \"#utility.yul\":17329:17353   */\n      tag_347\n        /* \"#utility.yul\":17347:17352   */\n      dup3\n        /* \"#utility.yul\":17329:17353   */\n      tag_124\n      jump\t// in\n    tag_347:\n        /* \"#utility.yul\":17320:17353   */\n      swap2\n      pop\n        /* \"#utility.yul\":17375:17441   */\n      0xffffffffffffffffffffffffffffffffffffffffffffffffffffffffffffffff\n        /* \"#utility.yul\":17368:17373   */\n      dup3\n        /* \"#utility.yul\":17365:17442   */\n      sub\n        /* \"#utility.yul\":17362:17465   */\n      tag_348\n      jumpi\n        /* \"#utility.yul\":17445:17463   */\n      tag_349\n      tag_162\n      jump\t// in\n    tag_349:\n        /* \"#utility.yul\":17362:17465   */\n    tag_348:\n        /* \"#utility.yul\":17492:17493   */\n      0x01\n        /* \"#utility.yul\":17485:17490   */\n      dup3\n        /* \"#utility.yul\":17481:17494   */\n      add\n        /* \"#utility.yul\":17474:17494   */\n      swap1\n      pop\n        /* \"#utility.yul\":17267:17500   */\n      swap2\n      swap1\n      pop\n      jump\t// out\n        /* \"#utility.yul\":17506:17673   */\n    tag_165:\n        /* \"#utility.yul\":17646:17665   */\n      0x547765657420697320746f6f204c6f6e67000000000000000000000000000000\n        /* \"#utility.yul\":17642:17643   */\n      0x00\n        /* \"#utility.yul\":17634:17640   */\n      dup3\n        /* \"#utility.yul\":17630:17644   */\n      add\n        /* \"#utility.yul\":17623:17666   */\n      mstore\n        /* \"#utility.yul\":17506:17673   */\n      pop\n      jump\t// out\n        /* \"#utility.yul\":17679:18045   */\n    tag_166:\n        /* \"#utility.yul\":17821:17824   */\n      0x00\n        /* \"#utility.yul\":17842:17909   */\n      tag_352\n        /* \"#utility.yul\":17906:17908   */\n      0x11\n        /* \"#utility.yul\":17901:17904   */\n      dup4\n        /* \"#utility.yul\":17842:17909   */\n      tag_130\n      jump\t// in\n    tag_352:\n        /* \"#utility.yul\":17835:17909   */\n      swap2\n      pop\n        /* \"#utility.yul\":17918:18011   */\n      tag_353\n        /* \"#utility.yul\":18007:18010   */\n      dup3\n        /* \"#utility.yul\":17918:18011   */\n      tag_165\n      jump\t// in\n    tag_353:\n        /* \"#utility.yul\":18036:18038   */\n      0x20\n        /* \"#utility.yul\":18031:18034   */\n      dup3\n        /* \"#utility.yul\":18027:18039   */\n      add\n        /* \"#utility.yul\":18020:18039   */\n      swap1\n      pop\n        /* \"#utility.yul\":17679:18045   */\n      swap2\n      swap1\n      pop\n      jump\t// out\n        /* \"#utility.yul\":18051:18470   */\n    tag_102:\n        /* \"#utility.yul\":18217:18221   */\n      0x00\n        /* \"#utility.yul\":18255:18257   */\n      0x20\n        /* \"#utility.yul\":18244:18253   */\n      dup3\n        /* \"#utility.yul\":18240:18258   */\n      add\n        /* \"#utility.yul\":18232:18258   */\n      swap1\n      pop\n        /* \"#utility.yul\":18304:18313   */\n      dup2\n        /* \"#utility.yul\":18298:18302   */\n      dup2\n        /* \"#utility.yul\":18294:18314   */\n      sub\n        /* \"#utility.yul\":18290:18291   */\n      0x00\n        /* \"#utility.yul\":18279:18288   */\n      dup4\n        /* \"#utility.yul\":18275:18292   */\n      add\n        /* \"#utility.yul\":18268:18315   */\n      mstore\n        /* \"#utility.yul\":18332:18463   */\n      tag_355\n        /* \"#utility.yul\":18458:18462   */\n      dup2\n        /* \"#utility.yul\":18332:18463   */\n      tag_166\n      jump\t// in\n    tag_355:\n        /* \"#utility.yul\":18324:18463   */\n      swap1\n      pop\n        /* \"#utility.yul\":18051:18470   */\n      swap2\n      swap1\n      pop\n      jump\t// out\n        /* \"#utility.yul\":18476:18617   */\n    tag_167:\n        /* \"#utility.yul\":18525:18529   */\n      0x00\n        /* \"#utility.yul\":18548:18551   */\n      dup2\n        /* \"#utility.yul\":18540:18551   */\n      swap1\n      pop\n        /* \"#utility.yul\":18571:18574   */\n      dup2\n        /* \"#utility.yul\":18568:18569   */\n      0x00\n        /* \"#utility.yul\":18561:18575   */\n      mstore\n        /* \"#utility.yul\":18605:18609   */\n      0x20\n        /* \"#utility.yul\":18602:18603   */\n      0x00\n        /* \"#utility.yul\":18592:18610   */\n      keccak256\n        /* \"#utility.yul\":18584:18610   */\n      swap1\n      pop\n        /* \"#utility.yul\":18476:18617   */\n      swap2\n      swap1\n      pop\n      jump\t// out\n        /* \"#utility.yul\":18623:18716   */\n    tag_168:\n        /* \"#utility.yul\":18660:18666   */\n      0x00\n        /* \"#utility.yul\":18707:18709   */\n      0x20\n        /* \"#utility.yul\":18702:18704   */\n      0x1f\n        /* \"#utility.yul\":18695:18700   */\n      dup4\n        /* \"#utility.yul\":18691:18705   */\n      add\n        /* \"#utility.yul\":18687:18710   */\n      div\n        /* \"#utility.yul\":18677:18710   */\n      swap1\n      pop\n        /* \"#utility.yul\":18623:18716   */\n      swap2\n      swap1\n      pop\n      jump\t// out\n        /* \"#utility.yul\":18722:18829   */\n    tag_169:\n        /* \"#utility.yul\":18766:18774   */\n      0x00\n        /* \"#utility.yul\":18816:18821   */\n      dup3\n        /* \"#utility.yul\":18810:18814   */\n      dup3\n        /* \"#utility.yul\":18806:18822   */\n      shl\n        /* \"#utility.yul\":18785:18822   */\n      swap1\n      pop\n        /* \"#utility.yul\":18722:18829   */\n      swap3\n      swap2\n      pop\n      pop\n      jump\t// out\n        /* \"#utility.yul\":18835:19228   */\n    tag_170:\n        /* \"#utility.yul\":18904:18910   */\n      0x00\n        /* \"#utility.yul\":18954:18955   */\n      0x08\n        /* \"#utility.yul\":18942:18952   */\n      dup4\n        /* \"#utility.yul\":18938:18956   */\n      mul\n        /* \"#utility.yul\":18977:19074   */\n      tag_360\n        /* \"#utility.yul\":19007:19073   */\n      0xffffffffffffffffffffffffffffffffffffffffffffffffffffffffffffffff\n        /* \"#utility.yul\":18996:19005   */\n      dup3\n        /* \"#utility.yul\":18977:19074   */\n      tag_169\n      jump\t// in\n    tag_360:\n        /* \"#utility.yul\":19095:19134   */\n      tag_361\n        /* \"#utility.yul\":19125:19133   */\n      dup7\n        /* \"#utility.yul\":19114:19123   */\n      dup4\n        /* \"#utility.yul\":19095:19134   */\n      tag_169\n      jump\t// in\n    tag_361:\n        /* \"#utility.yul\":19083:19134   */\n      swap6\n      pop\n        /* \"#utility.yul\":19167:19171   */\n      dup1\n        /* \"#utility.yul\":19163:19172   */\n      not\n        /* \"#utility.yul\":19156:19161   */\n      dup5\n        /* \"#utility.yul\":19152:19173   */\n      and\n        /* \"#utility.yul\":19143:19173   */\n      swap4\n      pop\n        /* \"#utility.yul\":19216:19220   */\n      dup1\n        /* \"#utility.yul\":19206:19214   */\n      dup7\n        /* \"#utility.yul\":19202:19221   */\n      and\n        /* \"#utility.yul\":19195:19200   */\n      dup5\n        /* \"#utility.yul\":19192:19222   */\n      or\n        /* \"#utility.yul\":19182:19222   */\n      swap3\n      pop\n        /* \"#utility.yul\":18911:19228   */\n      pop\n      pop\n        /* \"#utility.yul\":18835:19228   */\n      swap4\n      swap3\n      pop\n      pop\n      pop\n      jump\t// out\n        /* \"#utility.yul\":19234:19294   */\n    tag_171:\n        /* \"#utility.yul\":19262:19265   */\n      0x00\n        /* \"#utility.yul\":19283:19288   */\n      dup2\n        /* \"#utility.yul\":19276:19288   */\n      swap1\n      pop\n        /* \"#utility.yul\":19234:19294   */\n      swap2\n      swap1\n      pop\n      jump\t// out\n        /* \"#utility.yul\":19300:19442   */\n    tag_172:\n        /* \"#utility.yul\":19350:19359   */\n      0x00\n        /* \"#utility.yul\":19383:19436   */\n      tag_364\n        /* \"#utility.yul\":19401:19435   */\n      tag_365\n        /* \"#utility.yul\":19410:19434   */\n      tag_366\n        /* \"#utility.yul\":19428:19433   */\n      dup5\n        /* \"#utility.yul\":19410:19434   */\n      tag_124\n      jump\t// in\n    tag_366:\n        /* \"#utility.yul\":19401:19435   */\n      tag_171\n      jump\t// in\n    tag_365:\n        /* \"#utility.yul\":19383:19436   */\n      tag_124\n      jump\t// in\n    tag_364:\n        /* \"#utility.yul\":19370:19436   */\n      swap1\n      pop\n        /* \"#utility.yul\":19300:19442   */\n      swap2\n      swap1\n      pop\n      jump\t// out\n        /* \"#utility.yul\":19448:19523   */\n    tag_173:\n        /* \"#utility.yul\":19491:19494   */\n      0x00\n        /* \"#utility.yul\":19512:19517   */\n      dup2\n        /* \"#utility.yul\":19505:19517   */\n      swap1\n      pop\n        /* \"#utility.yul\":19448:19523   */\n      swap2\n      swap1\n      pop\n      jump\t// out\n        /* \"#utility.yul\":19529:19798   */\n    tag_174:\n        /* \"#utility.yul\":19639:19678   */\n      tag_369\n        /* \"#utility.yul\":19670:19677   */\n      dup4\n        /* \"#utility.yul\":19639:19678   */\n      tag_172\n      jump\t// in\n    tag_369:\n        /* \"#utility.yul\":19700:19791   */\n      tag_370\n        /* \"#utility.yul\":19749:19790   */\n      tag_371\n        /* \"#utility.yul\":19773:19789   */\n      dup3\n        /* \"#utility.yul\":19749:19790   */\n      tag_173\n      jump\t// in\n    tag_371:\n        /* \"#utility.yul\":19741:19747   */\n      dup5\n        /* \"#utility.yul\":19734:19738   */\n      dup5\n        /* \"#utility.yul\":19728:19739   */\n      sload\n        /* \"#utility.yul\":19700:19791   */\n      tag_170\n      jump\t// in\n    tag_370:\n        /* \"#utility.yul\":19694:19698   */\n      dup3\n        /* \"#utility.yul\":19687:19792   */\n      sstore\n        /* \"#utility.yul\":19605:19798   */\n      pop\n        /* \"#utility.yul\":19529:19798   */\n      pop\n      pop\n      pop\n      jump\t// out\n        /* \"#utility.yul\":19804:19877   */\n    tag_175:\n        /* \"#utility.yul\":19849:19852   */\n      0x00\n        /* \"#utility.yul\":19804:19877   */\n      swap1\n      jump\t// out\n        /* \"#utility.yul\":19883:20072   */\n    tag_176:\n        /* \"#utility.yul\":19960:19992   */\n      tag_374\n      tag_175\n      jump\t// in\n    tag_374:\n        /* \"#utility.yul\":20001:20066   */\n      tag_375\n        /* \"#utility.yul\":20059:20065   */\n      dup2\n        /* \"#utility.yul\":20051:20057   */\n      dup5\n        /* \"#utility.yul\":20045:20049   */\n      dup5\n        /* \"#utility.yul\":20001:20066   */\n      tag_174\n      jump\t// in\n    tag_375:\n        /* \"#utility.yul\":19936:20072   */\n      pop\n        /* \"#utility.yul\":19883:20072   */\n      pop\n      pop\n      jump\t// out\n        /* \"#utility.yul\":20078:20264   */\n    tag_177:\n        /* \"#utility.yul\":20138:20258   */\n    tag_377:\n        /* \"#utility.yul\":20155:20158   */\n      dup2\n        /* \"#utility.yul\":20148:20153   */\n      dup2\n        /* \"#utility.yul\":20145:20159   */\n      lt\n        /* \"#utility.yul\":20138:20258   */\n      iszero\n      tag_379\n      jumpi\n        /* \"#utility.yul\":20209:20248   */\n      tag_380\n        /* \"#utility.yul\":20246:20247   */\n      0x00\n        /* \"#utility.yul\":20239:20244   */\n      dup3\n        /* \"#utility.yul\":20209:20248   */\n      tag_176\n      jump\t// in\n    tag_380:\n        /* \"#utility.yul\":20182:20183   */\n      0x01\n        /* \"#utility.yul\":20175:20180   */\n      dup2\n        /* \"#utility.yul\":20171:20184   */\n      add\n        /* \"#utility.yul\":20162:20184   */\n      swap1\n      pop\n        /* \"#utility.yul\":20138:20258   */\n      jump(tag_377)\n    tag_379:\n        /* \"#utility.yul\":20078:20264   */\n      pop\n      pop\n      jump\t// out\n        /* \"#utility.yul\":20270:20813   */\n    tag_178:\n        /* \"#utility.yul\":20371:20373   */\n      0x1f\n        /* \"#utility.yul\":20366:20369   */\n      dup3\n        /* \"#utility.yul\":20363:20374   */\n      gt\n        /* \"#utility.yul\":20360:20806   */\n      iszero\n      tag_382\n      jumpi\n        /* \"#utility.yul\":20405:20443   */\n      tag_383\n        /* \"#utility.yul\":20437:20442   */\n      dup2\n        /* \"#utility.yul\":20405:20443   */\n      tag_167\n      jump\t// in\n    tag_383:\n        /* \"#utility.yul\":20489:20518   */\n      tag_384\n        /* \"#utility.yul\":20507:20517   */\n      dup5\n        /* \"#utility.yul\":20489:20518   */\n      tag_168\n      jump\t// in\n    tag_384:\n        /* \"#utility.yul\":20479:20487   */\n      dup2\n        /* \"#utility.yul\":20475:20519   */\n      add\n        /* \"#utility.yul\":20672:20674   */\n      0x20\n        /* \"#utility.yul\":20660:20670   */\n      dup6\n        /* \"#utility.yul\":20657:20675   */\n      lt\n        /* \"#utility.yul\":20654:20703   */\n      iszero\n      tag_385\n      jumpi\n        /* \"#utility.yul\":20693:20701   */\n      dup2\n        /* \"#utility.yul\":20678:20701   */\n      swap1\n      pop\n        /* \"#utility.yul\":20654:20703   */\n    tag_385:\n        /* \"#utility.yul\":20716:20796   */\n      tag_386\n        /* \"#utility.yul\":20772:20794   */\n      tag_387\n        /* \"#utility.yul\":20790:20793   */\n      dup6\n        /* \"#utility.yul\":20772:20794   */\n      tag_168\n      jump\t// in\n    tag_387:\n        /* \"#utility.yul\":20762:20770   */\n      dup4\n        /* \"#utility.yul\":20758:20795   */\n      add\n        /* \"#utility.yul\":20745:20756   */\n      dup3\n        /* \"#utility.yul\":20716:20796   */\n      tag_177\n      jump\t// in\n    tag_386:\n        /* \"#utility.yul\":20375:20806   */\n      pop\n      pop\n        /* \"#utility.yul\":20360:20806   */\n    tag_382:\n        /* \"#utility.yul\":20270:20813   */\n      pop\n      pop\n      pop\n      jump\t// out\n        /* \"#utility.yul\":20819:20936   */\n    tag_179:\n        /* \"#utility.yul\":20873:20881   */\n      0x00\n        /* \"#utility.yul\":20923:20928   */\n      dup3\n        /* \"#utility.yul\":20917:20921   */\n      dup3\n        /* \"#utility.yul\":20913:20929   */\n      shr\n        /* \"#utility.yul\":20892:20929   */\n      swap1\n      pop\n        /* \"#utility.yul\":20819:20936   */\n      swap3\n      swap2\n      pop\n      pop\n      jump\t// out\n        /* \"#utility.yul\":20942:21111   */\n    tag_180:\n        /* \"#utility.yul\":20986:20992   */\n      0x00\n        /* \"#utility.yul\":21019:21070   */\n      tag_390\n        /* \"#utility.yul\":21067:21068   */\n      0x00\n        /* \"#utility.yul\":21063:21069   */\n      not\n        /* \"#utility.yul\":21055:21060   */\n      dup5\n        /* \"#utility.yul\":21052:21053   */\n      0x08\n        /* \"#utility.yul\":21048:21061   */\n      mul\n        /* \"#utility.yul\":21019:21070   */\n      tag_179\n      jump\t// in\n    tag_390:\n        /* \"#utility.yul\":21015:21071   */\n      not\n        /* \"#utility.yul\":21100:21104   */\n      dup1\n        /* \"#utility.yul\":21094:21098   */\n      dup4\n        /* \"#utility.yul\":21090:21105   */\n      and\n        /* \"#utility.yul\":21080:21105   */\n      swap2\n      pop\n        /* \"#utility.yul\":20993:21111   */\n      pop\n        /* \"#utility.yul\":20942:21111   */\n      swap3\n      swap2\n      pop\n      pop\n      jump\t// out\n        /* \"#utility.yul\":21116:21411   */\n    tag_181:\n        /* \"#utility.yul\":21192:21196   */\n      0x00\n        /* \"#utility.yul\":21338:21367   */\n      tag_392\n        /* \"#utility.yul\":21363:21366   */\n      dup4\n        /* \"#utility.yul\":21357:21361   */\n      dup4\n        /* \"#utility.yul\":21338:21367   */\n      tag_180\n      jump\t// in\n    tag_392:\n        /* \"#utility.yul\":21330:21367   */\n      swap2\n      pop\n        /* \"#utility.yul\":21400:21403   */\n      dup3\n        /* \"#utility.yul\":21397:21398   */\n      0x02\n        /* \"#utility.yul\":21393:21404   */\n      mul\n        /* \"#utility.yul\":21387:21391   */\n      dup3\n        /* \"#utility.yul\":21384:21405   */\n      or\n        /* \"#utility.yul\":21376:21405   */\n      swap1\n      pop\n        /* \"#utility.yul\":21116:21411   */\n      swap3\n      swap2\n      pop\n      pop\n      jump\t// out\n        /* \"#utility.yul\":21416:22811   */\n    tag_105:\n        /* \"#utility.yul\":21533:21570   */\n      tag_394\n        /* \"#utility.yul\":21566:21569   */\n      dup3\n        /* \"#utility.yul\":21533:21570   */\n      tag_129\n      jump\t// in\n    tag_394:\n        /* \"#utility.yul\":21635:21653   */\n      0xffffffffffffffff\n        /* \"#utility.yul\":21627:21633   */\n      dup2\n        /* \"#utility.yul\":21624:21654   */\n      gt\n        /* \"#utility.yul\":21621:21677   */\n      iszero\n      tag_395\n      jumpi\n        /* \"#utility.yul\":21657:21675   */\n      tag_396\n      tag_151\n      jump\t// in\n    tag_396:\n        /* \"#utility.yul\":21621:21677   */\n    tag_395:\n        /* \"#utility.yul\":21701:21739   */\n      tag_397\n        /* \"#utility.yul\":21733:21737   */\n      dup3\n        /* \"#utility.yul\":21727:21738   */\n      sload\n        /* \"#utility.yul\":21701:21739   */\n      tag_56\n      jump\t// in\n    tag_397:\n        /* \"#utility.yul\":21786:21853   */\n      tag_398\n        /* \"#utility.yul\":21846:21852   */\n      dup3\n        /* \"#utility.yul\":21838:21844   */\n      dup3\n        /* \"#utility.yul\":21832:21836   */\n      dup6\n        /* \"#utility.yul\":21786:21853   */\n      tag_178\n      jump\t// in\n    tag_398:\n        /* \"#utility.yul\":21880:21881   */\n      0x00\n        /* \"#utility.yul\":21904:21908   */\n      0x20\n        /* \"#utility.yul\":21891:21908   */\n      swap1\n      pop\n        /* \"#utility.yul\":21936:21938   */\n      0x1f\n        /* \"#utility.yul\":21928:21934   */\n      dup4\n        /* \"#utility.yul\":21925:21939   */\n      gt\n        /* \"#utility.yul\":21953:21954   */\n      0x01\n        /* \"#utility.yul\":21948:22566   */\n      dup2\n      eq\n      tag_400\n      jumpi\n        /* \"#utility.yul\":22610:22611   */\n      0x00\n        /* \"#utility.yul\":22627:22633   */\n      dup5\n        /* \"#utility.yul\":22624:22701   */\n      iszero\n      tag_401\n      jumpi\n        /* \"#utility.yul\":22676:22685   */\n      dup3\n        /* \"#utility.yul\":22671:22674   */\n      dup8\n        /* \"#utility.yul\":22667:22686   */\n      add\n        /* \"#utility.yul\":22661:22687   */\n      mload\n        /* \"#utility.yul\":22652:22687   */\n      swap1\n      pop\n        /* \"#utility.yul\":22624:22701   */\n    tag_401:\n        /* \"#utility.yul\":22727:22794   */\n      tag_402\n        /* \"#utility.yul\":22787:22793   */\n      dup6\n        /* \"#utility.yul\":22780:22785   */\n      dup3\n        /* \"#utility.yul\":22727:22794   */\n      tag_181\n      jump\t// in\n    tag_402:\n        /* \"#utility.yul\":22721:22725   */\n      dup7\n        /* \"#utility.yul\":22714:22795   */\n      sstore\n        /* \"#utility.yul\":22583:22805   */\n      pop\n        /* \"#utility.yul\":21918:22805   */\n      jump(tag_399)\n        /* \"#utility.yul\":21948:22566   */\n    tag_400:\n        /* \"#utility.yul\":22000:22004   */\n      0x1f\n        /* \"#utility.yul\":21996:22005   */\n      not\n        /* \"#utility.yul\":21988:21994   */\n      dup5\n        /* \"#utility.yul\":21984:22006   */\n      and\n        /* \"#utility.yul\":22034:22071   */\n      tag_403\n        /* \"#utility.yul\":22066:22070   */\n      dup7\n        /* \"#utility.yul\":22034:22071   */\n      tag_167\n      jump\t// in\n    tag_403:\n        /* \"#utility.yul\":22093:22094   */\n      0x00\n        /* \"#utility.yul\":22107:22315   */\n    tag_404:\n        /* \"#utility.yul\":22121:22128   */\n      dup3\n        /* \"#utility.yul\":22118:22119   */\n      dup2\n        /* \"#utility.yul\":22115:22129   */\n      lt\n        /* \"#utility.yul\":22107:22315   */\n      iszero\n      tag_406\n      jumpi\n        /* \"#utility.yul\":22200:22209   */\n      dup5\n        /* \"#utility.yul\":22195:22198   */\n      dup10\n        /* \"#utility.yul\":22191:22210   */\n      add\n        /* \"#utility.yul\":22185:22211   */\n      mload\n        /* \"#utility.yul\":22177:22183   */\n      dup3\n        /* \"#utility.yul\":22170:22212   */\n      sstore\n        /* \"#utility.yul\":22251:22252   */\n      0x01\n        /* \"#utility.yul\":22243:22249   */\n      dup3\n        /* \"#utility.yul\":22239:22253   */\n      add\n        /* \"#utility.yul\":22229:22253   */\n      swap2\n      pop\n        /* \"#utility.yul\":22298:22300   */\n      0x20\n        /* \"#utility.yul\":22287:22296   */\n      dup6\n        /* \"#utility.yul\":22283:22301   */\n      add\n        /* \"#utility.yul\":22270:22301   */\n      swap5\n      pop\n        /* \"#utility.yul\":22144:22148   */\n      0x20\n        /* \"#utility.yul\":22141:22142   */\n      dup2\n        /* \"#utility.yul\":22137:22149   */\n      add\n        /* \"#utility.yul\":22132:22149   */\n      swap1\n      pop\n        /* \"#utility.yul\":22107:22315   */\n      jump(tag_404)\n    tag_406:\n        /* \"#utility.yul\":22343:22349   */\n      dup7\n        /* \"#utility.yul\":22334:22341   */\n      dup4\n        /* \"#utility.yul\":22331:22350   */\n      lt\n        /* \"#utility.yul\":22328:22507   */\n      iszero\n      tag_407\n      jumpi\n        /* \"#utility.yul\":22401:22410   */\n      dup5\n        /* \"#utility.yul\":22396:22399   */\n      dup10\n        /* \"#utility.yul\":22392:22411   */\n      add\n        /* \"#utility.yul\":22386:22412   */\n      mload\n        /* \"#utility.yul\":22444:22492   */\n      tag_408\n        /* \"#utility.yul\":22486:22490   */\n      0x1f\n        /* \"#utility.yul\":22478:22484   */\n      dup10\n        /* \"#utility.yul\":22474:22491   */\n      and\n        /* \"#utility.yul\":22463:22472   */\n      dup3\n        /* \"#utility.yul\":22444:22492   */\n      tag_180\n      jump\t// in\n    tag_408:\n        /* \"#utility.yul\":22436:22442   */\n      dup4\n        /* \"#utility.yul\":22429:22493   */\n      sstore\n        /* \"#utility.yul\":22351:22507   */\n      pop\n        /* \"#utility.yul\":22328:22507   */\n    tag_407:\n        /* \"#utility.yul\":22553:22554   */\n      0x01\n        /* \"#utility.yul\":22549:22550   */\n      0x02\n        /* \"#utility.yul\":22541:22547   */\n      dup9\n        /* \"#utility.yul\":22537:22551   */\n      mul\n        /* \"#utility.yul\":22533:22555   */\n      add\n        /* \"#utility.yul\":22527:22531   */\n      dup9\n        /* \"#utility.yul\":22520:22556   */\n      sstore\n        /* \"#utility.yul\":21955:22566   */\n      pop\n      pop\n      pop\n        /* \"#utility.yul\":21918:22805   */\n    tag_399:\n      pop\n        /* \"#utility.yul\":21508:22811   */\n      pop\n      pop\n      pop\n        /* \"#utility.yul\":21416:22811   */\n      pop\n      pop\n      jump\t// out\n\n    auxdata: 0xa2646970667358221220f720f80aef941282c26cbd032dc10ad2fb76850eafa5ef2c9e1c05971d20061464736f6c63430008160033\n}\n",
				"bytecode": {
					"linkReferences": {},
					"object": "60806040526101185f806101000a81548161ffff021916908361ffff16021790555034801561002c575f80fd5b503360025f6101000a81548173ffffffffffffffffffffffffffffffffffffffff021916908373ffffffffffffffffffffffffffffffffffffffff16021790555061166d8061007a5f395ff3fe608060405234801561000f575f80fd5b5060043610610091575f3560e01c806358bfa4ab1161006457806358bfa4ab14610133578063633782161461014f5780637c9cd2bc1461016b5780638da5cb5b14610187578063c3ad5ecb146101a557610091565b806305a1b4a9146100955780630a50bfb3146100c957806328bb2285146100e75780633d9b569f14610117575b5f80fd5b6100af60048036038101906100aa9190610b7d565b6101d5565b6040516100c0959493929190610c63565b60405180910390f35b6100d16102c6565b6040516100de9190610cd7565b60405180910390f35b61010160048036038101906100fc9190610cf0565b6102d7565b60405161010e9190610eaf565b60405180910390f35b610131600480360381019061012c9190610b7d565b610472565b005b61014d60048036038101906101489190610ef9565b610588565b005b61016960048036038101906101649190610b7d565b610635565b005b61018560048036038101906101809190611050565b61074b565b005b61018f610902565b60405161019c9190611097565b60405180910390f35b6101bf60048036038101906101ba91906110b0565b610927565b6040516101cc919061114e565b60405180910390f35b6001602052815f5260405f2081815481106101ee575f80fd5b905f5260205f2090600502015f9150915050805f015490806001015f9054906101000a900473ffffffffffffffffffffffffffffffffffffffff16908060020180546102399061119b565b80601f01602080910402602001604051908101604052809291908181526020018280546102659061119b565b80156102b05780601f10610287576101008083540402835291602001916102b0565b820191905f5260205f20905b81548152906001019060200180831161029357829003601f168201915b5050505050908060030154908060040154905085565b5f8054906101000a900461ffff1681565b606060015f8373ffffffffffffffffffffffffffffffffffffffff1673ffffffffffffffffffffffffffffffffffffffff1681526020019081526020015f20805480602002602001604051908101604052809291908181526020015f905b82821015610467578382905f5260205f2090600502016040518060a00160405290815f8201548152602001600182015f9054906101000a900473ffffffffffffffffffffffffffffffffffffffff1673ffffffffffffffffffffffffffffffffffffffff1673ffffffffffffffffffffffffffffffffffffffff1681526020016002820180546103c49061119b565b80601f01602080910402602001604051908101604052809291908181526020018280546103f09061119b565b801561043b5780601f106104125761010080835404028352916020019161043b565b820191905f5260205f20905b81548152906001019060200180831161041e57829003601f168201915b505050505081526020016003820154815260200160048201548152505081526020019060010190610335565b505050509050919050565b8060015f8473ffffffffffffffffffffffffffffffffffffffff1673ffffffffffffffffffffffffffffffffffffffff1681526020019081526020015f2082815481106104c2576104c16111cb565b5b905f5260205f2090600502015f015414610511576040517f08c379a000000000000000000000000000000000000000000000000000000000815260040161050890611242565b60405180910390fd5b60015f8373ffffffffffffffffffffffffffffffffffffffff1673ffffffffffffffffffffffffffffffffffffffff1681526020019081526020015f2081815481106105605761055f6111cb565b5b905f5260205f2090600502016004015f81548092919061057f9061128d565b91905055505050565b60025f9054906101000a900473ffffffffffffffffffffffffffffffffffffffff1673ffffffffffffffffffffffffffffffffffffffff163373ffffffffffffffffffffffffffffffffffffffff1614610617576040517f08c379a000000000000000000000000000000000000000000000000000000000815260040161060e906112fe565b60405180910390fd5b805f806101000a81548161ffff021916908361ffff16021790555050565b8060015f8473ffffffffffffffffffffffffffffffffffffffff1673ffffffffffffffffffffffffffffffffffffffff1681526020019081526020015f208281548110610685576106846111cb565b5b905f5260205f2090600502015f0154146106d4576040517f08c379a00000000000000000000000000000000000000000000000000000000081526004016106cb90611242565b60405180910390fd5b60015f8373ffffffffffffffffffffffffffffffffffffffff1673ffffffffffffffffffffffffffffffffffffffff1681526020019081526020015f208181548110610723576107226111cb565b5b905f5260205f2090600502016004015f8154809291906107429061131c565b91905055505050565b5f8054906101000a900461ffff1661ffff16815111156107a0576040517f08c379a0000000000000000000000000000000000000000000000000000000008152600401610797906113ad565b60405180910390fd5b5f6040518060a0016040528060015f3373ffffffffffffffffffffffffffffffffffffffff1673ffffffffffffffffffffffffffffffffffffffff1681526020019081526020015f208054905081526020013373ffffffffffffffffffffffffffffffffffffffff1681526020018381526020014281526020015f815250905060015f3373ffffffffffffffffffffffffffffffffffffffff1673ffffffffffffffffffffffffffffffffffffffff1681526020019081526020015f2081908060018154018082558091505060019003905f5260205f2090600502015f909190919091505f820151815f01556020820151816001015f6101000a81548173ffffffffffffffffffffffffffffffffffffffff021916908373ffffffffffffffffffffffffffffffffffffffff16021790555060408201518160020190816108e79190611568565b50606082015181600301556080820151816004015550505050565b60025f9054906101000a900473ffffffffffffffffffffffffffffffffffffffff1681565b61092f610a9e565b60015f3373ffffffffffffffffffffffffffffffffffffffff1673ffffffffffffffffffffffffffffffffffffffff1681526020019081526020015f20828154811061097e5761097d6111cb565b5b905f5260205f2090600502016040518060a00160405290815f8201548152602001600182015f9054906101000a900473ffffffffffffffffffffffffffffffffffffffff1673ffffffffffffffffffffffffffffffffffffffff1673ffffffffffffffffffffffffffffffffffffffff168152602001600282018054610a039061119b565b80601f0160208091040260200160405190810160405280929190818152602001828054610a2f9061119b565b8015610a7a5780601f10610a5157610100808354040283529160200191610a7a565b820191905f5260205f20905b815481529060010190602001808311610a5d57829003601f168201915b50505050508152602001600382015481526020016004820154815250509050919050565b6040518060a001604052805f81526020015f73ffffffffffffffffffffffffffffffffffffffff168152602001606081526020015f81526020015f81525090565b5f604051905090565b5f80fd5b5f80fd5b5f73ffffffffffffffffffffffffffffffffffffffff82169050919050565b5f610b1982610af0565b9050919050565b610b2981610b0f565b8114610b33575f80fd5b50565b5f81359050610b4481610b20565b92915050565b5f819050919050565b610b5c81610b4a565b8114610b66575f80fd5b50565b5f81359050610b7781610b53565b92915050565b5f8060408385031215610b9357610b92610ae8565b5b5f610ba085828601610b36565b9250506020610bb185828601610b69565b9150509250929050565b610bc481610b4a565b82525050565b610bd381610b0f565b82525050565b5f81519050919050565b5f82825260208201905092915050565b5f5b83811015610c10578082015181840152602081019050610bf5565b5f8484015250505050565b5f601f19601f8301169050919050565b5f610c3582610bd9565b610c3f8185610be3565b9350610c4f818560208601610bf3565b610c5881610c1b565b840191505092915050565b5f60a082019050610c765f830188610bbb565b610c836020830187610bca565b8181036040830152610c958186610c2b565b9050610ca46060830185610bbb565b610cb16080830184610bbb565b9695505050505050565b5f61ffff82169050919050565b610cd181610cbb565b82525050565b5f602082019050610cea5f830184610cc8565b92915050565b5f60208284031215610d0557610d04610ae8565b5b5f610d1284828501610b36565b91505092915050565b5f81519050919050565b5f82825260208201905092915050565b5f819050602082019050919050565b610d4d81610b4a565b82525050565b610d5c81610b0f565b82525050565b5f82825260208201905092915050565b5f610d7c82610bd9565b610d868185610d62565b9350610d96818560208601610bf3565b610d9f81610c1b565b840191505092915050565b5f60a083015f830151610dbf5f860182610d44565b506020830151610dd26020860182610d53565b5060408301518482036040860152610dea8282610d72565b9150506060830151610dff6060860182610d44565b506080830151610e126080860182610d44565b508091505092915050565b5f610e288383610daa565b905092915050565b5f602082019050919050565b5f610e4682610d1b565b610e508185610d25565b935083602082028501610e6285610d35565b805f5b85811015610e9d5784840389528151610e7e8582610e1d565b9450610e8983610e30565b925060208a01995050600181019050610e65565b50829750879550505050505092915050565b5f6020820190508181035f830152610ec78184610e3c565b905092915050565b610ed881610cbb565b8114610ee2575f80fd5b50565b5f81359050610ef381610ecf565b92915050565b5f60208284031215610f0e57610f0d610ae8565b5b5f610f1b84828501610ee5565b91505092915050565b5f80fd5b5f80fd5b7f4e487b71000000000000000000000000000000000000000000000000000000005f52604160045260245ffd5b610f6282610c1b565b810181811067ffffffffffffffff82111715610f8157610f80610f2c565b5b80604052505050565b5f610f93610adf565b9050610f9f8282610f59565b919050565b5f67ffffffffffffffff821115610fbe57610fbd610f2c565b5b610fc782610c1b565b9050602081019050919050565b828183375f83830152505050565b5f610ff4610fef84610fa4565b610f8a565b9050828152602081018484840111156110105761100f610f28565b5b61101b848285610fd4565b509392505050565b5f82601f83011261103757611036610f24565b5b8135611047848260208601610fe2565b91505092915050565b5f6020828403121561106557611064610ae8565b5b5f82013567ffffffffffffffff81111561108257611081610aec565b5b61108e84828501611023565b91505092915050565b5f6020820190506110aa5f830184610bca565b92915050565b5f602082840312156110c5576110c4610ae8565b5b5f6110d284828501610b69565b91505092915050565b5f60a083015f8301516110f05f860182610d44565b5060208301516111036020860182610d53565b506040830151848203604086015261111b8282610d72565b91505060608301516111306060860182610d44565b5060808301516111436080860182610d44565b508091505092915050565b5f6020820190508181035f83015261116681846110db565b905092915050565b7f4e487b71000000000000000000000000000000000000000000000000000000005f52602260045260245ffd5b5f60028204905060018216806111b257607f821691505b6020821081036111c5576111c461116e565b5b50919050565b7f4e487b71000000000000000000000000000000000000000000000000000000005f52603260045260245ffd5b7f547765657420446f6573206e6f742065786973740000000000000000000000005f82015250565b5f61122c601483610be3565b9150611237826111f8565b602082019050919050565b5f6020820190508181035f83015261125981611220565b9050919050565b7f4e487b71000000000000000000000000000000000000000000000000000000005f52601160045260245ffd5b5f61129782610b4a565b91505f82036112a9576112a8611260565b5b600182039050919050565b7f594f5520415245204e4f5420544845204f574e455200000000000000000000005f82015250565b5f6112e8601583610be3565b91506112f3826112b4565b602082019050919050565b5f6020820190508181035f830152611315816112dc565b9050919050565b5f61132682610b4a565b91507fffffffffffffffffffffffffffffffffffffffffffffffffffffffffffffffff820361135857611357611260565b5b600182019050919050565b7f547765657420697320746f6f204c6f6e670000000000000000000000000000005f82015250565b5f611397601183610be3565b91506113a282611363565b602082019050919050565b5f6020820190508181035f8301526113c48161138b565b9050919050565b5f819050815f5260205f209050919050565b5f6020601f8301049050919050565b5f82821b905092915050565b5f600883026114277fffffffffffffffffffffffffffffffffffffffffffffffffffffffffffffffff826113ec565b61143186836113ec565b95508019841693508086168417925050509392505050565b5f819050919050565b5f61146c61146761146284610b4a565b611449565b610b4a565b9050919050565b5f819050919050565b61148583611452565b61149961149182611473565b8484546113f8565b825550505050565b5f90565b6114ad6114a1565b6114b881848461147c565b505050565b5b818110156114db576114d05f826114a5565b6001810190506114be565b5050565b601f821115611520576114f1816113cb565b6114fa846113dd565b81016020851015611509578190505b61151d611515856113dd565b8301826114bd565b50505b505050565b5f82821c905092915050565b5f6115405f1984600802611525565b1980831691505092915050565b5f6115588383611531565b9150826002028217905092915050565b61157182610bd9565b67ffffffffffffffff81111561158a57611589610f2c565b5b611594825461119b565b61159f8282856114df565b5f60209050601f8311600181146115d0575f84156115be578287015190505b6115c8858261154d565b86555061162f565b601f1984166115de866113cb565b5f5b82811015611605578489015182556001820191506020850194506020810190506115e0565b86831015611622578489015161161e601f891682611531565b8355505b6001600288020188555050505b50505050505056fea2646970667358221220f720f80aef941282c26cbd032dc10ad2fb76850eafa5ef2c9e1c05971d20061464736f6c63430008160033",
					"opcodes": "PUSH1 0x80 PUSH1 0x40 MSTORE PUSH2 0x118 PUSH0 DUP1 PUSH2 0x100 EXP DUP2 SLOAD DUP2 PUSH2 0xFFFF MUL NOT AND SWAP1 DUP4 PUSH2 0xFFFF AND MUL OR SWAP1 SSTORE POP CALLVALUE DUP1 ISZERO PUSH2 0x2C JUMPI PUSH0 DUP1 REVERT JUMPDEST POP CALLER PUSH1 0x2 PUSH0 PUSH2 0x100 EXP DUP2 SLOAD DUP2 PUSH20 0xFFFFFFFFFFFFFFFFFFFFFFFFFFFFFFFFFFFFFFFF MUL NOT AND SWAP1 DUP4 PUSH20 0xFFFFFFFFFFFFFFFFFFFFFFFFFFFFFFFFFFFFFFFF AND MUL OR SWAP1 SSTORE POP PUSH2 0x166D DUP1 PUSH2 0x7A PUSH0 CODECOPY PUSH0 RETURN INVALID PUSH1 0x80 PUSH1 0x40 MSTORE CALLVALUE DUP1 ISZERO PUSH2 0xF JUMPI PUSH0 DUP1 REVERT JUMPDEST POP PUSH1 0x4 CALLDATASIZE LT PUSH2 0x91 JUMPI PUSH0 CALLDATALOAD PUSH1 0xE0 SHR DUP1 PUSH4 0x58BFA4AB GT PUSH2 0x64 JUMPI DUP1 PUSH4 0x58BFA4AB EQ PUSH2 0x133 JUMPI DUP1 PUSH4 0x63378216 EQ PUSH2 0x14F JUMPI DUP1 PUSH4 0x7C9CD2BC EQ PUSH2 0x16B JUMPI DUP1 PUSH4 0x8DA5CB5B EQ PUSH2 0x187 JUMPI DUP1 PUSH4 0xC3AD5ECB EQ PUSH2 0x1A5 JUMPI PUSH2 0x91 JUMP JUMPDEST DUP1 PUSH4 0x5A1B4A9 EQ PUSH2 0x95 JUMPI DUP1 PUSH4 0xA50BFB3 EQ PUSH2 0xC9 JUMPI DUP1 PUSH4 0x28BB2285 EQ PUSH2 0xE7 JUMPI DUP1 PUSH4 0x3D9B569F EQ PUSH2 0x117 JUMPI JUMPDEST PUSH0 DUP1 REVERT JUMPDEST PUSH2 0xAF PUSH1 0x4 DUP1 CALLDATASIZE SUB DUP2 ADD SWAP1 PUSH2 0xAA SWAP2 SWAP1 PUSH2 0xB7D JUMP JUMPDEST PUSH2 0x1D5 JUMP JUMPDEST PUSH1 0x40 MLOAD PUSH2 0xC0 SWAP6 SWAP5 SWAP4 SWAP3 SWAP2 SWAP1 PUSH2 0xC63 JUMP JUMPDEST PUSH1 0x40 MLOAD DUP1 SWAP2 SUB SWAP1 RETURN JUMPDEST PUSH2 0xD1 PUSH2 0x2C6 JUMP JUMPDEST PUSH1 0x40 MLOAD PUSH2 0xDE SWAP2 SWAP1 PUSH2 0xCD7 JUMP JUMPDEST PUSH1 0x40 MLOAD DUP1 SWAP2 SUB SWAP1 RETURN JUMPDEST PUSH2 0x101 PUSH1 0x4 DUP1 CALLDATASIZE SUB DUP2 ADD SWAP1 PUSH2 0xFC SWAP2 SWAP1 PUSH2 0xCF0 JUMP JUMPDEST PUSH2 0x2D7 JUMP JUMPDEST PUSH1 0x40 MLOAD PUSH2 0x10E SWAP2 SWAP1 PUSH2 0xEAF JUMP JUMPDEST PUSH1 0x40 MLOAD DUP1 SWAP2 SUB SWAP1 RETURN JUMPDEST PUSH2 0x131 PUSH1 0x4 DUP1 CALLDATASIZE SUB DUP2 ADD SWAP1 PUSH2 0x12C SWAP2 SWAP1 PUSH2 0xB7D JUMP JUMPDEST PUSH2 0x472 JUMP JUMPDEST STOP JUMPDEST PUSH2 0x14D PUSH1 0x4 DUP1 CALLDATASIZE SUB DUP2 ADD SWAP1 PUSH2 0x148 SWAP2 SWAP1 PUSH2 0xEF9 JUMP JUMPDEST PUSH2 0x588 JUMP JUMPDEST STOP JUMPDEST PUSH2 0x169 PUSH1 0x4 DUP1 CALLDATASIZE SUB DUP2 ADD SWAP1 PUSH2 0x164 SWAP2 SWAP1 PUSH2 0xB7D JUMP JUMPDEST PUSH2 0x635 JUMP JUMPDEST STOP JUMPDEST PUSH2 0x185 PUSH1 0x4 DUP1 CALLDATASIZE SUB DUP2 ADD SWAP1 PUSH2 0x180 SWAP2 SWAP1 PUSH2 0x1050 JUMP JUMPDEST PUSH2 0x74B JUMP JUMPDEST STOP JUMPDEST PUSH2 0x18F PUSH2 0x902 JUMP JUMPDEST PUSH1 0x40 MLOAD PUSH2 0x19C SWAP2 SWAP1 PUSH2 0x1097 JUMP JUMPDEST PUSH1 0x40 MLOAD DUP1 SWAP2 SUB SWAP1 RETURN JUMPDEST PUSH2 0x1BF PUSH1 0x4 DUP1 CALLDATASIZE SUB DUP2 ADD SWAP1 PUSH2 0x1BA SWAP2 SWAP1 PUSH2 0x10B0 JUMP JUMPDEST PUSH2 0x927 JUMP JUMPDEST PUSH1 0x40 MLOAD PUSH2 0x1CC SWAP2 SWAP1 PUSH2 0x114E JUMP JUMPDEST PUSH1 0x40 MLOAD DUP1 SWAP2 SUB SWAP1 RETURN JUMPDEST PUSH1 0x1 PUSH1 0x20 MSTORE DUP2 PUSH0 MSTORE PUSH1 0x40 PUSH0 KECCAK256 DUP2 DUP2 SLOAD DUP2 LT PUSH2 0x1EE JUMPI PUSH0 DUP1 REVERT JUMPDEST SWAP1 PUSH0 MSTORE PUSH1 0x20 PUSH0 KECCAK256 SWAP1 PUSH1 0x5 MUL ADD PUSH0 SWAP2 POP SWAP2 POP POP DUP1 PUSH0 ADD SLOAD SWAP1 DUP1 PUSH1 0x1 ADD PUSH0 SWAP1 SLOAD SWAP1 PUSH2 0x100 EXP SWAP1 DIV PUSH20 0xFFFFFFFFFFFFFFFFFFFFFFFFFFFFFFFFFFFFFFFF AND SWAP1 DUP1 PUSH1 0x2 ADD DUP1 SLOAD PUSH2 0x239 SWAP1 PUSH2 0x119B JUMP JUMPDEST DUP1 PUSH1 0x1F ADD PUSH1 0x20 DUP1 SWAP2 DIV MUL PUSH1 0x20 ADD PUSH1 0x40 MLOAD SWAP1 DUP2 ADD PUSH1 0x40 MSTORE DUP1 SWAP3 SWAP2 SWAP1 DUP2 DUP2 MSTORE PUSH1 0x20 ADD DUP3 DUP1 SLOAD PUSH2 0x265 SWAP1 PUSH2 0x119B JUMP JUMPDEST DUP1 ISZERO PUSH2 0x2B0 JUMPI DUP1 PUSH1 0x1F LT PUSH2 0x287 JUMPI PUSH2 0x100 DUP1 DUP4 SLOAD DIV MUL DUP4 MSTORE SWAP2 PUSH1 0x20 ADD SWAP2 PUSH2 0x2B0 JUMP JUMPDEST DUP3 ADD SWAP2 SWAP1 PUSH0 MSTORE PUSH1 0x20 PUSH0 KECCAK256 SWAP1 JUMPDEST DUP2 SLOAD DUP2 MSTORE SWAP1 PUSH1 0x1 ADD SWAP1 PUSH1 0x20 ADD DUP1 DUP4 GT PUSH2 0x293 JUMPI DUP3 SWAP1 SUB PUSH1 0x1F AND DUP3 ADD SWAP2 JUMPDEST POP POP POP POP POP SWAP1 DUP1 PUSH1 0x3 ADD SLOAD SWAP1 DUP1 PUSH1 0x4 ADD SLOAD SWAP1 POP DUP6 JUMP JUMPDEST PUSH0 DUP1 SLOAD SWAP1 PUSH2 0x100 EXP SWAP1 DIV PUSH2 0xFFFF AND DUP2 JUMP JUMPDEST PUSH1 0x60 PUSH1 0x1 PUSH0 DUP4 PUSH20 0xFFFFFFFFFFFFFFFFFFFFFFFFFFFFFFFFFFFFFFFF AND PUSH20 0xFFFFFFFFFFFFFFFFFFFFFFFFFFFFFFFFFFFFFFFF AND DUP2 MSTORE PUSH1 0x20 ADD SWAP1 DUP2 MSTORE PUSH1 0x20 ADD PUSH0 KECCAK256 DUP1 SLOAD DUP1 PUSH1 0x20 MUL PUSH1 0x20 ADD PUSH1 0x40 MLOAD SWAP1 DUP2 ADD PUSH1 0x40 MSTORE DUP1 SWAP3 SWAP2 SWAP1 DUP2 DUP2 MSTORE PUSH1 0x20 ADD PUSH0 SWAP1 JUMPDEST DUP3 DUP3 LT ISZERO PUSH2 0x467 JUMPI DUP4 DUP3 SWAP1 PUSH0 MSTORE PUSH1 0x20 PUSH0 KECCAK256 SWAP1 PUSH1 0x5 MUL ADD PUSH1 0x40 MLOAD DUP1 PUSH1 0xA0 ADD PUSH1 0x40 MSTORE SWAP1 DUP2 PUSH0 DUP3 ADD SLOAD DUP2 MSTORE PUSH1 0x20 ADD PUSH1 0x1 DUP3 ADD PUSH0 SWAP1 SLOAD SWAP1 PUSH2 0x100 EXP SWAP1 DIV PUSH20 0xFFFFFFFFFFFFFFFFFFFFFFFFFFFFFFFFFFFFFFFF AND PUSH20 0xFFFFFFFFFFFFFFFFFFFFFFFFFFFFFFFFFFFFFFFF AND PUSH20 0xFFFFFFFFFFFFFFFFFFFFFFFFFFFFFFFFFFFFFFFF AND DUP2 MSTORE PUSH1 0x20 ADD PUSH1 0x2 DUP3 ADD DUP1 SLOAD PUSH2 0x3C4 SWAP1 PUSH2 0x119B JUMP JUMPDEST DUP1 PUSH1 0x1F ADD PUSH1 0x20 DUP1 SWAP2 DIV MUL PUSH1 0x20 ADD PUSH1 0x40 MLOAD SWAP1 DUP2 ADD PUSH1 0x40 MSTORE DUP1 SWAP3 SWAP2 SWAP1 DUP2 DUP2 MSTORE PUSH1 0x20 ADD DUP3 DUP1 SLOAD PUSH2 0x3F0 SWAP1 PUSH2 0x119B JUMP JUMPDEST DUP1 ISZERO PUSH2 0x43B JUMPI DUP1 PUSH1 0x1F LT PUSH2 0x412 JUMPI PUSH2 0x100 DUP1 DUP4 SLOAD DIV MUL DUP4 MSTORE SWAP2 PUSH1 0x20 ADD SWAP2 PUSH2 0x43B JUMP JUMPDEST DUP3 ADD SWAP2 SWAP1 PUSH0 MSTORE PUSH1 0x20 PUSH0 KECCAK256 SWAP1 JUMPDEST DUP2 SLOAD DUP2 MSTORE SWAP1 PUSH1 0x1 ADD SWAP1 PUSH1 0x20 ADD DUP1 DUP4 GT PUSH2 0x41E JUMPI DUP3 SWAP1 SUB PUSH1 0x1F AND DUP3 ADD SWAP2 JUMPDEST POP POP POP POP POP DUP2 MSTORE PUSH1 0x20 ADD PUSH1 0x3 DUP3 ADD SLOAD DUP2 MSTORE PUSH1 0x20 ADD PUSH1 0x4 DUP3 ADD SLOAD DUP2 MSTORE POP POP DUP2 MSTORE PUSH1 0x20 ADD SWAP1 PUSH1 0x1 ADD SWAP1 PUSH2 0x335 JUMP JUMPDEST POP POP POP POP SWAP1 POP SWAP2 SWAP1 POP JUMP JUMPDEST DUP1 PUSH1 0x1 PUSH0 DUP5 PUSH20 0xFFFFFFFFFFFFFFFFFFFFFFFFFFFFFFFFFFFFFFFF AND PUSH20 0xFFFFFFFFFFFFFFFFFFFFFFFFFFFFFFFFFFFFFFFF AND DUP2 MSTORE PUSH1 0x20 ADD SWAP1 DUP2 MSTORE PUSH1 0x20 ADD PUSH0 KECCAK256 DUP3 DUP2 SLOAD DUP2 LT PUSH2 0x4C2 JUMPI PUSH2 0x4C1 PUSH2 0x11CB JUMP JUMPDEST JUMPDEST SWAP1 PUSH0 MSTORE PUSH1 0x20 PUSH0 KECCAK256 SWAP1 PUSH1 0x5 MUL ADD PUSH0 ADD SLOAD EQ PUSH2 0x511 JUMPI PUSH1 0x40 MLOAD PUSH32 0x8C379A000000000000000000000000000000000000000000000000000000000 DUP2 MSTORE PUSH1 0x4 ADD PUSH2 0x508 SWAP1 PUSH2 0x1242 JUMP JUMPDEST PUSH1 0x40 MLOAD DUP1 SWAP2 SUB SWAP1 REVERT JUMPDEST PUSH1 0x1 PUSH0 DUP4 PUSH20 0xFFFFFFFFFFFFFFFFFFFFFFFFFFFFFFFFFFFFFFFF AND PUSH20 0xFFFFFFFFFFFFFFFFFFFFFFFFFFFFFFFFFFFFFFFF AND DUP2 MSTORE PUSH1 0x20 ADD SWAP1 DUP2 MSTORE PUSH1 0x20 ADD PUSH0 KECCAK256 DUP2 DUP2 SLOAD DUP2 LT PUSH2 0x560 JUMPI PUSH2 0x55F PUSH2 0x11CB JUMP JUMPDEST JUMPDEST SWAP1 PUSH0 MSTORE PUSH1 0x20 PUSH0 KECCAK256 SWAP1 PUSH1 0x5 MUL ADD PUSH1 0x4 ADD PUSH0 DUP2 SLOAD DUP1 SWAP3 SWAP2 SWAP1 PUSH2 0x57F SWAP1 PUSH2 0x128D JUMP JUMPDEST SWAP2 SWAP1 POP SSTORE POP POP POP JUMP JUMPDEST PUSH1 0x2 PUSH0 SWAP1 SLOAD SWAP1 PUSH2 0x100 EXP SWAP1 DIV PUSH20 0xFFFFFFFFFFFFFFFFFFFFFFFFFFFFFFFFFFFFFFFF AND PUSH20 0xFFFFFFFFFFFFFFFFFFFFFFFFFFFFFFFFFFFFFFFF AND CALLER PUSH20 0xFFFFFFFFFFFFFFFFFFFFFFFFFFFFFFFFFFFFFFFF AND EQ PUSH2 0x617 JUMPI PUSH1 0x40 MLOAD PUSH32 0x8C379A000000000000000000000000000000000000000000000000000000000 DUP2 MSTORE PUSH1 0x4 ADD PUSH2 0x60E SWAP1 PUSH2 0x12FE JUMP JUMPDEST PUSH1 0x40 MLOAD DUP1 SWAP2 SUB SWAP1 REVERT JUMPDEST DUP1 PUSH0 DUP1 PUSH2 0x100 EXP DUP2 SLOAD DUP2 PUSH2 0xFFFF MUL NOT AND SWAP1 DUP4 PUSH2 0xFFFF AND MUL OR SWAP1 SSTORE POP POP JUMP JUMPDEST DUP1 PUSH1 0x1 PUSH0 DUP5 PUSH20 0xFFFFFFFFFFFFFFFFFFFFFFFFFFFFFFFFFFFFFFFF AND PUSH20 0xFFFFFFFFFFFFFFFFFFFFFFFFFFFFFFFFFFFFFFFF AND DUP2 MSTORE PUSH1 0x20 ADD SWAP1 DUP2 MSTORE PUSH1 0x20 ADD PUSH0 KECCAK256 DUP3 DUP2 SLOAD DUP2 LT PUSH2 0x685 JUMPI PUSH2 0x684 PUSH2 0x11CB JUMP JUMPDEST JUMPDEST SWAP1 PUSH0 MSTORE PUSH1 0x20 PUSH0 KECCAK256 SWAP1 PUSH1 0x5 MUL ADD PUSH0 ADD SLOAD EQ PUSH2 0x6D4 JUMPI PUSH1 0x40 MLOAD PUSH32 0x8C379A000000000000000000000000000000000000000000000000000000000 DUP2 MSTORE PUSH1 0x4 ADD PUSH2 0x6CB SWAP1 PUSH2 0x1242 JUMP JUMPDEST PUSH1 0x40 MLOAD DUP1 SWAP2 SUB SWAP1 REVERT JUMPDEST PUSH1 0x1 PUSH0 DUP4 PUSH20 0xFFFFFFFFFFFFFFFFFFFFFFFFFFFFFFFFFFFFFFFF AND PUSH20 0xFFFFFFFFFFFFFFFFFFFFFFFFFFFFFFFFFFFFFFFF AND DUP2 MSTORE PUSH1 0x20 ADD SWAP1 DUP2 MSTORE PUSH1 0x20 ADD PUSH0 KECCAK256 DUP2 DUP2 SLOAD DUP2 LT PUSH2 0x723 JUMPI PUSH2 0x722 PUSH2 0x11CB JUMP JUMPDEST JUMPDEST SWAP1 PUSH0 MSTORE PUSH1 0x20 PUSH0 KECCAK256 SWAP1 PUSH1 0x5 MUL ADD PUSH1 0x4 ADD PUSH0 DUP2 SLOAD DUP1 SWAP3 SWAP2 SWAP1 PUSH2 0x742 SWAP1 PUSH2 0x131C JUMP JUMPDEST SWAP2 SWAP1 POP SSTORE POP POP POP JUMP JUMPDEST PUSH0 DUP1 SLOAD SWAP1 PUSH2 0x100 EXP SWAP1 DIV PUSH2 0xFFFF AND PUSH2 0xFFFF AND DUP2 MLOAD GT ISZERO PUSH2 0x7A0 JUMPI PUSH1 0x40 MLOAD PUSH32 0x8C379A000000000000000000000000000000000000000000000000000000000 DUP2 MSTORE PUSH1 0x4 ADD PUSH2 0x797 SWAP1 PUSH2 0x13AD JUMP JUMPDEST PUSH1 0x40 MLOAD DUP1 SWAP2 SUB SWAP1 REVERT JUMPDEST PUSH0 PUSH1 0x40 MLOAD DUP1 PUSH1 0xA0 ADD PUSH1 0x40 MSTORE DUP1 PUSH1 0x1 PUSH0 CALLER PUSH20 0xFFFFFFFFFFFFFFFFFFFFFFFFFFFFFFFFFFFFFFFF AND PUSH20 0xFFFFFFFFFFFFFFFFFFFFFFFFFFFFFFFFFFFFFFFF AND DUP2 MSTORE PUSH1 0x20 ADD SWAP1 DUP2 MSTORE PUSH1 0x20 ADD PUSH0 KECCAK256 DUP1 SLOAD SWAP1 POP DUP2 MSTORE PUSH1 0x20 ADD CALLER PUSH20 0xFFFFFFFFFFFFFFFFFFFFFFFFFFFFFFFFFFFFFFFF AND DUP2 MSTORE PUSH1 0x20 ADD DUP4 DUP2 MSTORE PUSH1 0x20 ADD TIMESTAMP DUP2 MSTORE PUSH1 0x20 ADD PUSH0 DUP2 MSTORE POP SWAP1 POP PUSH1 0x1 PUSH0 CALLER PUSH20 0xFFFFFFFFFFFFFFFFFFFFFFFFFFFFFFFFFFFFFFFF AND PUSH20 0xFFFFFFFFFFFFFFFFFFFFFFFFFFFFFFFFFFFFFFFF AND DUP2 MSTORE PUSH1 0x20 ADD SWAP1 DUP2 MSTORE PUSH1 0x20 ADD PUSH0 KECCAK256 DUP2 SWAP1 DUP1 PUSH1 0x1 DUP2 SLOAD ADD DUP1 DUP3 SSTORE DUP1 SWAP2 POP POP PUSH1 0x1 SWAP1 SUB SWAP1 PUSH0 MSTORE PUSH1 0x20 PUSH0 KECCAK256 SWAP1 PUSH1 0x5 MUL ADD PUSH0 SWAP1 SWAP2 SWAP1 SWAP2 SWAP1 SWAP2 POP PUSH0 DUP3 ADD MLOAD DUP2 PUSH0 ADD SSTORE PUSH1 0x20 DUP3 ADD MLOAD DUP2 PUSH1 0x1 ADD PUSH0 PUSH2 0x100 EXP DUP2 SLOAD DUP2 PUSH20 0xFFFFFFFFFFFFFFFFFFFFFFFFFFFFFFFFFFFFFFFF MUL NOT AND SWAP1 DUP4 PUSH20 0xFFFFFFFFFFFFFFFFFFFFFFFFFFFFFFFFFFFFFFFF AND MUL OR SWAP1 SSTORE POP PUSH1 0x40 DUP3 ADD MLOAD DUP2 PUSH1 0x2 ADD SWAP1 DUP2 PUSH2 0x8E7 SWAP2 SWAP1 PUSH2 0x1568 JUMP JUMPDEST POP PUSH1 0x60 DUP3 ADD MLOAD DUP2 PUSH1 0x3 ADD SSTORE PUSH1 0x80 DUP3 ADD MLOAD DUP2 PUSH1 0x4 ADD SSTORE POP POP POP POP JUMP JUMPDEST PUSH1 0x2 PUSH0 SWAP1 SLOAD SWAP1 PUSH2 0x100 EXP SWAP1 DIV PUSH20 0xFFFFFFFFFFFFFFFFFFFFFFFFFFFFFFFFFFFFFFFF AND DUP2 JUMP JUMPDEST PUSH2 0x92F PUSH2 0xA9E JUMP JUMPDEST PUSH1 0x1 PUSH0 CALLER PUSH20 0xFFFFFFFFFFFFFFFFFFFFFFFFFFFFFFFFFFFFFFFF AND PUSH20 0xFFFFFFFFFFFFFFFFFFFFFFFFFFFFFFFFFFFFFFFF AND DUP2 MSTORE PUSH1 0x20 ADD SWAP1 DUP2 MSTORE PUSH1 0x20 ADD PUSH0 KECCAK256 DUP3 DUP2 SLOAD DUP2 LT PUSH2 0x97E JUMPI PUSH2 0x97D PUSH2 0x11CB JUMP JUMPDEST JUMPDEST SWAP1 PUSH0 MSTORE PUSH1 0x20 PUSH0 KECCAK256 SWAP1 PUSH1 0x5 MUL ADD PUSH1 0x40 MLOAD DUP1 PUSH1 0xA0 ADD PUSH1 0x40 MSTORE SWAP1 DUP2 PUSH0 DUP3 ADD SLOAD DUP2 MSTORE PUSH1 0x20 ADD PUSH1 0x1 DUP3 ADD PUSH0 SWAP1 SLOAD SWAP1 PUSH2 0x100 EXP SWAP1 DIV PUSH20 0xFFFFFFFFFFFFFFFFFFFFFFFFFFFFFFFFFFFFFFFF AND PUSH20 0xFFFFFFFFFFFFFFFFFFFFFFFFFFFFFFFFFFFFFFFF AND PUSH20 0xFFFFFFFFFFFFFFFFFFFFFFFFFFFFFFFFFFFFFFFF AND DUP2 MSTORE PUSH1 0x20 ADD PUSH1 0x2 DUP3 ADD DUP1 SLOAD PUSH2 0xA03 SWAP1 PUSH2 0x119B JUMP JUMPDEST DUP1 PUSH1 0x1F ADD PUSH1 0x20 DUP1 SWAP2 DIV MUL PUSH1 0x20 ADD PUSH1 0x40 MLOAD SWAP1 DUP2 ADD PUSH1 0x40 MSTORE DUP1 SWAP3 SWAP2 SWAP1 DUP2 DUP2 MSTORE PUSH1 0x20 ADD DUP3 DUP1 SLOAD PUSH2 0xA2F SWAP1 PUSH2 0x119B JUMP JUMPDEST DUP1 ISZERO PUSH2 0xA7A JUMPI DUP1 PUSH1 0x1F LT PUSH2 0xA51 JUMPI PUSH2 0x100 DUP1 DUP4 SLOAD DIV MUL DUP4 MSTORE SWAP2 PUSH1 0x20 ADD SWAP2 PUSH2 0xA7A JUMP JUMPDEST DUP3 ADD SWAP2 SWAP1 PUSH0 MSTORE PUSH1 0x20 PUSH0 KECCAK256 SWAP1 JUMPDEST DUP2 SLOAD DUP2 MSTORE SWAP1 PUSH1 0x1 ADD SWAP1 PUSH1 0x20 ADD DUP1 DUP4 GT PUSH2 0xA5D JUMPI DUP3 SWAP1 SUB PUSH1 0x1F AND DUP3 ADD SWAP2 JUMPDEST POP POP POP POP POP DUP2 MSTORE PUSH1 0x20 ADD PUSH1 0x3 DUP3 ADD SLOAD DUP2 MSTORE PUSH1 0x20 ADD PUSH1 0x4 DUP3 ADD SLOAD DUP2 MSTORE POP POP SWAP1 POP SWAP2 SWAP1 POP JUMP JUMPDEST PUSH1 0x40 MLOAD DUP1 PUSH1 0xA0 ADD PUSH1 0x40 MSTORE DUP1 PUSH0 DUP2 MSTORE PUSH1 0x20 ADD PUSH0 PUSH20 0xFFFFFFFFFFFFFFFFFFFFFFFFFFFFFFFFFFFFFFFF AND DUP2 MSTORE PUSH1 0x20 ADD PUSH1 0x60 DUP2 MSTORE PUSH1 0x20 ADD PUSH0 DUP2 MSTORE PUSH1 0x20 ADD PUSH0 DUP2 MSTORE POP SWAP1 JUMP JUMPDEST PUSH0 PUSH1 0x40 MLOAD SWAP1 POP SWAP1 JUMP JUMPDEST PUSH0 DUP1 REVERT JUMPDEST PUSH0 DUP1 REVERT JUMPDEST PUSH0 PUSH20 0xFFFFFFFFFFFFFFFFFFFFFFFFFFFFFFFFFFFFFFFF DUP3 AND SWAP1 POP SWAP2 SWAP1 POP JUMP JUMPDEST PUSH0 PUSH2 0xB19 DUP3 PUSH2 0xAF0 JUMP JUMPDEST SWAP1 POP SWAP2 SWAP1 POP JUMP JUMPDEST PUSH2 0xB29 DUP2 PUSH2 0xB0F JUMP JUMPDEST DUP2 EQ PUSH2 0xB33 JUMPI PUSH0 DUP1 REVERT JUMPDEST POP JUMP JUMPDEST PUSH0 DUP2 CALLDATALOAD SWAP1 POP PUSH2 0xB44 DUP2 PUSH2 0xB20 JUMP JUMPDEST SWAP3 SWAP2 POP POP JUMP JUMPDEST PUSH0 DUP2 SWAP1 POP SWAP2 SWAP1 POP JUMP JUMPDEST PUSH2 0xB5C DUP2 PUSH2 0xB4A JUMP JUMPDEST DUP2 EQ PUSH2 0xB66 JUMPI PUSH0 DUP1 REVERT JUMPDEST POP JUMP JUMPDEST PUSH0 DUP2 CALLDATALOAD SWAP1 POP PUSH2 0xB77 DUP2 PUSH2 0xB53 JUMP JUMPDEST SWAP3 SWAP2 POP POP JUMP JUMPDEST PUSH0 DUP1 PUSH1 0x40 DUP4 DUP6 SUB SLT ISZERO PUSH2 0xB93 JUMPI PUSH2 0xB92 PUSH2 0xAE8 JUMP JUMPDEST JUMPDEST PUSH0 PUSH2 0xBA0 DUP6 DUP3 DUP7 ADD PUSH2 0xB36 JUMP JUMPDEST SWAP3 POP POP PUSH1 0x20 PUSH2 0xBB1 DUP6 DUP3 DUP7 ADD PUSH2 0xB69 JUMP JUMPDEST SWAP2 POP POP SWAP3 POP SWAP3 SWAP1 POP JUMP JUMPDEST PUSH2 0xBC4 DUP2 PUSH2 0xB4A JUMP JUMPDEST DUP3 MSTORE POP POP JUMP JUMPDEST PUSH2 0xBD3 DUP2 PUSH2 0xB0F JUMP JUMPDEST DUP3 MSTORE POP POP JUMP JUMPDEST PUSH0 DUP2 MLOAD SWAP1 POP SWAP2 SWAP1 POP JUMP JUMPDEST PUSH0 DUP3 DUP3 MSTORE PUSH1 0x20 DUP3 ADD SWAP1 POP SWAP3 SWAP2 POP POP JUMP JUMPDEST PUSH0 JUMPDEST DUP4 DUP2 LT ISZERO PUSH2 0xC10 JUMPI DUP1 DUP3 ADD MLOAD DUP2 DUP5 ADD MSTORE PUSH1 0x20 DUP2 ADD SWAP1 POP PUSH2 0xBF5 JUMP JUMPDEST PUSH0 DUP5 DUP5 ADD MSTORE POP POP POP POP JUMP JUMPDEST PUSH0 PUSH1 0x1F NOT PUSH1 0x1F DUP4 ADD AND SWAP1 POP SWAP2 SWAP1 POP JUMP JUMPDEST PUSH0 PUSH2 0xC35 DUP3 PUSH2 0xBD9 JUMP JUMPDEST PUSH2 0xC3F DUP2 DUP6 PUSH2 0xBE3 JUMP JUMPDEST SWAP4 POP PUSH2 0xC4F DUP2 DUP6 PUSH1 0x20 DUP7 ADD PUSH2 0xBF3 JUMP JUMPDEST PUSH2 0xC58 DUP2 PUSH2 0xC1B JUMP JUMPDEST DUP5 ADD SWAP2 POP POP SWAP3 SWAP2 POP POP JUMP JUMPDEST PUSH0 PUSH1 0xA0 DUP3 ADD SWAP1 POP PUSH2 0xC76 PUSH0 DUP4 ADD DUP9 PUSH2 0xBBB JUMP JUMPDEST PUSH2 0xC83 PUSH1 0x20 DUP4 ADD DUP8 PUSH2 0xBCA JUMP JUMPDEST DUP2 DUP2 SUB PUSH1 0x40 DUP4 ADD MSTORE PUSH2 0xC95 DUP2 DUP7 PUSH2 0xC2B JUMP JUMPDEST SWAP1 POP PUSH2 0xCA4 PUSH1 0x60 DUP4 ADD DUP6 PUSH2 0xBBB JUMP JUMPDEST PUSH2 0xCB1 PUSH1 0x80 DUP4 ADD DUP5 PUSH2 0xBBB JUMP JUMPDEST SWAP7 SWAP6 POP POP POP POP POP POP JUMP JUMPDEST PUSH0 PUSH2 0xFFFF DUP3 AND SWAP1 POP SWAP2 SWAP1 POP JUMP JUMPDEST PUSH2 0xCD1 DUP2 PUSH2 0xCBB JUMP JUMPDEST DUP3 MSTORE POP POP JUMP JUMPDEST PUSH0 PUSH1 0x20 DUP3 ADD SWAP1 POP PUSH2 0xCEA PUSH0 DUP4 ADD DUP5 PUSH2 0xCC8 JUMP JUMPDEST SWAP3 SWAP2 POP POP JUMP JUMPDEST PUSH0 PUSH1 0x20 DUP3 DUP5 SUB SLT ISZERO PUSH2 0xD05 JUMPI PUSH2 0xD04 PUSH2 0xAE8 JUMP JUMPDEST JUMPDEST PUSH0 PUSH2 0xD12 DUP5 DUP3 DUP6 ADD PUSH2 0xB36 JUMP JUMPDEST SWAP2 POP POP SWAP3 SWAP2 POP POP JUMP JUMPDEST PUSH0 DUP2 MLOAD SWAP1 POP SWAP2 SWAP1 POP JUMP JUMPDEST PUSH0 DUP3 DUP3 MSTORE PUSH1 0x20 DUP3 ADD SWAP1 POP SWAP3 SWAP2 POP POP JUMP JUMPDEST PUSH0 DUP2 SWAP1 POP PUSH1 0x20 DUP3 ADD SWAP1 POP SWAP2 SWAP1 POP JUMP JUMPDEST PUSH2 0xD4D DUP2 PUSH2 0xB4A JUMP JUMPDEST DUP3 MSTORE POP POP JUMP JUMPDEST PUSH2 0xD5C DUP2 PUSH2 0xB0F JUMP JUMPDEST DUP3 MSTORE POP POP JUMP JUMPDEST PUSH0 DUP3 DUP3 MSTORE PUSH1 0x20 DUP3 ADD SWAP1 POP SWAP3 SWAP2 POP POP JUMP JUMPDEST PUSH0 PUSH2 0xD7C DUP3 PUSH2 0xBD9 JUMP JUMPDEST PUSH2 0xD86 DUP2 DUP6 PUSH2 0xD62 JUMP JUMPDEST SWAP4 POP PUSH2 0xD96 DUP2 DUP6 PUSH1 0x20 DUP7 ADD PUSH2 0xBF3 JUMP JUMPDEST PUSH2 0xD9F DUP2 PUSH2 0xC1B JUMP JUMPDEST DUP5 ADD SWAP2 POP POP SWAP3 SWAP2 POP POP JUMP JUMPDEST PUSH0 PUSH1 0xA0 DUP4 ADD PUSH0 DUP4 ADD MLOAD PUSH2 0xDBF PUSH0 DUP7 ADD DUP3 PUSH2 0xD44 JUMP JUMPDEST POP PUSH1 0x20 DUP4 ADD MLOAD PUSH2 0xDD2 PUSH1 0x20 DUP7 ADD DUP3 PUSH2 0xD53 JUMP JUMPDEST POP PUSH1 0x40 DUP4 ADD MLOAD DUP5 DUP3 SUB PUSH1 0x40 DUP7 ADD MSTORE PUSH2 0xDEA DUP3 DUP3 PUSH2 0xD72 JUMP JUMPDEST SWAP2 POP POP PUSH1 0x60 DUP4 ADD MLOAD PUSH2 0xDFF PUSH1 0x60 DUP7 ADD DUP3 PUSH2 0xD44 JUMP JUMPDEST POP PUSH1 0x80 DUP4 ADD MLOAD PUSH2 0xE12 PUSH1 0x80 DUP7 ADD DUP3 PUSH2 0xD44 JUMP JUMPDEST POP DUP1 SWAP2 POP POP SWAP3 SWAP2 POP POP JUMP JUMPDEST PUSH0 PUSH2 0xE28 DUP4 DUP4 PUSH2 0xDAA JUMP JUMPDEST SWAP1 POP SWAP3 SWAP2 POP POP JUMP JUMPDEST PUSH0 PUSH1 0x20 DUP3 ADD SWAP1 POP SWAP2 SWAP1 POP JUMP JUMPDEST PUSH0 PUSH2 0xE46 DUP3 PUSH2 0xD1B JUMP JUMPDEST PUSH2 0xE50 DUP2 DUP6 PUSH2 0xD25 JUMP JUMPDEST SWAP4 POP DUP4 PUSH1 0x20 DUP3 MUL DUP6 ADD PUSH2 0xE62 DUP6 PUSH2 0xD35 JUMP JUMPDEST DUP1 PUSH0 JUMPDEST DUP6 DUP2 LT ISZERO PUSH2 0xE9D JUMPI DUP5 DUP5 SUB DUP10 MSTORE DUP2 MLOAD PUSH2 0xE7E DUP6 DUP3 PUSH2 0xE1D JUMP JUMPDEST SWAP5 POP PUSH2 0xE89 DUP4 PUSH2 0xE30 JUMP JUMPDEST SWAP3 POP PUSH1 0x20 DUP11 ADD SWAP10 POP POP PUSH1 0x1 DUP2 ADD SWAP1 POP PUSH2 0xE65 JUMP JUMPDEST POP DUP3 SWAP8 POP DUP8 SWAP6 POP POP POP POP POP POP SWAP3 SWAP2 POP POP JUMP JUMPDEST PUSH0 PUSH1 0x20 DUP3 ADD SWAP1 POP DUP2 DUP2 SUB PUSH0 DUP4 ADD MSTORE PUSH2 0xEC7 DUP2 DUP5 PUSH2 0xE3C JUMP JUMPDEST SWAP1 POP SWAP3 SWAP2 POP POP JUMP JUMPDEST PUSH2 0xED8 DUP2 PUSH2 0xCBB JUMP JUMPDEST DUP2 EQ PUSH2 0xEE2 JUMPI PUSH0 DUP1 REVERT JUMPDEST POP JUMP JUMPDEST PUSH0 DUP2 CALLDATALOAD SWAP1 POP PUSH2 0xEF3 DUP2 PUSH2 0xECF JUMP JUMPDEST SWAP3 SWAP2 POP POP JUMP JUMPDEST PUSH0 PUSH1 0x20 DUP3 DUP5 SUB SLT ISZERO PUSH2 0xF0E JUMPI PUSH2 0xF0D PUSH2 0xAE8 JUMP JUMPDEST JUMPDEST PUSH0 PUSH2 0xF1B DUP5 DUP3 DUP6 ADD PUSH2 0xEE5 JUMP JUMPDEST SWAP2 POP POP SWAP3 SWAP2 POP POP JUMP JUMPDEST PUSH0 DUP1 REVERT JUMPDEST PUSH0 DUP1 REVERT JUMPDEST PUSH32 0x4E487B7100000000000000000000000000000000000000000000000000000000 PUSH0 MSTORE PUSH1 0x41 PUSH1 0x4 MSTORE PUSH1 0x24 PUSH0 REVERT JUMPDEST PUSH2 0xF62 DUP3 PUSH2 0xC1B JUMP JUMPDEST DUP2 ADD DUP2 DUP2 LT PUSH8 0xFFFFFFFFFFFFFFFF DUP3 GT OR ISZERO PUSH2 0xF81 JUMPI PUSH2 0xF80 PUSH2 0xF2C JUMP JUMPDEST JUMPDEST DUP1 PUSH1 0x40 MSTORE POP POP POP JUMP JUMPDEST PUSH0 PUSH2 0xF93 PUSH2 0xADF JUMP JUMPDEST SWAP1 POP PUSH2 0xF9F DUP3 DUP3 PUSH2 0xF59 JUMP JUMPDEST SWAP2 SWAP1 POP JUMP JUMPDEST PUSH0 PUSH8 0xFFFFFFFFFFFFFFFF DUP3 GT ISZERO PUSH2 0xFBE JUMPI PUSH2 0xFBD PUSH2 0xF2C JUMP JUMPDEST JUMPDEST PUSH2 0xFC7 DUP3 PUSH2 0xC1B JUMP JUMPDEST SWAP1 POP PUSH1 0x20 DUP2 ADD SWAP1 POP SWAP2 SWAP1 POP JUMP JUMPDEST DUP3 DUP2 DUP4 CALLDATACOPY PUSH0 DUP4 DUP4 ADD MSTORE POP POP POP JUMP JUMPDEST PUSH0 PUSH2 0xFF4 PUSH2 0xFEF DUP5 PUSH2 0xFA4 JUMP JUMPDEST PUSH2 0xF8A JUMP JUMPDEST SWAP1 POP DUP3 DUP2 MSTORE PUSH1 0x20 DUP2 ADD DUP5 DUP5 DUP5 ADD GT ISZERO PUSH2 0x1010 JUMPI PUSH2 0x100F PUSH2 0xF28 JUMP JUMPDEST JUMPDEST PUSH2 0x101B DUP5 DUP3 DUP6 PUSH2 0xFD4 JUMP JUMPDEST POP SWAP4 SWAP3 POP POP POP JUMP JUMPDEST PUSH0 DUP3 PUSH1 0x1F DUP4 ADD SLT PUSH2 0x1037 JUMPI PUSH2 0x1036 PUSH2 0xF24 JUMP JUMPDEST JUMPDEST DUP2 CALLDATALOAD PUSH2 0x1047 DUP5 DUP3 PUSH1 0x20 DUP7 ADD PUSH2 0xFE2 JUMP JUMPDEST SWAP2 POP POP SWAP3 SWAP2 POP POP JUMP JUMPDEST PUSH0 PUSH1 0x20 DUP3 DUP5 SUB SLT ISZERO PUSH2 0x1065 JUMPI PUSH2 0x1064 PUSH2 0xAE8 JUMP JUMPDEST JUMPDEST PUSH0 DUP3 ADD CALLDATALOAD PUSH8 0xFFFFFFFFFFFFFFFF DUP2 GT ISZERO PUSH2 0x1082 JUMPI PUSH2 0x1081 PUSH2 0xAEC JUMP JUMPDEST JUMPDEST PUSH2 0x108E DUP5 DUP3 DUP6 ADD PUSH2 0x1023 JUMP JUMPDEST SWAP2 POP POP SWAP3 SWAP2 POP POP JUMP JUMPDEST PUSH0 PUSH1 0x20 DUP3 ADD SWAP1 POP PUSH2 0x10AA PUSH0 DUP4 ADD DUP5 PUSH2 0xBCA JUMP JUMPDEST SWAP3 SWAP2 POP POP JUMP JUMPDEST PUSH0 PUSH1 0x20 DUP3 DUP5 SUB SLT ISZERO PUSH2 0x10C5 JUMPI PUSH2 0x10C4 PUSH2 0xAE8 JUMP JUMPDEST JUMPDEST PUSH0 PUSH2 0x10D2 DUP5 DUP3 DUP6 ADD PUSH2 0xB69 JUMP JUMPDEST SWAP2 POP POP SWAP3 SWAP2 POP POP JUMP JUMPDEST PUSH0 PUSH1 0xA0 DUP4 ADD PUSH0 DUP4 ADD MLOAD PUSH2 0x10F0 PUSH0 DUP7 ADD DUP3 PUSH2 0xD44 JUMP JUMPDEST POP PUSH1 0x20 DUP4 ADD MLOAD PUSH2 0x1103 PUSH1 0x20 DUP7 ADD DUP3 PUSH2 0xD53 JUMP JUMPDEST POP PUSH1 0x40 DUP4 ADD MLOAD DUP5 DUP3 SUB PUSH1 0x40 DUP7 ADD MSTORE PUSH2 0x111B DUP3 DUP3 PUSH2 0xD72 JUMP JUMPDEST SWAP2 POP POP PUSH1 0x60 DUP4 ADD MLOAD PUSH2 0x1130 PUSH1 0x60 DUP7 ADD DUP3 PUSH2 0xD44 JUMP JUMPDEST POP PUSH1 0x80 DUP4 ADD MLOAD PUSH2 0x1143 PUSH1 0x80 DUP7 ADD DUP3 PUSH2 0xD44 JUMP JUMPDEST POP DUP1 SWAP2 POP POP SWAP3 SWAP2 POP POP JUMP JUMPDEST PUSH0 PUSH1 0x20 DUP3 ADD SWAP1 POP DUP2 DUP2 SUB PUSH0 DUP4 ADD MSTORE PUSH2 0x1166 DUP2 DUP5 PUSH2 0x10DB JUMP JUMPDEST SWAP1 POP SWAP3 SWAP2 POP POP JUMP JUMPDEST PUSH32 0x4E487B7100000000000000000000000000000000000000000000000000000000 PUSH0 MSTORE PUSH1 0x22 PUSH1 0x4 MSTORE PUSH1 0x24 PUSH0 REVERT JUMPDEST PUSH0 PUSH1 0x2 DUP3 DIV SWAP1 POP PUSH1 0x1 DUP3 AND DUP1 PUSH2 0x11B2 JUMPI PUSH1 0x7F DUP3 AND SWAP2 POP JUMPDEST PUSH1 0x20 DUP3 LT DUP2 SUB PUSH2 0x11C5 JUMPI PUSH2 0x11C4 PUSH2 0x116E JUMP JUMPDEST JUMPDEST POP SWAP2 SWAP1 POP JUMP JUMPDEST PUSH32 0x4E487B7100000000000000000000000000000000000000000000000000000000 PUSH0 MSTORE PUSH1 0x32 PUSH1 0x4 MSTORE PUSH1 0x24 PUSH0 REVERT JUMPDEST PUSH32 0x547765657420446F6573206E6F74206578697374000000000000000000000000 PUSH0 DUP3 ADD MSTORE POP JUMP JUMPDEST PUSH0 PUSH2 0x122C PUSH1 0x14 DUP4 PUSH2 0xBE3 JUMP JUMPDEST SWAP2 POP PUSH2 0x1237 DUP3 PUSH2 0x11F8 JUMP JUMPDEST PUSH1 0x20 DUP3 ADD SWAP1 POP SWAP2 SWAP1 POP JUMP JUMPDEST PUSH0 PUSH1 0x20 DUP3 ADD SWAP1 POP DUP2 DUP2 SUB PUSH0 DUP4 ADD MSTORE PUSH2 0x1259 DUP2 PUSH2 0x1220 JUMP JUMPDEST SWAP1 POP SWAP2 SWAP1 POP JUMP JUMPDEST PUSH32 0x4E487B7100000000000000000000000000000000000000000000000000000000 PUSH0 MSTORE PUSH1 0x11 PUSH1 0x4 MSTORE PUSH1 0x24 PUSH0 REVERT JUMPDEST PUSH0 PUSH2 0x1297 DUP3 PUSH2 0xB4A JUMP JUMPDEST SWAP2 POP PUSH0 DUP3 SUB PUSH2 0x12A9 JUMPI PUSH2 0x12A8 PUSH2 0x1260 JUMP JUMPDEST JUMPDEST PUSH1 0x1 DUP3 SUB SWAP1 POP SWAP2 SWAP1 POP JUMP JUMPDEST PUSH32 0x594F5520415245204E4F5420544845204F574E45520000000000000000000000 PUSH0 DUP3 ADD MSTORE POP JUMP JUMPDEST PUSH0 PUSH2 0x12E8 PUSH1 0x15 DUP4 PUSH2 0xBE3 JUMP JUMPDEST SWAP2 POP PUSH2 0x12F3 DUP3 PUSH2 0x12B4 JUMP JUMPDEST PUSH1 0x20 DUP3 ADD SWAP1 POP SWAP2 SWAP1 POP JUMP JUMPDEST PUSH0 PUSH1 0x20 DUP3 ADD SWAP1 POP DUP2 DUP2 SUB PUSH0 DUP4 ADD MSTORE PUSH2 0x1315 DUP2 PUSH2 0x12DC JUMP JUMPDEST SWAP1 POP SWAP2 SWAP1 POP JUMP JUMPDEST PUSH0 PUSH2 0x1326 DUP3 PUSH2 0xB4A JUMP JUMPDEST SWAP2 POP PUSH32 0xFFFFFFFFFFFFFFFFFFFFFFFFFFFFFFFFFFFFFFFFFFFFFFFFFFFFFFFFFFFFFFFF DUP3 SUB PUSH2 0x1358 JUMPI PUSH2 0x1357 PUSH2 0x1260 JUMP JUMPDEST JUMPDEST PUSH1 0x1 DUP3 ADD SWAP1 POP SWAP2 SWAP1 POP JUMP JUMPDEST PUSH32 0x547765657420697320746F6F204C6F6E67000000000000000000000000000000 PUSH0 DUP3 ADD MSTORE POP JUMP JUMPDEST PUSH0 PUSH2 0x1397 PUSH1 0x11 DUP4 PUSH2 0xBE3 JUMP JUMPDEST SWAP2 POP PUSH2 0x13A2 DUP3 PUSH2 0x1363 JUMP JUMPDEST PUSH1 0x20 DUP3 ADD SWAP1 POP SWAP2 SWAP1 POP JUMP JUMPDEST PUSH0 PUSH1 0x20 DUP3 ADD SWAP1 POP DUP2 DUP2 SUB PUSH0 DUP4 ADD MSTORE PUSH2 0x13C4 DUP2 PUSH2 0x138B JUMP JUMPDEST SWAP1 POP SWAP2 SWAP1 POP JUMP JUMPDEST PUSH0 DUP2 SWAP1 POP DUP2 PUSH0 MSTORE PUSH1 0x20 PUSH0 KECCAK256 SWAP1 POP SWAP2 SWAP1 POP JUMP JUMPDEST PUSH0 PUSH1 0x20 PUSH1 0x1F DUP4 ADD DIV SWAP1 POP SWAP2 SWAP1 POP JUMP JUMPDEST PUSH0 DUP3 DUP3 SHL SWAP1 POP SWAP3 SWAP2 POP POP JUMP JUMPDEST PUSH0 PUSH1 0x8 DUP4 MUL PUSH2 0x1427 PUSH32 0xFFFFFFFFFFFFFFFFFFFFFFFFFFFFFFFFFFFFFFFFFFFFFFFFFFFFFFFFFFFFFFFF DUP3 PUSH2 0x13EC JUMP JUMPDEST PUSH2 0x1431 DUP7 DUP4 PUSH2 0x13EC JUMP JUMPDEST SWAP6 POP DUP1 NOT DUP5 AND SWAP4 POP DUP1 DUP7 AND DUP5 OR SWAP3 POP POP POP SWAP4 SWAP3 POP POP POP JUMP JUMPDEST PUSH0 DUP2 SWAP1 POP SWAP2 SWAP1 POP JUMP JUMPDEST PUSH0 PUSH2 0x146C PUSH2 0x1467 PUSH2 0x1462 DUP5 PUSH2 0xB4A JUMP JUMPDEST PUSH2 0x1449 JUMP JUMPDEST PUSH2 0xB4A JUMP JUMPDEST SWAP1 POP SWAP2 SWAP1 POP JUMP JUMPDEST PUSH0 DUP2 SWAP1 POP SWAP2 SWAP1 POP JUMP JUMPDEST PUSH2 0x1485 DUP4 PUSH2 0x1452 JUMP JUMPDEST PUSH2 0x1499 PUSH2 0x1491 DUP3 PUSH2 0x1473 JUMP JUMPDEST DUP5 DUP5 SLOAD PUSH2 0x13F8 JUMP JUMPDEST DUP3 SSTORE POP POP POP POP JUMP JUMPDEST PUSH0 SWAP1 JUMP JUMPDEST PUSH2 0x14AD PUSH2 0x14A1 JUMP JUMPDEST PUSH2 0x14B8 DUP2 DUP5 DUP5 PUSH2 0x147C JUMP JUMPDEST POP POP POP JUMP JUMPDEST JUMPDEST DUP2 DUP2 LT ISZERO PUSH2 0x14DB JUMPI PUSH2 0x14D0 PUSH0 DUP3 PUSH2 0x14A5 JUMP JUMPDEST PUSH1 0x1 DUP2 ADD SWAP1 POP PUSH2 0x14BE JUMP JUMPDEST POP POP JUMP JUMPDEST PUSH1 0x1F DUP3 GT ISZERO PUSH2 0x1520 JUMPI PUSH2 0x14F1 DUP2 PUSH2 0x13CB JUMP JUMPDEST PUSH2 0x14FA DUP5 PUSH2 0x13DD JUMP JUMPDEST DUP2 ADD PUSH1 0x20 DUP6 LT ISZERO PUSH2 0x1509 JUMPI DUP2 SWAP1 POP JUMPDEST PUSH2 0x151D PUSH2 0x1515 DUP6 PUSH2 0x13DD JUMP JUMPDEST DUP4 ADD DUP3 PUSH2 0x14BD JUMP JUMPDEST POP POP JUMPDEST POP POP POP JUMP JUMPDEST PUSH0 DUP3 DUP3 SHR SWAP1 POP SWAP3 SWAP2 POP POP JUMP JUMPDEST PUSH0 PUSH2 0x1540 PUSH0 NOT DUP5 PUSH1 0x8 MUL PUSH2 0x1525 JUMP JUMPDEST NOT DUP1 DUP4 AND SWAP2 POP POP SWAP3 SWAP2 POP POP JUMP JUMPDEST PUSH0 PUSH2 0x1558 DUP4 DUP4 PUSH2 0x1531 JUMP JUMPDEST SWAP2 POP DUP3 PUSH1 0x2 MUL DUP3 OR SWAP1 POP SWAP3 SWAP2 POP POP JUMP JUMPDEST PUSH2 0x1571 DUP3 PUSH2 0xBD9 JUMP JUMPDEST PUSH8 0xFFFFFFFFFFFFFFFF DUP2 GT ISZERO PUSH2 0x158A JUMPI PUSH2 0x1589 PUSH2 0xF2C JUMP JUMPDEST JUMPDEST PUSH2 0x1594 DUP3 SLOAD PUSH2 0x119B JUMP JUMPDEST PUSH2 0x159F DUP3 DUP3 DUP6 PUSH2 0x14DF JUMP JUMPDEST PUSH0 PUSH1 0x20 SWAP1 POP PUSH1 0x1F DUP4 GT PUSH1 0x1 DUP2 EQ PUSH2 0x15D0 JUMPI PUSH0 DUP5 ISZERO PUSH2 0x15BE JUMPI DUP3 DUP8 ADD MLOAD SWAP1 POP JUMPDEST PUSH2 0x15C8 DUP6 DUP3 PUSH2 0x154D JUMP JUMPDEST DUP7 SSTORE POP PUSH2 0x162F JUMP JUMPDEST PUSH1 0x1F NOT DUP5 AND PUSH2 0x15DE DUP7 PUSH2 0x13CB JUMP JUMPDEST PUSH0 JUMPDEST DUP3 DUP2 LT ISZERO PUSH2 0x1605 JUMPI DUP5 DUP10 ADD MLOAD DUP3 SSTORE PUSH1 0x1 DUP3 ADD SWAP2 POP PUSH1 0x20 DUP6 ADD SWAP5 POP PUSH1 0x20 DUP2 ADD SWAP1 POP PUSH2 0x15E0 JUMP JUMPDEST DUP7 DUP4 LT ISZERO PUSH2 0x1622 JUMPI DUP5 DUP10 ADD MLOAD PUSH2 0x161E PUSH1 0x1F DUP10 AND DUP3 PUSH2 0x1531 JUMP JUMPDEST DUP4 SSTORE POP JUMPDEST PUSH1 0x1 PUSH1 0x2 DUP9 MUL ADD DUP9 SSTORE POP POP POP JUMPDEST POP POP POP POP POP POP JUMP INVALID LOG2 PUSH5 0x6970667358 0x22 SLT KECCAK256 0xF7 KECCAK256 0xF8 EXP 0xEF SWAP5 SLT DUP3 0xC2 PUSH13 0xBD032DC10AD2FB76850EAFA5EF 0x2C SWAP15 SHR SDIV SWAP8 SAR KECCAK256 MOD EQ PUSH5 0x736F6C6343 STOP ADDMOD AND STOP CALLER "
				},
				"gasEstimates": {
					"creation": {
						"codeDepositCost": "1148200",
						"executionCost": "49723",
						"totalCost": "1197923"
					},
					"external": {
						"MAX_TWEET_Length()": "2486",
						"changeTweetLength(uint16)": "26842",
						"createTweet(string)": "infinite",
						"getTweet(uint256)": "infinite",
						"getalltweets(address)": "infinite",
						"likeTweet(address,uint256)": "infinite",
						"owner()": "2574",
						"tweets(address,uint256)": "infinite",
						"unlikeTweet(address,uint256)": "infinite"
					}
				},
				"methodIdentifiers": {
					"MAX_TWEET_Length()": "0a50bfb3",
					"changeTweetLength(uint16)": "58bfa4ab",
					"createTweet(string)": "7c9cd2bc",
					"getTweet(uint256)": "c3ad5ecb",
					"getalltweets(address)": "28bb2285",
					"likeTweet(address,uint256)": "63378216",
					"owner()": "8da5cb5b",
					"tweets(address,uint256)": "05a1b4a9",
					"unlikeTweet(address,uint256)": "3d9b569f"
				}
			},
			"storageLayout": {
				"storage": [
					{
						"astId": 4,
						"contract": "contracts/Twitter.sol:Twitter",
						"label": "MAX_TWEET_Length",
						"offset": 0,
						"slot": "0",
						"type": "t_uint16"
					},
					{
						"astId": 23,
						"contract": "contracts/Twitter.sol:Twitter",
						"label": "tweets",
						"offset": 0,
						"slot": "1",
						"type": "t_mapping(t_address,t_array(t_struct(Tweet)16_storage)dyn_storage)"
					},
					{
						"astId": 25,
						"contract": "contracts/Twitter.sol:Twitter",
						"label": "owner",
						"offset": 0,
						"slot": "2",
						"type": "t_address"
					}
				],
				"types": {
					"t_address": {
						"encoding": "inplace",
						"label": "address",
						"numberOfBytes": "20"
					},
					"t_array(t_struct(Tweet)16_storage)dyn_storage": {
						"base": "t_struct(Tweet)16_storage",
						"encoding": "dynamic_array",
						"label": "struct Twitter.Tweet[]",
						"numberOfBytes": "32"
					},
					"t_mapping(t_address,t_array(t_struct(Tweet)16_storage)dyn_storage)": {
						"encoding": "mapping",
						"key": "t_address",
						"label": "mapping(address => struct Twitter.Tweet[])",
						"numberOfBytes": "32",
						"value": "t_array(t_struct(Tweet)16_storage)dyn_storage"
					},
					"t_string_storage": {
						"encoding": "bytes",
						"label": "string",
						"numberOfBytes": "32"
					},
					"t_struct(Tweet)16_storage": {
						"encoding": "inplace",
						"label": "struct Twitter.Tweet",
						"members": [
							{
								"astId": 7,
								"contract": "contracts/Twitter.sol:Twitter",
								"label": "id",
								"offset": 0,
								"slot": "0",
								"type": "t_uint256"
							},
							{
								"astId": 9,
								"contract": "contracts/Twitter.sol:Twitter",
								"label": "author",
								"offset": 0,
								"slot": "1",
								"type": "t_address"
							},
							{
								"astId": 11,
								"contract": "contracts/Twitter.sol:Twitter",
								"label": "content",
								"offset": 0,
								"slot": "2",
								"type": "t_string_storage"
							},
							{
								"astId": 13,
								"contract": "contracts/Twitter.sol:Twitter",
								"label": "timestamp",
								"offset": 0,
								"slot": "3",
								"type": "t_uint256"
							},
							{
								"astId": 15,
								"contract": "contracts/Twitter.sol:Twitter",
								"label": "likes",
								"offset": 0,
								"slot": "4",
								"type": "t_uint256"
							}
						],
						"numberOfBytes": "160"
					},
					"t_uint16": {
						"encoding": "inplace",
						"label": "uint16",
						"numberOfBytes": "2"
					},
					"t_uint256": {
						"encoding": "inplace",
						"label": "uint256",
						"numberOfBytes": "32"
					}
				}
			},
			"userdoc": {
				"kind": "user",
				"methods": {
					"constructor": {
						"notice": "creating the constructor"
					},
					"tweets(address,uint256)": {
						"notice": "end struct"
					},
					"unlikeTweet(address,uint256)": {
						"notice": "function to unlike"
					}
				},
				"version": 1
			}
		}
	}
}