{
	"contracts/Twitter.sol": {
		"Twitter": {
			"abi": [
				{
					"inputs": [],
					"stateMutability": "nonpayable",
					"type": "constructor"
				},
				{
					"inputs": [],
					"name": "MAX_TWEET_Length",
					"outputs": [
						{
							"internalType": "uint16",
							"name": "",
							"type": "uint16"
						}
					],
					"stateMutability": "view",
					"type": "function"
				},
				{
					"inputs": [
						{
							"internalType": "uint16",
							"name": "newTweetLength",
							"type": "uint16"
						}
					],
					"name": "changeTweetLength",
					"outputs": [],
					"stateMutability": "nonpayable",
					"type": "function"
				},
				{
					"inputs": [
						{
							"internalType": "string",
							"name": "_tweet",
							"type": "string"
						}
					],
					"name": "createTweet",
					"outputs": [],
					"stateMutability": "nonpayable",
					"type": "function"
				},
				{
					"inputs": [
						{
							"internalType": "uint256",
							"name": "_i",
							"type": "uint256"
						}
					],
					"name": "getTweet",
					"outputs": [
						{
							"components": [
								{
									"internalType": "address",
									"name": "author",
									"type": "address"
								},
								{
									"internalType": "string",
									"name": "content",
									"type": "string"
								},
								{
									"internalType": "uint256",
									"name": "timestamp",
									"type": "uint256"
								},
								{
									"internalType": "uint256",
									"name": "likes",
									"type": "uint256"
								}
							],
							"internalType": "struct Twitter.Tweet",
							"name": "",
							"type": "tuple"
						}
					],
					"stateMutability": "view",
					"type": "function"
				},
				{
					"inputs": [
						{
							"internalType": "address",
							"name": "_owner",
							"type": "address"
						}
					],
					"name": "getalltweets",
					"outputs": [
						{
							"components": [
								{
									"internalType": "address",
									"name": "author",
									"type": "address"
								},
								{
									"internalType": "string",
									"name": "content",
									"type": "string"
								},
								{
									"internalType": "uint256",
									"name": "timestamp",
									"type": "uint256"
								},
								{
									"internalType": "uint256",
									"name": "likes",
									"type": "uint256"
								}
							],
							"internalType": "struct Twitter.Tweet[]",
							"name": "",
							"type": "tuple[]"
						}
					],
					"stateMutability": "view",
					"type": "function"
				},
				{
					"inputs": [],
					"name": "owner",
					"outputs": [
						{
							"internalType": "address",
							"name": "",
							"type": "address"
						}
					],
					"stateMutability": "view",
					"type": "function"
				},
				{
					"inputs": [
						{
							"internalType": "address",
							"name": "",
							"type": "address"
						},
						{
							"internalType": "uint256",
							"name": "",
							"type": "uint256"
						}
					],
					"name": "tweets",
					"outputs": [
						{
							"internalType": "address",
							"name": "author",
							"type": "address"
						},
						{
							"internalType": "string",
							"name": "content",
							"type": "string"
						},
						{
							"internalType": "uint256",
							"name": "timestamp",
							"type": "uint256"
						},
						{
							"internalType": "uint256",
							"name": "likes",
							"type": "uint256"
						}
					],
					"stateMutability": "view",
					"type": "function"
				}
			],
			"devdoc": {
				"kind": "dev",
				"methods": {},
				"version": 1
			},
			"evm": {
				"assembly": "    /* \"contracts/Twitter.sol\":71:1797  contract Twitter {... */\n  mstore(0x40, 0x80)\n    /* \"contracts/Twitter.sol\":131:134  280 */\n  0x0118\n    /* \"contracts/Twitter.sol\":97:134  uint16 public  MAX_TWEET_Length = 280 */\n  0x00\n  dup1\n  0x0100\n  exp\n  dup2\n  sload\n  dup2\n  0xffff\n  mul\n  not\n  and\n  swap1\n  dup4\n  0xffff\n  and\n  mul\n  or\n  swap1\n  sstore\n  pop\n    /* \"contracts/Twitter.sol\":452:509  constructor()... */\n  callvalue\n  dup1\n  iszero\n  tag_1\n  jumpi\n  0x00\n  dup1\n  revert\ntag_1:\n  pop\n    /* \"contracts/Twitter.sol\":491:501  msg.sender */\n  caller\n    /* \"contracts/Twitter.sol\":482:487  owner */\n  0x02\n  0x00\n    /* \"contracts/Twitter.sol\":482:501  owner  = msg.sender */\n  0x0100\n  exp\n  dup2\n  sload\n  dup2\n  0xffffffffffffffffffffffffffffffffffffffff\n  mul\n  not\n  and\n  swap1\n  dup4\n  0xffffffffffffffffffffffffffffffffffffffff\n  and\n  mul\n  or\n  swap1\n  sstore\n  pop\n    /* \"contracts/Twitter.sol\":71:1797  contract Twitter {... */\n  dataSize(sub_0)\n  dup1\n  dataOffset(sub_0)\n  0x00\n  codecopy\n  0x00\n  return\nstop\n\nsub_0: assembly {\n        /* \"contracts/Twitter.sol\":71:1797  contract Twitter {... */\n      mstore(0x40, 0x80)\n      callvalue\n      dup1\n      iszero\n      tag_1\n      jumpi\n      0x00\n      dup1\n      revert\n    tag_1:\n      pop\n      jumpi(tag_2, lt(calldatasize, 0x04))\n      shr(0xe0, calldataload(0x00))\n      dup1\n      0x58bfa4ab\n      gt\n      tag_10\n      jumpi\n      dup1\n      0x58bfa4ab\n      eq\n      tag_6\n      jumpi\n      dup1\n      0x7c9cd2bc\n      eq\n      tag_7\n      jumpi\n      dup1\n      0x8da5cb5b\n      eq\n      tag_8\n      jumpi\n      dup1\n      0xc3ad5ecb\n      eq\n      tag_9\n      jumpi\n      jump(tag_2)\n    tag_10:\n      dup1\n      0x05a1b4a9\n      eq\n      tag_3\n      jumpi\n      dup1\n      0x0a50bfb3\n      eq\n      tag_4\n      jumpi\n      dup1\n      0x28bb2285\n      eq\n      tag_5\n      jumpi\n    tag_2:\n      0x00\n      dup1\n      revert\n        /* \"contracts/Twitter.sol\":338:381  mapping (address => Tweet[] ) public tweets */\n    tag_3:\n      tag_11\n      0x04\n      dup1\n      calldatasize\n      sub\n      dup2\n      add\n      swap1\n      tag_12\n      swap2\n      swap1\n      tag_13\n      jump\t// in\n    tag_12:\n      tag_14\n      jump\t// in\n    tag_11:\n      mload(0x40)\n      tag_15\n      swap5\n      swap4\n      swap3\n      swap2\n      swap1\n      tag_16\n      jump\t// in\n    tag_15:\n      mload(0x40)\n      dup1\n      swap2\n      sub\n      swap1\n      return\n        /* \"contracts/Twitter.sol\":97:134  uint16 public  MAX_TWEET_Length = 280 */\n    tag_4:\n      tag_17\n      tag_18\n      jump\t// in\n    tag_17:\n      mload(0x40)\n      tag_19\n      swap2\n      swap1\n      tag_20\n      jump\t// in\n    tag_19:\n      mload(0x40)\n      dup1\n      swap2\n      sub\n      swap1\n      return\n        /* \"contracts/Twitter.sol\":1652:1784  function getalltweets(address _owner) public view returns (Tweet[] memory)... */\n    tag_5:\n      tag_21\n      0x04\n      dup1\n      calldatasize\n      sub\n      dup2\n      add\n      swap1\n      tag_22\n      swap2\n      swap1\n      tag_23\n      jump\t// in\n    tag_22:\n      tag_24\n      jump\t// in\n    tag_21:\n      mload(0x40)\n      tag_25\n      swap2\n      swap1\n      tag_26\n      jump\t// in\n    tag_25:\n      mload(0x40)\n      dup1\n      swap2\n      sub\n      swap1\n      return\n        /* \"contracts/Twitter.sol\":701:819  function changeTweetLength(uint16 newTweetLength) public onlyOwner{... */\n    tag_6:\n      tag_27\n      0x04\n      dup1\n      calldatasize\n      sub\n      dup2\n      add\n      swap1\n      tag_28\n      swap2\n      swap1\n      tag_29\n      jump\t// in\n    tag_28:\n      tag_30\n      jump\t// in\n    tag_27:\n      stop\n        /* \"contracts/Twitter.sol\":839:1320  function createTweet(string memory _tweet) public {... */\n    tag_7:\n      tag_31\n      0x04\n      dup1\n      calldatasize\n      sub\n      dup2\n      add\n      swap1\n      tag_32\n      swap2\n      swap1\n      tag_33\n      jump\t// in\n    tag_32:\n      tag_34\n      jump\t// in\n    tag_31:\n      stop\n        /* \"contracts/Twitter.sol\":390:410  address public owner */\n    tag_8:\n      tag_35\n      tag_36\n      jump\t// in\n    tag_35:\n      mload(0x40)\n      tag_37\n      swap2\n      swap1\n      tag_38\n      jump\t// in\n    tag_37:\n      mload(0x40)\n      dup1\n      swap2\n      sub\n      swap1\n      return\n        /* \"contracts/Twitter.sol\":1480:1599  function getTweet(uint _i) public view returns (Tweet memory){... */\n    tag_9:\n      tag_39\n      0x04\n      dup1\n      calldatasize\n      sub\n      dup2\n      add\n      swap1\n      tag_40\n      swap2\n      swap1\n      tag_41\n      jump\t// in\n    tag_40:\n      tag_42\n      jump\t// in\n    tag_39:\n      mload(0x40)\n      tag_43\n      swap2\n      swap1\n      tag_44\n      jump\t// in\n    tag_43:\n      mload(0x40)\n      dup1\n      swap2\n      sub\n      swap1\n      return\n        /* \"contracts/Twitter.sol\":338:381  mapping (address => Tweet[] ) public tweets */\n    tag_14:\n      mstore(0x20, 0x01)\n      dup2\n      0x00\n      mstore\n      keccak256(0x00, 0x40)\n      dup2\n      dup2\n      sload\n      dup2\n      lt\n      tag_45\n      jumpi\n      0x00\n      dup1\n      revert\n    tag_45:\n      swap1\n      0x00\n      mstore\n      keccak256(0x00, 0x20)\n      swap1\n      0x04\n      mul\n      add\n      0x00\n      swap2\n      pop\n      swap2\n      pop\n      pop\n      dup1\n      0x00\n      add\n      0x00\n      swap1\n      sload\n      swap1\n      0x0100\n      exp\n      swap1\n      div\n      0xffffffffffffffffffffffffffffffffffffffff\n      and\n      swap1\n      dup1\n      0x01\n      add\n      dup1\n      sload\n      tag_47\n      swap1\n      tag_48\n      jump\t// in\n    tag_47:\n      dup1\n      0x1f\n      add\n      0x20\n      dup1\n      swap2\n      div\n      mul\n      0x20\n      add\n      mload(0x40)\n      swap1\n      dup2\n      add\n      0x40\n      mstore\n      dup1\n      swap3\n      swap2\n      swap1\n      dup2\n      dup2\n      mstore\n      0x20\n      add\n      dup3\n      dup1\n      sload\n      tag_49\n      swap1\n      tag_48\n      jump\t// in\n    tag_49:\n      dup1\n      iszero\n      tag_50\n      jumpi\n      dup1\n      0x1f\n      lt\n      tag_51\n      jumpi\n      0x0100\n      dup1\n      dup4\n      sload\n      div\n      mul\n      dup4\n      mstore\n      swap2\n      0x20\n      add\n      swap2\n      jump(tag_50)\n    tag_51:\n      dup3\n      add\n      swap2\n      swap1\n      0x00\n      mstore\n      keccak256(0x00, 0x20)\n      swap1\n    tag_52:\n      dup2\n      sload\n      dup2\n      mstore\n      swap1\n      0x01\n      add\n      swap1\n      0x20\n      add\n      dup1\n      dup4\n      gt\n      tag_52\n      jumpi\n      dup3\n      swap1\n      sub\n      0x1f\n      and\n      dup3\n      add\n      swap2\n    tag_50:\n      pop\n      pop\n      pop\n      pop\n      pop\n      swap1\n      dup1\n      0x02\n      add\n      sload\n      swap1\n      dup1\n      0x03\n      add\n      sload\n      swap1\n      pop\n      dup5\n      jump\t// out\n        /* \"contracts/Twitter.sol\":97:134  uint16 public  MAX_TWEET_Length = 280 */\n    tag_18:\n      0x00\n      dup1\n      sload\n      swap1\n      0x0100\n      exp\n      swap1\n      div\n      0xffff\n      and\n      dup2\n      jump\t// out\n        /* \"contracts/Twitter.sol\":1652:1784  function getalltweets(address _owner) public view returns (Tweet[] memory)... */\n    tag_24:\n        /* \"contracts/Twitter.sol\":1711:1725  Tweet[] memory */\n      0x60\n        /* \"contracts/Twitter.sol\":1758:1764  tweets */\n      0x01\n        /* \"contracts/Twitter.sol\":1758:1772  tweets[_owner] */\n      0x00\n        /* \"contracts/Twitter.sol\":1765:1771  _owner */\n      dup4\n        /* \"contracts/Twitter.sol\":1758:1772  tweets[_owner] */\n      0xffffffffffffffffffffffffffffffffffffffff\n      and\n      0xffffffffffffffffffffffffffffffffffffffff\n      and\n      dup2\n      mstore\n      0x20\n      add\n      swap1\n      dup2\n      mstore\n      0x20\n      add\n      0x00\n      keccak256\n        /* \"contracts/Twitter.sol\":1751:1772  return tweets[_owner] */\n      dup1\n      sload\n      dup1\n      0x20\n      mul\n      0x20\n      add\n      mload(0x40)\n      swap1\n      dup2\n      add\n      0x40\n      mstore\n      dup1\n      swap3\n      swap2\n      swap1\n      dup2\n      dup2\n      mstore\n      0x20\n      add\n      0x00\n      swap1\n    tag_54:\n      dup3\n      dup3\n      lt\n      iszero\n      tag_55\n      jumpi\n      dup4\n      dup3\n      swap1\n      0x00\n      mstore\n      keccak256(0x00, 0x20)\n      swap1\n      0x04\n      mul\n      add\n      mload(0x40)\n      dup1\n      0x80\n      add\n      0x40\n      mstore\n      swap1\n      dup2\n      0x00\n      dup3\n      add\n      0x00\n      swap1\n      sload\n      swap1\n      0x0100\n      exp\n      swap1\n      div\n      0xffffffffffffffffffffffffffffffffffffffff\n      and\n      0xffffffffffffffffffffffffffffffffffffffff\n      and\n      0xffffffffffffffffffffffffffffffffffffffff\n      and\n      dup2\n      mstore\n      0x20\n      add\n      0x01\n      dup3\n      add\n      dup1\n      sload\n      tag_57\n      swap1\n      tag_48\n      jump\t// in\n    tag_57:\n      dup1\n      0x1f\n      add\n      0x20\n      dup1\n      swap2\n      div\n      mul\n      0x20\n      add\n      mload(0x40)\n      swap1\n      dup2\n      add\n      0x40\n      mstore\n      dup1\n      swap3\n      swap2\n      swap1\n      dup2\n      dup2\n      mstore\n      0x20\n      add\n      dup3\n      dup1\n      sload\n      tag_58\n      swap1\n      tag_48\n      jump\t// in\n    tag_58:\n      dup1\n      iszero\n      tag_59\n      jumpi\n      dup1\n      0x1f\n      lt\n      tag_60\n      jumpi\n      0x0100\n      dup1\n      dup4\n      sload\n      div\n      mul\n      dup4\n      mstore\n      swap2\n      0x20\n      add\n      swap2\n      jump(tag_59)\n    tag_60:\n      dup3\n      add\n      swap2\n      swap1\n      0x00\n      mstore\n      keccak256(0x00, 0x20)\n      swap1\n    tag_61:\n      dup2\n      sload\n      dup2\n      mstore\n      swap1\n      0x01\n      add\n      swap1\n      0x20\n      add\n      dup1\n      dup4\n      gt\n      tag_61\n      jumpi\n      dup3\n      swap1\n      sub\n      0x1f\n      and\n      dup3\n      add\n      swap2\n    tag_59:\n      pop\n      pop\n      pop\n      pop\n      pop\n      dup2\n      mstore\n      0x20\n      add\n      0x02\n      dup3\n      add\n      sload\n      dup2\n      mstore\n      0x20\n      add\n      0x03\n      dup3\n      add\n      sload\n      dup2\n      mstore\n      pop\n      pop\n      dup2\n      mstore\n      0x20\n      add\n      swap1\n      0x01\n      add\n      swap1\n      jump(tag_54)\n    tag_55:\n      pop\n      pop\n      pop\n      pop\n      swap1\n      pop\n        /* \"contracts/Twitter.sol\":1652:1784  function getalltweets(address _owner) public view returns (Tweet[] memory)... */\n      swap2\n      swap1\n      pop\n      jump\t// out\n        /* \"contracts/Twitter.sol\":701:819  function changeTweetLength(uint16 newTweetLength) public onlyOwner{... */\n    tag_30:\n        /* \"contracts/Twitter.sol\":590:595  owner */\n      0x02\n      0x00\n      swap1\n      sload\n      swap1\n      0x0100\n      exp\n      swap1\n      div\n      0xffffffffffffffffffffffffffffffffffffffff\n      and\n        /* \"contracts/Twitter.sol\":577:595  msg.sender ==owner */\n      0xffffffffffffffffffffffffffffffffffffffff\n      and\n        /* \"contracts/Twitter.sol\":577:587  msg.sender */\n      caller\n        /* \"contracts/Twitter.sol\":577:595  msg.sender ==owner */\n      0xffffffffffffffffffffffffffffffffffffffff\n      and\n      eq\n        /* \"contracts/Twitter.sol\":569:620  require(msg.sender ==owner,\"YOU ARE NOT THE OWNER\") */\n      tag_63\n      jumpi\n      mload(0x40)\n      0x08c379a000000000000000000000000000000000000000000000000000000000\n      dup2\n      mstore\n      0x04\n      add\n      tag_64\n      swap1\n      tag_65\n      jump\t// in\n    tag_64:\n      mload(0x40)\n      dup1\n      swap2\n      sub\n      swap1\n      revert\n    tag_63:\n        /* \"contracts/Twitter.sol\":797:811  newTweetLength */\n      dup1\n        /* \"contracts/Twitter.sol\":778:794  MAX_TWEET_Length */\n      0x00\n      dup1\n        /* \"contracts/Twitter.sol\":778:811  MAX_TWEET_Length = newTweetLength */\n      0x0100\n      exp\n      dup2\n      sload\n      dup2\n      0xffff\n      mul\n      not\n      and\n      swap1\n      dup4\n      0xffff\n      and\n      mul\n      or\n      swap1\n      sstore\n      pop\n        /* \"contracts/Twitter.sol\":701:819  function changeTweetLength(uint16 newTweetLength) public onlyOwner{... */\n      pop\n      jump\t// out\n        /* \"contracts/Twitter.sol\":839:1320  function createTweet(string memory _tweet) public {... */\n    tag_34:\n        /* \"contracts/Twitter.sol\":1007:1023  MAX_TWEET_Length */\n      0x00\n      dup1\n      sload\n      swap1\n      0x0100\n      exp\n      swap1\n      div\n      0xffff\n      and\n        /* \"contracts/Twitter.sol\":985:1023  bytes(_tweet).length<=MAX_TWEET_Length */\n      0xffff\n      and\n        /* \"contracts/Twitter.sol\":991:997  _tweet */\n      dup2\n        /* \"contracts/Twitter.sol\":985:1005  bytes(_tweet).length */\n      mload\n        /* \"contracts/Twitter.sol\":985:1023  bytes(_tweet).length<=MAX_TWEET_Length */\n      gt\n      iszero\n        /* \"contracts/Twitter.sol\":977:1044  require(bytes(_tweet).length<=MAX_TWEET_Length,\"Tweet is too Long\") */\n      tag_68\n      jumpi\n      mload(0x40)\n      0x08c379a000000000000000000000000000000000000000000000000000000000\n      dup2\n      mstore\n      0x04\n      add\n      tag_69\n      swap1\n      tag_70\n      jump\t// in\n    tag_69:\n      mload(0x40)\n      dup1\n      swap2\n      sub\n      swap1\n      revert\n    tag_68:\n        /* \"contracts/Twitter.sol\":1061:1082  Tweet memory newTweet */\n      0x00\n        /* \"contracts/Twitter.sol\":1085:1256  Tweet({... */\n      mload(0x40)\n      dup1\n      0x80\n      add\n      0x40\n      mstore\n      dup1\n        /* \"contracts/Twitter.sol\":1119:1129  msg.sender */\n      caller\n        /* \"contracts/Twitter.sol\":1085:1256  Tweet({... */\n      0xffffffffffffffffffffffffffffffffffffffff\n      and\n      dup2\n      mstore\n      0x20\n      add\n        /* \"contracts/Twitter.sol\":1158:1164  _tweet */\n      dup4\n        /* \"contracts/Twitter.sol\":1085:1256  Tweet({... */\n      dup2\n      mstore\n      0x20\n      add\n        /* \"contracts/Twitter.sol\":1195:1210  block.timestamp */\n      timestamp\n        /* \"contracts/Twitter.sol\":1085:1256  Tweet({... */\n      dup2\n      mstore\n      0x20\n      add\n        /* \"contracts/Twitter.sol\":1237:1238  0 */\n      0x00\n        /* \"contracts/Twitter.sol\":1085:1256  Tweet({... */\n      dup2\n      mstore\n      pop\n        /* \"contracts/Twitter.sol\":1061:1256  Tweet memory newTweet = Tweet({... */\n      swap1\n      pop\n        /* \"contracts/Twitter.sol\":1275:1281  tweets */\n      0x01\n        /* \"contracts/Twitter.sol\":1275:1293  tweets[msg.sender] */\n      0x00\n        /* \"contracts/Twitter.sol\":1282:1292  msg.sender */\n      caller\n        /* \"contracts/Twitter.sol\":1275:1293  tweets[msg.sender] */\n      0xffffffffffffffffffffffffffffffffffffffff\n      and\n      0xffffffffffffffffffffffffffffffffffffffff\n      and\n      dup2\n      mstore\n      0x20\n      add\n      swap1\n      dup2\n      mstore\n      0x20\n      add\n      0x00\n      keccak256\n        /* \"contracts/Twitter.sol\":1299:1307  newTweet */\n      dup2\n        /* \"contracts/Twitter.sol\":1275:1308  tweets[msg.sender].push(newTweet) */\n      swap1\n      dup1\n      0x01\n      dup2\n      sload\n      add\n      dup1\n      dup3\n      sstore\n      dup1\n      swap2\n      pop\n      pop\n      0x01\n      swap1\n      sub\n      swap1\n      0x00\n      mstore\n      keccak256(0x00, 0x20)\n      swap1\n      0x04\n      mul\n      add\n      0x00\n      swap1\n      swap2\n      swap1\n      swap2\n      swap1\n      swap2\n      pop\n      0x00\n      dup3\n      add\n      mload\n      dup2\n      0x00\n      add\n      exp(0x0100, 0x00)\n      dup2\n      sload\n      dup2\n      0xffffffffffffffffffffffffffffffffffffffff\n      mul\n      not\n      and\n      swap1\n      dup4\n      0xffffffffffffffffffffffffffffffffffffffff\n      and\n      mul\n      or\n      swap1\n      sstore\n      pop\n      0x20\n      dup3\n      add\n      mload\n      dup2\n      0x01\n      add\n      swap1\n      dup2\n      tag_72\n      swap2\n      swap1\n      tag_73\n      jump\t// in\n    tag_72:\n      pop\n      0x40\n      dup3\n      add\n      mload\n      dup2\n      0x02\n      add\n      sstore\n      0x60\n      dup3\n      add\n      mload\n      dup2\n      0x03\n      add\n      sstore\n      pop\n      pop\n        /* \"contracts/Twitter.sol\":889:1320  {... */\n      pop\n        /* \"contracts/Twitter.sol\":839:1320  function createTweet(string memory _tweet) public {... */\n      pop\n      jump\t// out\n        /* \"contracts/Twitter.sol\":390:410  address public owner */\n    tag_36:\n      0x02\n      0x00\n      swap1\n      sload\n      swap1\n      0x0100\n      exp\n      swap1\n      div\n      0xffffffffffffffffffffffffffffffffffffffff\n      and\n      dup2\n      jump\t// out\n        /* \"contracts/Twitter.sol\":1480:1599  function getTweet(uint _i) public view returns (Tweet memory){... */\n    tag_42:\n        /* \"contracts/Twitter.sol\":1528:1540  Tweet memory */\n      tag_74\n      tag_75\n      jump\t// in\n    tag_74:\n        /* \"contracts/Twitter.sol\":1563:1569  tweets */\n      0x01\n        /* \"contracts/Twitter.sol\":1563:1581  tweets[msg.sender] */\n      0x00\n        /* \"contracts/Twitter.sol\":1570:1580  msg.sender */\n      caller\n        /* \"contracts/Twitter.sol\":1563:1581  tweets[msg.sender] */\n      0xffffffffffffffffffffffffffffffffffffffff\n      and\n      0xffffffffffffffffffffffffffffffffffffffff\n      and\n      dup2\n      mstore\n      0x20\n      add\n      swap1\n      dup2\n      mstore\n      0x20\n      add\n      0x00\n      keccak256\n        /* \"contracts/Twitter.sol\":1582:1584  _i */\n      dup3\n        /* \"contracts/Twitter.sol\":1563:1585  tweets[msg.sender][_i] */\n      dup2\n      sload\n      dup2\n      lt\n      tag_77\n      jumpi\n      tag_78\n      tag_79\n      jump\t// in\n    tag_78:\n    tag_77:\n      swap1\n      0x00\n      mstore\n      keccak256(0x00, 0x20)\n      swap1\n      0x04\n      mul\n      add\n        /* \"contracts/Twitter.sol\":1556:1585  return tweets[msg.sender][_i] */\n      mload(0x40)\n      dup1\n      0x80\n      add\n      0x40\n      mstore\n      swap1\n      dup2\n      0x00\n      dup3\n      add\n      0x00\n      swap1\n      sload\n      swap1\n      0x0100\n      exp\n      swap1\n      div\n      0xffffffffffffffffffffffffffffffffffffffff\n      and\n      0xffffffffffffffffffffffffffffffffffffffff\n      and\n      0xffffffffffffffffffffffffffffffffffffffff\n      and\n      dup2\n      mstore\n      0x20\n      add\n      0x01\n      dup3\n      add\n      dup1\n      sload\n      tag_81\n      swap1\n      tag_48\n      jump\t// in\n    tag_81:\n      dup1\n      0x1f\n      add\n      0x20\n      dup1\n      swap2\n      div\n      mul\n      0x20\n      add\n      mload(0x40)\n      swap1\n      dup2\n      add\n      0x40\n      mstore\n      dup1\n      swap3\n      swap2\n      swap1\n      dup2\n      dup2\n      mstore\n      0x20\n      add\n      dup3\n      dup1\n      sload\n      tag_82\n      swap1\n      tag_48\n      jump\t// in\n    tag_82:\n      dup1\n      iszero\n      tag_83\n      jumpi\n      dup1\n      0x1f\n      lt\n      tag_84\n      jumpi\n      0x0100\n      dup1\n      dup4\n      sload\n      div\n      mul\n      dup4\n      mstore\n      swap2\n      0x20\n      add\n      swap2\n      jump(tag_83)\n    tag_84:\n      dup3\n      add\n      swap2\n      swap1\n      0x00\n      mstore\n      keccak256(0x00, 0x20)\n      swap1\n    tag_85:\n      dup2\n      sload\n      dup2\n      mstore\n      swap1\n      0x01\n      add\n      swap1\n      0x20\n      add\n      dup1\n      dup4\n      gt\n      tag_85\n      jumpi\n      dup3\n      swap1\n      sub\n      0x1f\n      and\n      dup3\n      add\n      swap2\n    tag_83:\n      pop\n      pop\n      pop\n      pop\n      pop\n      dup2\n      mstore\n      0x20\n      add\n      0x02\n      dup3\n      add\n      sload\n      dup2\n      mstore\n      0x20\n      add\n      0x03\n      dup3\n      add\n      sload\n      dup2\n      mstore\n      pop\n      pop\n      swap1\n      pop\n        /* \"contracts/Twitter.sol\":1480:1599  function getTweet(uint _i) public view returns (Tweet memory){... */\n      swap2\n      swap1\n      pop\n      jump\t// out\n    tag_75:\n      mload(0x40)\n      dup1\n      0x80\n      add\n      0x40\n      mstore\n      dup1\n      and(0xffffffffffffffffffffffffffffffffffffffff, 0x00)\n      dup2\n      mstore\n      0x20\n      add\n      0x60\n      dup2\n      mstore\n      0x20\n      add\n      0x00\n      dup2\n      mstore\n      0x20\n      add\n      0x00\n      dup2\n      mstore\n      pop\n      swap1\n      jump\t// out\n        /* \"#utility.yul\":7:82   */\n    tag_86:\n        /* \"#utility.yul\":40:46   */\n      0x00\n        /* \"#utility.yul\":73:75   */\n      0x40\n        /* \"#utility.yul\":67:76   */\n      mload\n        /* \"#utility.yul\":57:76   */\n      swap1\n      pop\n        /* \"#utility.yul\":7:82   */\n      swap1\n      jump\t// out\n        /* \"#utility.yul\":88:205   */\n    tag_87:\n        /* \"#utility.yul\":197:198   */\n      0x00\n        /* \"#utility.yul\":194:195   */\n      dup1\n        /* \"#utility.yul\":187:199   */\n      revert\n        /* \"#utility.yul\":211:328   */\n    tag_88:\n        /* \"#utility.yul\":320:321   */\n      0x00\n        /* \"#utility.yul\":317:318   */\n      dup1\n        /* \"#utility.yul\":310:322   */\n      revert\n        /* \"#utility.yul\":334:460   */\n    tag_89:\n        /* \"#utility.yul\":371:378   */\n      0x00\n        /* \"#utility.yul\":411:453   */\n      0xffffffffffffffffffffffffffffffffffffffff\n        /* \"#utility.yul\":404:409   */\n      dup3\n        /* \"#utility.yul\":400:454   */\n      and\n        /* \"#utility.yul\":389:454   */\n      swap1\n      pop\n        /* \"#utility.yul\":334:460   */\n      swap2\n      swap1\n      pop\n      jump\t// out\n        /* \"#utility.yul\":466:562   */\n    tag_90:\n        /* \"#utility.yul\":503:510   */\n      0x00\n        /* \"#utility.yul\":532:556   */\n      tag_154\n        /* \"#utility.yul\":550:555   */\n      dup3\n        /* \"#utility.yul\":532:556   */\n      tag_89\n      jump\t// in\n    tag_154:\n        /* \"#utility.yul\":521:556   */\n      swap1\n      pop\n        /* \"#utility.yul\":466:562   */\n      swap2\n      swap1\n      pop\n      jump\t// out\n        /* \"#utility.yul\":568:690   */\n    tag_91:\n        /* \"#utility.yul\":641:665   */\n      tag_156\n        /* \"#utility.yul\":659:664   */\n      dup2\n        /* \"#utility.yul\":641:665   */\n      tag_90\n      jump\t// in\n    tag_156:\n        /* \"#utility.yul\":634:639   */\n      dup2\n        /* \"#utility.yul\":631:666   */\n      eq\n        /* \"#utility.yul\":621:684   */\n      tag_157\n      jumpi\n        /* \"#utility.yul\":680:681   */\n      0x00\n        /* \"#utility.yul\":677:678   */\n      dup1\n        /* \"#utility.yul\":670:682   */\n      revert\n        /* \"#utility.yul\":621:684   */\n    tag_157:\n        /* \"#utility.yul\":568:690   */\n      pop\n      jump\t// out\n        /* \"#utility.yul\":696:835   */\n    tag_92:\n        /* \"#utility.yul\":742:747   */\n      0x00\n        /* \"#utility.yul\":780:786   */\n      dup2\n        /* \"#utility.yul\":767:787   */\n      calldataload\n        /* \"#utility.yul\":758:787   */\n      swap1\n      pop\n        /* \"#utility.yul\":796:829   */\n      tag_159\n        /* \"#utility.yul\":823:828   */\n      dup2\n        /* \"#utility.yul\":796:829   */\n      tag_91\n      jump\t// in\n    tag_159:\n        /* \"#utility.yul\":696:835   */\n      swap3\n      swap2\n      pop\n      pop\n      jump\t// out\n        /* \"#utility.yul\":841:918   */\n    tag_93:\n        /* \"#utility.yul\":878:885   */\n      0x00\n        /* \"#utility.yul\":907:912   */\n      dup2\n        /* \"#utility.yul\":896:912   */\n      swap1\n      pop\n        /* \"#utility.yul\":841:918   */\n      swap2\n      swap1\n      pop\n      jump\t// out\n        /* \"#utility.yul\":924:1046   */\n    tag_94:\n        /* \"#utility.yul\":997:1021   */\n      tag_162\n        /* \"#utility.yul\":1015:1020   */\n      dup2\n        /* \"#utility.yul\":997:1021   */\n      tag_93\n      jump\t// in\n    tag_162:\n        /* \"#utility.yul\":990:995   */\n      dup2\n        /* \"#utility.yul\":987:1022   */\n      eq\n        /* \"#utility.yul\":977:1040   */\n      tag_163\n      jumpi\n        /* \"#utility.yul\":1036:1037   */\n      0x00\n        /* \"#utility.yul\":1033:1034   */\n      dup1\n        /* \"#utility.yul\":1026:1038   */\n      revert\n        /* \"#utility.yul\":977:1040   */\n    tag_163:\n        /* \"#utility.yul\":924:1046   */\n      pop\n      jump\t// out\n        /* \"#utility.yul\":1052:1191   */\n    tag_95:\n        /* \"#utility.yul\":1098:1103   */\n      0x00\n        /* \"#utility.yul\":1136:1142   */\n      dup2\n        /* \"#utility.yul\":1123:1143   */\n      calldataload\n        /* \"#utility.yul\":1114:1143   */\n      swap1\n      pop\n        /* \"#utility.yul\":1152:1185   */\n      tag_165\n        /* \"#utility.yul\":1179:1184   */\n      dup2\n        /* \"#utility.yul\":1152:1185   */\n      tag_94\n      jump\t// in\n    tag_165:\n        /* \"#utility.yul\":1052:1191   */\n      swap3\n      swap2\n      pop\n      pop\n      jump\t// out\n        /* \"#utility.yul\":1197:1671   */\n    tag_13:\n        /* \"#utility.yul\":1265:1271   */\n      0x00\n        /* \"#utility.yul\":1273:1279   */\n      dup1\n        /* \"#utility.yul\":1322:1324   */\n      0x40\n        /* \"#utility.yul\":1310:1319   */\n      dup4\n        /* \"#utility.yul\":1301:1308   */\n      dup6\n        /* \"#utility.yul\":1297:1320   */\n      sub\n        /* \"#utility.yul\":1293:1325   */\n      slt\n        /* \"#utility.yul\":1290:1409   */\n      iszero\n      tag_167\n      jumpi\n        /* \"#utility.yul\":1328:1407   */\n      tag_168\n      tag_87\n      jump\t// in\n    tag_168:\n        /* \"#utility.yul\":1290:1409   */\n    tag_167:\n        /* \"#utility.yul\":1448:1449   */\n      0x00\n        /* \"#utility.yul\":1473:1526   */\n      tag_169\n        /* \"#utility.yul\":1518:1525   */\n      dup6\n        /* \"#utility.yul\":1509:1515   */\n      dup3\n        /* \"#utility.yul\":1498:1507   */\n      dup7\n        /* \"#utility.yul\":1494:1516   */\n      add\n        /* \"#utility.yul\":1473:1526   */\n      tag_92\n      jump\t// in\n    tag_169:\n        /* \"#utility.yul\":1463:1526   */\n      swap3\n      pop\n        /* \"#utility.yul\":1419:1536   */\n      pop\n        /* \"#utility.yul\":1575:1577   */\n      0x20\n        /* \"#utility.yul\":1601:1654   */\n      tag_170\n        /* \"#utility.yul\":1646:1653   */\n      dup6\n        /* \"#utility.yul\":1637:1643   */\n      dup3\n        /* \"#utility.yul\":1626:1635   */\n      dup7\n        /* \"#utility.yul\":1622:1644   */\n      add\n        /* \"#utility.yul\":1601:1654   */\n      tag_95\n      jump\t// in\n    tag_170:\n        /* \"#utility.yul\":1591:1654   */\n      swap2\n      pop\n        /* \"#utility.yul\":1546:1664   */\n      pop\n        /* \"#utility.yul\":1197:1671   */\n      swap3\n      pop\n      swap3\n      swap1\n      pop\n      jump\t// out\n        /* \"#utility.yul\":1677:1795   */\n    tag_96:\n        /* \"#utility.yul\":1764:1788   */\n      tag_172\n        /* \"#utility.yul\":1782:1787   */\n      dup2\n        /* \"#utility.yul\":1764:1788   */\n      tag_90\n      jump\t// in\n    tag_172:\n        /* \"#utility.yul\":1759:1762   */\n      dup3\n        /* \"#utility.yul\":1752:1789   */\n      mstore\n        /* \"#utility.yul\":1677:1795   */\n      pop\n      pop\n      jump\t// out\n        /* \"#utility.yul\":1801:1900   */\n    tag_97:\n        /* \"#utility.yul\":1853:1859   */\n      0x00\n        /* \"#utility.yul\":1887:1892   */\n      dup2\n        /* \"#utility.yul\":1881:1893   */\n      mload\n        /* \"#utility.yul\":1871:1893   */\n      swap1\n      pop\n        /* \"#utility.yul\":1801:1900   */\n      swap2\n      swap1\n      pop\n      jump\t// out\n        /* \"#utility.yul\":1906:2075   */\n    tag_98:\n        /* \"#utility.yul\":1990:2001   */\n      0x00\n        /* \"#utility.yul\":2024:2030   */\n      dup3\n        /* \"#utility.yul\":2019:2022   */\n      dup3\n        /* \"#utility.yul\":2012:2031   */\n      mstore\n        /* \"#utility.yul\":2064:2068   */\n      0x20\n        /* \"#utility.yul\":2059:2062   */\n      dup3\n        /* \"#utility.yul\":2055:2069   */\n      add\n        /* \"#utility.yul\":2040:2069   */\n      swap1\n      pop\n        /* \"#utility.yul\":1906:2075   */\n      swap3\n      swap2\n      pop\n      pop\n      jump\t// out\n        /* \"#utility.yul\":2081:2327   */\n    tag_99:\n        /* \"#utility.yul\":2162:2163   */\n      0x00\n        /* \"#utility.yul\":2172:2285   */\n    tag_176:\n        /* \"#utility.yul\":2186:2192   */\n      dup4\n        /* \"#utility.yul\":2183:2184   */\n      dup2\n        /* \"#utility.yul\":2180:2193   */\n      lt\n        /* \"#utility.yul\":2172:2285   */\n      iszero\n      tag_178\n      jumpi\n        /* \"#utility.yul\":2271:2272   */\n      dup1\n        /* \"#utility.yul\":2266:2269   */\n      dup3\n        /* \"#utility.yul\":2262:2273   */\n      add\n        /* \"#utility.yul\":2256:2274   */\n      mload\n        /* \"#utility.yul\":2252:2253   */\n      dup2\n        /* \"#utility.yul\":2247:2250   */\n      dup5\n        /* \"#utility.yul\":2243:2254   */\n      add\n        /* \"#utility.yul\":2236:2275   */\n      mstore\n        /* \"#utility.yul\":2208:2210   */\n      0x20\n        /* \"#utility.yul\":2205:2206   */\n      dup2\n        /* \"#utility.yul\":2201:2211   */\n      add\n        /* \"#utility.yul\":2196:2211   */\n      swap1\n      pop\n        /* \"#utility.yul\":2172:2285   */\n      jump(tag_176)\n    tag_178:\n        /* \"#utility.yul\":2319:2320   */\n      0x00\n        /* \"#utility.yul\":2310:2316   */\n      dup5\n        /* \"#utility.yul\":2305:2308   */\n      dup5\n        /* \"#utility.yul\":2301:2317   */\n      add\n        /* \"#utility.yul\":2294:2321   */\n      mstore\n        /* \"#utility.yul\":2143:2327   */\n      pop\n        /* \"#utility.yul\":2081:2327   */\n      pop\n      pop\n      pop\n      jump\t// out\n        /* \"#utility.yul\":2333:2435   */\n    tag_100:\n        /* \"#utility.yul\":2374:2380   */\n      0x00\n        /* \"#utility.yul\":2425:2427   */\n      0x1f\n        /* \"#utility.yul\":2421:2428   */\n      not\n        /* \"#utility.yul\":2416:2418   */\n      0x1f\n        /* \"#utility.yul\":2409:2414   */\n      dup4\n        /* \"#utility.yul\":2405:2419   */\n      add\n        /* \"#utility.yul\":2401:2429   */\n      and\n        /* \"#utility.yul\":2391:2429   */\n      swap1\n      pop\n        /* \"#utility.yul\":2333:2435   */\n      swap2\n      swap1\n      pop\n      jump\t// out\n        /* \"#utility.yul\":2441:2818   */\n    tag_101:\n        /* \"#utility.yul\":2529:2532   */\n      0x00\n        /* \"#utility.yul\":2557:2596   */\n      tag_181\n        /* \"#utility.yul\":2590:2595   */\n      dup3\n        /* \"#utility.yul\":2557:2596   */\n      tag_97\n      jump\t// in\n    tag_181:\n        /* \"#utility.yul\":2612:2683   */\n      tag_182\n        /* \"#utility.yul\":2676:2682   */\n      dup2\n        /* \"#utility.yul\":2671:2674   */\n      dup6\n        /* \"#utility.yul\":2612:2683   */\n      tag_98\n      jump\t// in\n    tag_182:\n        /* \"#utility.yul\":2605:2683   */\n      swap4\n      pop\n        /* \"#utility.yul\":2692:2757   */\n      tag_183\n        /* \"#utility.yul\":2750:2756   */\n      dup2\n        /* \"#utility.yul\":2745:2748   */\n      dup6\n        /* \"#utility.yul\":2738:2742   */\n      0x20\n        /* \"#utility.yul\":2731:2736   */\n      dup7\n        /* \"#utility.yul\":2727:2743   */\n      add\n        /* \"#utility.yul\":2692:2757   */\n      tag_99\n      jump\t// in\n    tag_183:\n        /* \"#utility.yul\":2782:2811   */\n      tag_184\n        /* \"#utility.yul\":2804:2810   */\n      dup2\n        /* \"#utility.yul\":2782:2811   */\n      tag_100\n      jump\t// in\n    tag_184:\n        /* \"#utility.yul\":2777:2780   */\n      dup5\n        /* \"#utility.yul\":2773:2812   */\n      add\n        /* \"#utility.yul\":2766:2812   */\n      swap2\n      pop\n        /* \"#utility.yul\":2533:2818   */\n      pop\n        /* \"#utility.yul\":2441:2818   */\n      swap3\n      swap2\n      pop\n      pop\n      jump\t// out\n        /* \"#utility.yul\":2824:2942   */\n    tag_102:\n        /* \"#utility.yul\":2911:2935   */\n      tag_186\n        /* \"#utility.yul\":2929:2934   */\n      dup2\n        /* \"#utility.yul\":2911:2935   */\n      tag_93\n      jump\t// in\n    tag_186:\n        /* \"#utility.yul\":2906:2909   */\n      dup3\n        /* \"#utility.yul\":2899:2936   */\n      mstore\n        /* \"#utility.yul\":2824:2942   */\n      pop\n      pop\n      jump\t// out\n        /* \"#utility.yul\":2948:3592   */\n    tag_16:\n        /* \"#utility.yul\":3145:3149   */\n      0x00\n        /* \"#utility.yul\":3183:3186   */\n      0x80\n        /* \"#utility.yul\":3172:3181   */\n      dup3\n        /* \"#utility.yul\":3168:3187   */\n      add\n        /* \"#utility.yul\":3160:3187   */\n      swap1\n      pop\n        /* \"#utility.yul\":3197:3268   */\n      tag_188\n        /* \"#utility.yul\":3265:3266   */\n      0x00\n        /* \"#utility.yul\":3254:3263   */\n      dup4\n        /* \"#utility.yul\":3250:3267   */\n      add\n        /* \"#utility.yul\":3241:3247   */\n      dup8\n        /* \"#utility.yul\":3197:3268   */\n      tag_96\n      jump\t// in\n    tag_188:\n        /* \"#utility.yul\":3315:3324   */\n      dup2\n        /* \"#utility.yul\":3309:3313   */\n      dup2\n        /* \"#utility.yul\":3305:3325   */\n      sub\n        /* \"#utility.yul\":3300:3302   */\n      0x20\n        /* \"#utility.yul\":3289:3298   */\n      dup4\n        /* \"#utility.yul\":3285:3303   */\n      add\n        /* \"#utility.yul\":3278:3326   */\n      mstore\n        /* \"#utility.yul\":3343:3421   */\n      tag_189\n        /* \"#utility.yul\":3416:3420   */\n      dup2\n        /* \"#utility.yul\":3407:3413   */\n      dup7\n        /* \"#utility.yul\":3343:3421   */\n      tag_101\n      jump\t// in\n    tag_189:\n        /* \"#utility.yul\":3335:3421   */\n      swap1\n      pop\n        /* \"#utility.yul\":3431:3503   */\n      tag_190\n        /* \"#utility.yul\":3499:3501   */\n      0x40\n        /* \"#utility.yul\":3488:3497   */\n      dup4\n        /* \"#utility.yul\":3484:3502   */\n      add\n        /* \"#utility.yul\":3475:3481   */\n      dup6\n        /* \"#utility.yul\":3431:3503   */\n      tag_102\n      jump\t// in\n    tag_190:\n        /* \"#utility.yul\":3513:3585   */\n      tag_191\n        /* \"#utility.yul\":3581:3583   */\n      0x60\n        /* \"#utility.yul\":3570:3579   */\n      dup4\n        /* \"#utility.yul\":3566:3584   */\n      add\n        /* \"#utility.yul\":3557:3563   */\n      dup5\n        /* \"#utility.yul\":3513:3585   */\n      tag_102\n      jump\t// in\n    tag_191:\n        /* \"#utility.yul\":2948:3592   */\n      swap6\n      swap5\n      pop\n      pop\n      pop\n      pop\n      pop\n      jump\t// out\n        /* \"#utility.yul\":3598:3687   */\n    tag_103:\n        /* \"#utility.yul\":3634:3641   */\n      0x00\n        /* \"#utility.yul\":3674:3680   */\n      0xffff\n        /* \"#utility.yul\":3667:3672   */\n      dup3\n        /* \"#utility.yul\":3663:3681   */\n      and\n        /* \"#utility.yul\":3652:3681   */\n      swap1\n      pop\n        /* \"#utility.yul\":3598:3687   */\n      swap2\n      swap1\n      pop\n      jump\t// out\n        /* \"#utility.yul\":3693:3808   */\n    tag_104:\n        /* \"#utility.yul\":3778:3801   */\n      tag_194\n        /* \"#utility.yul\":3795:3800   */\n      dup2\n        /* \"#utility.yul\":3778:3801   */\n      tag_103\n      jump\t// in\n    tag_194:\n        /* \"#utility.yul\":3773:3776   */\n      dup3\n        /* \"#utility.yul\":3766:3802   */\n      mstore\n        /* \"#utility.yul\":3693:3808   */\n      pop\n      pop\n      jump\t// out\n        /* \"#utility.yul\":3814:4032   */\n    tag_20:\n        /* \"#utility.yul\":3905:3909   */\n      0x00\n        /* \"#utility.yul\":3943:3945   */\n      0x20\n        /* \"#utility.yul\":3932:3941   */\n      dup3\n        /* \"#utility.yul\":3928:3946   */\n      add\n        /* \"#utility.yul\":3920:3946   */\n      swap1\n      pop\n        /* \"#utility.yul\":3956:4025   */\n      tag_196\n        /* \"#utility.yul\":4022:4023   */\n      0x00\n        /* \"#utility.yul\":4011:4020   */\n      dup4\n        /* \"#utility.yul\":4007:4024   */\n      add\n        /* \"#utility.yul\":3998:4004   */\n      dup5\n        /* \"#utility.yul\":3956:4025   */\n      tag_104\n      jump\t// in\n    tag_196:\n        /* \"#utility.yul\":3814:4032   */\n      swap3\n      swap2\n      pop\n      pop\n      jump\t// out\n        /* \"#utility.yul\":4038:4367   */\n    tag_23:\n        /* \"#utility.yul\":4097:4103   */\n      0x00\n        /* \"#utility.yul\":4146:4148   */\n      0x20\n        /* \"#utility.yul\":4134:4143   */\n      dup3\n        /* \"#utility.yul\":4125:4132   */\n      dup5\n        /* \"#utility.yul\":4121:4144   */\n      sub\n        /* \"#utility.yul\":4117:4149   */\n      slt\n        /* \"#utility.yul\":4114:4233   */\n      iszero\n      tag_198\n      jumpi\n        /* \"#utility.yul\":4152:4231   */\n      tag_199\n      tag_87\n      jump\t// in\n    tag_199:\n        /* \"#utility.yul\":4114:4233   */\n    tag_198:\n        /* \"#utility.yul\":4272:4273   */\n      0x00\n        /* \"#utility.yul\":4297:4350   */\n      tag_200\n        /* \"#utility.yul\":4342:4349   */\n      dup5\n        /* \"#utility.yul\":4333:4339   */\n      dup3\n        /* \"#utility.yul\":4322:4331   */\n      dup6\n        /* \"#utility.yul\":4318:4340   */\n      add\n        /* \"#utility.yul\":4297:4350   */\n      tag_92\n      jump\t// in\n    tag_200:\n        /* \"#utility.yul\":4287:4350   */\n      swap2\n      pop\n        /* \"#utility.yul\":4243:4360   */\n      pop\n        /* \"#utility.yul\":4038:4367   */\n      swap3\n      swap2\n      pop\n      pop\n      jump\t// out\n        /* \"#utility.yul\":4373:4508   */\n    tag_105:\n        /* \"#utility.yul\":4461:4467   */\n      0x00\n        /* \"#utility.yul\":4495:4500   */\n      dup2\n        /* \"#utility.yul\":4489:4501   */\n      mload\n        /* \"#utility.yul\":4479:4501   */\n      swap1\n      pop\n        /* \"#utility.yul\":4373:4508   */\n      swap2\n      swap1\n      pop\n      jump\t// out\n        /* \"#utility.yul\":4514:4719   */\n    tag_106:\n        /* \"#utility.yul\":4634:4645   */\n      0x00\n        /* \"#utility.yul\":4668:4674   */\n      dup3\n        /* \"#utility.yul\":4663:4666   */\n      dup3\n        /* \"#utility.yul\":4656:4675   */\n      mstore\n        /* \"#utility.yul\":4708:4712   */\n      0x20\n        /* \"#utility.yul\":4703:4706   */\n      dup3\n        /* \"#utility.yul\":4699:4713   */\n      add\n        /* \"#utility.yul\":4684:4713   */\n      swap1\n      pop\n        /* \"#utility.yul\":4514:4719   */\n      swap3\n      swap2\n      pop\n      pop\n      jump\t// out\n        /* \"#utility.yul\":4725:4878   */\n    tag_107:\n        /* \"#utility.yul\":4813:4817   */\n      0x00\n        /* \"#utility.yul\":4836:4839   */\n      dup2\n        /* \"#utility.yul\":4828:4839   */\n      swap1\n      pop\n        /* \"#utility.yul\":4866:4870   */\n      0x20\n        /* \"#utility.yul\":4861:4864   */\n      dup3\n        /* \"#utility.yul\":4857:4871   */\n      add\n        /* \"#utility.yul\":4849:4871   */\n      swap1\n      pop\n        /* \"#utility.yul\":4725:4878   */\n      swap2\n      swap1\n      pop\n      jump\t// out\n        /* \"#utility.yul\":4884:4992   */\n    tag_108:\n        /* \"#utility.yul\":4961:4985   */\n      tag_205\n        /* \"#utility.yul\":4979:4984   */\n      dup2\n        /* \"#utility.yul\":4961:4985   */\n      tag_90\n      jump\t// in\n    tag_205:\n        /* \"#utility.yul\":4956:4959   */\n      dup3\n        /* \"#utility.yul\":4949:4986   */\n      mstore\n        /* \"#utility.yul\":4884:4992   */\n      pop\n      pop\n      jump\t// out\n        /* \"#utility.yul\":4998:5157   */\n    tag_109:\n        /* \"#utility.yul\":5072:5083   */\n      0x00\n        /* \"#utility.yul\":5106:5112   */\n      dup3\n        /* \"#utility.yul\":5101:5104   */\n      dup3\n        /* \"#utility.yul\":5094:5113   */\n      mstore\n        /* \"#utility.yul\":5146:5150   */\n      0x20\n        /* \"#utility.yul\":5141:5144   */\n      dup3\n        /* \"#utility.yul\":5137:5151   */\n      add\n        /* \"#utility.yul\":5122:5151   */\n      swap1\n      pop\n        /* \"#utility.yul\":4998:5157   */\n      swap3\n      swap2\n      pop\n      pop\n      jump\t// out\n        /* \"#utility.yul\":5163:5520   */\n    tag_110:\n        /* \"#utility.yul\":5241:5244   */\n      0x00\n        /* \"#utility.yul\":5269:5308   */\n      tag_208\n        /* \"#utility.yul\":5302:5307   */\n      dup3\n        /* \"#utility.yul\":5269:5308   */\n      tag_97\n      jump\t// in\n    tag_208:\n        /* \"#utility.yul\":5324:5385   */\n      tag_209\n        /* \"#utility.yul\":5378:5384   */\n      dup2\n        /* \"#utility.yul\":5373:5376   */\n      dup6\n        /* \"#utility.yul\":5324:5385   */\n      tag_109\n      jump\t// in\n    tag_209:\n        /* \"#utility.yul\":5317:5385   */\n      swap4\n      pop\n        /* \"#utility.yul\":5394:5459   */\n      tag_210\n        /* \"#utility.yul\":5452:5458   */\n      dup2\n        /* \"#utility.yul\":5447:5450   */\n      dup6\n        /* \"#utility.yul\":5440:5444   */\n      0x20\n        /* \"#utility.yul\":5433:5438   */\n      dup7\n        /* \"#utility.yul\":5429:5445   */\n      add\n        /* \"#utility.yul\":5394:5459   */\n      tag_99\n      jump\t// in\n    tag_210:\n        /* \"#utility.yul\":5484:5513   */\n      tag_211\n        /* \"#utility.yul\":5506:5512   */\n      dup2\n        /* \"#utility.yul\":5484:5513   */\n      tag_100\n      jump\t// in\n    tag_211:\n        /* \"#utility.yul\":5479:5482   */\n      dup5\n        /* \"#utility.yul\":5475:5514   */\n      add\n        /* \"#utility.yul\":5468:5514   */\n      swap2\n      pop\n        /* \"#utility.yul\":5245:5520   */\n      pop\n        /* \"#utility.yul\":5163:5520   */\n      swap3\n      swap2\n      pop\n      pop\n      jump\t// out\n        /* \"#utility.yul\":5526:5634   */\n    tag_111:\n        /* \"#utility.yul\":5603:5627   */\n      tag_213\n        /* \"#utility.yul\":5621:5626   */\n      dup2\n        /* \"#utility.yul\":5603:5627   */\n      tag_93\n      jump\t// in\n    tag_213:\n        /* \"#utility.yul\":5598:5601   */\n      dup3\n        /* \"#utility.yul\":5591:5628   */\n      mstore\n        /* \"#utility.yul\":5526:5634   */\n      pop\n      pop\n      jump\t// out\n        /* \"#utility.yul\":5692:6639   */\n    tag_112:\n        /* \"#utility.yul\":5793:5796   */\n      0x00\n        /* \"#utility.yul\":5829:5833   */\n      0x80\n        /* \"#utility.yul\":5824:5827   */\n      dup4\n        /* \"#utility.yul\":5820:5834   */\n      add\n        /* \"#utility.yul\":5918:5922   */\n      0x00\n        /* \"#utility.yul\":5911:5916   */\n      dup4\n        /* \"#utility.yul\":5907:5923   */\n      add\n        /* \"#utility.yul\":5901:5924   */\n      mload\n        /* \"#utility.yul\":5937:6000   */\n      tag_215\n        /* \"#utility.yul\":5994:5998   */\n      0x00\n        /* \"#utility.yul\":5989:5992   */\n      dup7\n        /* \"#utility.yul\":5985:5999   */\n      add\n        /* \"#utility.yul\":5971:5983   */\n      dup3\n        /* \"#utility.yul\":5937:6000   */\n      tag_108\n      jump\t// in\n    tag_215:\n        /* \"#utility.yul\":5844:6010   */\n      pop\n        /* \"#utility.yul\":6095:6099   */\n      0x20\n        /* \"#utility.yul\":6088:6093   */\n      dup4\n        /* \"#utility.yul\":6084:6100   */\n      add\n        /* \"#utility.yul\":6078:6101   */\n      mload\n        /* \"#utility.yul\":6148:6151   */\n      dup5\n        /* \"#utility.yul\":6142:6146   */\n      dup3\n        /* \"#utility.yul\":6138:6152   */\n      sub\n        /* \"#utility.yul\":6131:6135   */\n      0x20\n        /* \"#utility.yul\":6126:6129   */\n      dup7\n        /* \"#utility.yul\":6122:6136   */\n      add\n        /* \"#utility.yul\":6115:6153   */\n      mstore\n        /* \"#utility.yul\":6174:6247   */\n      tag_216\n        /* \"#utility.yul\":6242:6246   */\n      dup3\n        /* \"#utility.yul\":6228:6240   */\n      dup3\n        /* \"#utility.yul\":6174:6247   */\n      tag_110\n      jump\t// in\n    tag_216:\n        /* \"#utility.yul\":6166:6247   */\n      swap2\n      pop\n        /* \"#utility.yul\":6020:6258   */\n      pop\n        /* \"#utility.yul\":6345:6349   */\n      0x40\n        /* \"#utility.yul\":6338:6343   */\n      dup4\n        /* \"#utility.yul\":6334:6350   */\n      add\n        /* \"#utility.yul\":6328:6351   */\n      mload\n        /* \"#utility.yul\":6364:6427   */\n      tag_217\n        /* \"#utility.yul\":6421:6425   */\n      0x40\n        /* \"#utility.yul\":6416:6419   */\n      dup7\n        /* \"#utility.yul\":6412:6426   */\n      add\n        /* \"#utility.yul\":6398:6410   */\n      dup3\n        /* \"#utility.yul\":6364:6427   */\n      tag_111\n      jump\t// in\n    tag_217:\n        /* \"#utility.yul\":6268:6437   */\n      pop\n        /* \"#utility.yul\":6520:6524   */\n      0x60\n        /* \"#utility.yul\":6513:6518   */\n      dup4\n        /* \"#utility.yul\":6509:6525   */\n      add\n        /* \"#utility.yul\":6503:6526   */\n      mload\n        /* \"#utility.yul\":6539:6602   */\n      tag_218\n        /* \"#utility.yul\":6596:6600   */\n      0x60\n        /* \"#utility.yul\":6591:6594   */\n      dup7\n        /* \"#utility.yul\":6587:6601   */\n      add\n        /* \"#utility.yul\":6573:6585   */\n      dup3\n        /* \"#utility.yul\":6539:6602   */\n      tag_111\n      jump\t// in\n    tag_218:\n        /* \"#utility.yul\":6447:6612   */\n      pop\n        /* \"#utility.yul\":6629:6633   */\n      dup1\n        /* \"#utility.yul\":6622:6633   */\n      swap2\n      pop\n        /* \"#utility.yul\":5798:6639   */\n      pop\n        /* \"#utility.yul\":5692:6639   */\n      swap3\n      swap2\n      pop\n      pop\n      jump\t// out\n        /* \"#utility.yul\":6645:6885   */\n    tag_113:\n        /* \"#utility.yul\":6756:6766   */\n      0x00\n        /* \"#utility.yul\":6791:6879   */\n      tag_220\n        /* \"#utility.yul\":6875:6878   */\n      dup4\n        /* \"#utility.yul\":6867:6873   */\n      dup4\n        /* \"#utility.yul\":6791:6879   */\n      tag_112\n      jump\t// in\n    tag_220:\n        /* \"#utility.yul\":6777:6879   */\n      swap1\n      pop\n        /* \"#utility.yul\":6645:6885   */\n      swap3\n      swap2\n      pop\n      pop\n      jump\t// out\n        /* \"#utility.yul\":6891:7025   */\n    tag_114:\n        /* \"#utility.yul\":6982:6986   */\n      0x00\n        /* \"#utility.yul\":7014:7018   */\n      0x20\n        /* \"#utility.yul\":7009:7012   */\n      dup3\n        /* \"#utility.yul\":7005:7019   */\n      add\n        /* \"#utility.yul\":6997:7019   */\n      swap1\n      pop\n        /* \"#utility.yul\":6891:7025   */\n      swap2\n      swap1\n      pop\n      jump\t// out\n        /* \"#utility.yul\":7087:8166   */\n    tag_115:\n        /* \"#utility.yul\":7248:7251   */\n      0x00\n        /* \"#utility.yul\":7277:7352   */\n      tag_223\n        /* \"#utility.yul\":7346:7351   */\n      dup3\n        /* \"#utility.yul\":7277:7352   */\n      tag_105\n      jump\t// in\n    tag_223:\n        /* \"#utility.yul\":7368:7475   */\n      tag_224\n        /* \"#utility.yul\":7468:7474   */\n      dup2\n        /* \"#utility.yul\":7463:7466   */\n      dup6\n        /* \"#utility.yul\":7368:7475   */\n      tag_106\n      jump\t// in\n    tag_224:\n        /* \"#utility.yul\":7361:7475   */\n      swap4\n      pop\n        /* \"#utility.yul\":7501:7504   */\n      dup4\n        /* \"#utility.yul\":7546:7550   */\n      0x20\n        /* \"#utility.yul\":7538:7544   */\n      dup3\n        /* \"#utility.yul\":7534:7551   */\n      mul\n        /* \"#utility.yul\":7529:7532   */\n      dup6\n        /* \"#utility.yul\":7525:7552   */\n      add\n        /* \"#utility.yul\":7576:7653   */\n      tag_225\n        /* \"#utility.yul\":7647:7652   */\n      dup6\n        /* \"#utility.yul\":7576:7653   */\n      tag_107\n      jump\t// in\n    tag_225:\n        /* \"#utility.yul\":7676:7683   */\n      dup1\n        /* \"#utility.yul\":7707:7708   */\n      0x00\n        /* \"#utility.yul\":7692:8121   */\n    tag_226:\n        /* \"#utility.yul\":7717:7723   */\n      dup6\n        /* \"#utility.yul\":7714:7715   */\n      dup2\n        /* \"#utility.yul\":7711:7724   */\n      lt\n        /* \"#utility.yul\":7692:8121   */\n      iszero\n      tag_228\n      jumpi\n        /* \"#utility.yul\":7788:7797   */\n      dup5\n        /* \"#utility.yul\":7782:7786   */\n      dup5\n        /* \"#utility.yul\":7778:7798   */\n      sub\n        /* \"#utility.yul\":7773:7776   */\n      dup10\n        /* \"#utility.yul\":7766:7799   */\n      mstore\n        /* \"#utility.yul\":7839:7845   */\n      dup2\n        /* \"#utility.yul\":7833:7846   */\n      mload\n        /* \"#utility.yul\":7867:7973   */\n      tag_229\n        /* \"#utility.yul\":7968:7972   */\n      dup6\n        /* \"#utility.yul\":7953:7966   */\n      dup3\n        /* \"#utility.yul\":7867:7973   */\n      tag_113\n      jump\t// in\n    tag_229:\n        /* \"#utility.yul\":7859:7973   */\n      swap5\n      pop\n        /* \"#utility.yul\":7996:8077   */\n      tag_230\n        /* \"#utility.yul\":8070:8076   */\n      dup4\n        /* \"#utility.yul\":7996:8077   */\n      tag_114\n      jump\t// in\n    tag_230:\n        /* \"#utility.yul\":7986:8077   */\n      swap3\n      pop\n        /* \"#utility.yul\":8106:8110   */\n      0x20\n        /* \"#utility.yul\":8101:8104   */\n      dup11\n        /* \"#utility.yul\":8097:8111   */\n      add\n        /* \"#utility.yul\":8090:8111   */\n      swap10\n      pop\n        /* \"#utility.yul\":7752:8121   */\n      pop\n        /* \"#utility.yul\":7739:7740   */\n      0x01\n        /* \"#utility.yul\":7736:7737   */\n      dup2\n        /* \"#utility.yul\":7732:7741   */\n      add\n        /* \"#utility.yul\":7727:7741   */\n      swap1\n      pop\n        /* \"#utility.yul\":7692:8121   */\n      jump(tag_226)\n    tag_228:\n        /* \"#utility.yul\":7696:7710   */\n      pop\n        /* \"#utility.yul\":8137:8141   */\n      dup3\n        /* \"#utility.yul\":8130:8141   */\n      swap8\n      pop\n        /* \"#utility.yul\":8157:8160   */\n      dup8\n        /* \"#utility.yul\":8150:8160   */\n      swap6\n      pop\n        /* \"#utility.yul\":7253:8166   */\n      pop\n      pop\n      pop\n      pop\n      pop\n        /* \"#utility.yul\":7087:8166   */\n      swap3\n      swap2\n      pop\n      pop\n      jump\t// out\n        /* \"#utility.yul\":8172:8629   */\n    tag_26:\n        /* \"#utility.yul\":8357:8361   */\n      0x00\n        /* \"#utility.yul\":8395:8397   */\n      0x20\n        /* \"#utility.yul\":8384:8393   */\n      dup3\n        /* \"#utility.yul\":8380:8398   */\n      add\n        /* \"#utility.yul\":8372:8398   */\n      swap1\n      pop\n        /* \"#utility.yul\":8444:8453   */\n      dup2\n        /* \"#utility.yul\":8438:8442   */\n      dup2\n        /* \"#utility.yul\":8434:8454   */\n      sub\n        /* \"#utility.yul\":8430:8431   */\n      0x00\n        /* \"#utility.yul\":8419:8428   */\n      dup4\n        /* \"#utility.yul\":8415:8432   */\n      add\n        /* \"#utility.yul\":8408:8455   */\n      mstore\n        /* \"#utility.yul\":8472:8622   */\n      tag_232\n        /* \"#utility.yul\":8617:8621   */\n      dup2\n        /* \"#utility.yul\":8608:8614   */\n      dup5\n        /* \"#utility.yul\":8472:8622   */\n      tag_115\n      jump\t// in\n    tag_232:\n        /* \"#utility.yul\":8464:8622   */\n      swap1\n      pop\n        /* \"#utility.yul\":8172:8629   */\n      swap3\n      swap2\n      pop\n      pop\n      jump\t// out\n        /* \"#utility.yul\":8635:8755   */\n    tag_116:\n        /* \"#utility.yul\":8707:8730   */\n      tag_234\n        /* \"#utility.yul\":8724:8729   */\n      dup2\n        /* \"#utility.yul\":8707:8730   */\n      tag_103\n      jump\t// in\n    tag_234:\n        /* \"#utility.yul\":8700:8705   */\n      dup2\n        /* \"#utility.yul\":8697:8731   */\n      eq\n        /* \"#utility.yul\":8687:8749   */\n      tag_235\n      jumpi\n        /* \"#utility.yul\":8745:8746   */\n      0x00\n        /* \"#utility.yul\":8742:8743   */\n      dup1\n        /* \"#utility.yul\":8735:8747   */\n      revert\n        /* \"#utility.yul\":8687:8749   */\n    tag_235:\n        /* \"#utility.yul\":8635:8755   */\n      pop\n      jump\t// out\n        /* \"#utility.yul\":8761:8898   */\n    tag_117:\n        /* \"#utility.yul\":8806:8811   */\n      0x00\n        /* \"#utility.yul\":8844:8850   */\n      dup2\n        /* \"#utility.yul\":8831:8851   */\n      calldataload\n        /* \"#utility.yul\":8822:8851   */\n      swap1\n      pop\n        /* \"#utility.yul\":8860:8892   */\n      tag_237\n        /* \"#utility.yul\":8886:8891   */\n      dup2\n        /* \"#utility.yul\":8860:8892   */\n      tag_116\n      jump\t// in\n    tag_237:\n        /* \"#utility.yul\":8761:8898   */\n      swap3\n      swap2\n      pop\n      pop\n      jump\t// out\n        /* \"#utility.yul\":8904:9231   */\n    tag_29:\n        /* \"#utility.yul\":8962:8968   */\n      0x00\n        /* \"#utility.yul\":9011:9013   */\n      0x20\n        /* \"#utility.yul\":8999:9008   */\n      dup3\n        /* \"#utility.yul\":8990:8997   */\n      dup5\n        /* \"#utility.yul\":8986:9009   */\n      sub\n        /* \"#utility.yul\":8982:9014   */\n      slt\n        /* \"#utility.yul\":8979:9098   */\n      iszero\n      tag_239\n      jumpi\n        /* \"#utility.yul\":9017:9096   */\n      tag_240\n      tag_87\n      jump\t// in\n    tag_240:\n        /* \"#utility.yul\":8979:9098   */\n    tag_239:\n        /* \"#utility.yul\":9137:9138   */\n      0x00\n        /* \"#utility.yul\":9162:9214   */\n      tag_241\n        /* \"#utility.yul\":9206:9213   */\n      dup5\n        /* \"#utility.yul\":9197:9203   */\n      dup3\n        /* \"#utility.yul\":9186:9195   */\n      dup6\n        /* \"#utility.yul\":9182:9204   */\n      add\n        /* \"#utility.yul\":9162:9214   */\n      tag_117\n      jump\t// in\n    tag_241:\n        /* \"#utility.yul\":9152:9214   */\n      swap2\n      pop\n        /* \"#utility.yul\":9108:9224   */\n      pop\n        /* \"#utility.yul\":8904:9231   */\n      swap3\n      swap2\n      pop\n      pop\n      jump\t// out\n        /* \"#utility.yul\":9237:9354   */\n    tag_118:\n        /* \"#utility.yul\":9346:9347   */\n      0x00\n        /* \"#utility.yul\":9343:9344   */\n      dup1\n        /* \"#utility.yul\":9336:9348   */\n      revert\n        /* \"#utility.yul\":9360:9477   */\n    tag_119:\n        /* \"#utility.yul\":9469:9470   */\n      0x00\n        /* \"#utility.yul\":9466:9467   */\n      dup1\n        /* \"#utility.yul\":9459:9471   */\n      revert\n        /* \"#utility.yul\":9483:9663   */\n    tag_120:\n        /* \"#utility.yul\":9531:9608   */\n      0x4e487b7100000000000000000000000000000000000000000000000000000000\n        /* \"#utility.yul\":9528:9529   */\n      0x00\n        /* \"#utility.yul\":9521:9609   */\n      mstore\n        /* \"#utility.yul\":9628:9632   */\n      0x41\n        /* \"#utility.yul\":9625:9626   */\n      0x04\n        /* \"#utility.yul\":9618:9633   */\n      mstore\n        /* \"#utility.yul\":9652:9656   */\n      0x24\n        /* \"#utility.yul\":9649:9650   */\n      0x00\n        /* \"#utility.yul\":9642:9657   */\n      revert\n        /* \"#utility.yul\":9669:9950   */\n    tag_121:\n        /* \"#utility.yul\":9752:9779   */\n      tag_246\n        /* \"#utility.yul\":9774:9778   */\n      dup3\n        /* \"#utility.yul\":9752:9779   */\n      tag_100\n      jump\t// in\n    tag_246:\n        /* \"#utility.yul\":9744:9750   */\n      dup2\n        /* \"#utility.yul\":9740:9780   */\n      add\n        /* \"#utility.yul\":9882:9888   */\n      dup2\n        /* \"#utility.yul\":9870:9880   */\n      dup2\n        /* \"#utility.yul\":9867:9889   */\n      lt\n        /* \"#utility.yul\":9846:9864   */\n      0xffffffffffffffff\n        /* \"#utility.yul\":9834:9844   */\n      dup3\n        /* \"#utility.yul\":9831:9865   */\n      gt\n        /* \"#utility.yul\":9828:9890   */\n      or\n        /* \"#utility.yul\":9825:9913   */\n      iszero\n      tag_247\n      jumpi\n        /* \"#utility.yul\":9893:9911   */\n      tag_248\n      tag_120\n      jump\t// in\n    tag_248:\n        /* \"#utility.yul\":9825:9913   */\n    tag_247:\n        /* \"#utility.yul\":9933:9943   */\n      dup1\n        /* \"#utility.yul\":9929:9931   */\n      0x40\n        /* \"#utility.yul\":9922:9944   */\n      mstore\n        /* \"#utility.yul\":9712:9950   */\n      pop\n        /* \"#utility.yul\":9669:9950   */\n      pop\n      pop\n      jump\t// out\n        /* \"#utility.yul\":9956:10085   */\n    tag_122:\n        /* \"#utility.yul\":9990:9996   */\n      0x00\n        /* \"#utility.yul\":10017:10037   */\n      tag_250\n      tag_86\n      jump\t// in\n    tag_250:\n        /* \"#utility.yul\":10007:10037   */\n      swap1\n      pop\n        /* \"#utility.yul\":10046:10079   */\n      tag_251\n        /* \"#utility.yul\":10074:10078   */\n      dup3\n        /* \"#utility.yul\":10066:10072   */\n      dup3\n        /* \"#utility.yul\":10046:10079   */\n      tag_121\n      jump\t// in\n    tag_251:\n        /* \"#utility.yul\":9956:10085   */\n      swap2\n      swap1\n      pop\n      jump\t// out\n        /* \"#utility.yul\":10091:10399   */\n    tag_123:\n        /* \"#utility.yul\":10153:10157   */\n      0x00\n        /* \"#utility.yul\":10243:10261   */\n      0xffffffffffffffff\n        /* \"#utility.yul\":10235:10241   */\n      dup3\n        /* \"#utility.yul\":10232:10262   */\n      gt\n        /* \"#utility.yul\":10229:10285   */\n      iszero\n      tag_253\n      jumpi\n        /* \"#utility.yul\":10265:10283   */\n      tag_254\n      tag_120\n      jump\t// in\n    tag_254:\n        /* \"#utility.yul\":10229:10285   */\n    tag_253:\n        /* \"#utility.yul\":10303:10332   */\n      tag_255\n        /* \"#utility.yul\":10325:10331   */\n      dup3\n        /* \"#utility.yul\":10303:10332   */\n      tag_100\n      jump\t// in\n    tag_255:\n        /* \"#utility.yul\":10295:10332   */\n      swap1\n      pop\n        /* \"#utility.yul\":10387:10391   */\n      0x20\n        /* \"#utility.yul\":10381:10385   */\n      dup2\n        /* \"#utility.yul\":10377:10392   */\n      add\n        /* \"#utility.yul\":10369:10392   */\n      swap1\n      pop\n        /* \"#utility.yul\":10091:10399   */\n      swap2\n      swap1\n      pop\n      jump\t// out\n        /* \"#utility.yul\":10405:10551   */\n    tag_124:\n        /* \"#utility.yul\":10502:10508   */\n      dup3\n        /* \"#utility.yul\":10497:10500   */\n      dup2\n        /* \"#utility.yul\":10492:10495   */\n      dup4\n        /* \"#utility.yul\":10479:10509   */\n      calldatacopy\n        /* \"#utility.yul\":10543:10544   */\n      0x00\n        /* \"#utility.yul\":10534:10540   */\n      dup4\n        /* \"#utility.yul\":10529:10532   */\n      dup4\n        /* \"#utility.yul\":10525:10541   */\n      add\n        /* \"#utility.yul\":10518:10545   */\n      mstore\n        /* \"#utility.yul\":10405:10551   */\n      pop\n      pop\n      pop\n      jump\t// out\n        /* \"#utility.yul\":10557:10982   */\n    tag_125:\n        /* \"#utility.yul\":10635:10640   */\n      0x00\n        /* \"#utility.yul\":10660:10726   */\n      tag_258\n        /* \"#utility.yul\":10676:10725   */\n      tag_259\n        /* \"#utility.yul\":10718:10724   */\n      dup5\n        /* \"#utility.yul\":10676:10725   */\n      tag_123\n      jump\t// in\n    tag_259:\n        /* \"#utility.yul\":10660:10726   */\n      tag_122\n      jump\t// in\n    tag_258:\n        /* \"#utility.yul\":10651:10726   */\n      swap1\n      pop\n        /* \"#utility.yul\":10749:10755   */\n      dup3\n        /* \"#utility.yul\":10742:10747   */\n      dup2\n        /* \"#utility.yul\":10735:10756   */\n      mstore\n        /* \"#utility.yul\":10787:10791   */\n      0x20\n        /* \"#utility.yul\":10780:10785   */\n      dup2\n        /* \"#utility.yul\":10776:10792   */\n      add\n        /* \"#utility.yul\":10825:10828   */\n      dup5\n        /* \"#utility.yul\":10816:10822   */\n      dup5\n        /* \"#utility.yul\":10811:10814   */\n      dup5\n        /* \"#utility.yul\":10807:10823   */\n      add\n        /* \"#utility.yul\":10804:10829   */\n      gt\n        /* \"#utility.yul\":10801:10913   */\n      iszero\n      tag_260\n      jumpi\n        /* \"#utility.yul\":10832:10911   */\n      tag_261\n      tag_119\n      jump\t// in\n    tag_261:\n        /* \"#utility.yul\":10801:10913   */\n    tag_260:\n        /* \"#utility.yul\":10922:10976   */\n      tag_262\n        /* \"#utility.yul\":10969:10975   */\n      dup5\n        /* \"#utility.yul\":10964:10967   */\n      dup3\n        /* \"#utility.yul\":10959:10962   */\n      dup6\n        /* \"#utility.yul\":10922:10976   */\n      tag_124\n      jump\t// in\n    tag_262:\n        /* \"#utility.yul\":10641:10982   */\n      pop\n        /* \"#utility.yul\":10557:10982   */\n      swap4\n      swap3\n      pop\n      pop\n      pop\n      jump\t// out\n        /* \"#utility.yul\":11002:11342   */\n    tag_126:\n        /* \"#utility.yul\":11058:11063   */\n      0x00\n        /* \"#utility.yul\":11107:11110   */\n      dup3\n        /* \"#utility.yul\":11100:11104   */\n      0x1f\n        /* \"#utility.yul\":11092:11098   */\n      dup4\n        /* \"#utility.yul\":11088:11105   */\n      add\n        /* \"#utility.yul\":11084:11111   */\n      slt\n        /* \"#utility.yul\":11074:11196   */\n      tag_264\n      jumpi\n        /* \"#utility.yul\":11115:11194   */\n      tag_265\n      tag_118\n      jump\t// in\n    tag_265:\n        /* \"#utility.yul\":11074:11196   */\n    tag_264:\n        /* \"#utility.yul\":11232:11238   */\n      dup2\n        /* \"#utility.yul\":11219:11239   */\n      calldataload\n        /* \"#utility.yul\":11257:11336   */\n      tag_266\n        /* \"#utility.yul\":11332:11335   */\n      dup5\n        /* \"#utility.yul\":11324:11330   */\n      dup3\n        /* \"#utility.yul\":11317:11321   */\n      0x20\n        /* \"#utility.yul\":11309:11315   */\n      dup7\n        /* \"#utility.yul\":11305:11322   */\n      add\n        /* \"#utility.yul\":11257:11336   */\n      tag_125\n      jump\t// in\n    tag_266:\n        /* \"#utility.yul\":11248:11336   */\n      swap2\n      pop\n        /* \"#utility.yul\":11064:11342   */\n      pop\n        /* \"#utility.yul\":11002:11342   */\n      swap3\n      swap2\n      pop\n      pop\n      jump\t// out\n        /* \"#utility.yul\":11348:11857   */\n    tag_33:\n        /* \"#utility.yul\":11417:11423   */\n      0x00\n        /* \"#utility.yul\":11466:11468   */\n      0x20\n        /* \"#utility.yul\":11454:11463   */\n      dup3\n        /* \"#utility.yul\":11445:11452   */\n      dup5\n        /* \"#utility.yul\":11441:11464   */\n      sub\n        /* \"#utility.yul\":11437:11469   */\n      slt\n        /* \"#utility.yul\":11434:11553   */\n      iszero\n      tag_268\n      jumpi\n        /* \"#utility.yul\":11472:11551   */\n      tag_269\n      tag_87\n      jump\t// in\n    tag_269:\n        /* \"#utility.yul\":11434:11553   */\n    tag_268:\n        /* \"#utility.yul\":11620:11621   */\n      0x00\n        /* \"#utility.yul\":11609:11618   */\n      dup3\n        /* \"#utility.yul\":11605:11622   */\n      add\n        /* \"#utility.yul\":11592:11623   */\n      calldataload\n        /* \"#utility.yul\":11650:11668   */\n      0xffffffffffffffff\n        /* \"#utility.yul\":11642:11648   */\n      dup2\n        /* \"#utility.yul\":11639:11669   */\n      gt\n        /* \"#utility.yul\":11636:11753   */\n      iszero\n      tag_270\n      jumpi\n        /* \"#utility.yul\":11672:11751   */\n      tag_271\n      tag_88\n      jump\t// in\n    tag_271:\n        /* \"#utility.yul\":11636:11753   */\n    tag_270:\n        /* \"#utility.yul\":11777:11840   */\n      tag_272\n        /* \"#utility.yul\":11832:11839   */\n      dup5\n        /* \"#utility.yul\":11823:11829   */\n      dup3\n        /* \"#utility.yul\":11812:11821   */\n      dup6\n        /* \"#utility.yul\":11808:11830   */\n      add\n        /* \"#utility.yul\":11777:11840   */\n      tag_126\n      jump\t// in\n    tag_272:\n        /* \"#utility.yul\":11767:11840   */\n      swap2\n      pop\n        /* \"#utility.yul\":11563:11850   */\n      pop\n        /* \"#utility.yul\":11348:11857   */\n      swap3\n      swap2\n      pop\n      pop\n      jump\t// out\n        /* \"#utility.yul\":11863:12085   */\n    tag_38:\n        /* \"#utility.yul\":11956:11960   */\n      0x00\n        /* \"#utility.yul\":11994:11996   */\n      0x20\n        /* \"#utility.yul\":11983:11992   */\n      dup3\n        /* \"#utility.yul\":11979:11997   */\n      add\n        /* \"#utility.yul\":11971:11997   */\n      swap1\n      pop\n        /* \"#utility.yul\":12007:12078   */\n      tag_274\n        /* \"#utility.yul\":12075:12076   */\n      0x00\n        /* \"#utility.yul\":12064:12073   */\n      dup4\n        /* \"#utility.yul\":12060:12077   */\n      add\n        /* \"#utility.yul\":12051:12057   */\n      dup5\n        /* \"#utility.yul\":12007:12078   */\n      tag_96\n      jump\t// in\n    tag_274:\n        /* \"#utility.yul\":11863:12085   */\n      swap3\n      swap2\n      pop\n      pop\n      jump\t// out\n        /* \"#utility.yul\":12091:12420   */\n    tag_41:\n        /* \"#utility.yul\":12150:12156   */\n      0x00\n        /* \"#utility.yul\":12199:12201   */\n      0x20\n        /* \"#utility.yul\":12187:12196   */\n      dup3\n        /* \"#utility.yul\":12178:12185   */\n      dup5\n        /* \"#utility.yul\":12174:12197   */\n      sub\n        /* \"#utility.yul\":12170:12202   */\n      slt\n        /* \"#utility.yul\":12167:12286   */\n      iszero\n      tag_276\n      jumpi\n        /* \"#utility.yul\":12205:12284   */\n      tag_277\n      tag_87\n      jump\t// in\n    tag_277:\n        /* \"#utility.yul\":12167:12286   */\n    tag_276:\n        /* \"#utility.yul\":12325:12326   */\n      0x00\n        /* \"#utility.yul\":12350:12403   */\n      tag_278\n        /* \"#utility.yul\":12395:12402   */\n      dup5\n        /* \"#utility.yul\":12386:12392   */\n      dup3\n        /* \"#utility.yul\":12375:12384   */\n      dup6\n        /* \"#utility.yul\":12371:12393   */\n      add\n        /* \"#utility.yul\":12350:12403   */\n      tag_95\n      jump\t// in\n    tag_278:\n        /* \"#utility.yul\":12340:12403   */\n      swap2\n      pop\n        /* \"#utility.yul\":12296:12413   */\n      pop\n        /* \"#utility.yul\":12091:12420   */\n      swap3\n      swap2\n      pop\n      pop\n      jump\t// out\n        /* \"#utility.yul\":12478:13435   */\n    tag_127:\n        /* \"#utility.yul\":12589:12592   */\n      0x00\n        /* \"#utility.yul\":12625:12629   */\n      0x80\n        /* \"#utility.yul\":12620:12623   */\n      dup4\n        /* \"#utility.yul\":12616:12630   */\n      add\n        /* \"#utility.yul\":12714:12718   */\n      0x00\n        /* \"#utility.yul\":12707:12712   */\n      dup4\n        /* \"#utility.yul\":12703:12719   */\n      add\n        /* \"#utility.yul\":12697:12720   */\n      mload\n        /* \"#utility.yul\":12733:12796   */\n      tag_280\n        /* \"#utility.yul\":12790:12794   */\n      0x00\n        /* \"#utility.yul\":12785:12788   */\n      dup7\n        /* \"#utility.yul\":12781:12795   */\n      add\n        /* \"#utility.yul\":12767:12779   */\n      dup3\n        /* \"#utility.yul\":12733:12796   */\n      tag_108\n      jump\t// in\n    tag_280:\n        /* \"#utility.yul\":12640:12806   */\n      pop\n        /* \"#utility.yul\":12891:12895   */\n      0x20\n        /* \"#utility.yul\":12884:12889   */\n      dup4\n        /* \"#utility.yul\":12880:12896   */\n      add\n        /* \"#utility.yul\":12874:12897   */\n      mload\n        /* \"#utility.yul\":12944:12947   */\n      dup5\n        /* \"#utility.yul\":12938:12942   */\n      dup3\n        /* \"#utility.yul\":12934:12948   */\n      sub\n        /* \"#utility.yul\":12927:12931   */\n      0x20\n        /* \"#utility.yul\":12922:12925   */\n      dup7\n        /* \"#utility.yul\":12918:12932   */\n      add\n        /* \"#utility.yul\":12911:12949   */\n      mstore\n        /* \"#utility.yul\":12970:13043   */\n      tag_281\n        /* \"#utility.yul\":13038:13042   */\n      dup3\n        /* \"#utility.yul\":13024:13036   */\n      dup3\n        /* \"#utility.yul\":12970:13043   */\n      tag_110\n      jump\t// in\n    tag_281:\n        /* \"#utility.yul\":12962:13043   */\n      swap2\n      pop\n        /* \"#utility.yul\":12816:13054   */\n      pop\n        /* \"#utility.yul\":13141:13145   */\n      0x40\n        /* \"#utility.yul\":13134:13139   */\n      dup4\n        /* \"#utility.yul\":13130:13146   */\n      add\n        /* \"#utility.yul\":13124:13147   */\n      mload\n        /* \"#utility.yul\":13160:13223   */\n      tag_282\n        /* \"#utility.yul\":13217:13221   */\n      0x40\n        /* \"#utility.yul\":13212:13215   */\n      dup7\n        /* \"#utility.yul\":13208:13222   */\n      add\n        /* \"#utility.yul\":13194:13206   */\n      dup3\n        /* \"#utility.yul\":13160:13223   */\n      tag_111\n      jump\t// in\n    tag_282:\n        /* \"#utility.yul\":13064:13233   */\n      pop\n        /* \"#utility.yul\":13316:13320   */\n      0x60\n        /* \"#utility.yul\":13309:13314   */\n      dup4\n        /* \"#utility.yul\":13305:13321   */\n      add\n        /* \"#utility.yul\":13299:13322   */\n      mload\n        /* \"#utility.yul\":13335:13398   */\n      tag_283\n        /* \"#utility.yul\":13392:13396   */\n      0x60\n        /* \"#utility.yul\":13387:13390   */\n      dup7\n        /* \"#utility.yul\":13383:13397   */\n      add\n        /* \"#utility.yul\":13369:13381   */\n      dup3\n        /* \"#utility.yul\":13335:13398   */\n      tag_111\n      jump\t// in\n    tag_283:\n        /* \"#utility.yul\":13243:13408   */\n      pop\n        /* \"#utility.yul\":13425:13429   */\n      dup1\n        /* \"#utility.yul\":13418:13429   */\n      swap2\n      pop\n        /* \"#utility.yul\":12594:13435   */\n      pop\n        /* \"#utility.yul\":12478:13435   */\n      swap3\n      swap2\n      pop\n      pop\n      jump\t// out\n        /* \"#utility.yul\":13441:13798   */\n    tag_44:\n        /* \"#utility.yul\":13576:13580   */\n      0x00\n        /* \"#utility.yul\":13614:13616   */\n      0x20\n        /* \"#utility.yul\":13603:13612   */\n      dup3\n        /* \"#utility.yul\":13599:13617   */\n      add\n        /* \"#utility.yul\":13591:13617   */\n      swap1\n      pop\n        /* \"#utility.yul\":13663:13672   */\n      dup2\n        /* \"#utility.yul\":13657:13661   */\n      dup2\n        /* \"#utility.yul\":13653:13673   */\n      sub\n        /* \"#utility.yul\":13649:13650   */\n      0x00\n        /* \"#utility.yul\":13638:13647   */\n      dup4\n        /* \"#utility.yul\":13634:13651   */\n      add\n        /* \"#utility.yul\":13627:13674   */\n      mstore\n        /* \"#utility.yul\":13691:13791   */\n      tag_285\n        /* \"#utility.yul\":13786:13790   */\n      dup2\n        /* \"#utility.yul\":13777:13783   */\n      dup5\n        /* \"#utility.yul\":13691:13791   */\n      tag_127\n      jump\t// in\n    tag_285:\n        /* \"#utility.yul\":13683:13791   */\n      swap1\n      pop\n        /* \"#utility.yul\":13441:13798   */\n      swap3\n      swap2\n      pop\n      pop\n      jump\t// out\n        /* \"#utility.yul\":13804:13984   */\n    tag_128:\n        /* \"#utility.yul\":13852:13929   */\n      0x4e487b7100000000000000000000000000000000000000000000000000000000\n        /* \"#utility.yul\":13849:13850   */\n      0x00\n        /* \"#utility.yul\":13842:13930   */\n      mstore\n        /* \"#utility.yul\":13949:13953   */\n      0x22\n        /* \"#utility.yul\":13946:13947   */\n      0x04\n        /* \"#utility.yul\":13939:13954   */\n      mstore\n        /* \"#utility.yul\":13973:13977   */\n      0x24\n        /* \"#utility.yul\":13970:13971   */\n      0x00\n        /* \"#utility.yul\":13963:13978   */\n      revert\n        /* \"#utility.yul\":13990:14310   */\n    tag_48:\n        /* \"#utility.yul\":14034:14040   */\n      0x00\n        /* \"#utility.yul\":14071:14072   */\n      0x02\n        /* \"#utility.yul\":14065:14069   */\n      dup3\n        /* \"#utility.yul\":14061:14073   */\n      div\n        /* \"#utility.yul\":14051:14073   */\n      swap1\n      pop\n        /* \"#utility.yul\":14118:14119   */\n      0x01\n        /* \"#utility.yul\":14112:14116   */\n      dup3\n        /* \"#utility.yul\":14108:14120   */\n      and\n        /* \"#utility.yul\":14139:14157   */\n      dup1\n        /* \"#utility.yul\":14129:14210   */\n      tag_288\n      jumpi\n        /* \"#utility.yul\":14195:14199   */\n      0x7f\n        /* \"#utility.yul\":14187:14193   */\n      dup3\n        /* \"#utility.yul\":14183:14200   */\n      and\n        /* \"#utility.yul\":14173:14200   */\n      swap2\n      pop\n        /* \"#utility.yul\":14129:14210   */\n    tag_288:\n        /* \"#utility.yul\":14257:14259   */\n      0x20\n        /* \"#utility.yul\":14249:14255   */\n      dup3\n        /* \"#utility.yul\":14246:14260   */\n      lt\n        /* \"#utility.yul\":14226:14244   */\n      dup2\n        /* \"#utility.yul\":14223:14261   */\n      sub\n        /* \"#utility.yul\":14220:14304   */\n      tag_289\n      jumpi\n        /* \"#utility.yul\":14276:14294   */\n      tag_290\n      tag_128\n      jump\t// in\n    tag_290:\n        /* \"#utility.yul\":14220:14304   */\n    tag_289:\n        /* \"#utility.yul\":14041:14310   */\n      pop\n        /* \"#utility.yul\":13990:14310   */\n      swap2\n      swap1\n      pop\n      jump\t// out\n        /* \"#utility.yul\":14316:14487   */\n    tag_129:\n        /* \"#utility.yul\":14456:14479   */\n      0x594f5520415245204e4f5420544845204f574e45520000000000000000000000\n        /* \"#utility.yul\":14452:14453   */\n      0x00\n        /* \"#utility.yul\":14444:14450   */\n      dup3\n        /* \"#utility.yul\":14440:14454   */\n      add\n        /* \"#utility.yul\":14433:14480   */\n      mstore\n        /* \"#utility.yul\":14316:14487   */\n      pop\n      jump\t// out\n        /* \"#utility.yul\":14493:14859   */\n    tag_130:\n        /* \"#utility.yul\":14635:14638   */\n      0x00\n        /* \"#utility.yul\":14656:14723   */\n      tag_293\n        /* \"#utility.yul\":14720:14722   */\n      0x15\n        /* \"#utility.yul\":14715:14718   */\n      dup4\n        /* \"#utility.yul\":14656:14723   */\n      tag_98\n      jump\t// in\n    tag_293:\n        /* \"#utility.yul\":14649:14723   */\n      swap2\n      pop\n        /* \"#utility.yul\":14732:14825   */\n      tag_294\n        /* \"#utility.yul\":14821:14824   */\n      dup3\n        /* \"#utility.yul\":14732:14825   */\n      tag_129\n      jump\t// in\n    tag_294:\n        /* \"#utility.yul\":14850:14852   */\n      0x20\n        /* \"#utility.yul\":14845:14848   */\n      dup3\n        /* \"#utility.yul\":14841:14853   */\n      add\n        /* \"#utility.yul\":14834:14853   */\n      swap1\n      pop\n        /* \"#utility.yul\":14493:14859   */\n      swap2\n      swap1\n      pop\n      jump\t// out\n        /* \"#utility.yul\":14865:15284   */\n    tag_65:\n        /* \"#utility.yul\":15031:15035   */\n      0x00\n        /* \"#utility.yul\":15069:15071   */\n      0x20\n        /* \"#utility.yul\":15058:15067   */\n      dup3\n        /* \"#utility.yul\":15054:15072   */\n      add\n        /* \"#utility.yul\":15046:15072   */\n      swap1\n      pop\n        /* \"#utility.yul\":15118:15127   */\n      dup2\n        /* \"#utility.yul\":15112:15116   */\n      dup2\n        /* \"#utility.yul\":15108:15128   */\n      sub\n        /* \"#utility.yul\":15104:15105   */\n      0x00\n        /* \"#utility.yul\":15093:15102   */\n      dup4\n        /* \"#utility.yul\":15089:15106   */\n      add\n        /* \"#utility.yul\":15082:15129   */\n      mstore\n        /* \"#utility.yul\":15146:15277   */\n      tag_296\n        /* \"#utility.yul\":15272:15276   */\n      dup2\n        /* \"#utility.yul\":15146:15277   */\n      tag_130\n      jump\t// in\n    tag_296:\n        /* \"#utility.yul\":15138:15277   */\n      swap1\n      pop\n        /* \"#utility.yul\":14865:15284   */\n      swap2\n      swap1\n      pop\n      jump\t// out\n        /* \"#utility.yul\":15290:15457   */\n    tag_131:\n        /* \"#utility.yul\":15430:15449   */\n      0x547765657420697320746f6f204c6f6e67000000000000000000000000000000\n        /* \"#utility.yul\":15426:15427   */\n      0x00\n        /* \"#utility.yul\":15418:15424   */\n      dup3\n        /* \"#utility.yul\":15414:15428   */\n      add\n        /* \"#utility.yul\":15407:15450   */\n      mstore\n        /* \"#utility.yul\":15290:15457   */\n      pop\n      jump\t// out\n        /* \"#utility.yul\":15463:15829   */\n    tag_132:\n        /* \"#utility.yul\":15605:15608   */\n      0x00\n        /* \"#utility.yul\":15626:15693   */\n      tag_299\n        /* \"#utility.yul\":15690:15692   */\n      0x11\n        /* \"#utility.yul\":15685:15688   */\n      dup4\n        /* \"#utility.yul\":15626:15693   */\n      tag_98\n      jump\t// in\n    tag_299:\n        /* \"#utility.yul\":15619:15693   */\n      swap2\n      pop\n        /* \"#utility.yul\":15702:15795   */\n      tag_300\n        /* \"#utility.yul\":15791:15794   */\n      dup3\n        /* \"#utility.yul\":15702:15795   */\n      tag_131\n      jump\t// in\n    tag_300:\n        /* \"#utility.yul\":15820:15822   */\n      0x20\n        /* \"#utility.yul\":15815:15818   */\n      dup3\n        /* \"#utility.yul\":15811:15823   */\n      add\n        /* \"#utility.yul\":15804:15823   */\n      swap1\n      pop\n        /* \"#utility.yul\":15463:15829   */\n      swap2\n      swap1\n      pop\n      jump\t// out\n        /* \"#utility.yul\":15835:16254   */\n    tag_70:\n        /* \"#utility.yul\":16001:16005   */\n      0x00\n        /* \"#utility.yul\":16039:16041   */\n      0x20\n        /* \"#utility.yul\":16028:16037   */\n      dup3\n        /* \"#utility.yul\":16024:16042   */\n      add\n        /* \"#utility.yul\":16016:16042   */\n      swap1\n      pop\n        /* \"#utility.yul\":16088:16097   */\n      dup2\n        /* \"#utility.yul\":16082:16086   */\n      dup2\n        /* \"#utility.yul\":16078:16098   */\n      sub\n        /* \"#utility.yul\":16074:16075   */\n      0x00\n        /* \"#utility.yul\":16063:16072   */\n      dup4\n        /* \"#utility.yul\":16059:16076   */\n      add\n        /* \"#utility.yul\":16052:16099   */\n      mstore\n        /* \"#utility.yul\":16116:16247   */\n      tag_302\n        /* \"#utility.yul\":16242:16246   */\n      dup2\n        /* \"#utility.yul\":16116:16247   */\n      tag_132\n      jump\t// in\n    tag_302:\n        /* \"#utility.yul\":16108:16247   */\n      swap1\n      pop\n        /* \"#utility.yul\":15835:16254   */\n      swap2\n      swap1\n      pop\n      jump\t// out\n        /* \"#utility.yul\":16260:16401   */\n    tag_133:\n        /* \"#utility.yul\":16309:16313   */\n      0x00\n        /* \"#utility.yul\":16332:16335   */\n      dup2\n        /* \"#utility.yul\":16324:16335   */\n      swap1\n      pop\n        /* \"#utility.yul\":16355:16358   */\n      dup2\n        /* \"#utility.yul\":16352:16353   */\n      0x00\n        /* \"#utility.yul\":16345:16359   */\n      mstore\n        /* \"#utility.yul\":16389:16393   */\n      0x20\n        /* \"#utility.yul\":16386:16387   */\n      0x00\n        /* \"#utility.yul\":16376:16394   */\n      keccak256\n        /* \"#utility.yul\":16368:16394   */\n      swap1\n      pop\n        /* \"#utility.yul\":16260:16401   */\n      swap2\n      swap1\n      pop\n      jump\t// out\n        /* \"#utility.yul\":16407:16500   */\n    tag_134:\n        /* \"#utility.yul\":16444:16450   */\n      0x00\n        /* \"#utility.yul\":16491:16493   */\n      0x20\n        /* \"#utility.yul\":16486:16488   */\n      0x1f\n        /* \"#utility.yul\":16479:16484   */\n      dup4\n        /* \"#utility.yul\":16475:16489   */\n      add\n        /* \"#utility.yul\":16471:16494   */\n      div\n        /* \"#utility.yul\":16461:16494   */\n      swap1\n      pop\n        /* \"#utility.yul\":16407:16500   */\n      swap2\n      swap1\n      pop\n      jump\t// out\n        /* \"#utility.yul\":16506:16613   */\n    tag_135:\n        /* \"#utility.yul\":16550:16558   */\n      0x00\n        /* \"#utility.yul\":16600:16605   */\n      dup3\n        /* \"#utility.yul\":16594:16598   */\n      dup3\n        /* \"#utility.yul\":16590:16606   */\n      shl\n        /* \"#utility.yul\":16569:16606   */\n      swap1\n      pop\n        /* \"#utility.yul\":16506:16613   */\n      swap3\n      swap2\n      pop\n      pop\n      jump\t// out\n        /* \"#utility.yul\":16619:17012   */\n    tag_136:\n        /* \"#utility.yul\":16688:16694   */\n      0x00\n        /* \"#utility.yul\":16738:16739   */\n      0x08\n        /* \"#utility.yul\":16726:16736   */\n      dup4\n        /* \"#utility.yul\":16722:16740   */\n      mul\n        /* \"#utility.yul\":16761:16858   */\n      tag_307\n        /* \"#utility.yul\":16791:16857   */\n      0xffffffffffffffffffffffffffffffffffffffffffffffffffffffffffffffff\n        /* \"#utility.yul\":16780:16789   */\n      dup3\n        /* \"#utility.yul\":16761:16858   */\n      tag_135\n      jump\t// in\n    tag_307:\n        /* \"#utility.yul\":16879:16918   */\n      tag_308\n        /* \"#utility.yul\":16909:16917   */\n      dup7\n        /* \"#utility.yul\":16898:16907   */\n      dup4\n        /* \"#utility.yul\":16879:16918   */\n      tag_135\n      jump\t// in\n    tag_308:\n        /* \"#utility.yul\":16867:16918   */\n      swap6\n      pop\n        /* \"#utility.yul\":16951:16955   */\n      dup1\n        /* \"#utility.yul\":16947:16956   */\n      not\n        /* \"#utility.yul\":16940:16945   */\n      dup5\n        /* \"#utility.yul\":16936:16957   */\n      and\n        /* \"#utility.yul\":16927:16957   */\n      swap4\n      pop\n        /* \"#utility.yul\":17000:17004   */\n      dup1\n        /* \"#utility.yul\":16990:16998   */\n      dup7\n        /* \"#utility.yul\":16986:17005   */\n      and\n        /* \"#utility.yul\":16979:16984   */\n      dup5\n        /* \"#utility.yul\":16976:17006   */\n      or\n        /* \"#utility.yul\":16966:17006   */\n      swap3\n      pop\n        /* \"#utility.yul\":16695:17012   */\n      pop\n      pop\n        /* \"#utility.yul\":16619:17012   */\n      swap4\n      swap3\n      pop\n      pop\n      pop\n      jump\t// out\n        /* \"#utility.yul\":17018:17078   */\n    tag_137:\n        /* \"#utility.yul\":17046:17049   */\n      0x00\n        /* \"#utility.yul\":17067:17072   */\n      dup2\n        /* \"#utility.yul\":17060:17072   */\n      swap1\n      pop\n        /* \"#utility.yul\":17018:17078   */\n      swap2\n      swap1\n      pop\n      jump\t// out\n        /* \"#utility.yul\":17084:17226   */\n    tag_138:\n        /* \"#utility.yul\":17134:17143   */\n      0x00\n        /* \"#utility.yul\":17167:17220   */\n      tag_311\n        /* \"#utility.yul\":17185:17219   */\n      tag_312\n        /* \"#utility.yul\":17194:17218   */\n      tag_313\n        /* \"#utility.yul\":17212:17217   */\n      dup5\n        /* \"#utility.yul\":17194:17218   */\n      tag_93\n      jump\t// in\n    tag_313:\n        /* \"#utility.yul\":17185:17219   */\n      tag_137\n      jump\t// in\n    tag_312:\n        /* \"#utility.yul\":17167:17220   */\n      tag_93\n      jump\t// in\n    tag_311:\n        /* \"#utility.yul\":17154:17220   */\n      swap1\n      pop\n        /* \"#utility.yul\":17084:17226   */\n      swap2\n      swap1\n      pop\n      jump\t// out\n        /* \"#utility.yul\":17232:17307   */\n    tag_139:\n        /* \"#utility.yul\":17275:17278   */\n      0x00\n        /* \"#utility.yul\":17296:17301   */\n      dup2\n        /* \"#utility.yul\":17289:17301   */\n      swap1\n      pop\n        /* \"#utility.yul\":17232:17307   */\n      swap2\n      swap1\n      pop\n      jump\t// out\n        /* \"#utility.yul\":17313:17582   */\n    tag_140:\n        /* \"#utility.yul\":17423:17462   */\n      tag_316\n        /* \"#utility.yul\":17454:17461   */\n      dup4\n        /* \"#utility.yul\":17423:17462   */\n      tag_138\n      jump\t// in\n    tag_316:\n        /* \"#utility.yul\":17484:17575   */\n      tag_317\n        /* \"#utility.yul\":17533:17574   */\n      tag_318\n        /* \"#utility.yul\":17557:17573   */\n      dup3\n        /* \"#utility.yul\":17533:17574   */\n      tag_139\n      jump\t// in\n    tag_318:\n        /* \"#utility.yul\":17525:17531   */\n      dup5\n        /* \"#utility.yul\":17518:17522   */\n      dup5\n        /* \"#utility.yul\":17512:17523   */\n      sload\n        /* \"#utility.yul\":17484:17575   */\n      tag_136\n      jump\t// in\n    tag_317:\n        /* \"#utility.yul\":17478:17482   */\n      dup3\n        /* \"#utility.yul\":17471:17576   */\n      sstore\n        /* \"#utility.yul\":17389:17582   */\n      pop\n        /* \"#utility.yul\":17313:17582   */\n      pop\n      pop\n      pop\n      jump\t// out\n        /* \"#utility.yul\":17588:17661   */\n    tag_141:\n        /* \"#utility.yul\":17633:17636   */\n      0x00\n        /* \"#utility.yul\":17588:17661   */\n      swap1\n      jump\t// out\n        /* \"#utility.yul\":17667:17856   */\n    tag_142:\n        /* \"#utility.yul\":17744:17776   */\n      tag_321\n      tag_141\n      jump\t// in\n    tag_321:\n        /* \"#utility.yul\":17785:17850   */\n      tag_322\n        /* \"#utility.yul\":17843:17849   */\n      dup2\n        /* \"#utility.yul\":17835:17841   */\n      dup5\n        /* \"#utility.yul\":17829:17833   */\n      dup5\n        /* \"#utility.yul\":17785:17850   */\n      tag_140\n      jump\t// in\n    tag_322:\n        /* \"#utility.yul\":17720:17856   */\n      pop\n        /* \"#utility.yul\":17667:17856   */\n      pop\n      pop\n      jump\t// out\n        /* \"#utility.yul\":17862:18048   */\n    tag_143:\n        /* \"#utility.yul\":17922:18042   */\n    tag_324:\n        /* \"#utility.yul\":17939:17942   */\n      dup2\n        /* \"#utility.yul\":17932:17937   */\n      dup2\n        /* \"#utility.yul\":17929:17943   */\n      lt\n        /* \"#utility.yul\":17922:18042   */\n      iszero\n      tag_326\n      jumpi\n        /* \"#utility.yul\":17993:18032   */\n      tag_327\n        /* \"#utility.yul\":18030:18031   */\n      0x00\n        /* \"#utility.yul\":18023:18028   */\n      dup3\n        /* \"#utility.yul\":17993:18032   */\n      tag_142\n      jump\t// in\n    tag_327:\n        /* \"#utility.yul\":17966:17967   */\n      0x01\n        /* \"#utility.yul\":17959:17964   */\n      dup2\n        /* \"#utility.yul\":17955:17968   */\n      add\n        /* \"#utility.yul\":17946:17968   */\n      swap1\n      pop\n        /* \"#utility.yul\":17922:18042   */\n      jump(tag_324)\n    tag_326:\n        /* \"#utility.yul\":17862:18048   */\n      pop\n      pop\n      jump\t// out\n        /* \"#utility.yul\":18054:18597   */\n    tag_144:\n        /* \"#utility.yul\":18155:18157   */\n      0x1f\n        /* \"#utility.yul\":18150:18153   */\n      dup3\n        /* \"#utility.yul\":18147:18158   */\n      gt\n        /* \"#utility.yul\":18144:18590   */\n      iszero\n      tag_329\n      jumpi\n        /* \"#utility.yul\":18189:18227   */\n      tag_330\n        /* \"#utility.yul\":18221:18226   */\n      dup2\n        /* \"#utility.yul\":18189:18227   */\n      tag_133\n      jump\t// in\n    tag_330:\n        /* \"#utility.yul\":18273:18302   */\n      tag_331\n        /* \"#utility.yul\":18291:18301   */\n      dup5\n        /* \"#utility.yul\":18273:18302   */\n      tag_134\n      jump\t// in\n    tag_331:\n        /* \"#utility.yul\":18263:18271   */\n      dup2\n        /* \"#utility.yul\":18259:18303   */\n      add\n        /* \"#utility.yul\":18456:18458   */\n      0x20\n        /* \"#utility.yul\":18444:18454   */\n      dup6\n        /* \"#utility.yul\":18441:18459   */\n      lt\n        /* \"#utility.yul\":18438:18487   */\n      iszero\n      tag_332\n      jumpi\n        /* \"#utility.yul\":18477:18485   */\n      dup2\n        /* \"#utility.yul\":18462:18485   */\n      swap1\n      pop\n        /* \"#utility.yul\":18438:18487   */\n    tag_332:\n        /* \"#utility.yul\":18500:18580   */\n      tag_333\n        /* \"#utility.yul\":18556:18578   */\n      tag_334\n        /* \"#utility.yul\":18574:18577   */\n      dup6\n        /* \"#utility.yul\":18556:18578   */\n      tag_134\n      jump\t// in\n    tag_334:\n        /* \"#utility.yul\":18546:18554   */\n      dup4\n        /* \"#utility.yul\":18542:18579   */\n      add\n        /* \"#utility.yul\":18529:18540   */\n      dup3\n        /* \"#utility.yul\":18500:18580   */\n      tag_143\n      jump\t// in\n    tag_333:\n        /* \"#utility.yul\":18159:18590   */\n      pop\n      pop\n        /* \"#utility.yul\":18144:18590   */\n    tag_329:\n        /* \"#utility.yul\":18054:18597   */\n      pop\n      pop\n      pop\n      jump\t// out\n        /* \"#utility.yul\":18603:18720   */\n    tag_145:\n        /* \"#utility.yul\":18657:18665   */\n      0x00\n        /* \"#utility.yul\":18707:18712   */\n      dup3\n        /* \"#utility.yul\":18701:18705   */\n      dup3\n        /* \"#utility.yul\":18697:18713   */\n      shr\n        /* \"#utility.yul\":18676:18713   */\n      swap1\n      pop\n        /* \"#utility.yul\":18603:18720   */\n      swap3\n      swap2\n      pop\n      pop\n      jump\t// out\n        /* \"#utility.yul\":18726:18895   */\n    tag_146:\n        /* \"#utility.yul\":18770:18776   */\n      0x00\n        /* \"#utility.yul\":18803:18854   */\n      tag_337\n        /* \"#utility.yul\":18851:18852   */\n      0x00\n        /* \"#utility.yul\":18847:18853   */\n      not\n        /* \"#utility.yul\":18839:18844   */\n      dup5\n        /* \"#utility.yul\":18836:18837   */\n      0x08\n        /* \"#utility.yul\":18832:18845   */\n      mul\n        /* \"#utility.yul\":18803:18854   */\n      tag_145\n      jump\t// in\n    tag_337:\n        /* \"#utility.yul\":18799:18855   */\n      not\n        /* \"#utility.yul\":18884:18888   */\n      dup1\n        /* \"#utility.yul\":18878:18882   */\n      dup4\n        /* \"#utility.yul\":18874:18889   */\n      and\n        /* \"#utility.yul\":18864:18889   */\n      swap2\n      pop\n        /* \"#utility.yul\":18777:18895   */\n      pop\n        /* \"#utility.yul\":18726:18895   */\n      swap3\n      swap2\n      pop\n      pop\n      jump\t// out\n        /* \"#utility.yul\":18900:19195   */\n    tag_147:\n        /* \"#utility.yul\":18976:18980   */\n      0x00\n        /* \"#utility.yul\":19122:19151   */\n      tag_339\n        /* \"#utility.yul\":19147:19150   */\n      dup4\n        /* \"#utility.yul\":19141:19145   */\n      dup4\n        /* \"#utility.yul\":19122:19151   */\n      tag_146\n      jump\t// in\n    tag_339:\n        /* \"#utility.yul\":19114:19151   */\n      swap2\n      pop\n        /* \"#utility.yul\":19184:19187   */\n      dup3\n        /* \"#utility.yul\":19181:19182   */\n      0x02\n        /* \"#utility.yul\":19177:19188   */\n      mul\n        /* \"#utility.yul\":19171:19175   */\n      dup3\n        /* \"#utility.yul\":19168:19189   */\n      or\n        /* \"#utility.yul\":19160:19189   */\n      swap1\n      pop\n        /* \"#utility.yul\":18900:19195   */\n      swap3\n      swap2\n      pop\n      pop\n      jump\t// out\n        /* \"#utility.yul\":19200:20595   */\n    tag_73:\n        /* \"#utility.yul\":19317:19354   */\n      tag_341\n        /* \"#utility.yul\":19350:19353   */\n      dup3\n        /* \"#utility.yul\":19317:19354   */\n      tag_97\n      jump\t// in\n    tag_341:\n        /* \"#utility.yul\":19419:19437   */\n      0xffffffffffffffff\n        /* \"#utility.yul\":19411:19417   */\n      dup2\n        /* \"#utility.yul\":19408:19438   */\n      gt\n        /* \"#utility.yul\":19405:19461   */\n      iszero\n      tag_342\n      jumpi\n        /* \"#utility.yul\":19441:19459   */\n      tag_343\n      tag_120\n      jump\t// in\n    tag_343:\n        /* \"#utility.yul\":19405:19461   */\n    tag_342:\n        /* \"#utility.yul\":19485:19523   */\n      tag_344\n        /* \"#utility.yul\":19517:19521   */\n      dup3\n        /* \"#utility.yul\":19511:19522   */\n      sload\n        /* \"#utility.yul\":19485:19523   */\n      tag_48\n      jump\t// in\n    tag_344:\n        /* \"#utility.yul\":19570:19637   */\n      tag_345\n        /* \"#utility.yul\":19630:19636   */\n      dup3\n        /* \"#utility.yul\":19622:19628   */\n      dup3\n        /* \"#utility.yul\":19616:19620   */\n      dup6\n        /* \"#utility.yul\":19570:19637   */\n      tag_144\n      jump\t// in\n    tag_345:\n        /* \"#utility.yul\":19664:19665   */\n      0x00\n        /* \"#utility.yul\":19688:19692   */\n      0x20\n        /* \"#utility.yul\":19675:19692   */\n      swap1\n      pop\n        /* \"#utility.yul\":19720:19722   */\n      0x1f\n        /* \"#utility.yul\":19712:19718   */\n      dup4\n        /* \"#utility.yul\":19709:19723   */\n      gt\n        /* \"#utility.yul\":19737:19738   */\n      0x01\n        /* \"#utility.yul\":19732:20350   */\n      dup2\n      eq\n      tag_347\n      jumpi\n        /* \"#utility.yul\":20394:20395   */\n      0x00\n        /* \"#utility.yul\":20411:20417   */\n      dup5\n        /* \"#utility.yul\":20408:20485   */\n      iszero\n      tag_348\n      jumpi\n        /* \"#utility.yul\":20460:20469   */\n      dup3\n        /* \"#utility.yul\":20455:20458   */\n      dup8\n        /* \"#utility.yul\":20451:20470   */\n      add\n        /* \"#utility.yul\":20445:20471   */\n      mload\n        /* \"#utility.yul\":20436:20471   */\n      swap1\n      pop\n        /* \"#utility.yul\":20408:20485   */\n    tag_348:\n        /* \"#utility.yul\":20511:20578   */\n      tag_349\n        /* \"#utility.yul\":20571:20577   */\n      dup6\n        /* \"#utility.yul\":20564:20569   */\n      dup3\n        /* \"#utility.yul\":20511:20578   */\n      tag_147\n      jump\t// in\n    tag_349:\n        /* \"#utility.yul\":20505:20509   */\n      dup7\n        /* \"#utility.yul\":20498:20579   */\n      sstore\n        /* \"#utility.yul\":20367:20589   */\n      pop\n        /* \"#utility.yul\":19702:20589   */\n      jump(tag_346)\n        /* \"#utility.yul\":19732:20350   */\n    tag_347:\n        /* \"#utility.yul\":19784:19788   */\n      0x1f\n        /* \"#utility.yul\":19780:19789   */\n      not\n        /* \"#utility.yul\":19772:19778   */\n      dup5\n        /* \"#utility.yul\":19768:19790   */\n      and\n        /* \"#utility.yul\":19818:19855   */\n      tag_350\n        /* \"#utility.yul\":19850:19854   */\n      dup7\n        /* \"#utility.yul\":19818:19855   */\n      tag_133\n      jump\t// in\n    tag_350:\n        /* \"#utility.yul\":19877:19878   */\n      0x00\n        /* \"#utility.yul\":19891:20099   */\n    tag_351:\n        /* \"#utility.yul\":19905:19912   */\n      dup3\n        /* \"#utility.yul\":19902:19903   */\n      dup2\n        /* \"#utility.yul\":19899:19913   */\n      lt\n        /* \"#utility.yul\":19891:20099   */\n      iszero\n      tag_353\n      jumpi\n        /* \"#utility.yul\":19984:19993   */\n      dup5\n        /* \"#utility.yul\":19979:19982   */\n      dup10\n        /* \"#utility.yul\":19975:19994   */\n      add\n        /* \"#utility.yul\":19969:19995   */\n      mload\n        /* \"#utility.yul\":19961:19967   */\n      dup3\n        /* \"#utility.yul\":19954:19996   */\n      sstore\n        /* \"#utility.yul\":20035:20036   */\n      0x01\n        /* \"#utility.yul\":20027:20033   */\n      dup3\n        /* \"#utility.yul\":20023:20037   */\n      add\n        /* \"#utility.yul\":20013:20037   */\n      swap2\n      pop\n        /* \"#utility.yul\":20082:20084   */\n      0x20\n        /* \"#utility.yul\":20071:20080   */\n      dup6\n        /* \"#utility.yul\":20067:20085   */\n      add\n        /* \"#utility.yul\":20054:20085   */\n      swap5\n      pop\n        /* \"#utility.yul\":19928:19932   */\n      0x20\n        /* \"#utility.yul\":19925:19926   */\n      dup2\n        /* \"#utility.yul\":19921:19933   */\n      add\n        /* \"#utility.yul\":19916:19933   */\n      swap1\n      pop\n        /* \"#utility.yul\":19891:20099   */\n      jump(tag_351)\n    tag_353:\n        /* \"#utility.yul\":20127:20133   */\n      dup7\n        /* \"#utility.yul\":20118:20125   */\n      dup4\n        /* \"#utility.yul\":20115:20134   */\n      lt\n        /* \"#utility.yul\":20112:20291   */\n      iszero\n      tag_354\n      jumpi\n        /* \"#utility.yul\":20185:20194   */\n      dup5\n        /* \"#utility.yul\":20180:20183   */\n      dup10\n        /* \"#utility.yul\":20176:20195   */\n      add\n        /* \"#utility.yul\":20170:20196   */\n      mload\n        /* \"#utility.yul\":20228:20276   */\n      tag_355\n        /* \"#utility.yul\":20270:20274   */\n      0x1f\n        /* \"#utility.yul\":20262:20268   */\n      dup10\n        /* \"#utility.yul\":20258:20275   */\n      and\n        /* \"#utility.yul\":20247:20256   */\n      dup3\n        /* \"#utility.yul\":20228:20276   */\n      tag_146\n      jump\t// in\n    tag_355:\n        /* \"#utility.yul\":20220:20226   */\n      dup4\n        /* \"#utility.yul\":20213:20277   */\n      sstore\n        /* \"#utility.yul\":20135:20291   */\n      pop\n        /* \"#utility.yul\":20112:20291   */\n    tag_354:\n        /* \"#utility.yul\":20337:20338   */\n      0x01\n        /* \"#utility.yul\":20333:20334   */\n      0x02\n        /* \"#utility.yul\":20325:20331   */\n      dup9\n        /* \"#utility.yul\":20321:20335   */\n      mul\n        /* \"#utility.yul\":20317:20339   */\n      add\n        /* \"#utility.yul\":20311:20315   */\n      dup9\n        /* \"#utility.yul\":20304:20340   */\n      sstore\n        /* \"#utility.yul\":19739:20350   */\n      pop\n      pop\n      pop\n        /* \"#utility.yul\":19702:20589   */\n    tag_346:\n      pop\n        /* \"#utility.yul\":19292:20595   */\n      pop\n      pop\n      pop\n        /* \"#utility.yul\":19200:20595   */\n      pop\n      pop\n      jump\t// out\n        /* \"#utility.yul\":20601:20781   */\n    tag_79:\n        /* \"#utility.yul\":20649:20726   */\n      0x4e487b7100000000000000000000000000000000000000000000000000000000\n        /* \"#utility.yul\":20646:20647   */\n      0x00\n        /* \"#utility.yul\":20639:20727   */\n      mstore\n        /* \"#utility.yul\":20746:20750   */\n      0x32\n        /* \"#utility.yul\":20743:20744   */\n      0x04\n        /* \"#utility.yul\":20736:20751   */\n      mstore\n        /* \"#utility.yul\":20770:20774   */\n      0x24\n        /* \"#utility.yul\":20767:20768   */\n      0x00\n        /* \"#utility.yul\":20760:20775   */\n      revert\n\n    auxdata: 0xa264697066735822122081b7a248cc5b1a340e204797021a5dfa7e55f19a5d4c06ecc1c1dfe01d0d3a7564736f6c63430008160033\n}\n",
				"bytecode": {
					"linkReferences": {},
					"object": "60806040526101185f806101000a81548161ffff021916908361ffff16021790555034801561002c575f80fd5b503360025f6101000a81548173ffffffffffffffffffffffffffffffffffffffff021916908373ffffffffffffffffffffffffffffffffffffffff16021790555061124b8061007a5f395ff3fe608060405234801561000f575f80fd5b506004361061007b575f3560e01c806358bfa4ab1161005957806358bfa4ab146101005780637c9cd2bc1461011c5780638da5cb5b14610138578063c3ad5ecb146101565761007b565b806305a1b4a91461007f5780630a50bfb3146100b257806328bb2285146100d0575b5f80fd5b61009960048036038101906100949190610892565b610186565b6040516100a99493929190610978565b60405180910390f35b6100ba610271565b6040516100c791906109de565b60405180910390f35b6100ea60048036038101906100e591906109f7565b610282565b6040516100f79190610ba3565b60405180910390f35b61011a60048036038101906101159190610bed565b610413565b005b61013660048036038101906101319190610d44565b6104c0565b005b610140610627565b60405161014d9190610d8b565b60405180910390f35b610170600480360381019061016b9190610da4565b61064c565b60405161017d9190610e2f565b60405180910390f35b6001602052815f5260405f20818154811061019f575f80fd5b905f5260205f2090600402015f9150915050805f015f9054906101000a900473ffffffffffffffffffffffffffffffffffffffff16908060010180546101e490610e7c565b80601f016020809104026020016040519081016040528092919081815260200182805461021090610e7c565b801561025b5780601f106102325761010080835404028352916020019161025b565b820191905f5260205f20905b81548152906001019060200180831161023e57829003601f168201915b5050505050908060020154908060030154905084565b5f8054906101000a900461ffff1681565b606060015f8373ffffffffffffffffffffffffffffffffffffffff1673ffffffffffffffffffffffffffffffffffffffff1681526020019081526020015f20805480602002602001604051908101604052809291908181526020015f905b82821015610408578382905f5260205f2090600402016040518060800160405290815f82015f9054906101000a900473ffffffffffffffffffffffffffffffffffffffff1673ffffffffffffffffffffffffffffffffffffffff1673ffffffffffffffffffffffffffffffffffffffff16815260200160018201805461036590610e7c565b80601f016020809104026020016040519081016040528092919081815260200182805461039190610e7c565b80156103dc5780601f106103b3576101008083540402835291602001916103dc565b820191905f5260205f20905b8154815290600101906020018083116103bf57829003601f168201915b5050505050815260200160028201548152602001600382015481525050815260200190600101906102e0565b505050509050919050565b60025f9054906101000a900473ffffffffffffffffffffffffffffffffffffffff1673ffffffffffffffffffffffffffffffffffffffff163373ffffffffffffffffffffffffffffffffffffffff16146104a2576040517f08c379a000000000000000000000000000000000000000000000000000000000815260040161049990610ef6565b60405180910390fd5b805f806101000a81548161ffff021916908361ffff16021790555050565b5f8054906101000a900461ffff1661ffff1681511115610515576040517f08c379a000000000000000000000000000000000000000000000000000000000815260040161050c90610f5e565b60405180910390fd5b5f60405180608001604052803373ffffffffffffffffffffffffffffffffffffffff1681526020018381526020014281526020015f815250905060015f3373ffffffffffffffffffffffffffffffffffffffff1673ffffffffffffffffffffffffffffffffffffffff1681526020019081526020015f2081908060018154018082558091505060019003905f5260205f2090600402015f909190919091505f820151815f015f6101000a81548173ffffffffffffffffffffffffffffffffffffffff021916908373ffffffffffffffffffffffffffffffffffffffff160217905550602082015181600101908161060c9190611119565b50604082015181600201556060820151816003015550505050565b60025f9054906101000a900473ffffffffffffffffffffffffffffffffffffffff1681565b6106546107b9565b60015f3373ffffffffffffffffffffffffffffffffffffffff1673ffffffffffffffffffffffffffffffffffffffff1681526020019081526020015f2082815481106106a3576106a26111e8565b5b905f5260205f2090600402016040518060800160405290815f82015f9054906101000a900473ffffffffffffffffffffffffffffffffffffffff1673ffffffffffffffffffffffffffffffffffffffff1673ffffffffffffffffffffffffffffffffffffffff16815260200160018201805461071e90610e7c565b80601f016020809104026020016040519081016040528092919081815260200182805461074a90610e7c565b80156107955780601f1061076c57610100808354040283529160200191610795565b820191905f5260205f20905b81548152906001019060200180831161077857829003601f168201915b50505050508152602001600282015481526020016003820154815250509050919050565b60405180608001604052805f73ffffffffffffffffffffffffffffffffffffffff168152602001606081526020015f81526020015f81525090565b5f604051905090565b5f80fd5b5f80fd5b5f73ffffffffffffffffffffffffffffffffffffffff82169050919050565b5f61082e82610805565b9050919050565b61083e81610824565b8114610848575f80fd5b50565b5f8135905061085981610835565b92915050565b5f819050919050565b6108718161085f565b811461087b575f80fd5b50565b5f8135905061088c81610868565b92915050565b5f80604083850312156108a8576108a76107fd565b5b5f6108b58582860161084b565b92505060206108c68582860161087e565b9150509250929050565b6108d981610824565b82525050565b5f81519050919050565b5f82825260208201905092915050565b5f5b838110156109165780820151818401526020810190506108fb565b5f8484015250505050565b5f601f19601f8301169050919050565b5f61093b826108df565b61094581856108e9565b93506109558185602086016108f9565b61095e81610921565b840191505092915050565b6109728161085f565b82525050565b5f60808201905061098b5f8301876108d0565b818103602083015261099d8186610931565b90506109ac6040830185610969565b6109b96060830184610969565b95945050505050565b5f61ffff82169050919050565b6109d8816109c2565b82525050565b5f6020820190506109f15f8301846109cf565b92915050565b5f60208284031215610a0c57610a0b6107fd565b5b5f610a198482850161084b565b91505092915050565b5f81519050919050565b5f82825260208201905092915050565b5f819050602082019050919050565b610a5481610824565b82525050565b5f82825260208201905092915050565b5f610a74826108df565b610a7e8185610a5a565b9350610a8e8185602086016108f9565b610a9781610921565b840191505092915050565b610aab8161085f565b82525050565b5f608083015f830151610ac65f860182610a4b565b5060208301518482036020860152610ade8282610a6a565b9150506040830151610af36040860182610aa2565b506060830151610b066060860182610aa2565b508091505092915050565b5f610b1c8383610ab1565b905092915050565b5f602082019050919050565b5f610b3a82610a22565b610b448185610a2c565b935083602082028501610b5685610a3c565b805f5b85811015610b915784840389528151610b728582610b11565b9450610b7d83610b24565b925060208a01995050600181019050610b59565b50829750879550505050505092915050565b5f6020820190508181035f830152610bbb8184610b30565b905092915050565b610bcc816109c2565b8114610bd6575f80fd5b50565b5f81359050610be781610bc3565b92915050565b5f60208284031215610c0257610c016107fd565b5b5f610c0f84828501610bd9565b91505092915050565b5f80fd5b5f80fd5b7f4e487b71000000000000000000000000000000000000000000000000000000005f52604160045260245ffd5b610c5682610921565b810181811067ffffffffffffffff82111715610c7557610c74610c20565b5b80604052505050565b5f610c876107f4565b9050610c938282610c4d565b919050565b5f67ffffffffffffffff821115610cb257610cb1610c20565b5b610cbb82610921565b9050602081019050919050565b828183375f83830152505050565b5f610ce8610ce384610c98565b610c7e565b905082815260208101848484011115610d0457610d03610c1c565b5b610d0f848285610cc8565b509392505050565b5f82601f830112610d2b57610d2a610c18565b5b8135610d3b848260208601610cd6565b91505092915050565b5f60208284031215610d5957610d586107fd565b5b5f82013567ffffffffffffffff811115610d7657610d75610801565b5b610d8284828501610d17565b91505092915050565b5f602082019050610d9e5f8301846108d0565b92915050565b5f60208284031215610db957610db86107fd565b5b5f610dc68482850161087e565b91505092915050565b5f608083015f830151610de45f860182610a4b565b5060208301518482036020860152610dfc8282610a6a565b9150506040830151610e116040860182610aa2565b506060830151610e246060860182610aa2565b508091505092915050565b5f6020820190508181035f830152610e478184610dcf565b905092915050565b7f4e487b71000000000000000000000000000000000000000000000000000000005f52602260045260245ffd5b5f6002820490506001821680610e9357607f821691505b602082108103610ea657610ea5610e4f565b5b50919050565b7f594f5520415245204e4f5420544845204f574e455200000000000000000000005f82015250565b5f610ee06015836108e9565b9150610eeb82610eac565b602082019050919050565b5f6020820190508181035f830152610f0d81610ed4565b9050919050565b7f547765657420697320746f6f204c6f6e670000000000000000000000000000005f82015250565b5f610f486011836108e9565b9150610f5382610f14565b602082019050919050565b5f6020820190508181035f830152610f7581610f3c565b9050919050565b5f819050815f5260205f209050919050565b5f6020601f8301049050919050565b5f82821b905092915050565b5f60088302610fd87fffffffffffffffffffffffffffffffffffffffffffffffffffffffffffffffff82610f9d565b610fe28683610f9d565b95508019841693508086168417925050509392505050565b5f819050919050565b5f61101d6110186110138461085f565b610ffa565b61085f565b9050919050565b5f819050919050565b61103683611003565b61104a61104282611024565b848454610fa9565b825550505050565b5f90565b61105e611052565b61106981848461102d565b505050565b5b8181101561108c576110815f82611056565b60018101905061106f565b5050565b601f8211156110d1576110a281610f7c565b6110ab84610f8e565b810160208510156110ba578190505b6110ce6110c685610f8e565b83018261106e565b50505b505050565b5f82821c905092915050565b5f6110f15f19846008026110d6565b1980831691505092915050565b5f61110983836110e2565b9150826002028217905092915050565b611122826108df565b67ffffffffffffffff81111561113b5761113a610c20565b5b6111458254610e7c565b611150828285611090565b5f60209050601f831160018114611181575f841561116f578287015190505b61117985826110fe565b8655506111e0565b601f19841661118f86610f7c565b5f5b828110156111b657848901518255600182019150602085019450602081019050611191565b868310156111d357848901516111cf601f8916826110e2565b8355505b6001600288020188555050505b505050505050565b7f4e487b71000000000000000000000000000000000000000000000000000000005f52603260045260245ffdfea264697066735822122081b7a248cc5b1a340e204797021a5dfa7e55f19a5d4c06ecc1c1dfe01d0d3a7564736f6c63430008160033",
					"opcodes": "PUSH1 0x80 PUSH1 0x40 MSTORE PUSH2 0x118 PUSH0 DUP1 PUSH2 0x100 EXP DUP2 SLOAD DUP2 PUSH2 0xFFFF MUL NOT AND SWAP1 DUP4 PUSH2 0xFFFF AND MUL OR SWAP1 SSTORE POP CALLVALUE DUP1 ISZERO PUSH2 0x2C JUMPI PUSH0 DUP1 REVERT JUMPDEST POP CALLER PUSH1 0x2 PUSH0 PUSH2 0x100 EXP DUP2 SLOAD DUP2 PUSH20 0xFFFFFFFFFFFFFFFFFFFFFFFFFFFFFFFFFFFFFFFF MUL NOT AND SWAP1 DUP4 PUSH20 0xFFFFFFFFFFFFFFFFFFFFFFFFFFFFFFFFFFFFFFFF AND MUL OR SWAP1 SSTORE POP PUSH2 0x124B DUP1 PUSH2 0x7A PUSH0 CODECOPY PUSH0 RETURN INVALID PUSH1 0x80 PUSH1 0x40 MSTORE CALLVALUE DUP1 ISZERO PUSH2 0xF JUMPI PUSH0 DUP1 REVERT JUMPDEST POP PUSH1 0x4 CALLDATASIZE LT PUSH2 0x7B JUMPI PUSH0 CALLDATALOAD PUSH1 0xE0 SHR DUP1 PUSH4 0x58BFA4AB GT PUSH2 0x59 JUMPI DUP1 PUSH4 0x58BFA4AB EQ PUSH2 0x100 JUMPI DUP1 PUSH4 0x7C9CD2BC EQ PUSH2 0x11C JUMPI DUP1 PUSH4 0x8DA5CB5B EQ PUSH2 0x138 JUMPI DUP1 PUSH4 0xC3AD5ECB EQ PUSH2 0x156 JUMPI PUSH2 0x7B JUMP JUMPDEST DUP1 PUSH4 0x5A1B4A9 EQ PUSH2 0x7F JUMPI DUP1 PUSH4 0xA50BFB3 EQ PUSH2 0xB2 JUMPI DUP1 PUSH4 0x28BB2285 EQ PUSH2 0xD0 JUMPI JUMPDEST PUSH0 DUP1 REVERT JUMPDEST PUSH2 0x99 PUSH1 0x4 DUP1 CALLDATASIZE SUB DUP2 ADD SWAP1 PUSH2 0x94 SWAP2 SWAP1 PUSH2 0x892 JUMP JUMPDEST PUSH2 0x186 JUMP JUMPDEST PUSH1 0x40 MLOAD PUSH2 0xA9 SWAP5 SWAP4 SWAP3 SWAP2 SWAP1 PUSH2 0x978 JUMP JUMPDEST PUSH1 0x40 MLOAD DUP1 SWAP2 SUB SWAP1 RETURN JUMPDEST PUSH2 0xBA PUSH2 0x271 JUMP JUMPDEST PUSH1 0x40 MLOAD PUSH2 0xC7 SWAP2 SWAP1 PUSH2 0x9DE JUMP JUMPDEST PUSH1 0x40 MLOAD DUP1 SWAP2 SUB SWAP1 RETURN JUMPDEST PUSH2 0xEA PUSH1 0x4 DUP1 CALLDATASIZE SUB DUP2 ADD SWAP1 PUSH2 0xE5 SWAP2 SWAP1 PUSH2 0x9F7 JUMP JUMPDEST PUSH2 0x282 JUMP JUMPDEST PUSH1 0x40 MLOAD PUSH2 0xF7 SWAP2 SWAP1 PUSH2 0xBA3 JUMP JUMPDEST PUSH1 0x40 MLOAD DUP1 SWAP2 SUB SWAP1 RETURN JUMPDEST PUSH2 0x11A PUSH1 0x4 DUP1 CALLDATASIZE SUB DUP2 ADD SWAP1 PUSH2 0x115 SWAP2 SWAP1 PUSH2 0xBED JUMP JUMPDEST PUSH2 0x413 JUMP JUMPDEST STOP JUMPDEST PUSH2 0x136 PUSH1 0x4 DUP1 CALLDATASIZE SUB DUP2 ADD SWAP1 PUSH2 0x131 SWAP2 SWAP1 PUSH2 0xD44 JUMP JUMPDEST PUSH2 0x4C0 JUMP JUMPDEST STOP JUMPDEST PUSH2 0x140 PUSH2 0x627 JUMP JUMPDEST PUSH1 0x40 MLOAD PUSH2 0x14D SWAP2 SWAP1 PUSH2 0xD8B JUMP JUMPDEST PUSH1 0x40 MLOAD DUP1 SWAP2 SUB SWAP1 RETURN JUMPDEST PUSH2 0x170 PUSH1 0x4 DUP1 CALLDATASIZE SUB DUP2 ADD SWAP1 PUSH2 0x16B SWAP2 SWAP1 PUSH2 0xDA4 JUMP JUMPDEST PUSH2 0x64C JUMP JUMPDEST PUSH1 0x40 MLOAD PUSH2 0x17D SWAP2 SWAP1 PUSH2 0xE2F JUMP JUMPDEST PUSH1 0x40 MLOAD DUP1 SWAP2 SUB SWAP1 RETURN JUMPDEST PUSH1 0x1 PUSH1 0x20 MSTORE DUP2 PUSH0 MSTORE PUSH1 0x40 PUSH0 KECCAK256 DUP2 DUP2 SLOAD DUP2 LT PUSH2 0x19F JUMPI PUSH0 DUP1 REVERT JUMPDEST SWAP1 PUSH0 MSTORE PUSH1 0x20 PUSH0 KECCAK256 SWAP1 PUSH1 0x4 MUL ADD PUSH0 SWAP2 POP SWAP2 POP POP DUP1 PUSH0 ADD PUSH0 SWAP1 SLOAD SWAP1 PUSH2 0x100 EXP SWAP1 DIV PUSH20 0xFFFFFFFFFFFFFFFFFFFFFFFFFFFFFFFFFFFFFFFF AND SWAP1 DUP1 PUSH1 0x1 ADD DUP1 SLOAD PUSH2 0x1E4 SWAP1 PUSH2 0xE7C JUMP JUMPDEST DUP1 PUSH1 0x1F ADD PUSH1 0x20 DUP1 SWAP2 DIV MUL PUSH1 0x20 ADD PUSH1 0x40 MLOAD SWAP1 DUP2 ADD PUSH1 0x40 MSTORE DUP1 SWAP3 SWAP2 SWAP1 DUP2 DUP2 MSTORE PUSH1 0x20 ADD DUP3 DUP1 SLOAD PUSH2 0x210 SWAP1 PUSH2 0xE7C JUMP JUMPDEST DUP1 ISZERO PUSH2 0x25B JUMPI DUP1 PUSH1 0x1F LT PUSH2 0x232 JUMPI PUSH2 0x100 DUP1 DUP4 SLOAD DIV MUL DUP4 MSTORE SWAP2 PUSH1 0x20 ADD SWAP2 PUSH2 0x25B JUMP JUMPDEST DUP3 ADD SWAP2 SWAP1 PUSH0 MSTORE PUSH1 0x20 PUSH0 KECCAK256 SWAP1 JUMPDEST DUP2 SLOAD DUP2 MSTORE SWAP1 PUSH1 0x1 ADD SWAP1 PUSH1 0x20 ADD DUP1 DUP4 GT PUSH2 0x23E JUMPI DUP3 SWAP1 SUB PUSH1 0x1F AND DUP3 ADD SWAP2 JUMPDEST POP POP POP POP POP SWAP1 DUP1 PUSH1 0x2 ADD SLOAD SWAP1 DUP1 PUSH1 0x3 ADD SLOAD SWAP1 POP DUP5 JUMP JUMPDEST PUSH0 DUP1 SLOAD SWAP1 PUSH2 0x100 EXP SWAP1 DIV PUSH2 0xFFFF AND DUP2 JUMP JUMPDEST PUSH1 0x60 PUSH1 0x1 PUSH0 DUP4 PUSH20 0xFFFFFFFFFFFFFFFFFFFFFFFFFFFFFFFFFFFFFFFF AND PUSH20 0xFFFFFFFFFFFFFFFFFFFFFFFFFFFFFFFFFFFFFFFF AND DUP2 MSTORE PUSH1 0x20 ADD SWAP1 DUP2 MSTORE PUSH1 0x20 ADD PUSH0 KECCAK256 DUP1 SLOAD DUP1 PUSH1 0x20 MUL PUSH1 0x20 ADD PUSH1 0x40 MLOAD SWAP1 DUP2 ADD PUSH1 0x40 MSTORE DUP1 SWAP3 SWAP2 SWAP1 DUP2 DUP2 MSTORE PUSH1 0x20 ADD PUSH0 SWAP1 JUMPDEST DUP3 DUP3 LT ISZERO PUSH2 0x408 JUMPI DUP4 DUP3 SWAP1 PUSH0 MSTORE PUSH1 0x20 PUSH0 KECCAK256 SWAP1 PUSH1 0x4 MUL ADD PUSH1 0x40 MLOAD DUP1 PUSH1 0x80 ADD PUSH1 0x40 MSTORE SWAP1 DUP2 PUSH0 DUP3 ADD PUSH0 SWAP1 SLOAD SWAP1 PUSH2 0x100 EXP SWAP1 DIV PUSH20 0xFFFFFFFFFFFFFFFFFFFFFFFFFFFFFFFFFFFFFFFF AND PUSH20 0xFFFFFFFFFFFFFFFFFFFFFFFFFFFFFFFFFFFFFFFF AND PUSH20 0xFFFFFFFFFFFFFFFFFFFFFFFFFFFFFFFFFFFFFFFF AND DUP2 MSTORE PUSH1 0x20 ADD PUSH1 0x1 DUP3 ADD DUP1 SLOAD PUSH2 0x365 SWAP1 PUSH2 0xE7C JUMP JUMPDEST DUP1 PUSH1 0x1F ADD PUSH1 0x20 DUP1 SWAP2 DIV MUL PUSH1 0x20 ADD PUSH1 0x40 MLOAD SWAP1 DUP2 ADD PUSH1 0x40 MSTORE DUP1 SWAP3 SWAP2 SWAP1 DUP2 DUP2 MSTORE PUSH1 0x20 ADD DUP3 DUP1 SLOAD PUSH2 0x391 SWAP1 PUSH2 0xE7C JUMP JUMPDEST DUP1 ISZERO PUSH2 0x3DC JUMPI DUP1 PUSH1 0x1F LT PUSH2 0x3B3 JUMPI PUSH2 0x100 DUP1 DUP4 SLOAD DIV MUL DUP4 MSTORE SWAP2 PUSH1 0x20 ADD SWAP2 PUSH2 0x3DC JUMP JUMPDEST DUP3 ADD SWAP2 SWAP1 PUSH0 MSTORE PUSH1 0x20 PUSH0 KECCAK256 SWAP1 JUMPDEST DUP2 SLOAD DUP2 MSTORE SWAP1 PUSH1 0x1 ADD SWAP1 PUSH1 0x20 ADD DUP1 DUP4 GT PUSH2 0x3BF JUMPI DUP3 SWAP1 SUB PUSH1 0x1F AND DUP3 ADD SWAP2 JUMPDEST POP POP POP POP POP DUP2 MSTORE PUSH1 0x20 ADD PUSH1 0x2 DUP3 ADD SLOAD DUP2 MSTORE PUSH1 0x20 ADD PUSH1 0x3 DUP3 ADD SLOAD DUP2 MSTORE POP POP DUP2 MSTORE PUSH1 0x20 ADD SWAP1 PUSH1 0x1 ADD SWAP1 PUSH2 0x2E0 JUMP JUMPDEST POP POP POP POP SWAP1 POP SWAP2 SWAP1 POP JUMP JUMPDEST PUSH1 0x2 PUSH0 SWAP1 SLOAD SWAP1 PUSH2 0x100 EXP SWAP1 DIV PUSH20 0xFFFFFFFFFFFFFFFFFFFFFFFFFFFFFFFFFFFFFFFF AND PUSH20 0xFFFFFFFFFFFFFFFFFFFFFFFFFFFFFFFFFFFFFFFF AND CALLER PUSH20 0xFFFFFFFFFFFFFFFFFFFFFFFFFFFFFFFFFFFFFFFF AND EQ PUSH2 0x4A2 JUMPI PUSH1 0x40 MLOAD PUSH32 0x8C379A000000000000000000000000000000000000000000000000000000000 DUP2 MSTORE PUSH1 0x4 ADD PUSH2 0x499 SWAP1 PUSH2 0xEF6 JUMP JUMPDEST PUSH1 0x40 MLOAD DUP1 SWAP2 SUB SWAP1 REVERT JUMPDEST DUP1 PUSH0 DUP1 PUSH2 0x100 EXP DUP2 SLOAD DUP2 PUSH2 0xFFFF MUL NOT AND SWAP1 DUP4 PUSH2 0xFFFF AND MUL OR SWAP1 SSTORE POP POP JUMP JUMPDEST PUSH0 DUP1 SLOAD SWAP1 PUSH2 0x100 EXP SWAP1 DIV PUSH2 0xFFFF AND PUSH2 0xFFFF AND DUP2 MLOAD GT ISZERO PUSH2 0x515 JUMPI PUSH1 0x40 MLOAD PUSH32 0x8C379A000000000000000000000000000000000000000000000000000000000 DUP2 MSTORE PUSH1 0x4 ADD PUSH2 0x50C SWAP1 PUSH2 0xF5E JUMP JUMPDEST PUSH1 0x40 MLOAD DUP1 SWAP2 SUB SWAP1 REVERT JUMPDEST PUSH0 PUSH1 0x40 MLOAD DUP1 PUSH1 0x80 ADD PUSH1 0x40 MSTORE DUP1 CALLER PUSH20 0xFFFFFFFFFFFFFFFFFFFFFFFFFFFFFFFFFFFFFFFF AND DUP2 MSTORE PUSH1 0x20 ADD DUP4 DUP2 MSTORE PUSH1 0x20 ADD TIMESTAMP DUP2 MSTORE PUSH1 0x20 ADD PUSH0 DUP2 MSTORE POP SWAP1 POP PUSH1 0x1 PUSH0 CALLER PUSH20 0xFFFFFFFFFFFFFFFFFFFFFFFFFFFFFFFFFFFFFFFF AND PUSH20 0xFFFFFFFFFFFFFFFFFFFFFFFFFFFFFFFFFFFFFFFF AND DUP2 MSTORE PUSH1 0x20 ADD SWAP1 DUP2 MSTORE PUSH1 0x20 ADD PUSH0 KECCAK256 DUP2 SWAP1 DUP1 PUSH1 0x1 DUP2 SLOAD ADD DUP1 DUP3 SSTORE DUP1 SWAP2 POP POP PUSH1 0x1 SWAP1 SUB SWAP1 PUSH0 MSTORE PUSH1 0x20 PUSH0 KECCAK256 SWAP1 PUSH1 0x4 MUL ADD PUSH0 SWAP1 SWAP2 SWAP1 SWAP2 SWAP1 SWAP2 POP PUSH0 DUP3 ADD MLOAD DUP2 PUSH0 ADD PUSH0 PUSH2 0x100 EXP DUP2 SLOAD DUP2 PUSH20 0xFFFFFFFFFFFFFFFFFFFFFFFFFFFFFFFFFFFFFFFF MUL NOT AND SWAP1 DUP4 PUSH20 0xFFFFFFFFFFFFFFFFFFFFFFFFFFFFFFFFFFFFFFFF AND MUL OR SWAP1 SSTORE POP PUSH1 0x20 DUP3 ADD MLOAD DUP2 PUSH1 0x1 ADD SWAP1 DUP2 PUSH2 0x60C SWAP2 SWAP1 PUSH2 0x1119 JUMP JUMPDEST POP PUSH1 0x40 DUP3 ADD MLOAD DUP2 PUSH1 0x2 ADD SSTORE PUSH1 0x60 DUP3 ADD MLOAD DUP2 PUSH1 0x3 ADD SSTORE POP POP POP POP JUMP JUMPDEST PUSH1 0x2 PUSH0 SWAP1 SLOAD SWAP1 PUSH2 0x100 EXP SWAP1 DIV PUSH20 0xFFFFFFFFFFFFFFFFFFFFFFFFFFFFFFFFFFFFFFFF AND DUP2 JUMP JUMPDEST PUSH2 0x654 PUSH2 0x7B9 JUMP JUMPDEST PUSH1 0x1 PUSH0 CALLER PUSH20 0xFFFFFFFFFFFFFFFFFFFFFFFFFFFFFFFFFFFFFFFF AND PUSH20 0xFFFFFFFFFFFFFFFFFFFFFFFFFFFFFFFFFFFFFFFF AND DUP2 MSTORE PUSH1 0x20 ADD SWAP1 DUP2 MSTORE PUSH1 0x20 ADD PUSH0 KECCAK256 DUP3 DUP2 SLOAD DUP2 LT PUSH2 0x6A3 JUMPI PUSH2 0x6A2 PUSH2 0x11E8 JUMP JUMPDEST JUMPDEST SWAP1 PUSH0 MSTORE PUSH1 0x20 PUSH0 KECCAK256 SWAP1 PUSH1 0x4 MUL ADD PUSH1 0x40 MLOAD DUP1 PUSH1 0x80 ADD PUSH1 0x40 MSTORE SWAP1 DUP2 PUSH0 DUP3 ADD PUSH0 SWAP1 SLOAD SWAP1 PUSH2 0x100 EXP SWAP1 DIV PUSH20 0xFFFFFFFFFFFFFFFFFFFFFFFFFFFFFFFFFFFFFFFF AND PUSH20 0xFFFFFFFFFFFFFFFFFFFFFFFFFFFFFFFFFFFFFFFF AND PUSH20 0xFFFFFFFFFFFFFFFFFFFFFFFFFFFFFFFFFFFFFFFF AND DUP2 MSTORE PUSH1 0x20 ADD PUSH1 0x1 DUP3 ADD DUP1 SLOAD PUSH2 0x71E SWAP1 PUSH2 0xE7C JUMP JUMPDEST DUP1 PUSH1 0x1F ADD PUSH1 0x20 DUP1 SWAP2 DIV MUL PUSH1 0x20 ADD PUSH1 0x40 MLOAD SWAP1 DUP2 ADD PUSH1 0x40 MSTORE DUP1 SWAP3 SWAP2 SWAP1 DUP2 DUP2 MSTORE PUSH1 0x20 ADD DUP3 DUP1 SLOAD PUSH2 0x74A SWAP1 PUSH2 0xE7C JUMP JUMPDEST DUP1 ISZERO PUSH2 0x795 JUMPI DUP1 PUSH1 0x1F LT PUSH2 0x76C JUMPI PUSH2 0x100 DUP1 DUP4 SLOAD DIV MUL DUP4 MSTORE SWAP2 PUSH1 0x20 ADD SWAP2 PUSH2 0x795 JUMP JUMPDEST DUP3 ADD SWAP2 SWAP1 PUSH0 MSTORE PUSH1 0x20 PUSH0 KECCAK256 SWAP1 JUMPDEST DUP2 SLOAD DUP2 MSTORE SWAP1 PUSH1 0x1 ADD SWAP1 PUSH1 0x20 ADD DUP1 DUP4 GT PUSH2 0x778 JUMPI DUP3 SWAP1 SUB PUSH1 0x1F AND DUP3 ADD SWAP2 JUMPDEST POP POP POP POP POP DUP2 MSTORE PUSH1 0x20 ADD PUSH1 0x2 DUP3 ADD SLOAD DUP2 MSTORE PUSH1 0x20 ADD PUSH1 0x3 DUP3 ADD SLOAD DUP2 MSTORE POP POP SWAP1 POP SWAP2 SWAP1 POP JUMP JUMPDEST PUSH1 0x40 MLOAD DUP1 PUSH1 0x80 ADD PUSH1 0x40 MSTORE DUP1 PUSH0 PUSH20 0xFFFFFFFFFFFFFFFFFFFFFFFFFFFFFFFFFFFFFFFF AND DUP2 MSTORE PUSH1 0x20 ADD PUSH1 0x60 DUP2 MSTORE PUSH1 0x20 ADD PUSH0 DUP2 MSTORE PUSH1 0x20 ADD PUSH0 DUP2 MSTORE POP SWAP1 JUMP JUMPDEST PUSH0 PUSH1 0x40 MLOAD SWAP1 POP SWAP1 JUMP JUMPDEST PUSH0 DUP1 REVERT JUMPDEST PUSH0 DUP1 REVERT JUMPDEST PUSH0 PUSH20 0xFFFFFFFFFFFFFFFFFFFFFFFFFFFFFFFFFFFFFFFF DUP3 AND SWAP1 POP SWAP2 SWAP1 POP JUMP JUMPDEST PUSH0 PUSH2 0x82E DUP3 PUSH2 0x805 JUMP JUMPDEST SWAP1 POP SWAP2 SWAP1 POP JUMP JUMPDEST PUSH2 0x83E DUP2 PUSH2 0x824 JUMP JUMPDEST DUP2 EQ PUSH2 0x848 JUMPI PUSH0 DUP1 REVERT JUMPDEST POP JUMP JUMPDEST PUSH0 DUP2 CALLDATALOAD SWAP1 POP PUSH2 0x859 DUP2 PUSH2 0x835 JUMP JUMPDEST SWAP3 SWAP2 POP POP JUMP JUMPDEST PUSH0 DUP2 SWAP1 POP SWAP2 SWAP1 POP JUMP JUMPDEST PUSH2 0x871 DUP2 PUSH2 0x85F JUMP JUMPDEST DUP2 EQ PUSH2 0x87B JUMPI PUSH0 DUP1 REVERT JUMPDEST POP JUMP JUMPDEST PUSH0 DUP2 CALLDATALOAD SWAP1 POP PUSH2 0x88C DUP2 PUSH2 0x868 JUMP JUMPDEST SWAP3 SWAP2 POP POP JUMP JUMPDEST PUSH0 DUP1 PUSH1 0x40 DUP4 DUP6 SUB SLT ISZERO PUSH2 0x8A8 JUMPI PUSH2 0x8A7 PUSH2 0x7FD JUMP JUMPDEST JUMPDEST PUSH0 PUSH2 0x8B5 DUP6 DUP3 DUP7 ADD PUSH2 0x84B JUMP JUMPDEST SWAP3 POP POP PUSH1 0x20 PUSH2 0x8C6 DUP6 DUP3 DUP7 ADD PUSH2 0x87E JUMP JUMPDEST SWAP2 POP POP SWAP3 POP SWAP3 SWAP1 POP JUMP JUMPDEST PUSH2 0x8D9 DUP2 PUSH2 0x824 JUMP JUMPDEST DUP3 MSTORE POP POP JUMP JUMPDEST PUSH0 DUP2 MLOAD SWAP1 POP SWAP2 SWAP1 POP JUMP JUMPDEST PUSH0 DUP3 DUP3 MSTORE PUSH1 0x20 DUP3 ADD SWAP1 POP SWAP3 SWAP2 POP POP JUMP JUMPDEST PUSH0 JUMPDEST DUP4 DUP2 LT ISZERO PUSH2 0x916 JUMPI DUP1 DUP3 ADD MLOAD DUP2 DUP5 ADD MSTORE PUSH1 0x20 DUP2 ADD SWAP1 POP PUSH2 0x8FB JUMP JUMPDEST PUSH0 DUP5 DUP5 ADD MSTORE POP POP POP POP JUMP JUMPDEST PUSH0 PUSH1 0x1F NOT PUSH1 0x1F DUP4 ADD AND SWAP1 POP SWAP2 SWAP1 POP JUMP JUMPDEST PUSH0 PUSH2 0x93B DUP3 PUSH2 0x8DF JUMP JUMPDEST PUSH2 0x945 DUP2 DUP6 PUSH2 0x8E9 JUMP JUMPDEST SWAP4 POP PUSH2 0x955 DUP2 DUP6 PUSH1 0x20 DUP7 ADD PUSH2 0x8F9 JUMP JUMPDEST PUSH2 0x95E DUP2 PUSH2 0x921 JUMP JUMPDEST DUP5 ADD SWAP2 POP POP SWAP3 SWAP2 POP POP JUMP JUMPDEST PUSH2 0x972 DUP2 PUSH2 0x85F JUMP JUMPDEST DUP3 MSTORE POP POP JUMP JUMPDEST PUSH0 PUSH1 0x80 DUP3 ADD SWAP1 POP PUSH2 0x98B PUSH0 DUP4 ADD DUP8 PUSH2 0x8D0 JUMP JUMPDEST DUP2 DUP2 SUB PUSH1 0x20 DUP4 ADD MSTORE PUSH2 0x99D DUP2 DUP7 PUSH2 0x931 JUMP JUMPDEST SWAP1 POP PUSH2 0x9AC PUSH1 0x40 DUP4 ADD DUP6 PUSH2 0x969 JUMP JUMPDEST PUSH2 0x9B9 PUSH1 0x60 DUP4 ADD DUP5 PUSH2 0x969 JUMP JUMPDEST SWAP6 SWAP5 POP POP POP POP POP JUMP JUMPDEST PUSH0 PUSH2 0xFFFF DUP3 AND SWAP1 POP SWAP2 SWAP1 POP JUMP JUMPDEST PUSH2 0x9D8 DUP2 PUSH2 0x9C2 JUMP JUMPDEST DUP3 MSTORE POP POP JUMP JUMPDEST PUSH0 PUSH1 0x20 DUP3 ADD SWAP1 POP PUSH2 0x9F1 PUSH0 DUP4 ADD DUP5 PUSH2 0x9CF JUMP JUMPDEST SWAP3 SWAP2 POP POP JUMP JUMPDEST PUSH0 PUSH1 0x20 DUP3 DUP5 SUB SLT ISZERO PUSH2 0xA0C JUMPI PUSH2 0xA0B PUSH2 0x7FD JUMP JUMPDEST JUMPDEST PUSH0 PUSH2 0xA19 DUP5 DUP3 DUP6 ADD PUSH2 0x84B JUMP JUMPDEST SWAP2 POP POP SWAP3 SWAP2 POP POP JUMP JUMPDEST PUSH0 DUP2 MLOAD SWAP1 POP SWAP2 SWAP1 POP JUMP JUMPDEST PUSH0 DUP3 DUP3 MSTORE PUSH1 0x20 DUP3 ADD SWAP1 POP SWAP3 SWAP2 POP POP JUMP JUMPDEST PUSH0 DUP2 SWAP1 POP PUSH1 0x20 DUP3 ADD SWAP1 POP SWAP2 SWAP1 POP JUMP JUMPDEST PUSH2 0xA54 DUP2 PUSH2 0x824 JUMP JUMPDEST DUP3 MSTORE POP POP JUMP JUMPDEST PUSH0 DUP3 DUP3 MSTORE PUSH1 0x20 DUP3 ADD SWAP1 POP SWAP3 SWAP2 POP POP JUMP JUMPDEST PUSH0 PUSH2 0xA74 DUP3 PUSH2 0x8DF JUMP JUMPDEST PUSH2 0xA7E DUP2 DUP6 PUSH2 0xA5A JUMP JUMPDEST SWAP4 POP PUSH2 0xA8E DUP2 DUP6 PUSH1 0x20 DUP7 ADD PUSH2 0x8F9 JUMP JUMPDEST PUSH2 0xA97 DUP2 PUSH2 0x921 JUMP JUMPDEST DUP5 ADD SWAP2 POP POP SWAP3 SWAP2 POP POP JUMP JUMPDEST PUSH2 0xAAB DUP2 PUSH2 0x85F JUMP JUMPDEST DUP3 MSTORE POP POP JUMP JUMPDEST PUSH0 PUSH1 0x80 DUP4 ADD PUSH0 DUP4 ADD MLOAD PUSH2 0xAC6 PUSH0 DUP7 ADD DUP3 PUSH2 0xA4B JUMP JUMPDEST POP PUSH1 0x20 DUP4 ADD MLOAD DUP5 DUP3 SUB PUSH1 0x20 DUP7 ADD MSTORE PUSH2 0xADE DUP3 DUP3 PUSH2 0xA6A JUMP JUMPDEST SWAP2 POP POP PUSH1 0x40 DUP4 ADD MLOAD PUSH2 0xAF3 PUSH1 0x40 DUP7 ADD DUP3 PUSH2 0xAA2 JUMP JUMPDEST POP PUSH1 0x60 DUP4 ADD MLOAD PUSH2 0xB06 PUSH1 0x60 DUP7 ADD DUP3 PUSH2 0xAA2 JUMP JUMPDEST POP DUP1 SWAP2 POP POP SWAP3 SWAP2 POP POP JUMP JUMPDEST PUSH0 PUSH2 0xB1C DUP4 DUP4 PUSH2 0xAB1 JUMP JUMPDEST SWAP1 POP SWAP3 SWAP2 POP POP JUMP JUMPDEST PUSH0 PUSH1 0x20 DUP3 ADD SWAP1 POP SWAP2 SWAP1 POP JUMP JUMPDEST PUSH0 PUSH2 0xB3A DUP3 PUSH2 0xA22 JUMP JUMPDEST PUSH2 0xB44 DUP2 DUP6 PUSH2 0xA2C JUMP JUMPDEST SWAP4 POP DUP4 PUSH1 0x20 DUP3 MUL DUP6 ADD PUSH2 0xB56 DUP6 PUSH2 0xA3C JUMP JUMPDEST DUP1 PUSH0 JUMPDEST DUP6 DUP2 LT ISZERO PUSH2 0xB91 JUMPI DUP5 DUP5 SUB DUP10 MSTORE DUP2 MLOAD PUSH2 0xB72 DUP6 DUP3 PUSH2 0xB11 JUMP JUMPDEST SWAP5 POP PUSH2 0xB7D DUP4 PUSH2 0xB24 JUMP JUMPDEST SWAP3 POP PUSH1 0x20 DUP11 ADD SWAP10 POP POP PUSH1 0x1 DUP2 ADD SWAP1 POP PUSH2 0xB59 JUMP JUMPDEST POP DUP3 SWAP8 POP DUP8 SWAP6 POP POP POP POP POP POP SWAP3 SWAP2 POP POP JUMP JUMPDEST PUSH0 PUSH1 0x20 DUP3 ADD SWAP1 POP DUP2 DUP2 SUB PUSH0 DUP4 ADD MSTORE PUSH2 0xBBB DUP2 DUP5 PUSH2 0xB30 JUMP JUMPDEST SWAP1 POP SWAP3 SWAP2 POP POP JUMP JUMPDEST PUSH2 0xBCC DUP2 PUSH2 0x9C2 JUMP JUMPDEST DUP2 EQ PUSH2 0xBD6 JUMPI PUSH0 DUP1 REVERT JUMPDEST POP JUMP JUMPDEST PUSH0 DUP2 CALLDATALOAD SWAP1 POP PUSH2 0xBE7 DUP2 PUSH2 0xBC3 JUMP JUMPDEST SWAP3 SWAP2 POP POP JUMP JUMPDEST PUSH0 PUSH1 0x20 DUP3 DUP5 SUB SLT ISZERO PUSH2 0xC02 JUMPI PUSH2 0xC01 PUSH2 0x7FD JUMP JUMPDEST JUMPDEST PUSH0 PUSH2 0xC0F DUP5 DUP3 DUP6 ADD PUSH2 0xBD9 JUMP JUMPDEST SWAP2 POP POP SWAP3 SWAP2 POP POP JUMP JUMPDEST PUSH0 DUP1 REVERT JUMPDEST PUSH0 DUP1 REVERT JUMPDEST PUSH32 0x4E487B7100000000000000000000000000000000000000000000000000000000 PUSH0 MSTORE PUSH1 0x41 PUSH1 0x4 MSTORE PUSH1 0x24 PUSH0 REVERT JUMPDEST PUSH2 0xC56 DUP3 PUSH2 0x921 JUMP JUMPDEST DUP2 ADD DUP2 DUP2 LT PUSH8 0xFFFFFFFFFFFFFFFF DUP3 GT OR ISZERO PUSH2 0xC75 JUMPI PUSH2 0xC74 PUSH2 0xC20 JUMP JUMPDEST JUMPDEST DUP1 PUSH1 0x40 MSTORE POP POP POP JUMP JUMPDEST PUSH0 PUSH2 0xC87 PUSH2 0x7F4 JUMP JUMPDEST SWAP1 POP PUSH2 0xC93 DUP3 DUP3 PUSH2 0xC4D JUMP JUMPDEST SWAP2 SWAP1 POP JUMP JUMPDEST PUSH0 PUSH8 0xFFFFFFFFFFFFFFFF DUP3 GT ISZERO PUSH2 0xCB2 JUMPI PUSH2 0xCB1 PUSH2 0xC20 JUMP JUMPDEST JUMPDEST PUSH2 0xCBB DUP3 PUSH2 0x921 JUMP JUMPDEST SWAP1 POP PUSH1 0x20 DUP2 ADD SWAP1 POP SWAP2 SWAP1 POP JUMP JUMPDEST DUP3 DUP2 DUP4 CALLDATACOPY PUSH0 DUP4 DUP4 ADD MSTORE POP POP POP JUMP JUMPDEST PUSH0 PUSH2 0xCE8 PUSH2 0xCE3 DUP5 PUSH2 0xC98 JUMP JUMPDEST PUSH2 0xC7E JUMP JUMPDEST SWAP1 POP DUP3 DUP2 MSTORE PUSH1 0x20 DUP2 ADD DUP5 DUP5 DUP5 ADD GT ISZERO PUSH2 0xD04 JUMPI PUSH2 0xD03 PUSH2 0xC1C JUMP JUMPDEST JUMPDEST PUSH2 0xD0F DUP5 DUP3 DUP6 PUSH2 0xCC8 JUMP JUMPDEST POP SWAP4 SWAP3 POP POP POP JUMP JUMPDEST PUSH0 DUP3 PUSH1 0x1F DUP4 ADD SLT PUSH2 0xD2B JUMPI PUSH2 0xD2A PUSH2 0xC18 JUMP JUMPDEST JUMPDEST DUP2 CALLDATALOAD PUSH2 0xD3B DUP5 DUP3 PUSH1 0x20 DUP7 ADD PUSH2 0xCD6 JUMP JUMPDEST SWAP2 POP POP SWAP3 SWAP2 POP POP JUMP JUMPDEST PUSH0 PUSH1 0x20 DUP3 DUP5 SUB SLT ISZERO PUSH2 0xD59 JUMPI PUSH2 0xD58 PUSH2 0x7FD JUMP JUMPDEST JUMPDEST PUSH0 DUP3 ADD CALLDATALOAD PUSH8 0xFFFFFFFFFFFFFFFF DUP2 GT ISZERO PUSH2 0xD76 JUMPI PUSH2 0xD75 PUSH2 0x801 JUMP JUMPDEST JUMPDEST PUSH2 0xD82 DUP5 DUP3 DUP6 ADD PUSH2 0xD17 JUMP JUMPDEST SWAP2 POP POP SWAP3 SWAP2 POP POP JUMP JUMPDEST PUSH0 PUSH1 0x20 DUP3 ADD SWAP1 POP PUSH2 0xD9E PUSH0 DUP4 ADD DUP5 PUSH2 0x8D0 JUMP JUMPDEST SWAP3 SWAP2 POP POP JUMP JUMPDEST PUSH0 PUSH1 0x20 DUP3 DUP5 SUB SLT ISZERO PUSH2 0xDB9 JUMPI PUSH2 0xDB8 PUSH2 0x7FD JUMP JUMPDEST JUMPDEST PUSH0 PUSH2 0xDC6 DUP5 DUP3 DUP6 ADD PUSH2 0x87E JUMP JUMPDEST SWAP2 POP POP SWAP3 SWAP2 POP POP JUMP JUMPDEST PUSH0 PUSH1 0x80 DUP4 ADD PUSH0 DUP4 ADD MLOAD PUSH2 0xDE4 PUSH0 DUP7 ADD DUP3 PUSH2 0xA4B JUMP JUMPDEST POP PUSH1 0x20 DUP4 ADD MLOAD DUP5 DUP3 SUB PUSH1 0x20 DUP7 ADD MSTORE PUSH2 0xDFC DUP3 DUP3 PUSH2 0xA6A JUMP JUMPDEST SWAP2 POP POP PUSH1 0x40 DUP4 ADD MLOAD PUSH2 0xE11 PUSH1 0x40 DUP7 ADD DUP3 PUSH2 0xAA2 JUMP JUMPDEST POP PUSH1 0x60 DUP4 ADD MLOAD PUSH2 0xE24 PUSH1 0x60 DUP7 ADD DUP3 PUSH2 0xAA2 JUMP JUMPDEST POP DUP1 SWAP2 POP POP SWAP3 SWAP2 POP POP JUMP JUMPDEST PUSH0 PUSH1 0x20 DUP3 ADD SWAP1 POP DUP2 DUP2 SUB PUSH0 DUP4 ADD MSTORE PUSH2 0xE47 DUP2 DUP5 PUSH2 0xDCF JUMP JUMPDEST SWAP1 POP SWAP3 SWAP2 POP POP JUMP JUMPDEST PUSH32 0x4E487B7100000000000000000000000000000000000000000000000000000000 PUSH0 MSTORE PUSH1 0x22 PUSH1 0x4 MSTORE PUSH1 0x24 PUSH0 REVERT JUMPDEST PUSH0 PUSH1 0x2 DUP3 DIV SWAP1 POP PUSH1 0x1 DUP3 AND DUP1 PUSH2 0xE93 JUMPI PUSH1 0x7F DUP3 AND SWAP2 POP JUMPDEST PUSH1 0x20 DUP3 LT DUP2 SUB PUSH2 0xEA6 JUMPI PUSH2 0xEA5 PUSH2 0xE4F JUMP JUMPDEST JUMPDEST POP SWAP2 SWAP1 POP JUMP JUMPDEST PUSH32 0x594F5520415245204E4F5420544845204F574E45520000000000000000000000 PUSH0 DUP3 ADD MSTORE POP JUMP JUMPDEST PUSH0 PUSH2 0xEE0 PUSH1 0x15 DUP4 PUSH2 0x8E9 JUMP JUMPDEST SWAP2 POP PUSH2 0xEEB DUP3 PUSH2 0xEAC JUMP JUMPDEST PUSH1 0x20 DUP3 ADD SWAP1 POP SWAP2 SWAP1 POP JUMP JUMPDEST PUSH0 PUSH1 0x20 DUP3 ADD SWAP1 POP DUP2 DUP2 SUB PUSH0 DUP4 ADD MSTORE PUSH2 0xF0D DUP2 PUSH2 0xED4 JUMP JUMPDEST SWAP1 POP SWAP2 SWAP1 POP JUMP JUMPDEST PUSH32 0x547765657420697320746F6F204C6F6E67000000000000000000000000000000 PUSH0 DUP3 ADD MSTORE POP JUMP JUMPDEST PUSH0 PUSH2 0xF48 PUSH1 0x11 DUP4 PUSH2 0x8E9 JUMP JUMPDEST SWAP2 POP PUSH2 0xF53 DUP3 PUSH2 0xF14 JUMP JUMPDEST PUSH1 0x20 DUP3 ADD SWAP1 POP SWAP2 SWAP1 POP JUMP JUMPDEST PUSH0 PUSH1 0x20 DUP3 ADD SWAP1 POP DUP2 DUP2 SUB PUSH0 DUP4 ADD MSTORE PUSH2 0xF75 DUP2 PUSH2 0xF3C JUMP JUMPDEST SWAP1 POP SWAP2 SWAP1 POP JUMP JUMPDEST PUSH0 DUP2 SWAP1 POP DUP2 PUSH0 MSTORE PUSH1 0x20 PUSH0 KECCAK256 SWAP1 POP SWAP2 SWAP1 POP JUMP JUMPDEST PUSH0 PUSH1 0x20 PUSH1 0x1F DUP4 ADD DIV SWAP1 POP SWAP2 SWAP1 POP JUMP JUMPDEST PUSH0 DUP3 DUP3 SHL SWAP1 POP SWAP3 SWAP2 POP POP JUMP JUMPDEST PUSH0 PUSH1 0x8 DUP4 MUL PUSH2 0xFD8 PUSH32 0xFFFFFFFFFFFFFFFFFFFFFFFFFFFFFFFFFFFFFFFFFFFFFFFFFFFFFFFFFFFFFFFF DUP3 PUSH2 0xF9D JUMP JUMPDEST PUSH2 0xFE2 DUP7 DUP4 PUSH2 0xF9D JUMP JUMPDEST SWAP6 POP DUP1 NOT DUP5 AND SWAP4 POP DUP1 DUP7 AND DUP5 OR SWAP3 POP POP POP SWAP4 SWAP3 POP POP POP JUMP JUMPDEST PUSH0 DUP2 SWAP1 POP SWAP2 SWAP1 POP JUMP JUMPDEST PUSH0 PUSH2 0x101D PUSH2 0x1018 PUSH2 0x1013 DUP5 PUSH2 0x85F JUMP JUMPDEST PUSH2 0xFFA JUMP JUMPDEST PUSH2 0x85F JUMP JUMPDEST SWAP1 POP SWAP2 SWAP1 POP JUMP JUMPDEST PUSH0 DUP2 SWAP1 POP SWAP2 SWAP1 POP JUMP JUMPDEST PUSH2 0x1036 DUP4 PUSH2 0x1003 JUMP JUMPDEST PUSH2 0x104A PUSH2 0x1042 DUP3 PUSH2 0x1024 JUMP JUMPDEST DUP5 DUP5 SLOAD PUSH2 0xFA9 JUMP JUMPDEST DUP3 SSTORE POP POP POP POP JUMP JUMPDEST PUSH0 SWAP1 JUMP JUMPDEST PUSH2 0x105E PUSH2 0x1052 JUMP JUMPDEST PUSH2 0x1069 DUP2 DUP5 DUP5 PUSH2 0x102D JUMP JUMPDEST POP POP POP JUMP JUMPDEST JUMPDEST DUP2 DUP2 LT ISZERO PUSH2 0x108C JUMPI PUSH2 0x1081 PUSH0 DUP3 PUSH2 0x1056 JUMP JUMPDEST PUSH1 0x1 DUP2 ADD SWAP1 POP PUSH2 0x106F JUMP JUMPDEST POP POP JUMP JUMPDEST PUSH1 0x1F DUP3 GT ISZERO PUSH2 0x10D1 JUMPI PUSH2 0x10A2 DUP2 PUSH2 0xF7C JUMP JUMPDEST PUSH2 0x10AB DUP5 PUSH2 0xF8E JUMP JUMPDEST DUP2 ADD PUSH1 0x20 DUP6 LT ISZERO PUSH2 0x10BA JUMPI DUP2 SWAP1 POP JUMPDEST PUSH2 0x10CE PUSH2 0x10C6 DUP6 PUSH2 0xF8E JUMP JUMPDEST DUP4 ADD DUP3 PUSH2 0x106E JUMP JUMPDEST POP POP JUMPDEST POP POP POP JUMP JUMPDEST PUSH0 DUP3 DUP3 SHR SWAP1 POP SWAP3 SWAP2 POP POP JUMP JUMPDEST PUSH0 PUSH2 0x10F1 PUSH0 NOT DUP5 PUSH1 0x8 MUL PUSH2 0x10D6 JUMP JUMPDEST NOT DUP1 DUP4 AND SWAP2 POP POP SWAP3 SWAP2 POP POP JUMP JUMPDEST PUSH0 PUSH2 0x1109 DUP4 DUP4 PUSH2 0x10E2 JUMP JUMPDEST SWAP2 POP DUP3 PUSH1 0x2 MUL DUP3 OR SWAP1 POP SWAP3 SWAP2 POP POP JUMP JUMPDEST PUSH2 0x1122 DUP3 PUSH2 0x8DF JUMP JUMPDEST PUSH8 0xFFFFFFFFFFFFFFFF DUP2 GT ISZERO PUSH2 0x113B JUMPI PUSH2 0x113A PUSH2 0xC20 JUMP JUMPDEST JUMPDEST PUSH2 0x1145 DUP3 SLOAD PUSH2 0xE7C JUMP JUMPDEST PUSH2 0x1150 DUP3 DUP3 DUP6 PUSH2 0x1090 JUMP JUMPDEST PUSH0 PUSH1 0x20 SWAP1 POP PUSH1 0x1F DUP4 GT PUSH1 0x1 DUP2 EQ PUSH2 0x1181 JUMPI PUSH0 DUP5 ISZERO PUSH2 0x116F JUMPI DUP3 DUP8 ADD MLOAD SWAP1 POP JUMPDEST PUSH2 0x1179 DUP6 DUP3 PUSH2 0x10FE JUMP JUMPDEST DUP7 SSTORE POP PUSH2 0x11E0 JUMP JUMPDEST PUSH1 0x1F NOT DUP5 AND PUSH2 0x118F DUP7 PUSH2 0xF7C JUMP JUMPDEST PUSH0 JUMPDEST DUP3 DUP2 LT ISZERO PUSH2 0x11B6 JUMPI DUP5 DUP10 ADD MLOAD DUP3 SSTORE PUSH1 0x1 DUP3 ADD SWAP2 POP PUSH1 0x20 DUP6 ADD SWAP5 POP PUSH1 0x20 DUP2 ADD SWAP1 POP PUSH2 0x1191 JUMP JUMPDEST DUP7 DUP4 LT ISZERO PUSH2 0x11D3 JUMPI DUP5 DUP10 ADD MLOAD PUSH2 0x11CF PUSH1 0x1F DUP10 AND DUP3 PUSH2 0x10E2 JUMP JUMPDEST DUP4 SSTORE POP JUMPDEST PUSH1 0x1 PUSH1 0x2 DUP9 MUL ADD DUP9 SSTORE POP POP POP JUMPDEST POP POP POP POP POP POP JUMP JUMPDEST PUSH32 0x4E487B7100000000000000000000000000000000000000000000000000000000 PUSH0 MSTORE PUSH1 0x32 PUSH1 0x4 MSTORE PUSH1 0x24 PUSH0 REVERT INVALID LOG2 PUSH5 0x6970667358 0x22 SLT KECCAK256 DUP2 0xB7 LOG2 BASEFEE 0xCC JUMPDEST BYTE CALLVALUE 0xE KECCAK256 SELFBALANCE SWAP8 MUL BYTE 0x5D STATICCALL PUSH31 0x55F19A5D4C06ECC1C1DFE01D0D3A7564736F6C634300081600330000000000 "
				},
				"gasEstimates": {
					"creation": {
						"codeDepositCost": "936600",
						"executionCost": "49504",
						"totalCost": "986104"
					},
					"external": {
						"MAX_TWEET_Length()": "2486",
						"changeTweetLength(uint16)": "26842",
						"createTweet(string)": "infinite",
						"getTweet(uint256)": "infinite",
						"getalltweets(address)": "infinite",
						"owner()": "2552",
						"tweets(address,uint256)": "infinite"
					}
				},
				"methodIdentifiers": {
					"MAX_TWEET_Length()": "0a50bfb3",
					"changeTweetLength(uint16)": "58bfa4ab",
					"createTweet(string)": "7c9cd2bc",
					"getTweet(uint256)": "c3ad5ecb",
					"getalltweets(address)": "28bb2285",
					"owner()": "8da5cb5b",
					"tweets(address,uint256)": "05a1b4a9"
				}
			},
			"storageLayout": {
				"storage": [
					{
						"astId": 4,
						"contract": "contracts/Twitter.sol:Twitter",
						"label": "MAX_TWEET_Length",
						"offset": 0,
						"slot": "0",
						"type": "t_uint16"
					},
					{
						"astId": 21,
						"contract": "contracts/Twitter.sol:Twitter",
						"label": "tweets",
						"offset": 0,
						"slot": "1",
						"type": "t_mapping(t_address,t_array(t_struct(Tweet)14_storage)dyn_storage)"
					},
					{
						"astId": 23,
						"contract": "contracts/Twitter.sol:Twitter",
						"label": "owner",
						"offset": 0,
						"slot": "2",
						"type": "t_address"
					}
				],
				"types": {
					"t_address": {
						"encoding": "inplace",
						"label": "address",
						"numberOfBytes": "20"
					},
					"t_array(t_struct(Tweet)14_storage)dyn_storage": {
						"base": "t_struct(Tweet)14_storage",
						"encoding": "dynamic_array",
						"label": "struct Twitter.Tweet[]",
						"numberOfBytes": "32"
					},
					"t_mapping(t_address,t_array(t_struct(Tweet)14_storage)dyn_storage)": {
						"encoding": "mapping",
						"key": "t_address",
						"label": "mapping(address => struct Twitter.Tweet[])",
						"numberOfBytes": "32",
						"value": "t_array(t_struct(Tweet)14_storage)dyn_storage"
					},
					"t_string_storage": {
						"encoding": "bytes",
						"label": "string",
						"numberOfBytes": "32"
					},
					"t_struct(Tweet)14_storage": {
						"encoding": "inplace",
						"label": "struct Twitter.Tweet",
						"members": [
							{
								"astId": 7,
								"contract": "contracts/Twitter.sol:Twitter",
								"label": "author",
								"offset": 0,
								"slot": "0",
								"type": "t_address"
							},
							{
								"astId": 9,
								"contract": "contracts/Twitter.sol:Twitter",
								"label": "content",
								"offset": 0,
								"slot": "1",
								"type": "t_string_storage"
							},
							{
								"astId": 11,
								"contract": "contracts/Twitter.sol:Twitter",
								"label": "timestamp",
								"offset": 0,
								"slot": "2",
								"type": "t_uint256"
							},
							{
								"astId": 13,
								"contract": "contracts/Twitter.sol:Twitter",
								"label": "likes",
								"offset": 0,
								"slot": "3",
								"type": "t_uint256"
							}
						],
						"numberOfBytes": "128"
					},
					"t_uint16": {
						"encoding": "inplace",
						"label": "uint16",
						"numberOfBytes": "2"
					},
					"t_uint256": {
						"encoding": "inplace",
						"label": "uint256",
						"numberOfBytes": "32"
					}
				}
			},
			"userdoc": {
				"kind": "user",
				"methods": {
					"constructor": {
						"notice": "creating the constructor"
					},
					"tweets(address,uint256)": {
						"notice": "end struct"
					}
				},
				"version": 1
			}
		}
	}
}