{
	"contracts/voting1.sol": {
		"Voting": {
			"abi": [
				{
					"inputs": [],
					"stateMutability": "nonpayable",
					"type": "constructor"
				},
				{
					"inputs": [],
					"name": "getTotalVotesAlpha",
					"outputs": [
						{
							"internalType": "int256",
							"name": "",
							"type": "int256"
						}
					],
					"stateMutability": "view",
					"type": "function"
				},
				{
					"inputs": [],
					"name": "getTotalVotesBeta",
					"outputs": [
						{
							"internalType": "int256",
							"name": "",
							"type": "int256"
						}
					],
					"stateMutability": "view",
					"type": "function"
				},
				{
					"inputs": [],
					"name": "voteAlpha",
					"outputs": [],
					"stateMutability": "nonpayable",
					"type": "function"
				},
				{
					"inputs": [],
					"name": "voteBeta",
					"outputs": [],
					"stateMutability": "nonpayable",
					"type": "function"
				}
			],
			"devdoc": {
				"kind": "dev",
				"methods": {},
				"version": 1
			},
			"evm": {
				"assembly": "    /* \"contracts/voting1.sol\":62:506  contract Voting {... */\n  mstore(0x40, 0x80)\n    /* \"contracts/voting1.sol\":118:181  constructor()  {... */\n  callvalue\n  dup1\n  iszero\n  tag_1\n  jumpi\n  0x00\n  dup1\n  revert\ntag_1:\n  pop\n    /* \"contracts/voting1.sol\":153:154  0 */\n  0x00\n    /* \"contracts/voting1.sol\":144:149  alpha */\n  dup1\n    /* \"contracts/voting1.sol\":144:154  alpha  = 0 */\n  dup2\n  swap1\n  sstore\n  pop\n    /* \"contracts/voting1.sol\":172:173  0 */\n  0x00\n    /* \"contracts/voting1.sol\":165:169  beta */\n  0x01\n    /* \"contracts/voting1.sol\":165:173  beta = 0 */\n  dup2\n  swap1\n  sstore\n  pop\n    /* \"contracts/voting1.sol\":62:506  contract Voting {... */\n  dataSize(sub_0)\n  dup1\n  dataOffset(sub_0)\n  0x00\n  codecopy\n  0x00\n  return\nstop\n\nsub_0: assembly {\n        /* \"contracts/voting1.sol\":62:506  contract Voting {... */\n      mstore(0x40, 0x80)\n      callvalue\n      dup1\n      iszero\n      tag_1\n      jumpi\n      0x00\n      dup1\n      revert\n    tag_1:\n      pop\n      jumpi(tag_2, lt(calldatasize, 0x04))\n      shr(0xe0, calldataload(0x00))\n      dup1\n      0x8725f645\n      eq\n      tag_3\n      jumpi\n      dup1\n      0xaecc5a28\n      eq\n      tag_4\n      jumpi\n      dup1\n      0xee010d88\n      eq\n      tag_5\n      jumpi\n      dup1\n      0xfe338a97\n      eq\n      tag_6\n      jumpi\n    tag_2:\n      0x00\n      dup1\n      revert\n        /* \"contracts/voting1.sol\":189:275  function getTotalVotesAlpha() view public returns(int) {... */\n    tag_3:\n      tag_7\n      tag_8\n      jump\t// in\n    tag_7:\n      mload(0x40)\n      tag_9\n      swap2\n      swap1\n      tag_10\n      jump\t// in\n    tag_9:\n      mload(0x40)\n      dup1\n      swap2\n      sub\n      swap1\n      return\n        /* \"contracts/voting1.sol\":444:503  function voteBeta () public{... */\n    tag_4:\n      tag_11\n      tag_12\n      jump\t// in\n    tag_11:\n      stop\n        /* \"contracts/voting1.sol\":283:366  function getTotalVotesBeta() view public returns(int){... */\n    tag_5:\n      tag_13\n      tag_14\n      jump\t// in\n    tag_13:\n      mload(0x40)\n      tag_15\n      swap2\n      swap1\n      tag_10\n      jump\t// in\n    tag_15:\n      mload(0x40)\n      dup1\n      swap2\n      sub\n      swap1\n      return\n        /* \"contracts/voting1.sol\":374:436  function voteAlpha () public{... */\n    tag_6:\n      tag_16\n      tag_17\n      jump\t// in\n    tag_16:\n      stop\n        /* \"contracts/voting1.sol\":189:275  function getTotalVotesAlpha() view public returns(int) {... */\n    tag_8:\n        /* \"contracts/voting1.sol\":239:242  int */\n      0x00\n        /* \"contracts/voting1.sol\":262:267  alpha */\n      dup1\n      sload\n        /* \"contracts/voting1.sol\":255:267  return alpha */\n      swap1\n      pop\n        /* \"contracts/voting1.sol\":189:275  function getTotalVotesAlpha() view public returns(int) {... */\n      swap1\n      jump\t// out\n        /* \"contracts/voting1.sol\":444:503  function voteBeta () public{... */\n    tag_12:\n        /* \"contracts/voting1.sol\":494:495  1 */\n      0x01\n        /* \"contracts/voting1.sol\":489:493  beta */\n      dup1\n      sload\n        /* \"contracts/voting1.sol\":489:495  beta+1 */\n      tag_20\n      swap2\n      swap1\n      tag_21\n      jump\t// in\n    tag_20:\n        /* \"contracts/voting1.sol\":482:486  beta */\n      0x01\n        /* \"contracts/voting1.sol\":482:495  beta = beta+1 */\n      dup2\n      swap1\n      sstore\n      pop\n        /* \"contracts/voting1.sol\":444:503  function voteBeta () public{... */\n      jump\t// out\n        /* \"contracts/voting1.sol\":283:366  function getTotalVotesBeta() view public returns(int){... */\n    tag_14:\n        /* \"contracts/voting1.sol\":332:335  int */\n      0x00\n        /* \"contracts/voting1.sol\":354:358  beta */\n      sload(0x01)\n        /* \"contracts/voting1.sol\":347:358  return beta */\n      swap1\n      pop\n        /* \"contracts/voting1.sol\":283:366  function getTotalVotesBeta() view public returns(int){... */\n      swap1\n      jump\t// out\n        /* \"contracts/voting1.sol\":374:436  function voteAlpha () public{... */\n    tag_17:\n        /* \"contracts/voting1.sol\":427:428  1 */\n      0x01\n        /* \"contracts/voting1.sol\":421:426  alpha */\n      sload(0x00)\n        /* \"contracts/voting1.sol\":421:428  alpha+1 */\n      tag_24\n      swap2\n      swap1\n      tag_21\n      jump\t// in\n    tag_24:\n        /* \"contracts/voting1.sol\":413:418  alpha */\n      0x00\n        /* \"contracts/voting1.sol\":413:428  alpha = alpha+1 */\n      dup2\n      swap1\n      sstore\n      pop\n        /* \"contracts/voting1.sol\":374:436  function voteAlpha () public{... */\n      jump\t// out\n        /* \"#utility.yul\":7:83   */\n    tag_25:\n        /* \"#utility.yul\":43:50   */\n      0x00\n        /* \"#utility.yul\":72:77   */\n      dup2\n        /* \"#utility.yul\":61:77   */\n      swap1\n      pop\n        /* \"#utility.yul\":7:83   */\n      swap2\n      swap1\n      pop\n      jump\t// out\n        /* \"#utility.yul\":89:204   */\n    tag_26:\n        /* \"#utility.yul\":174:197   */\n      tag_31\n        /* \"#utility.yul\":191:196   */\n      dup2\n        /* \"#utility.yul\":174:197   */\n      tag_25\n      jump\t// in\n    tag_31:\n        /* \"#utility.yul\":169:172   */\n      dup3\n        /* \"#utility.yul\":162:198   */\n      mstore\n        /* \"#utility.yul\":89:204   */\n      pop\n      pop\n      jump\t// out\n        /* \"#utility.yul\":210:428   */\n    tag_10:\n        /* \"#utility.yul\":301:305   */\n      0x00\n        /* \"#utility.yul\":339:341   */\n      0x20\n        /* \"#utility.yul\":328:337   */\n      dup3\n        /* \"#utility.yul\":324:342   */\n      add\n        /* \"#utility.yul\":316:342   */\n      swap1\n      pop\n        /* \"#utility.yul\":352:421   */\n      tag_33\n        /* \"#utility.yul\":418:419   */\n      0x00\n        /* \"#utility.yul\":407:416   */\n      dup4\n        /* \"#utility.yul\":403:420   */\n      add\n        /* \"#utility.yul\":394:400   */\n      dup5\n        /* \"#utility.yul\":352:421   */\n      tag_26\n      jump\t// in\n    tag_33:\n        /* \"#utility.yul\":210:428   */\n      swap3\n      swap2\n      pop\n      pop\n      jump\t// out\n        /* \"#utility.yul\":434:614   */\n    tag_27:\n        /* \"#utility.yul\":482:559   */\n      0x4e487b7100000000000000000000000000000000000000000000000000000000\n        /* \"#utility.yul\":479:480   */\n      0x00\n        /* \"#utility.yul\":472:560   */\n      mstore\n        /* \"#utility.yul\":579:583   */\n      0x11\n        /* \"#utility.yul\":576:577   */\n      0x04\n        /* \"#utility.yul\":569:584   */\n      mstore\n        /* \"#utility.yul\":603:607   */\n      0x24\n        /* \"#utility.yul\":600:601   */\n      0x00\n        /* \"#utility.yul\":593:608   */\n      revert\n        /* \"#utility.yul\":620:995   */\n    tag_21:\n        /* \"#utility.yul\":659:662   */\n      0x00\n        /* \"#utility.yul\":678:697   */\n      tag_36\n        /* \"#utility.yul\":695:696   */\n      dup3\n        /* \"#utility.yul\":678:697   */\n      tag_25\n      jump\t// in\n    tag_36:\n        /* \"#utility.yul\":673:697   */\n      swap2\n      pop\n        /* \"#utility.yul\":711:730   */\n      tag_37\n        /* \"#utility.yul\":728:729   */\n      dup4\n        /* \"#utility.yul\":711:730   */\n      tag_25\n      jump\t// in\n    tag_37:\n        /* \"#utility.yul\":706:730   */\n      swap3\n      pop\n        /* \"#utility.yul\":753:754   */\n      dup3\n        /* \"#utility.yul\":750:751   */\n      dup3\n        /* \"#utility.yul\":746:755   */\n      add\n        /* \"#utility.yul\":739:755   */\n      swap1\n      pop\n        /* \"#utility.yul\":951:952   */\n      dup3\n        /* \"#utility.yul\":946:949   */\n      dup2\n        /* \"#utility.yul\":942:953   */\n      slt\n        /* \"#utility.yul\":935:954   */\n      iszero\n        /* \"#utility.yul\":931:932   */\n      0x00\n        /* \"#utility.yul\":928:929   */\n      dup4\n        /* \"#utility.yul\":924:933   */\n      slt\n        /* \"#utility.yul\":920:955   */\n      and\n        /* \"#utility.yul\":903:904   */\n      dup4\n        /* \"#utility.yul\":898:901   */\n      dup3\n        /* \"#utility.yul\":894:905   */\n      slt\n        /* \"#utility.yul\":889:890   */\n      0x00\n        /* \"#utility.yul\":886:887   */\n      dup5\n        /* \"#utility.yul\":882:891   */\n      slt\n        /* \"#utility.yul\":875:892   */\n      iszero\n        /* \"#utility.yul\":871:906   */\n      and\n        /* \"#utility.yul\":855:965   */\n      or\n        /* \"#utility.yul\":852:988   */\n      iszero\n      tag_38\n      jumpi\n        /* \"#utility.yul\":968:986   */\n      tag_39\n      tag_27\n      jump\t// in\n    tag_39:\n        /* \"#utility.yul\":852:988   */\n    tag_38:\n        /* \"#utility.yul\":620:995   */\n      swap3\n      swap2\n      pop\n      pop\n      jump\t// out\n\n    auxdata: 0xa2646970667358221220bb00ff8e11a32c6442e0ee7bf4c675824dd47a640790eab03db30d1bfb5a8caa64736f6c63430008160033\n}\n",
				"bytecode": {
					"linkReferences": {},
					"object": "608060405234801561000f575f80fd5b505f80819055505f6001819055506101af8061002a5f395ff3fe608060405234801561000f575f80fd5b506004361061004a575f3560e01c80638725f6451461004e578063aecc5a281461006c578063ee010d8814610076578063fe338a9714610094575b5f80fd5b61005661009e565b60405161006391906100f2565b60405180910390f35b6100746100a6565b005b61007e6100bc565b60405161008b91906100f2565b60405180910390f35b61009c6100c5565b005b5f8054905090565b600180546100b49190610138565b600181905550565b5f600154905090565b60015f546100d39190610138565b5f81905550565b5f819050919050565b6100ec816100da565b82525050565b5f6020820190506101055f8301846100e3565b92915050565b7f4e487b71000000000000000000000000000000000000000000000000000000005f52601160045260245ffd5b5f610142826100da565b915061014d836100da565b92508282019050828112155f8312168382125f8412151617156101735761017261010b565b5b9291505056fea2646970667358221220bb00ff8e11a32c6442e0ee7bf4c675824dd47a640790eab03db30d1bfb5a8caa64736f6c63430008160033",
					"opcodes": "PUSH1 0x80 PUSH1 0x40 MSTORE CALLVALUE DUP1 ISZERO PUSH2 0xF JUMPI PUSH0 DUP1 REVERT JUMPDEST POP PUSH0 DUP1 DUP2 SWAP1 SSTORE POP PUSH0 PUSH1 0x1 DUP2 SWAP1 SSTORE POP PUSH2 0x1AF DUP1 PUSH2 0x2A PUSH0 CODECOPY PUSH0 RETURN INVALID PUSH1 0x80 PUSH1 0x40 MSTORE CALLVALUE DUP1 ISZERO PUSH2 0xF JUMPI PUSH0 DUP1 REVERT JUMPDEST POP PUSH1 0x4 CALLDATASIZE LT PUSH2 0x4A JUMPI PUSH0 CALLDATALOAD PUSH1 0xE0 SHR DUP1 PUSH4 0x8725F645 EQ PUSH2 0x4E JUMPI DUP1 PUSH4 0xAECC5A28 EQ PUSH2 0x6C JUMPI DUP1 PUSH4 0xEE010D88 EQ PUSH2 0x76 JUMPI DUP1 PUSH4 0xFE338A97 EQ PUSH2 0x94 JUMPI JUMPDEST PUSH0 DUP1 REVERT JUMPDEST PUSH2 0x56 PUSH2 0x9E JUMP JUMPDEST PUSH1 0x40 MLOAD PUSH2 0x63 SWAP2 SWAP1 PUSH2 0xF2 JUMP JUMPDEST PUSH1 0x40 MLOAD DUP1 SWAP2 SUB SWAP1 RETURN JUMPDEST PUSH2 0x74 PUSH2 0xA6 JUMP JUMPDEST STOP JUMPDEST PUSH2 0x7E PUSH2 0xBC JUMP JUMPDEST PUSH1 0x40 MLOAD PUSH2 0x8B SWAP2 SWAP1 PUSH2 0xF2 JUMP JUMPDEST PUSH1 0x40 MLOAD DUP1 SWAP2 SUB SWAP1 RETURN JUMPDEST PUSH2 0x9C PUSH2 0xC5 JUMP JUMPDEST STOP JUMPDEST PUSH0 DUP1 SLOAD SWAP1 POP SWAP1 JUMP JUMPDEST PUSH1 0x1 DUP1 SLOAD PUSH2 0xB4 SWAP2 SWAP1 PUSH2 0x138 JUMP JUMPDEST PUSH1 0x1 DUP2 SWAP1 SSTORE POP JUMP JUMPDEST PUSH0 PUSH1 0x1 SLOAD SWAP1 POP SWAP1 JUMP JUMPDEST PUSH1 0x1 PUSH0 SLOAD PUSH2 0xD3 SWAP2 SWAP1 PUSH2 0x138 JUMP JUMPDEST PUSH0 DUP2 SWAP1 SSTORE POP JUMP JUMPDEST PUSH0 DUP2 SWAP1 POP SWAP2 SWAP1 POP JUMP JUMPDEST PUSH2 0xEC DUP2 PUSH2 0xDA JUMP JUMPDEST DUP3 MSTORE POP POP JUMP JUMPDEST PUSH0 PUSH1 0x20 DUP3 ADD SWAP1 POP PUSH2 0x105 PUSH0 DUP4 ADD DUP5 PUSH2 0xE3 JUMP JUMPDEST SWAP3 SWAP2 POP POP JUMP JUMPDEST PUSH32 0x4E487B7100000000000000000000000000000000000000000000000000000000 PUSH0 MSTORE PUSH1 0x11 PUSH1 0x4 MSTORE PUSH1 0x24 PUSH0 REVERT JUMPDEST PUSH0 PUSH2 0x142 DUP3 PUSH2 0xDA JUMP JUMPDEST SWAP2 POP PUSH2 0x14D DUP4 PUSH2 0xDA JUMP JUMPDEST SWAP3 POP DUP3 DUP3 ADD SWAP1 POP DUP3 DUP2 SLT ISZERO PUSH0 DUP4 SLT AND DUP4 DUP3 SLT PUSH0 DUP5 SLT ISZERO AND OR ISZERO PUSH2 0x173 JUMPI PUSH2 0x172 PUSH2 0x10B JUMP JUMPDEST JUMPDEST SWAP3 SWAP2 POP POP JUMP INVALID LOG2 PUSH5 0x6970667358 0x22 SLT KECCAK256 0xBB STOP SELFDESTRUCT DUP15 GT LOG3 0x2C PUSH5 0x42E0EE7BF4 0xC6 PUSH22 0x824DD47A640790EAB03DB30D1BFB5A8CAA64736F6C63 NUMBER STOP ADDMOD AND STOP CALLER "
				},
				"gasEstimates": {
					"creation": {
						"codeDepositCost": "86200",
						"executionCost": "10159",
						"totalCost": "96359"
					},
					"external": {
						"getTotalVotesAlpha()": "2410",
						"getTotalVotesBeta()": "2454",
						"voteAlpha()": "infinite",
						"voteBeta()": "infinite"
					}
				},
				"methodIdentifiers": {
					"getTotalVotesAlpha()": "8725f645",
					"getTotalVotesBeta()": "ee010d88",
					"voteAlpha()": "fe338a97",
					"voteBeta()": "aecc5a28"
				}
			},
			"storageLayout": {
				"storage": [
					{
						"astId": 3,
						"contract": "contracts/voting1.sol:Voting",
						"label": "alpha",
						"offset": 0,
						"slot": "0",
						"type": "t_int256"
					},
					{
						"astId": 5,
						"contract": "contracts/voting1.sol:Voting",
						"label": "beta",
						"offset": 0,
						"slot": "1",
						"type": "t_int256"
					}
				],
				"types": {
					"t_int256": {
						"encoding": "inplace",
						"label": "int256",
						"numberOfBytes": "32"
					}
				}
			},
			"userdoc": {
				"kind": "user",
				"methods": {},
				"version": 1
			}
		}
	}
}