{
	"contracts/Twitter.sol": {
		"Twitter2": {
			"abi": [
				{
					"inputs": [],
					"stateMutability": "nonpayable",
					"type": "constructor"
				},
				{
					"anonymous": false,
					"inputs": [
						{
							"indexed": false,
							"internalType": "uint256",
							"name": "id",
							"type": "uint256"
						},
						{
							"indexed": false,
							"internalType": "address",
							"name": "author",
							"type": "address"
						},
						{
							"indexed": false,
							"internalType": "string",
							"name": "content",
							"type": "string"
						},
						{
							"indexed": false,
							"internalType": "uint256",
							"name": "timestamp",
							"type": "uint256"
						}
					],
					"name": "TweetCreated",
					"type": "event"
				},
				{
					"anonymous": false,
					"inputs": [
						{
							"indexed": false,
							"internalType": "address",
							"name": "liker",
							"type": "address"
						},
						{
							"indexed": false,
							"internalType": "address",
							"name": "tweetAuthoer",
							"type": "address"
						},
						{
							"indexed": false,
							"internalType": "uint256",
							"name": "tweetid",
							"type": "uint256"
						},
						{
							"indexed": false,
							"internalType": "uint256",
							"name": "newLikeCount",
							"type": "uint256"
						}
					],
					"name": "TweetLiked",
					"type": "event"
				},
				{
					"anonymous": false,
					"inputs": [
						{
							"indexed": false,
							"internalType": "address",
							"name": "unliker",
							"type": "address"
						},
						{
							"indexed": false,
							"internalType": "address",
							"name": "tweetAuthoer",
							"type": "address"
						},
						{
							"indexed": false,
							"internalType": "uint256",
							"name": "tweetid",
							"type": "uint256"
						},
						{
							"indexed": false,
							"internalType": "uint256",
							"name": "newLikeCount",
							"type": "uint256"
						}
					],
					"name": "TweetUnLiked",
					"type": "event"
				},
				{
					"inputs": [],
					"name": "MAX_TWEET_Length",
					"outputs": [
						{
							"internalType": "uint16",
							"name": "",
							"type": "uint16"
						}
					],
					"stateMutability": "view",
					"type": "function"
				},
				{
					"inputs": [
						{
							"internalType": "uint16",
							"name": "newTweetLength",
							"type": "uint16"
						}
					],
					"name": "changeTweetLength",
					"outputs": [],
					"stateMutability": "nonpayable",
					"type": "function"
				},
				{
					"inputs": [
						{
							"internalType": "string",
							"name": "_tweet",
							"type": "string"
						}
					],
					"name": "createTweet",
					"outputs": [],
					"stateMutability": "nonpayable",
					"type": "function"
				},
				{
					"inputs": [
						{
							"internalType": "uint256",
							"name": "_i",
							"type": "uint256"
						}
					],
					"name": "getTweet",
					"outputs": [
						{
							"components": [
								{
									"internalType": "uint256",
									"name": "id",
									"type": "uint256"
								},
								{
									"internalType": "address",
									"name": "author",
									"type": "address"
								},
								{
									"internalType": "string",
									"name": "content",
									"type": "string"
								},
								{
									"internalType": "uint256",
									"name": "timestamp",
									"type": "uint256"
								},
								{
									"internalType": "uint256",
									"name": "likes",
									"type": "uint256"
								}
							],
							"internalType": "struct Twitter2.Tweet",
							"name": "",
							"type": "tuple"
						}
					],
					"stateMutability": "view",
					"type": "function"
				},
				{
					"inputs": [
						{
							"internalType": "address",
							"name": "_owner",
							"type": "address"
						}
					],
					"name": "getalltweets",
					"outputs": [
						{
							"components": [
								{
									"internalType": "uint256",
									"name": "id",
									"type": "uint256"
								},
								{
									"internalType": "address",
									"name": "author",
									"type": "address"
								},
								{
									"internalType": "string",
									"name": "content",
									"type": "string"
								},
								{
									"internalType": "uint256",
									"name": "timestamp",
									"type": "uint256"
								},
								{
									"internalType": "uint256",
									"name": "likes",
									"type": "uint256"
								}
							],
							"internalType": "struct Twitter2.Tweet[]",
							"name": "",
							"type": "tuple[]"
						}
					],
					"stateMutability": "view",
					"type": "function"
				},
				{
					"inputs": [
						{
							"internalType": "address",
							"name": "author",
							"type": "address"
						},
						{
							"internalType": "uint256",
							"name": "id",
							"type": "uint256"
						}
					],
					"name": "likeTweet",
					"outputs": [],
					"stateMutability": "nonpayable",
					"type": "function"
				},
				{
					"inputs": [],
					"name": "owner",
					"outputs": [
						{
							"internalType": "address",
							"name": "",
							"type": "address"
						}
					],
					"stateMutability": "view",
					"type": "function"
				},
				{
					"inputs": [
						{
							"internalType": "address",
							"name": "",
							"type": "address"
						},
						{
							"internalType": "uint256",
							"name": "",
							"type": "uint256"
						}
					],
					"name": "tweets",
					"outputs": [
						{
							"internalType": "uint256",
							"name": "id",
							"type": "uint256"
						},
						{
							"internalType": "address",
							"name": "author",
							"type": "address"
						},
						{
							"internalType": "string",
							"name": "content",
							"type": "string"
						},
						{
							"internalType": "uint256",
							"name": "timestamp",
							"type": "uint256"
						},
						{
							"internalType": "uint256",
							"name": "likes",
							"type": "uint256"
						}
					],
					"stateMutability": "view",
					"type": "function"
				},
				{
					"inputs": [
						{
							"internalType": "address",
							"name": "author",
							"type": "address"
						},
						{
							"internalType": "uint256",
							"name": "id",
							"type": "uint256"
						}
					],
					"name": "unlikeTweet",
					"outputs": [],
					"stateMutability": "nonpayable",
					"type": "function"
				}
			],
			"devdoc": {
				"kind": "dev",
				"methods": {},
				"version": 1
			},
			"evm": {
				"assembly": "    /* \"contracts/Twitter.sol\":71:3023  contract Twitter2 {... */\n  mstore(0x40, 0x80)\n    /* \"contracts/Twitter.sol\":132:135  280 */\n  0x0118\n    /* \"contracts/Twitter.sol\":98:135  uint16 public  MAX_TWEET_Length = 280 */\n  0x00\n  dup1\n  0x0100\n  exp\n  dup2\n  sload\n  dup2\n  0xffff\n  mul\n  not\n  and\n  swap1\n  dup4\n  0xffff\n  and\n  mul\n  or\n  swap1\n  sstore\n  pop\n    /* \"contracts/Twitter.sol\":805:862  constructor()... */\n  callvalue\n  dup1\n  iszero\n  tag_1\n  jumpi\n  0x00\n  dup1\n  revert\ntag_1:\n  pop\n    /* \"contracts/Twitter.sol\":844:854  msg.sender */\n  caller\n    /* \"contracts/Twitter.sol\":835:840  owner */\n  0x02\n  0x00\n    /* \"contracts/Twitter.sol\":835:854  owner  = msg.sender */\n  0x0100\n  exp\n  dup2\n  sload\n  dup2\n  0xffffffffffffffffffffffffffffffffffffffff\n  mul\n  not\n  and\n  swap1\n  dup4\n  0xffffffffffffffffffffffffffffffffffffffff\n  and\n  mul\n  or\n  swap1\n  sstore\n  pop\n    /* \"contracts/Twitter.sol\":71:3023  contract Twitter2 {... */\n  dataSize(sub_0)\n  dup1\n  dataOffset(sub_0)\n  0x00\n  codecopy\n  0x00\n  return\nstop\n\nsub_0: assembly {\n        /* \"contracts/Twitter.sol\":71:3023  contract Twitter2 {... */\n      mstore(0x40, 0x80)\n      callvalue\n      dup1\n      iszero\n      tag_1\n      jumpi\n      0x00\n      dup1\n      revert\n    tag_1:\n      pop\n      jumpi(tag_2, lt(calldatasize, 0x04))\n      shr(0xe0, calldataload(0x00))\n      dup1\n      0x58bfa4ab\n      gt\n      tag_12\n      jumpi\n      dup1\n      0x58bfa4ab\n      eq\n      tag_7\n      jumpi\n      dup1\n      0x63378216\n      eq\n      tag_8\n      jumpi\n      dup1\n      0x7c9cd2bc\n      eq\n      tag_9\n      jumpi\n      dup1\n      0x8da5cb5b\n      eq\n      tag_10\n      jumpi\n      dup1\n      0xc3ad5ecb\n      eq\n      tag_11\n      jumpi\n      jump(tag_2)\n    tag_12:\n      dup1\n      0x05a1b4a9\n      eq\n      tag_3\n      jumpi\n      dup1\n      0x0a50bfb3\n      eq\n      tag_4\n      jumpi\n      dup1\n      0x28bb2285\n      eq\n      tag_5\n      jumpi\n      dup1\n      0x3d9b569f\n      eq\n      tag_6\n      jumpi\n    tag_2:\n      0x00\n      dup1\n      revert\n        /* \"contracts/Twitter.sol\":360:403  mapping (address => Tweet[] ) public tweets */\n    tag_3:\n      tag_13\n      0x04\n      dup1\n      calldatasize\n      sub\n      dup2\n      add\n      swap1\n      tag_14\n      swap2\n      swap1\n      tag_15\n      jump\t// in\n    tag_14:\n      tag_16\n      jump\t// in\n    tag_13:\n      mload(0x40)\n      tag_17\n      swap6\n      swap5\n      swap4\n      swap3\n      swap2\n      swap1\n      tag_18\n      jump\t// in\n    tag_17:\n      mload(0x40)\n      dup1\n      swap2\n      sub\n      swap1\n      return\n        /* \"contracts/Twitter.sol\":98:135  uint16 public  MAX_TWEET_Length = 280 */\n    tag_4:\n      tag_19\n      tag_20\n      jump\t// in\n    tag_19:\n      mload(0x40)\n      tag_21\n      swap2\n      swap1\n      tag_22\n      jump\t// in\n    tag_21:\n      mload(0x40)\n      dup1\n      swap2\n      sub\n      swap1\n      return\n        /* \"contracts/Twitter.sol\":2878:3010  function getalltweets(address _owner) public view returns (Tweet[] memory)... */\n    tag_5:\n      tag_23\n      0x04\n      dup1\n      calldatasize\n      sub\n      dup2\n      add\n      swap1\n      tag_24\n      swap2\n      swap1\n      tag_25\n      jump\t// in\n    tag_24:\n      tag_26\n      jump\t// in\n    tag_23:\n      mload(0x40)\n      tag_27\n      swap2\n      swap1\n      tag_28\n      jump\t// in\n    tag_27:\n      mload(0x40)\n      dup1\n      swap2\n      sub\n      swap1\n      return\n        /* \"contracts/Twitter.sol\":2312:2661  function unlikeTweet(address author,uint256 id) external ... */\n    tag_6:\n      tag_29\n      0x04\n      dup1\n      calldatasize\n      sub\n      dup2\n      add\n      swap1\n      tag_30\n      swap2\n      swap1\n      tag_15\n      jump\t// in\n    tag_30:\n      tag_31\n      jump\t// in\n    tag_29:\n      stop\n        /* \"contracts/Twitter.sol\":1054:1172  function changeTweetLength(uint16 newTweetLength) public onlyOwner{... */\n    tag_7:\n      tag_32\n      0x04\n      dup1\n      calldatasize\n      sub\n      dup2\n      add\n      swap1\n      tag_33\n      swap2\n      swap1\n      tag_34\n      jump\t// in\n    tag_33:\n      tag_35\n      jump\t// in\n    tag_32:\n      stop\n        /* \"contracts/Twitter.sol\":1981:2269  function likeTweet(address author, uint256 id) external ... */\n    tag_8:\n      tag_36\n      0x04\n      dup1\n      calldatasize\n      sub\n      dup2\n      add\n      swap1\n      tag_37\n      swap2\n      swap1\n      tag_15\n      jump\t// in\n    tag_37:\n      tag_38\n      jump\t// in\n    tag_36:\n      stop\n        /* \"contracts/Twitter.sol\":1192:1822  function createTweet(string memory _tweet) public {... */\n    tag_9:\n      tag_39\n      0x04\n      dup1\n      calldatasize\n      sub\n      dup2\n      add\n      swap1\n      tag_40\n      swap2\n      swap1\n      tag_41\n      jump\t// in\n    tag_40:\n      tag_42\n      jump\t// in\n    tag_39:\n      stop\n        /* \"contracts/Twitter.sol\":412:432  address public owner */\n    tag_10:\n      tag_43\n      tag_44\n      jump\t// in\n    tag_43:\n      mload(0x40)\n      tag_45\n      swap2\n      swap1\n      tag_46\n      jump\t// in\n    tag_45:\n      mload(0x40)\n      dup1\n      swap2\n      sub\n      swap1\n      return\n        /* \"contracts/Twitter.sol\":2706:2825  function getTweet(uint _i) public view returns (Tweet memory){... */\n    tag_11:\n      tag_47\n      0x04\n      dup1\n      calldatasize\n      sub\n      dup2\n      add\n      swap1\n      tag_48\n      swap2\n      swap1\n      tag_49\n      jump\t// in\n    tag_48:\n      tag_50\n      jump\t// in\n    tag_47:\n      mload(0x40)\n      tag_51\n      swap2\n      swap1\n      tag_52\n      jump\t// in\n    tag_51:\n      mload(0x40)\n      dup1\n      swap2\n      sub\n      swap1\n      return\n        /* \"contracts/Twitter.sol\":360:403  mapping (address => Tweet[] ) public tweets */\n    tag_16:\n      mstore(0x20, 0x01)\n      dup2\n      0x00\n      mstore\n      keccak256(0x00, 0x40)\n      dup2\n      dup2\n      sload\n      dup2\n      lt\n      tag_53\n      jumpi\n      0x00\n      dup1\n      revert\n    tag_53:\n      swap1\n      0x00\n      mstore\n      keccak256(0x00, 0x20)\n      swap1\n      0x05\n      mul\n      add\n      0x00\n      swap2\n      pop\n      swap2\n      pop\n      pop\n      dup1\n      0x00\n      add\n      sload\n      swap1\n      dup1\n      0x01\n      add\n      0x00\n      swap1\n      sload\n      swap1\n      0x0100\n      exp\n      swap1\n      div\n      0xffffffffffffffffffffffffffffffffffffffff\n      and\n      swap1\n      dup1\n      0x02\n      add\n      dup1\n      sload\n      tag_55\n      swap1\n      tag_56\n      jump\t// in\n    tag_55:\n      dup1\n      0x1f\n      add\n      0x20\n      dup1\n      swap2\n      div\n      mul\n      0x20\n      add\n      mload(0x40)\n      swap1\n      dup2\n      add\n      0x40\n      mstore\n      dup1\n      swap3\n      swap2\n      swap1\n      dup2\n      dup2\n      mstore\n      0x20\n      add\n      dup3\n      dup1\n      sload\n      tag_57\n      swap1\n      tag_56\n      jump\t// in\n    tag_57:\n      dup1\n      iszero\n      tag_58\n      jumpi\n      dup1\n      0x1f\n      lt\n      tag_59\n      jumpi\n      0x0100\n      dup1\n      dup4\n      sload\n      div\n      mul\n      dup4\n      mstore\n      swap2\n      0x20\n      add\n      swap2\n      jump(tag_58)\n    tag_59:\n      dup3\n      add\n      swap2\n      swap1\n      0x00\n      mstore\n      keccak256(0x00, 0x20)\n      swap1\n    tag_60:\n      dup2\n      sload\n      dup2\n      mstore\n      swap1\n      0x01\n      add\n      swap1\n      0x20\n      add\n      dup1\n      dup4\n      gt\n      tag_60\n      jumpi\n      dup3\n      swap1\n      sub\n      0x1f\n      and\n      dup3\n      add\n      swap2\n    tag_58:\n      pop\n      pop\n      pop\n      pop\n      pop\n      swap1\n      dup1\n      0x03\n      add\n      sload\n      swap1\n      dup1\n      0x04\n      add\n      sload\n      swap1\n      pop\n      dup6\n      jump\t// out\n        /* \"contracts/Twitter.sol\":98:135  uint16 public  MAX_TWEET_Length = 280 */\n    tag_20:\n      0x00\n      dup1\n      sload\n      swap1\n      0x0100\n      exp\n      swap1\n      div\n      0xffff\n      and\n      dup2\n      jump\t// out\n        /* \"contracts/Twitter.sol\":2878:3010  function getalltweets(address _owner) public view returns (Tweet[] memory)... */\n    tag_26:\n        /* \"contracts/Twitter.sol\":2937:2951  Tweet[] memory */\n      0x60\n        /* \"contracts/Twitter.sol\":2984:2990  tweets */\n      0x01\n        /* \"contracts/Twitter.sol\":2984:2998  tweets[_owner] */\n      0x00\n        /* \"contracts/Twitter.sol\":2991:2997  _owner */\n      dup4\n        /* \"contracts/Twitter.sol\":2984:2998  tweets[_owner] */\n      0xffffffffffffffffffffffffffffffffffffffff\n      and\n      0xffffffffffffffffffffffffffffffffffffffff\n      and\n      dup2\n      mstore\n      0x20\n      add\n      swap1\n      dup2\n      mstore\n      0x20\n      add\n      0x00\n      keccak256\n        /* \"contracts/Twitter.sol\":2977:2998  return tweets[_owner] */\n      dup1\n      sload\n      dup1\n      0x20\n      mul\n      0x20\n      add\n      mload(0x40)\n      swap1\n      dup2\n      add\n      0x40\n      mstore\n      dup1\n      swap3\n      swap2\n      swap1\n      dup2\n      dup2\n      mstore\n      0x20\n      add\n      0x00\n      swap1\n    tag_62:\n      dup3\n      dup3\n      lt\n      iszero\n      tag_63\n      jumpi\n      dup4\n      dup3\n      swap1\n      0x00\n      mstore\n      keccak256(0x00, 0x20)\n      swap1\n      0x05\n      mul\n      add\n      mload(0x40)\n      dup1\n      0xa0\n      add\n      0x40\n      mstore\n      swap1\n      dup2\n      0x00\n      dup3\n      add\n      sload\n      dup2\n      mstore\n      0x20\n      add\n      0x01\n      dup3\n      add\n      0x00\n      swap1\n      sload\n      swap1\n      0x0100\n      exp\n      swap1\n      div\n      0xffffffffffffffffffffffffffffffffffffffff\n      and\n      0xffffffffffffffffffffffffffffffffffffffff\n      and\n      0xffffffffffffffffffffffffffffffffffffffff\n      and\n      dup2\n      mstore\n      0x20\n      add\n      0x02\n      dup3\n      add\n      dup1\n      sload\n      tag_65\n      swap1\n      tag_56\n      jump\t// in\n    tag_65:\n      dup1\n      0x1f\n      add\n      0x20\n      dup1\n      swap2\n      div\n      mul\n      0x20\n      add\n      mload(0x40)\n      swap1\n      dup2\n      add\n      0x40\n      mstore\n      dup1\n      swap3\n      swap2\n      swap1\n      dup2\n      dup2\n      mstore\n      0x20\n      add\n      dup3\n      dup1\n      sload\n      tag_66\n      swap1\n      tag_56\n      jump\t// in\n    tag_66:\n      dup1\n      iszero\n      tag_67\n      jumpi\n      dup1\n      0x1f\n      lt\n      tag_68\n      jumpi\n      0x0100\n      dup1\n      dup4\n      sload\n      div\n      mul\n      dup4\n      mstore\n      swap2\n      0x20\n      add\n      swap2\n      jump(tag_67)\n    tag_68:\n      dup3\n      add\n      swap2\n      swap1\n      0x00\n      mstore\n      keccak256(0x00, 0x20)\n      swap1\n    tag_69:\n      dup2\n      sload\n      dup2\n      mstore\n      swap1\n      0x01\n      add\n      swap1\n      0x20\n      add\n      dup1\n      dup4\n      gt\n      tag_69\n      jumpi\n      dup3\n      swap1\n      sub\n      0x1f\n      and\n      dup3\n      add\n      swap2\n    tag_67:\n      pop\n      pop\n      pop\n      pop\n      pop\n      dup2\n      mstore\n      0x20\n      add\n      0x03\n      dup3\n      add\n      sload\n      dup2\n      mstore\n      0x20\n      add\n      0x04\n      dup3\n      add\n      sload\n      dup2\n      mstore\n      pop\n      pop\n      dup2\n      mstore\n      0x20\n      add\n      swap1\n      0x01\n      add\n      swap1\n      jump(tag_62)\n    tag_63:\n      pop\n      pop\n      pop\n      pop\n      swap1\n      pop\n        /* \"contracts/Twitter.sol\":2878:3010  function getalltweets(address _owner) public view returns (Tweet[] memory)... */\n      swap2\n      swap1\n      pop\n      jump\t// out\n        /* \"contracts/Twitter.sol\":2312:2661  function unlikeTweet(address author,uint256 id) external ... */\n    tag_31:\n        /* \"contracts/Twitter.sol\":2426:2428  id */\n      dup1\n        /* \"contracts/Twitter.sol\":2402:2408  tweets */\n      0x01\n        /* \"contracts/Twitter.sol\":2402:2416  tweets[author] */\n      0x00\n        /* \"contracts/Twitter.sol\":2409:2415  author */\n      dup5\n        /* \"contracts/Twitter.sol\":2402:2416  tweets[author] */\n      0xffffffffffffffffffffffffffffffffffffffff\n      and\n      0xffffffffffffffffffffffffffffffffffffffff\n      and\n      dup2\n      mstore\n      0x20\n      add\n      swap1\n      dup2\n      mstore\n      0x20\n      add\n      0x00\n      keccak256\n        /* \"contracts/Twitter.sol\":2417:2419  id */\n      dup3\n        /* \"contracts/Twitter.sol\":2402:2420  tweets[author][id] */\n      dup2\n      sload\n      dup2\n      lt\n      tag_71\n      jumpi\n      tag_72\n      tag_73\n      jump\t// in\n    tag_72:\n    tag_71:\n      swap1\n      0x00\n      mstore\n      keccak256(0x00, 0x20)\n      swap1\n      0x05\n      mul\n      add\n        /* \"contracts/Twitter.sol\":2402:2423  tweets[author][id].id */\n      0x00\n      add\n      sload\n        /* \"contracts/Twitter.sol\":2402:2428  tweets[author][id].id ==id */\n      eq\n        /* \"contracts/Twitter.sol\":2394:2452  require(tweets[author][id].id ==id,\"Tweet Does not exist\") */\n      tag_75\n      jumpi\n      mload(0x40)\n      0x08c379a000000000000000000000000000000000000000000000000000000000\n      dup2\n      mstore\n      0x04\n      add\n      tag_76\n      swap1\n      tag_77\n      jump\t// in\n    tag_76:\n      mload(0x40)\n      dup1\n      swap2\n      sub\n      swap1\n      revert\n    tag_75:\n        /* \"contracts/Twitter.sol\":2500:2501  0 */\n      0x00\n        /* \"contracts/Twitter.sol\":2475:2481  tweets */\n      0x01\n        /* \"contracts/Twitter.sol\":2475:2489  tweets[author] */\n      0x00\n        /* \"contracts/Twitter.sol\":2482:2488  author */\n      dup5\n        /* \"contracts/Twitter.sol\":2475:2489  tweets[author] */\n      0xffffffffffffffffffffffffffffffffffffffff\n      and\n      0xffffffffffffffffffffffffffffffffffffffff\n      and\n      dup2\n      mstore\n      0x20\n      add\n      swap1\n      dup2\n      mstore\n      0x20\n      add\n      0x00\n      keccak256\n        /* \"contracts/Twitter.sol\":2490:2492  id */\n      dup3\n        /* \"contracts/Twitter.sol\":2475:2493  tweets[author][id] */\n      dup2\n      sload\n      dup2\n      lt\n      tag_78\n      jumpi\n      tag_79\n      tag_73\n      jump\t// in\n    tag_79:\n    tag_78:\n      swap1\n      0x00\n      mstore\n      keccak256(0x00, 0x20)\n      swap1\n      0x05\n      mul\n      add\n        /* \"contracts/Twitter.sol\":2475:2499  tweets[author][id].likes */\n      0x04\n      add\n      sload\n        /* \"contracts/Twitter.sol\":2475:2501  tweets[author][id].likes>0 */\n      gt\n        /* \"contracts/Twitter.sol\":2467:2523  require(tweets[author][id].likes>0,\"tweet has no likes\") */\n      tag_81\n      jumpi\n      mload(0x40)\n      0x08c379a000000000000000000000000000000000000000000000000000000000\n      dup2\n      mstore\n      0x04\n      add\n      tag_82\n      swap1\n      tag_83\n      jump\t// in\n    tag_82:\n      mload(0x40)\n      dup1\n      swap2\n      sub\n      swap1\n      revert\n    tag_81:\n        /* \"contracts/Twitter.sol\":2538:2544  tweets */\n      0x01\n        /* \"contracts/Twitter.sol\":2538:2552  tweets[author] */\n      0x00\n        /* \"contracts/Twitter.sol\":2545:2551  author */\n      dup4\n        /* \"contracts/Twitter.sol\":2538:2552  tweets[author] */\n      0xffffffffffffffffffffffffffffffffffffffff\n      and\n      0xffffffffffffffffffffffffffffffffffffffff\n      and\n      dup2\n      mstore\n      0x20\n      add\n      swap1\n      dup2\n      mstore\n      0x20\n      add\n      0x00\n      keccak256\n        /* \"contracts/Twitter.sol\":2553:2555  id */\n      dup2\n        /* \"contracts/Twitter.sol\":2538:2556  tweets[author][id] */\n      dup2\n      sload\n      dup2\n      lt\n      tag_84\n      jumpi\n      tag_85\n      tag_73\n      jump\t// in\n    tag_85:\n    tag_84:\n      swap1\n      0x00\n      mstore\n      keccak256(0x00, 0x20)\n      swap1\n      0x05\n      mul\n      add\n        /* \"contracts/Twitter.sol\":2538:2562  tweets[author][id].likes */\n      0x04\n      add\n      0x00\n        /* \"contracts/Twitter.sol\":2538:2564  tweets[author][id].likes-- */\n      dup2\n      sload\n      dup1\n      swap3\n      swap2\n      swap1\n      tag_87\n      swap1\n      tag_88\n      jump\t// in\n    tag_87:\n      swap2\n      swap1\n      pop\n      sstore\n      pop\n        /* \"contracts/Twitter.sol\":2587:2649  TweetUnLiked(msg.sender, author, id, tweets[author][id].likes) */\n      0x273883c252143c4abce776697615e41ca9bc1aac5968c585d1c8ba8ffaa8b3c1\n        /* \"contracts/Twitter.sol\":2600:2610  msg.sender */\n      caller\n        /* \"contracts/Twitter.sol\":2612:2618  author */\n      dup4\n        /* \"contracts/Twitter.sol\":2620:2622  id */\n      dup4\n        /* \"contracts/Twitter.sol\":2624:2630  tweets */\n      0x01\n        /* \"contracts/Twitter.sol\":2624:2638  tweets[author] */\n      0x00\n        /* \"contracts/Twitter.sol\":2631:2637  author */\n      dup8\n        /* \"contracts/Twitter.sol\":2624:2638  tweets[author] */\n      0xffffffffffffffffffffffffffffffffffffffff\n      and\n      0xffffffffffffffffffffffffffffffffffffffff\n      and\n      dup2\n      mstore\n      0x20\n      add\n      swap1\n      dup2\n      mstore\n      0x20\n      add\n      0x00\n      keccak256\n        /* \"contracts/Twitter.sol\":2639:2641  id */\n      dup6\n        /* \"contracts/Twitter.sol\":2624:2642  tweets[author][id] */\n      dup2\n      sload\n      dup2\n      lt\n      tag_89\n      jumpi\n      tag_90\n      tag_73\n      jump\t// in\n    tag_90:\n    tag_89:\n      swap1\n      0x00\n      mstore\n      keccak256(0x00, 0x20)\n      swap1\n      0x05\n      mul\n      add\n        /* \"contracts/Twitter.sol\":2624:2648  tweets[author][id].likes */\n      0x04\n      add\n      sload\n        /* \"contracts/Twitter.sol\":2587:2649  TweetUnLiked(msg.sender, author, id, tweets[author][id].likes) */\n      mload(0x40)\n      tag_92\n      swap5\n      swap4\n      swap3\n      swap2\n      swap1\n      tag_93\n      jump\t// in\n    tag_92:\n      mload(0x40)\n      dup1\n      swap2\n      sub\n      swap1\n      log1\n        /* \"contracts/Twitter.sol\":2312:2661  function unlikeTweet(address author,uint256 id) external ... */\n      pop\n      pop\n      jump\t// out\n        /* \"contracts/Twitter.sol\":1054:1172  function changeTweetLength(uint16 newTweetLength) public onlyOwner{... */\n    tag_35:\n        /* \"contracts/Twitter.sol\":943:948  owner */\n      0x02\n      0x00\n      swap1\n      sload\n      swap1\n      0x0100\n      exp\n      swap1\n      div\n      0xffffffffffffffffffffffffffffffffffffffff\n      and\n        /* \"contracts/Twitter.sol\":930:948  msg.sender ==owner */\n      0xffffffffffffffffffffffffffffffffffffffff\n      and\n        /* \"contracts/Twitter.sol\":930:940  msg.sender */\n      caller\n        /* \"contracts/Twitter.sol\":930:948  msg.sender ==owner */\n      0xffffffffffffffffffffffffffffffffffffffff\n      and\n      eq\n        /* \"contracts/Twitter.sol\":922:973  require(msg.sender ==owner,\"YOU ARE NOT THE OWNER\") */\n      tag_95\n      jumpi\n      mload(0x40)\n      0x08c379a000000000000000000000000000000000000000000000000000000000\n      dup2\n      mstore\n      0x04\n      add\n      tag_96\n      swap1\n      tag_97\n      jump\t// in\n    tag_96:\n      mload(0x40)\n      dup1\n      swap2\n      sub\n      swap1\n      revert\n    tag_95:\n        /* \"contracts/Twitter.sol\":1150:1164  newTweetLength */\n      dup1\n        /* \"contracts/Twitter.sol\":1131:1147  MAX_TWEET_Length */\n      0x00\n      dup1\n        /* \"contracts/Twitter.sol\":1131:1164  MAX_TWEET_Length = newTweetLength */\n      0x0100\n      exp\n      dup2\n      sload\n      dup2\n      0xffff\n      mul\n      not\n      and\n      swap1\n      dup4\n      0xffff\n      and\n      mul\n      or\n      swap1\n      sstore\n      pop\n        /* \"contracts/Twitter.sol\":1054:1172  function changeTweetLength(uint16 newTweetLength) public onlyOwner{... */\n      pop\n      jump\t// out\n        /* \"contracts/Twitter.sol\":1981:2269  function likeTweet(address author, uint256 id) external ... */\n    tag_38:\n        /* \"contracts/Twitter.sol\":2094:2096  id */\n      dup1\n        /* \"contracts/Twitter.sol\":2070:2076  tweets */\n      0x01\n        /* \"contracts/Twitter.sol\":2070:2084  tweets[author] */\n      0x00\n        /* \"contracts/Twitter.sol\":2077:2083  author */\n      dup5\n        /* \"contracts/Twitter.sol\":2070:2084  tweets[author] */\n      0xffffffffffffffffffffffffffffffffffffffff\n      and\n      0xffffffffffffffffffffffffffffffffffffffff\n      and\n      dup2\n      mstore\n      0x20\n      add\n      swap1\n      dup2\n      mstore\n      0x20\n      add\n      0x00\n      keccak256\n        /* \"contracts/Twitter.sol\":2085:2087  id */\n      dup3\n        /* \"contracts/Twitter.sol\":2070:2088  tweets[author][id] */\n      dup2\n      sload\n      dup2\n      lt\n      tag_100\n      jumpi\n      tag_101\n      tag_73\n      jump\t// in\n    tag_101:\n    tag_100:\n      swap1\n      0x00\n      mstore\n      keccak256(0x00, 0x20)\n      swap1\n      0x05\n      mul\n      add\n        /* \"contracts/Twitter.sol\":2070:2091  tweets[author][id].id */\n      0x00\n      add\n      sload\n        /* \"contracts/Twitter.sol\":2070:2096  tweets[author][id].id ==id */\n      eq\n        /* \"contracts/Twitter.sol\":2062:2120  require(tweets[author][id].id ==id,\"Tweet Does not exist\") */\n      tag_103\n      jumpi\n      mload(0x40)\n      0x08c379a000000000000000000000000000000000000000000000000000000000\n      dup2\n      mstore\n      0x04\n      add\n      tag_104\n      swap1\n      tag_77\n      jump\t// in\n    tag_104:\n      mload(0x40)\n      dup1\n      swap2\n      sub\n      swap1\n      revert\n    tag_103:\n        /* \"contracts/Twitter.sol\":2135:2141  tweets */\n      0x01\n        /* \"contracts/Twitter.sol\":2135:2149  tweets[author] */\n      0x00\n        /* \"contracts/Twitter.sol\":2142:2148  author */\n      dup4\n        /* \"contracts/Twitter.sol\":2135:2149  tweets[author] */\n      0xffffffffffffffffffffffffffffffffffffffff\n      and\n      0xffffffffffffffffffffffffffffffffffffffff\n      and\n      dup2\n      mstore\n      0x20\n      add\n      swap1\n      dup2\n      mstore\n      0x20\n      add\n      0x00\n      keccak256\n        /* \"contracts/Twitter.sol\":2150:2152  id */\n      dup2\n        /* \"contracts/Twitter.sol\":2135:2153  tweets[author][id] */\n      dup2\n      sload\n      dup2\n      lt\n      tag_105\n      jumpi\n      tag_106\n      tag_73\n      jump\t// in\n    tag_106:\n    tag_105:\n      swap1\n      0x00\n      mstore\n      keccak256(0x00, 0x20)\n      swap1\n      0x05\n      mul\n      add\n        /* \"contracts/Twitter.sol\":2135:2159  tweets[author][id].likes */\n      0x04\n      add\n      0x00\n        /* \"contracts/Twitter.sol\":2135:2161  tweets[author][id].likes++ */\n      dup2\n      sload\n      dup1\n      swap3\n      swap2\n      swap1\n      tag_108\n      swap1\n      tag_109\n      jump\t// in\n    tag_108:\n      swap2\n      swap1\n      pop\n      sstore\n      pop\n        /* \"contracts/Twitter.sol\":2183:2243  TweetLiked(msg.sender, author, id, tweets[author][id].likes) */\n      0xe8a76fc0f16d11a00d1e93b689b63d76cf60af914dd3d915375dc41d01a0c3c8\n        /* \"contracts/Twitter.sol\":2194:2204  msg.sender */\n      caller\n        /* \"contracts/Twitter.sol\":2206:2212  author */\n      dup4\n        /* \"contracts/Twitter.sol\":2214:2216  id */\n      dup4\n        /* \"contracts/Twitter.sol\":2218:2224  tweets */\n      0x01\n        /* \"contracts/Twitter.sol\":2218:2232  tweets[author] */\n      0x00\n        /* \"contracts/Twitter.sol\":2225:2231  author */\n      dup8\n        /* \"contracts/Twitter.sol\":2218:2232  tweets[author] */\n      0xffffffffffffffffffffffffffffffffffffffff\n      and\n      0xffffffffffffffffffffffffffffffffffffffff\n      and\n      dup2\n      mstore\n      0x20\n      add\n      swap1\n      dup2\n      mstore\n      0x20\n      add\n      0x00\n      keccak256\n        /* \"contracts/Twitter.sol\":2233:2235  id */\n      dup6\n        /* \"contracts/Twitter.sol\":2218:2236  tweets[author][id] */\n      dup2\n      sload\n      dup2\n      lt\n      tag_110\n      jumpi\n      tag_111\n      tag_73\n      jump\t// in\n    tag_111:\n    tag_110:\n      swap1\n      0x00\n      mstore\n      keccak256(0x00, 0x20)\n      swap1\n      0x05\n      mul\n      add\n        /* \"contracts/Twitter.sol\":2218:2242  tweets[author][id].likes */\n      0x04\n      add\n      sload\n        /* \"contracts/Twitter.sol\":2183:2243  TweetLiked(msg.sender, author, id, tweets[author][id].likes) */\n      mload(0x40)\n      tag_113\n      swap5\n      swap4\n      swap3\n      swap2\n      swap1\n      tag_93\n      jump\t// in\n    tag_113:\n      mload(0x40)\n      dup1\n      swap2\n      sub\n      swap1\n      log1\n        /* \"contracts/Twitter.sol\":1981:2269  function likeTweet(address author, uint256 id) external ... */\n      pop\n      pop\n      jump\t// out\n        /* \"contracts/Twitter.sol\":1192:1822  function createTweet(string memory _tweet) public {... */\n    tag_42:\n        /* \"contracts/Twitter.sol\":1360:1376  MAX_TWEET_Length */\n      0x00\n      dup1\n      sload\n      swap1\n      0x0100\n      exp\n      swap1\n      div\n      0xffff\n      and\n        /* \"contracts/Twitter.sol\":1338:1376  bytes(_tweet).length<=MAX_TWEET_Length */\n      0xffff\n      and\n        /* \"contracts/Twitter.sol\":1344:1350  _tweet */\n      dup2\n        /* \"contracts/Twitter.sol\":1338:1358  bytes(_tweet).length */\n      mload\n        /* \"contracts/Twitter.sol\":1338:1376  bytes(_tweet).length<=MAX_TWEET_Length */\n      gt\n      iszero\n        /* \"contracts/Twitter.sol\":1330:1397  require(bytes(_tweet).length<=MAX_TWEET_Length,\"Tweet is too Long\") */\n      tag_115\n      jumpi\n      mload(0x40)\n      0x08c379a000000000000000000000000000000000000000000000000000000000\n      dup2\n      mstore\n      0x04\n      add\n      tag_116\n      swap1\n      tag_117\n      jump\t// in\n    tag_116:\n      mload(0x40)\n      dup1\n      swap2\n      sub\n      swap1\n      revert\n    tag_115:\n        /* \"contracts/Twitter.sol\":1414:1435  Tweet memory newTweet */\n      0x00\n        /* \"contracts/Twitter.sol\":1438:1656  Tweet({... */\n      mload(0x40)\n      dup1\n      0xa0\n      add\n      0x40\n      mstore\n      dup1\n        /* \"contracts/Twitter.sol\":1466:1472  tweets */\n      0x01\n        /* \"contracts/Twitter.sol\":1466:1484  tweets[msg.sender] */\n      0x00\n        /* \"contracts/Twitter.sol\":1473:1483  msg.sender */\n      caller\n        /* \"contracts/Twitter.sol\":1466:1484  tweets[msg.sender] */\n      0xffffffffffffffffffffffffffffffffffffffff\n      and\n      0xffffffffffffffffffffffffffffffffffffffff\n      and\n      dup2\n      mstore\n      0x20\n      add\n      swap1\n      dup2\n      mstore\n      0x20\n      add\n      0x00\n      keccak256\n        /* \"contracts/Twitter.sol\":1466:1491  tweets[msg.sender].length */\n      dup1\n      sload\n      swap1\n      pop\n        /* \"contracts/Twitter.sol\":1438:1656  Tweet({... */\n      dup2\n      mstore\n      0x20\n      add\n        /* \"contracts/Twitter.sol\":1519:1529  msg.sender */\n      caller\n        /* \"contracts/Twitter.sol\":1438:1656  Tweet({... */\n      0xffffffffffffffffffffffffffffffffffffffff\n      and\n      dup2\n      mstore\n      0x20\n      add\n        /* \"contracts/Twitter.sol\":1558:1564  _tweet */\n      dup4\n        /* \"contracts/Twitter.sol\":1438:1656  Tweet({... */\n      dup2\n      mstore\n      0x20\n      add\n        /* \"contracts/Twitter.sol\":1595:1610  block.timestamp */\n      timestamp\n        /* \"contracts/Twitter.sol\":1438:1656  Tweet({... */\n      dup2\n      mstore\n      0x20\n      add\n        /* \"contracts/Twitter.sol\":1637:1638  0 */\n      0x00\n        /* \"contracts/Twitter.sol\":1438:1656  Tweet({... */\n      dup2\n      mstore\n      pop\n        /* \"contracts/Twitter.sol\":1414:1656  Tweet memory newTweet = Tweet({... */\n      swap1\n      pop\n        /* \"contracts/Twitter.sol\":1675:1681  tweets */\n      0x01\n        /* \"contracts/Twitter.sol\":1675:1693  tweets[msg.sender] */\n      0x00\n        /* \"contracts/Twitter.sol\":1682:1692  msg.sender */\n      caller\n        /* \"contracts/Twitter.sol\":1675:1693  tweets[msg.sender] */\n      0xffffffffffffffffffffffffffffffffffffffff\n      and\n      0xffffffffffffffffffffffffffffffffffffffff\n      and\n      dup2\n      mstore\n      0x20\n      add\n      swap1\n      dup2\n      mstore\n      0x20\n      add\n      0x00\n      keccak256\n        /* \"contracts/Twitter.sol\":1699:1707  newTweet */\n      dup2\n        /* \"contracts/Twitter.sol\":1675:1708  tweets[msg.sender].push(newTweet) */\n      swap1\n      dup1\n      0x01\n      dup2\n      sload\n      add\n      dup1\n      dup3\n      sstore\n      dup1\n      swap2\n      pop\n      pop\n      0x01\n      swap1\n      sub\n      swap1\n      0x00\n      mstore\n      keccak256(0x00, 0x20)\n      swap1\n      0x05\n      mul\n      add\n      0x00\n      swap1\n      swap2\n      swap1\n      swap2\n      swap1\n      swap2\n      pop\n      0x00\n      dup3\n      add\n      mload\n      dup2\n      0x00\n      add\n      sstore\n      0x20\n      dup3\n      add\n      mload\n      dup2\n      0x01\n      add\n      exp(0x0100, 0x00)\n      dup2\n      sload\n      dup2\n      0xffffffffffffffffffffffffffffffffffffffff\n      mul\n      not\n      and\n      swap1\n      dup4\n      0xffffffffffffffffffffffffffffffffffffffff\n      and\n      mul\n      or\n      swap1\n      sstore\n      pop\n      0x40\n      dup3\n      add\n      mload\n      dup2\n      0x02\n      add\n      swap1\n      dup2\n      tag_119\n      swap2\n      swap1\n      tag_120\n      jump\t// in\n    tag_119:\n      pop\n      0x60\n      dup3\n      add\n      mload\n      dup2\n      0x03\n      add\n      sstore\n      0x80\n      dup3\n      add\n      mload\n      dup2\n      0x04\n      add\n      sstore\n      pop\n      pop\n        /* \"contracts/Twitter.sol\":1730:1810  TweetCreated(newTweet.id, newTweet.author, newTweet.content, newTweet.timestamp) */\n      0x16fd3c13e9d46923e0a8bce11c7b473ec508a72e6c96cd2404b29ce972afc29e\n        /* \"contracts/Twitter.sol\":1743:1751  newTweet */\n      dup2\n        /* \"contracts/Twitter.sol\":1743:1754  newTweet.id */\n      0x00\n      add\n      mload\n        /* \"contracts/Twitter.sol\":1756:1764  newTweet */\n      dup3\n        /* \"contracts/Twitter.sol\":1756:1771  newTweet.author */\n      0x20\n      add\n      mload\n        /* \"contracts/Twitter.sol\":1773:1781  newTweet */\n      dup4\n        /* \"contracts/Twitter.sol\":1773:1789  newTweet.content */\n      0x40\n      add\n      mload\n        /* \"contracts/Twitter.sol\":1791:1799  newTweet */\n      dup5\n        /* \"contracts/Twitter.sol\":1791:1809  newTweet.timestamp */\n      0x60\n      add\n      mload\n        /* \"contracts/Twitter.sol\":1730:1810  TweetCreated(newTweet.id, newTweet.author, newTweet.content, newTweet.timestamp) */\n      mload(0x40)\n      tag_121\n      swap5\n      swap4\n      swap3\n      swap2\n      swap1\n      tag_122\n      jump\t// in\n    tag_121:\n      mload(0x40)\n      dup1\n      swap2\n      sub\n      swap1\n      log1\n        /* \"contracts/Twitter.sol\":1242:1822  {... */\n      pop\n        /* \"contracts/Twitter.sol\":1192:1822  function createTweet(string memory _tweet) public {... */\n      pop\n      jump\t// out\n        /* \"contracts/Twitter.sol\":412:432  address public owner */\n    tag_44:\n      0x02\n      0x00\n      swap1\n      sload\n      swap1\n      0x0100\n      exp\n      swap1\n      div\n      0xffffffffffffffffffffffffffffffffffffffff\n      and\n      dup2\n      jump\t// out\n        /* \"contracts/Twitter.sol\":2706:2825  function getTweet(uint _i) public view returns (Tweet memory){... */\n    tag_50:\n        /* \"contracts/Twitter.sol\":2754:2766  Tweet memory */\n      tag_123\n      tag_124\n      jump\t// in\n    tag_123:\n        /* \"contracts/Twitter.sol\":2789:2795  tweets */\n      0x01\n        /* \"contracts/Twitter.sol\":2789:2807  tweets[msg.sender] */\n      0x00\n        /* \"contracts/Twitter.sol\":2796:2806  msg.sender */\n      caller\n        /* \"contracts/Twitter.sol\":2789:2807  tweets[msg.sender] */\n      0xffffffffffffffffffffffffffffffffffffffff\n      and\n      0xffffffffffffffffffffffffffffffffffffffff\n      and\n      dup2\n      mstore\n      0x20\n      add\n      swap1\n      dup2\n      mstore\n      0x20\n      add\n      0x00\n      keccak256\n        /* \"contracts/Twitter.sol\":2808:2810  _i */\n      dup3\n        /* \"contracts/Twitter.sol\":2789:2811  tweets[msg.sender][_i] */\n      dup2\n      sload\n      dup2\n      lt\n      tag_126\n      jumpi\n      tag_127\n      tag_73\n      jump\t// in\n    tag_127:\n    tag_126:\n      swap1\n      0x00\n      mstore\n      keccak256(0x00, 0x20)\n      swap1\n      0x05\n      mul\n      add\n        /* \"contracts/Twitter.sol\":2782:2811  return tweets[msg.sender][_i] */\n      mload(0x40)\n      dup1\n      0xa0\n      add\n      0x40\n      mstore\n      swap1\n      dup2\n      0x00\n      dup3\n      add\n      sload\n      dup2\n      mstore\n      0x20\n      add\n      0x01\n      dup3\n      add\n      0x00\n      swap1\n      sload\n      swap1\n      0x0100\n      exp\n      swap1\n      div\n      0xffffffffffffffffffffffffffffffffffffffff\n      and\n      0xffffffffffffffffffffffffffffffffffffffff\n      and\n      0xffffffffffffffffffffffffffffffffffffffff\n      and\n      dup2\n      mstore\n      0x20\n      add\n      0x02\n      dup3\n      add\n      dup1\n      sload\n      tag_129\n      swap1\n      tag_56\n      jump\t// in\n    tag_129:\n      dup1\n      0x1f\n      add\n      0x20\n      dup1\n      swap2\n      div\n      mul\n      0x20\n      add\n      mload(0x40)\n      swap1\n      dup2\n      add\n      0x40\n      mstore\n      dup1\n      swap3\n      swap2\n      swap1\n      dup2\n      dup2\n      mstore\n      0x20\n      add\n      dup3\n      dup1\n      sload\n      tag_130\n      swap1\n      tag_56\n      jump\t// in\n    tag_130:\n      dup1\n      iszero\n      tag_131\n      jumpi\n      dup1\n      0x1f\n      lt\n      tag_132\n      jumpi\n      0x0100\n      dup1\n      dup4\n      sload\n      div\n      mul\n      dup4\n      mstore\n      swap2\n      0x20\n      add\n      swap2\n      jump(tag_131)\n    tag_132:\n      dup3\n      add\n      swap2\n      swap1\n      0x00\n      mstore\n      keccak256(0x00, 0x20)\n      swap1\n    tag_133:\n      dup2\n      sload\n      dup2\n      mstore\n      swap1\n      0x01\n      add\n      swap1\n      0x20\n      add\n      dup1\n      dup4\n      gt\n      tag_133\n      jumpi\n      dup3\n      swap1\n      sub\n      0x1f\n      and\n      dup3\n      add\n      swap2\n    tag_131:\n      pop\n      pop\n      pop\n      pop\n      pop\n      dup2\n      mstore\n      0x20\n      add\n      0x03\n      dup3\n      add\n      sload\n      dup2\n      mstore\n      0x20\n      add\n      0x04\n      dup3\n      add\n      sload\n      dup2\n      mstore\n      pop\n      pop\n      swap1\n      pop\n        /* \"contracts/Twitter.sol\":2706:2825  function getTweet(uint _i) public view returns (Tweet memory){... */\n      swap2\n      swap1\n      pop\n      jump\t// out\n    tag_124:\n      mload(0x40)\n      dup1\n      0xa0\n      add\n      0x40\n      mstore\n      dup1\n      0x00\n      dup2\n      mstore\n      0x20\n      add\n      and(0xffffffffffffffffffffffffffffffffffffffff, 0x00)\n      dup2\n      mstore\n      0x20\n      add\n      0x60\n      dup2\n      mstore\n      0x20\n      add\n      0x00\n      dup2\n      mstore\n      0x20\n      add\n      0x00\n      dup2\n      mstore\n      pop\n      swap1\n      jump\t// out\n        /* \"#utility.yul\":7:82   */\n    tag_134:\n        /* \"#utility.yul\":40:46   */\n      0x00\n        /* \"#utility.yul\":73:75   */\n      0x40\n        /* \"#utility.yul\":67:76   */\n      mload\n        /* \"#utility.yul\":57:76   */\n      swap1\n      pop\n        /* \"#utility.yul\":7:82   */\n      swap1\n      jump\t// out\n        /* \"#utility.yul\":88:205   */\n    tag_135:\n        /* \"#utility.yul\":197:198   */\n      0x00\n        /* \"#utility.yul\":194:195   */\n      dup1\n        /* \"#utility.yul\":187:199   */\n      revert\n        /* \"#utility.yul\":211:328   */\n    tag_136:\n        /* \"#utility.yul\":320:321   */\n      0x00\n        /* \"#utility.yul\":317:318   */\n      dup1\n        /* \"#utility.yul\":310:322   */\n      revert\n        /* \"#utility.yul\":334:460   */\n    tag_137:\n        /* \"#utility.yul\":371:378   */\n      0x00\n        /* \"#utility.yul\":411:453   */\n      0xffffffffffffffffffffffffffffffffffffffff\n        /* \"#utility.yul\":404:409   */\n      dup3\n        /* \"#utility.yul\":400:454   */\n      and\n        /* \"#utility.yul\":389:454   */\n      swap1\n      pop\n        /* \"#utility.yul\":334:460   */\n      swap2\n      swap1\n      pop\n      jump\t// out\n        /* \"#utility.yul\":466:562   */\n    tag_138:\n        /* \"#utility.yul\":503:510   */\n      0x00\n        /* \"#utility.yul\":532:556   */\n      tag_207\n        /* \"#utility.yul\":550:555   */\n      dup3\n        /* \"#utility.yul\":532:556   */\n      tag_137\n      jump\t// in\n    tag_207:\n        /* \"#utility.yul\":521:556   */\n      swap1\n      pop\n        /* \"#utility.yul\":466:562   */\n      swap2\n      swap1\n      pop\n      jump\t// out\n        /* \"#utility.yul\":568:690   */\n    tag_139:\n        /* \"#utility.yul\":641:665   */\n      tag_209\n        /* \"#utility.yul\":659:664   */\n      dup2\n        /* \"#utility.yul\":641:665   */\n      tag_138\n      jump\t// in\n    tag_209:\n        /* \"#utility.yul\":634:639   */\n      dup2\n        /* \"#utility.yul\":631:666   */\n      eq\n        /* \"#utility.yul\":621:684   */\n      tag_210\n      jumpi\n        /* \"#utility.yul\":680:681   */\n      0x00\n        /* \"#utility.yul\":677:678   */\n      dup1\n        /* \"#utility.yul\":670:682   */\n      revert\n        /* \"#utility.yul\":621:684   */\n    tag_210:\n        /* \"#utility.yul\":568:690   */\n      pop\n      jump\t// out\n        /* \"#utility.yul\":696:835   */\n    tag_140:\n        /* \"#utility.yul\":742:747   */\n      0x00\n        /* \"#utility.yul\":780:786   */\n      dup2\n        /* \"#utility.yul\":767:787   */\n      calldataload\n        /* \"#utility.yul\":758:787   */\n      swap1\n      pop\n        /* \"#utility.yul\":796:829   */\n      tag_212\n        /* \"#utility.yul\":823:828   */\n      dup2\n        /* \"#utility.yul\":796:829   */\n      tag_139\n      jump\t// in\n    tag_212:\n        /* \"#utility.yul\":696:835   */\n      swap3\n      swap2\n      pop\n      pop\n      jump\t// out\n        /* \"#utility.yul\":841:918   */\n    tag_141:\n        /* \"#utility.yul\":878:885   */\n      0x00\n        /* \"#utility.yul\":907:912   */\n      dup2\n        /* \"#utility.yul\":896:912   */\n      swap1\n      pop\n        /* \"#utility.yul\":841:918   */\n      swap2\n      swap1\n      pop\n      jump\t// out\n        /* \"#utility.yul\":924:1046   */\n    tag_142:\n        /* \"#utility.yul\":997:1021   */\n      tag_215\n        /* \"#utility.yul\":1015:1020   */\n      dup2\n        /* \"#utility.yul\":997:1021   */\n      tag_141\n      jump\t// in\n    tag_215:\n        /* \"#utility.yul\":990:995   */\n      dup2\n        /* \"#utility.yul\":987:1022   */\n      eq\n        /* \"#utility.yul\":977:1040   */\n      tag_216\n      jumpi\n        /* \"#utility.yul\":1036:1037   */\n      0x00\n        /* \"#utility.yul\":1033:1034   */\n      dup1\n        /* \"#utility.yul\":1026:1038   */\n      revert\n        /* \"#utility.yul\":977:1040   */\n    tag_216:\n        /* \"#utility.yul\":924:1046   */\n      pop\n      jump\t// out\n        /* \"#utility.yul\":1052:1191   */\n    tag_143:\n        /* \"#utility.yul\":1098:1103   */\n      0x00\n        /* \"#utility.yul\":1136:1142   */\n      dup2\n        /* \"#utility.yul\":1123:1143   */\n      calldataload\n        /* \"#utility.yul\":1114:1143   */\n      swap1\n      pop\n        /* \"#utility.yul\":1152:1185   */\n      tag_218\n        /* \"#utility.yul\":1179:1184   */\n      dup2\n        /* \"#utility.yul\":1152:1185   */\n      tag_142\n      jump\t// in\n    tag_218:\n        /* \"#utility.yul\":1052:1191   */\n      swap3\n      swap2\n      pop\n      pop\n      jump\t// out\n        /* \"#utility.yul\":1197:1671   */\n    tag_15:\n        /* \"#utility.yul\":1265:1271   */\n      0x00\n        /* \"#utility.yul\":1273:1279   */\n      dup1\n        /* \"#utility.yul\":1322:1324   */\n      0x40\n        /* \"#utility.yul\":1310:1319   */\n      dup4\n        /* \"#utility.yul\":1301:1308   */\n      dup6\n        /* \"#utility.yul\":1297:1320   */\n      sub\n        /* \"#utility.yul\":1293:1325   */\n      slt\n        /* \"#utility.yul\":1290:1409   */\n      iszero\n      tag_220\n      jumpi\n        /* \"#utility.yul\":1328:1407   */\n      tag_221\n      tag_135\n      jump\t// in\n    tag_221:\n        /* \"#utility.yul\":1290:1409   */\n    tag_220:\n        /* \"#utility.yul\":1448:1449   */\n      0x00\n        /* \"#utility.yul\":1473:1526   */\n      tag_222\n        /* \"#utility.yul\":1518:1525   */\n      dup6\n        /* \"#utility.yul\":1509:1515   */\n      dup3\n        /* \"#utility.yul\":1498:1507   */\n      dup7\n        /* \"#utility.yul\":1494:1516   */\n      add\n        /* \"#utility.yul\":1473:1526   */\n      tag_140\n      jump\t// in\n    tag_222:\n        /* \"#utility.yul\":1463:1526   */\n      swap3\n      pop\n        /* \"#utility.yul\":1419:1536   */\n      pop\n        /* \"#utility.yul\":1575:1577   */\n      0x20\n        /* \"#utility.yul\":1601:1654   */\n      tag_223\n        /* \"#utility.yul\":1646:1653   */\n      dup6\n        /* \"#utility.yul\":1637:1643   */\n      dup3\n        /* \"#utility.yul\":1626:1635   */\n      dup7\n        /* \"#utility.yul\":1622:1644   */\n      add\n        /* \"#utility.yul\":1601:1654   */\n      tag_143\n      jump\t// in\n    tag_223:\n        /* \"#utility.yul\":1591:1654   */\n      swap2\n      pop\n        /* \"#utility.yul\":1546:1664   */\n      pop\n        /* \"#utility.yul\":1197:1671   */\n      swap3\n      pop\n      swap3\n      swap1\n      pop\n      jump\t// out\n        /* \"#utility.yul\":1677:1795   */\n    tag_144:\n        /* \"#utility.yul\":1764:1788   */\n      tag_225\n        /* \"#utility.yul\":1782:1787   */\n      dup2\n        /* \"#utility.yul\":1764:1788   */\n      tag_141\n      jump\t// in\n    tag_225:\n        /* \"#utility.yul\":1759:1762   */\n      dup3\n        /* \"#utility.yul\":1752:1789   */\n      mstore\n        /* \"#utility.yul\":1677:1795   */\n      pop\n      pop\n      jump\t// out\n        /* \"#utility.yul\":1801:1919   */\n    tag_145:\n        /* \"#utility.yul\":1888:1912   */\n      tag_227\n        /* \"#utility.yul\":1906:1911   */\n      dup2\n        /* \"#utility.yul\":1888:1912   */\n      tag_138\n      jump\t// in\n    tag_227:\n        /* \"#utility.yul\":1883:1886   */\n      dup3\n        /* \"#utility.yul\":1876:1913   */\n      mstore\n        /* \"#utility.yul\":1801:1919   */\n      pop\n      pop\n      jump\t// out\n        /* \"#utility.yul\":1925:2024   */\n    tag_146:\n        /* \"#utility.yul\":1977:1983   */\n      0x00\n        /* \"#utility.yul\":2011:2016   */\n      dup2\n        /* \"#utility.yul\":2005:2017   */\n      mload\n        /* \"#utility.yul\":1995:2017   */\n      swap1\n      pop\n        /* \"#utility.yul\":1925:2024   */\n      swap2\n      swap1\n      pop\n      jump\t// out\n        /* \"#utility.yul\":2030:2199   */\n    tag_147:\n        /* \"#utility.yul\":2114:2125   */\n      0x00\n        /* \"#utility.yul\":2148:2154   */\n      dup3\n        /* \"#utility.yul\":2143:2146   */\n      dup3\n        /* \"#utility.yul\":2136:2155   */\n      mstore\n        /* \"#utility.yul\":2188:2192   */\n      0x20\n        /* \"#utility.yul\":2183:2186   */\n      dup3\n        /* \"#utility.yul\":2179:2193   */\n      add\n        /* \"#utility.yul\":2164:2193   */\n      swap1\n      pop\n        /* \"#utility.yul\":2030:2199   */\n      swap3\n      swap2\n      pop\n      pop\n      jump\t// out\n        /* \"#utility.yul\":2205:2451   */\n    tag_148:\n        /* \"#utility.yul\":2286:2287   */\n      0x00\n        /* \"#utility.yul\":2296:2409   */\n    tag_231:\n        /* \"#utility.yul\":2310:2316   */\n      dup4\n        /* \"#utility.yul\":2307:2308   */\n      dup2\n        /* \"#utility.yul\":2304:2317   */\n      lt\n        /* \"#utility.yul\":2296:2409   */\n      iszero\n      tag_233\n      jumpi\n        /* \"#utility.yul\":2395:2396   */\n      dup1\n        /* \"#utility.yul\":2390:2393   */\n      dup3\n        /* \"#utility.yul\":2386:2397   */\n      add\n        /* \"#utility.yul\":2380:2398   */\n      mload\n        /* \"#utility.yul\":2376:2377   */\n      dup2\n        /* \"#utility.yul\":2371:2374   */\n      dup5\n        /* \"#utility.yul\":2367:2378   */\n      add\n        /* \"#utility.yul\":2360:2399   */\n      mstore\n        /* \"#utility.yul\":2332:2334   */\n      0x20\n        /* \"#utility.yul\":2329:2330   */\n      dup2\n        /* \"#utility.yul\":2325:2335   */\n      add\n        /* \"#utility.yul\":2320:2335   */\n      swap1\n      pop\n        /* \"#utility.yul\":2296:2409   */\n      jump(tag_231)\n    tag_233:\n        /* \"#utility.yul\":2443:2444   */\n      0x00\n        /* \"#utility.yul\":2434:2440   */\n      dup5\n        /* \"#utility.yul\":2429:2432   */\n      dup5\n        /* \"#utility.yul\":2425:2441   */\n      add\n        /* \"#utility.yul\":2418:2445   */\n      mstore\n        /* \"#utility.yul\":2267:2451   */\n      pop\n        /* \"#utility.yul\":2205:2451   */\n      pop\n      pop\n      pop\n      jump\t// out\n        /* \"#utility.yul\":2457:2559   */\n    tag_149:\n        /* \"#utility.yul\":2498:2504   */\n      0x00\n        /* \"#utility.yul\":2549:2551   */\n      0x1f\n        /* \"#utility.yul\":2545:2552   */\n      not\n        /* \"#utility.yul\":2540:2542   */\n      0x1f\n        /* \"#utility.yul\":2533:2538   */\n      dup4\n        /* \"#utility.yul\":2529:2543   */\n      add\n        /* \"#utility.yul\":2525:2553   */\n      and\n        /* \"#utility.yul\":2515:2553   */\n      swap1\n      pop\n        /* \"#utility.yul\":2457:2559   */\n      swap2\n      swap1\n      pop\n      jump\t// out\n        /* \"#utility.yul\":2565:2942   */\n    tag_150:\n        /* \"#utility.yul\":2653:2656   */\n      0x00\n        /* \"#utility.yul\":2681:2720   */\n      tag_236\n        /* \"#utility.yul\":2714:2719   */\n      dup3\n        /* \"#utility.yul\":2681:2720   */\n      tag_146\n      jump\t// in\n    tag_236:\n        /* \"#utility.yul\":2736:2807   */\n      tag_237\n        /* \"#utility.yul\":2800:2806   */\n      dup2\n        /* \"#utility.yul\":2795:2798   */\n      dup6\n        /* \"#utility.yul\":2736:2807   */\n      tag_147\n      jump\t// in\n    tag_237:\n        /* \"#utility.yul\":2729:2807   */\n      swap4\n      pop\n        /* \"#utility.yul\":2816:2881   */\n      tag_238\n        /* \"#utility.yul\":2874:2880   */\n      dup2\n        /* \"#utility.yul\":2869:2872   */\n      dup6\n        /* \"#utility.yul\":2862:2866   */\n      0x20\n        /* \"#utility.yul\":2855:2860   */\n      dup7\n        /* \"#utility.yul\":2851:2867   */\n      add\n        /* \"#utility.yul\":2816:2881   */\n      tag_148\n      jump\t// in\n    tag_238:\n        /* \"#utility.yul\":2906:2935   */\n      tag_239\n        /* \"#utility.yul\":2928:2934   */\n      dup2\n        /* \"#utility.yul\":2906:2935   */\n      tag_149\n      jump\t// in\n    tag_239:\n        /* \"#utility.yul\":2901:2904   */\n      dup5\n        /* \"#utility.yul\":2897:2936   */\n      add\n        /* \"#utility.yul\":2890:2936   */\n      swap2\n      pop\n        /* \"#utility.yul\":2657:2942   */\n      pop\n        /* \"#utility.yul\":2565:2942   */\n      swap3\n      swap2\n      pop\n      pop\n      jump\t// out\n        /* \"#utility.yul\":2948:3703   */\n    tag_18:\n        /* \"#utility.yul\":3173:3177   */\n      0x00\n        /* \"#utility.yul\":3211:3214   */\n      0xa0\n        /* \"#utility.yul\":3200:3209   */\n      dup3\n        /* \"#utility.yul\":3196:3215   */\n      add\n        /* \"#utility.yul\":3188:3215   */\n      swap1\n      pop\n        /* \"#utility.yul\":3225:3296   */\n      tag_241\n        /* \"#utility.yul\":3293:3294   */\n      0x00\n        /* \"#utility.yul\":3282:3291   */\n      dup4\n        /* \"#utility.yul\":3278:3295   */\n      add\n        /* \"#utility.yul\":3269:3275   */\n      dup9\n        /* \"#utility.yul\":3225:3296   */\n      tag_144\n      jump\t// in\n    tag_241:\n        /* \"#utility.yul\":3306:3378   */\n      tag_242\n        /* \"#utility.yul\":3374:3376   */\n      0x20\n        /* \"#utility.yul\":3363:3372   */\n      dup4\n        /* \"#utility.yul\":3359:3377   */\n      add\n        /* \"#utility.yul\":3350:3356   */\n      dup8\n        /* \"#utility.yul\":3306:3378   */\n      tag_145\n      jump\t// in\n    tag_242:\n        /* \"#utility.yul\":3425:3434   */\n      dup2\n        /* \"#utility.yul\":3419:3423   */\n      dup2\n        /* \"#utility.yul\":3415:3435   */\n      sub\n        /* \"#utility.yul\":3410:3412   */\n      0x40\n        /* \"#utility.yul\":3399:3408   */\n      dup4\n        /* \"#utility.yul\":3395:3413   */\n      add\n        /* \"#utility.yul\":3388:3436   */\n      mstore\n        /* \"#utility.yul\":3453:3531   */\n      tag_243\n        /* \"#utility.yul\":3526:3530   */\n      dup2\n        /* \"#utility.yul\":3517:3523   */\n      dup7\n        /* \"#utility.yul\":3453:3531   */\n      tag_150\n      jump\t// in\n    tag_243:\n        /* \"#utility.yul\":3445:3531   */\n      swap1\n      pop\n        /* \"#utility.yul\":3541:3613   */\n      tag_244\n        /* \"#utility.yul\":3609:3611   */\n      0x60\n        /* \"#utility.yul\":3598:3607   */\n      dup4\n        /* \"#utility.yul\":3594:3612   */\n      add\n        /* \"#utility.yul\":3585:3591   */\n      dup6\n        /* \"#utility.yul\":3541:3613   */\n      tag_144\n      jump\t// in\n    tag_244:\n        /* \"#utility.yul\":3623:3696   */\n      tag_245\n        /* \"#utility.yul\":3691:3694   */\n      0x80\n        /* \"#utility.yul\":3680:3689   */\n      dup4\n        /* \"#utility.yul\":3676:3695   */\n      add\n        /* \"#utility.yul\":3667:3673   */\n      dup5\n        /* \"#utility.yul\":3623:3696   */\n      tag_144\n      jump\t// in\n    tag_245:\n        /* \"#utility.yul\":2948:3703   */\n      swap7\n      swap6\n      pop\n      pop\n      pop\n      pop\n      pop\n      pop\n      jump\t// out\n        /* \"#utility.yul\":3709:3798   */\n    tag_151:\n        /* \"#utility.yul\":3745:3752   */\n      0x00\n        /* \"#utility.yul\":3785:3791   */\n      0xffff\n        /* \"#utility.yul\":3778:3783   */\n      dup3\n        /* \"#utility.yul\":3774:3792   */\n      and\n        /* \"#utility.yul\":3763:3792   */\n      swap1\n      pop\n        /* \"#utility.yul\":3709:3798   */\n      swap2\n      swap1\n      pop\n      jump\t// out\n        /* \"#utility.yul\":3804:3919   */\n    tag_152:\n        /* \"#utility.yul\":3889:3912   */\n      tag_248\n        /* \"#utility.yul\":3906:3911   */\n      dup2\n        /* \"#utility.yul\":3889:3912   */\n      tag_151\n      jump\t// in\n    tag_248:\n        /* \"#utility.yul\":3884:3887   */\n      dup3\n        /* \"#utility.yul\":3877:3913   */\n      mstore\n        /* \"#utility.yul\":3804:3919   */\n      pop\n      pop\n      jump\t// out\n        /* \"#utility.yul\":3925:4143   */\n    tag_22:\n        /* \"#utility.yul\":4016:4020   */\n      0x00\n        /* \"#utility.yul\":4054:4056   */\n      0x20\n        /* \"#utility.yul\":4043:4052   */\n      dup3\n        /* \"#utility.yul\":4039:4057   */\n      add\n        /* \"#utility.yul\":4031:4057   */\n      swap1\n      pop\n        /* \"#utility.yul\":4067:4136   */\n      tag_250\n        /* \"#utility.yul\":4133:4134   */\n      0x00\n        /* \"#utility.yul\":4122:4131   */\n      dup4\n        /* \"#utility.yul\":4118:4135   */\n      add\n        /* \"#utility.yul\":4109:4115   */\n      dup5\n        /* \"#utility.yul\":4067:4136   */\n      tag_152\n      jump\t// in\n    tag_250:\n        /* \"#utility.yul\":3925:4143   */\n      swap3\n      swap2\n      pop\n      pop\n      jump\t// out\n        /* \"#utility.yul\":4149:4478   */\n    tag_25:\n        /* \"#utility.yul\":4208:4214   */\n      0x00\n        /* \"#utility.yul\":4257:4259   */\n      0x20\n        /* \"#utility.yul\":4245:4254   */\n      dup3\n        /* \"#utility.yul\":4236:4243   */\n      dup5\n        /* \"#utility.yul\":4232:4255   */\n      sub\n        /* \"#utility.yul\":4228:4260   */\n      slt\n        /* \"#utility.yul\":4225:4344   */\n      iszero\n      tag_252\n      jumpi\n        /* \"#utility.yul\":4263:4342   */\n      tag_253\n      tag_135\n      jump\t// in\n    tag_253:\n        /* \"#utility.yul\":4225:4344   */\n    tag_252:\n        /* \"#utility.yul\":4383:4384   */\n      0x00\n        /* \"#utility.yul\":4408:4461   */\n      tag_254\n        /* \"#utility.yul\":4453:4460   */\n      dup5\n        /* \"#utility.yul\":4444:4450   */\n      dup3\n        /* \"#utility.yul\":4433:4442   */\n      dup6\n        /* \"#utility.yul\":4429:4451   */\n      add\n        /* \"#utility.yul\":4408:4461   */\n      tag_140\n      jump\t// in\n    tag_254:\n        /* \"#utility.yul\":4398:4461   */\n      swap2\n      pop\n        /* \"#utility.yul\":4354:4471   */\n      pop\n        /* \"#utility.yul\":4149:4478   */\n      swap3\n      swap2\n      pop\n      pop\n      jump\t// out\n        /* \"#utility.yul\":4484:4619   */\n    tag_153:\n        /* \"#utility.yul\":4572:4578   */\n      0x00\n        /* \"#utility.yul\":4606:4611   */\n      dup2\n        /* \"#utility.yul\":4600:4612   */\n      mload\n        /* \"#utility.yul\":4590:4612   */\n      swap1\n      pop\n        /* \"#utility.yul\":4484:4619   */\n      swap2\n      swap1\n      pop\n      jump\t// out\n        /* \"#utility.yul\":4625:4830   */\n    tag_154:\n        /* \"#utility.yul\":4745:4756   */\n      0x00\n        /* \"#utility.yul\":4779:4785   */\n      dup3\n        /* \"#utility.yul\":4774:4777   */\n      dup3\n        /* \"#utility.yul\":4767:4786   */\n      mstore\n        /* \"#utility.yul\":4819:4823   */\n      0x20\n        /* \"#utility.yul\":4814:4817   */\n      dup3\n        /* \"#utility.yul\":4810:4824   */\n      add\n        /* \"#utility.yul\":4795:4824   */\n      swap1\n      pop\n        /* \"#utility.yul\":4625:4830   */\n      swap3\n      swap2\n      pop\n      pop\n      jump\t// out\n        /* \"#utility.yul\":4836:4989   */\n    tag_155:\n        /* \"#utility.yul\":4924:4928   */\n      0x00\n        /* \"#utility.yul\":4947:4950   */\n      dup2\n        /* \"#utility.yul\":4939:4950   */\n      swap1\n      pop\n        /* \"#utility.yul\":4977:4981   */\n      0x20\n        /* \"#utility.yul\":4972:4975   */\n      dup3\n        /* \"#utility.yul\":4968:4982   */\n      add\n        /* \"#utility.yul\":4960:4982   */\n      swap1\n      pop\n        /* \"#utility.yul\":4836:4989   */\n      swap2\n      swap1\n      pop\n      jump\t// out\n        /* \"#utility.yul\":4995:5103   */\n    tag_156:\n        /* \"#utility.yul\":5072:5096   */\n      tag_259\n        /* \"#utility.yul\":5090:5095   */\n      dup2\n        /* \"#utility.yul\":5072:5096   */\n      tag_141\n      jump\t// in\n    tag_259:\n        /* \"#utility.yul\":5067:5070   */\n      dup3\n        /* \"#utility.yul\":5060:5097   */\n      mstore\n        /* \"#utility.yul\":4995:5103   */\n      pop\n      pop\n      jump\t// out\n        /* \"#utility.yul\":5109:5217   */\n    tag_157:\n        /* \"#utility.yul\":5186:5210   */\n      tag_261\n        /* \"#utility.yul\":5204:5209   */\n      dup2\n        /* \"#utility.yul\":5186:5210   */\n      tag_138\n      jump\t// in\n    tag_261:\n        /* \"#utility.yul\":5181:5184   */\n      dup3\n        /* \"#utility.yul\":5174:5211   */\n      mstore\n        /* \"#utility.yul\":5109:5217   */\n      pop\n      pop\n      jump\t// out\n        /* \"#utility.yul\":5223:5382   */\n    tag_158:\n        /* \"#utility.yul\":5297:5308   */\n      0x00\n        /* \"#utility.yul\":5331:5337   */\n      dup3\n        /* \"#utility.yul\":5326:5329   */\n      dup3\n        /* \"#utility.yul\":5319:5338   */\n      mstore\n        /* \"#utility.yul\":5371:5375   */\n      0x20\n        /* \"#utility.yul\":5366:5369   */\n      dup3\n        /* \"#utility.yul\":5362:5376   */\n      add\n        /* \"#utility.yul\":5347:5376   */\n      swap1\n      pop\n        /* \"#utility.yul\":5223:5382   */\n      swap3\n      swap2\n      pop\n      pop\n      jump\t// out\n        /* \"#utility.yul\":5388:5745   */\n    tag_159:\n        /* \"#utility.yul\":5466:5469   */\n      0x00\n        /* \"#utility.yul\":5494:5533   */\n      tag_264\n        /* \"#utility.yul\":5527:5532   */\n      dup3\n        /* \"#utility.yul\":5494:5533   */\n      tag_146\n      jump\t// in\n    tag_264:\n        /* \"#utility.yul\":5549:5610   */\n      tag_265\n        /* \"#utility.yul\":5603:5609   */\n      dup2\n        /* \"#utility.yul\":5598:5601   */\n      dup6\n        /* \"#utility.yul\":5549:5610   */\n      tag_158\n      jump\t// in\n    tag_265:\n        /* \"#utility.yul\":5542:5610   */\n      swap4\n      pop\n        /* \"#utility.yul\":5619:5684   */\n      tag_266\n        /* \"#utility.yul\":5677:5683   */\n      dup2\n        /* \"#utility.yul\":5672:5675   */\n      dup6\n        /* \"#utility.yul\":5665:5669   */\n      0x20\n        /* \"#utility.yul\":5658:5663   */\n      dup7\n        /* \"#utility.yul\":5654:5670   */\n      add\n        /* \"#utility.yul\":5619:5684   */\n      tag_148\n      jump\t// in\n    tag_266:\n        /* \"#utility.yul\":5709:5738   */\n      tag_267\n        /* \"#utility.yul\":5731:5737   */\n      dup2\n        /* \"#utility.yul\":5709:5738   */\n      tag_149\n      jump\t// in\n    tag_267:\n        /* \"#utility.yul\":5704:5707   */\n      dup5\n        /* \"#utility.yul\":5700:5739   */\n      add\n        /* \"#utility.yul\":5693:5739   */\n      swap2\n      pop\n        /* \"#utility.yul\":5470:5745   */\n      pop\n        /* \"#utility.yul\":5388:5745   */\n      swap3\n      swap2\n      pop\n      pop\n      jump\t// out\n        /* \"#utility.yul\":5805:6924   */\n    tag_160:\n        /* \"#utility.yul\":5906:5909   */\n      0x00\n        /* \"#utility.yul\":5942:5946   */\n      0xa0\n        /* \"#utility.yul\":5937:5940   */\n      dup4\n        /* \"#utility.yul\":5933:5947   */\n      add\n        /* \"#utility.yul\":6027:6031   */\n      0x00\n        /* \"#utility.yul\":6020:6025   */\n      dup4\n        /* \"#utility.yul\":6016:6032   */\n      add\n        /* \"#utility.yul\":6010:6033   */\n      mload\n        /* \"#utility.yul\":6046:6109   */\n      tag_269\n        /* \"#utility.yul\":6103:6107   */\n      0x00\n        /* \"#utility.yul\":6098:6101   */\n      dup7\n        /* \"#utility.yul\":6094:6108   */\n      add\n        /* \"#utility.yul\":6080:6092   */\n      dup3\n        /* \"#utility.yul\":6046:6109   */\n      tag_156\n      jump\t// in\n    tag_269:\n        /* \"#utility.yul\":5957:6119   */\n      pop\n        /* \"#utility.yul\":6203:6207   */\n      0x20\n        /* \"#utility.yul\":6196:6201   */\n      dup4\n        /* \"#utility.yul\":6192:6208   */\n      add\n        /* \"#utility.yul\":6186:6209   */\n      mload\n        /* \"#utility.yul\":6222:6285   */\n      tag_270\n        /* \"#utility.yul\":6279:6283   */\n      0x20\n        /* \"#utility.yul\":6274:6277   */\n      dup7\n        /* \"#utility.yul\":6270:6284   */\n      add\n        /* \"#utility.yul\":6256:6268   */\n      dup3\n        /* \"#utility.yul\":6222:6285   */\n      tag_157\n      jump\t// in\n    tag_270:\n        /* \"#utility.yul\":6129:6295   */\n      pop\n        /* \"#utility.yul\":6380:6384   */\n      0x40\n        /* \"#utility.yul\":6373:6378   */\n      dup4\n        /* \"#utility.yul\":6369:6385   */\n      add\n        /* \"#utility.yul\":6363:6386   */\n      mload\n        /* \"#utility.yul\":6433:6436   */\n      dup5\n        /* \"#utility.yul\":6427:6431   */\n      dup3\n        /* \"#utility.yul\":6423:6437   */\n      sub\n        /* \"#utility.yul\":6416:6420   */\n      0x40\n        /* \"#utility.yul\":6411:6414   */\n      dup7\n        /* \"#utility.yul\":6407:6421   */\n      add\n        /* \"#utility.yul\":6400:6438   */\n      mstore\n        /* \"#utility.yul\":6459:6532   */\n      tag_271\n        /* \"#utility.yul\":6527:6531   */\n      dup3\n        /* \"#utility.yul\":6513:6525   */\n      dup3\n        /* \"#utility.yul\":6459:6532   */\n      tag_159\n      jump\t// in\n    tag_271:\n        /* \"#utility.yul\":6451:6532   */\n      swap2\n      pop\n        /* \"#utility.yul\":6305:6543   */\n      pop\n        /* \"#utility.yul\":6630:6634   */\n      0x60\n        /* \"#utility.yul\":6623:6628   */\n      dup4\n        /* \"#utility.yul\":6619:6635   */\n      add\n        /* \"#utility.yul\":6613:6636   */\n      mload\n        /* \"#utility.yul\":6649:6712   */\n      tag_272\n        /* \"#utility.yul\":6706:6710   */\n      0x60\n        /* \"#utility.yul\":6701:6704   */\n      dup7\n        /* \"#utility.yul\":6697:6711   */\n      add\n        /* \"#utility.yul\":6683:6695   */\n      dup3\n        /* \"#utility.yul\":6649:6712   */\n      tag_156\n      jump\t// in\n    tag_272:\n        /* \"#utility.yul\":6553:6722   */\n      pop\n        /* \"#utility.yul\":6805:6809   */\n      0x80\n        /* \"#utility.yul\":6798:6803   */\n      dup4\n        /* \"#utility.yul\":6794:6810   */\n      add\n        /* \"#utility.yul\":6788:6811   */\n      mload\n        /* \"#utility.yul\":6824:6887   */\n      tag_273\n        /* \"#utility.yul\":6881:6885   */\n      0x80\n        /* \"#utility.yul\":6876:6879   */\n      dup7\n        /* \"#utility.yul\":6872:6886   */\n      add\n        /* \"#utility.yul\":6858:6870   */\n      dup3\n        /* \"#utility.yul\":6824:6887   */\n      tag_156\n      jump\t// in\n    tag_273:\n        /* \"#utility.yul\":6732:6897   */\n      pop\n        /* \"#utility.yul\":6914:6918   */\n      dup1\n        /* \"#utility.yul\":6907:6918   */\n      swap2\n      pop\n        /* \"#utility.yul\":5911:6924   */\n      pop\n        /* \"#utility.yul\":5805:6924   */\n      swap3\n      swap2\n      pop\n      pop\n      jump\t// out\n        /* \"#utility.yul\":6930:7170   */\n    tag_161:\n        /* \"#utility.yul\":7041:7051   */\n      0x00\n        /* \"#utility.yul\":7076:7164   */\n      tag_275\n        /* \"#utility.yul\":7160:7163   */\n      dup4\n        /* \"#utility.yul\":7152:7158   */\n      dup4\n        /* \"#utility.yul\":7076:7164   */\n      tag_160\n      jump\t// in\n    tag_275:\n        /* \"#utility.yul\":7062:7164   */\n      swap1\n      pop\n        /* \"#utility.yul\":6930:7170   */\n      swap3\n      swap2\n      pop\n      pop\n      jump\t// out\n        /* \"#utility.yul\":7176:7310   */\n    tag_162:\n        /* \"#utility.yul\":7267:7271   */\n      0x00\n        /* \"#utility.yul\":7299:7303   */\n      0x20\n        /* \"#utility.yul\":7294:7297   */\n      dup3\n        /* \"#utility.yul\":7290:7304   */\n      add\n        /* \"#utility.yul\":7282:7304   */\n      swap1\n      pop\n        /* \"#utility.yul\":7176:7310   */\n      swap2\n      swap1\n      pop\n      jump\t// out\n        /* \"#utility.yul\":7374:8453   */\n    tag_163:\n        /* \"#utility.yul\":7535:7538   */\n      0x00\n        /* \"#utility.yul\":7564:7639   */\n      tag_278\n        /* \"#utility.yul\":7633:7638   */\n      dup3\n        /* \"#utility.yul\":7564:7639   */\n      tag_153\n      jump\t// in\n    tag_278:\n        /* \"#utility.yul\":7655:7762   */\n      tag_279\n        /* \"#utility.yul\":7755:7761   */\n      dup2\n        /* \"#utility.yul\":7750:7753   */\n      dup6\n        /* \"#utility.yul\":7655:7762   */\n      tag_154\n      jump\t// in\n    tag_279:\n        /* \"#utility.yul\":7648:7762   */\n      swap4\n      pop\n        /* \"#utility.yul\":7788:7791   */\n      dup4\n        /* \"#utility.yul\":7833:7837   */\n      0x20\n        /* \"#utility.yul\":7825:7831   */\n      dup3\n        /* \"#utility.yul\":7821:7838   */\n      mul\n        /* \"#utility.yul\":7816:7819   */\n      dup6\n        /* \"#utility.yul\":7812:7839   */\n      add\n        /* \"#utility.yul\":7863:7940   */\n      tag_280\n        /* \"#utility.yul\":7934:7939   */\n      dup6\n        /* \"#utility.yul\":7863:7940   */\n      tag_155\n      jump\t// in\n    tag_280:\n        /* \"#utility.yul\":7963:7970   */\n      dup1\n        /* \"#utility.yul\":7994:7995   */\n      0x00\n        /* \"#utility.yul\":7979:8408   */\n    tag_281:\n        /* \"#utility.yul\":8004:8010   */\n      dup6\n        /* \"#utility.yul\":8001:8002   */\n      dup2\n        /* \"#utility.yul\":7998:8011   */\n      lt\n        /* \"#utility.yul\":7979:8408   */\n      iszero\n      tag_283\n      jumpi\n        /* \"#utility.yul\":8075:8084   */\n      dup5\n        /* \"#utility.yul\":8069:8073   */\n      dup5\n        /* \"#utility.yul\":8065:8085   */\n      sub\n        /* \"#utility.yul\":8060:8063   */\n      dup10\n        /* \"#utility.yul\":8053:8086   */\n      mstore\n        /* \"#utility.yul\":8126:8132   */\n      dup2\n        /* \"#utility.yul\":8120:8133   */\n      mload\n        /* \"#utility.yul\":8154:8260   */\n      tag_284\n        /* \"#utility.yul\":8255:8259   */\n      dup6\n        /* \"#utility.yul\":8240:8253   */\n      dup3\n        /* \"#utility.yul\":8154:8260   */\n      tag_161\n      jump\t// in\n    tag_284:\n        /* \"#utility.yul\":8146:8260   */\n      swap5\n      pop\n        /* \"#utility.yul\":8283:8364   */\n      tag_285\n        /* \"#utility.yul\":8357:8363   */\n      dup4\n        /* \"#utility.yul\":8283:8364   */\n      tag_162\n      jump\t// in\n    tag_285:\n        /* \"#utility.yul\":8273:8364   */\n      swap3\n      pop\n        /* \"#utility.yul\":8393:8397   */\n      0x20\n        /* \"#utility.yul\":8388:8391   */\n      dup11\n        /* \"#utility.yul\":8384:8398   */\n      add\n        /* \"#utility.yul\":8377:8398   */\n      swap10\n      pop\n        /* \"#utility.yul\":8039:8408   */\n      pop\n        /* \"#utility.yul\":8026:8027   */\n      0x01\n        /* \"#utility.yul\":8023:8024   */\n      dup2\n        /* \"#utility.yul\":8019:8028   */\n      add\n        /* \"#utility.yul\":8014:8028   */\n      swap1\n      pop\n        /* \"#utility.yul\":7979:8408   */\n      jump(tag_281)\n    tag_283:\n        /* \"#utility.yul\":7983:7997   */\n      pop\n        /* \"#utility.yul\":8424:8428   */\n      dup3\n        /* \"#utility.yul\":8417:8428   */\n      swap8\n      pop\n        /* \"#utility.yul\":8444:8447   */\n      dup8\n        /* \"#utility.yul\":8437:8447   */\n      swap6\n      pop\n        /* \"#utility.yul\":7540:8453   */\n      pop\n      pop\n      pop\n      pop\n      pop\n        /* \"#utility.yul\":7374:8453   */\n      swap3\n      swap2\n      pop\n      pop\n      jump\t// out\n        /* \"#utility.yul\":8459:8916   */\n    tag_28:\n        /* \"#utility.yul\":8644:8648   */\n      0x00\n        /* \"#utility.yul\":8682:8684   */\n      0x20\n        /* \"#utility.yul\":8671:8680   */\n      dup3\n        /* \"#utility.yul\":8667:8685   */\n      add\n        /* \"#utility.yul\":8659:8685   */\n      swap1\n      pop\n        /* \"#utility.yul\":8731:8740   */\n      dup2\n        /* \"#utility.yul\":8725:8729   */\n      dup2\n        /* \"#utility.yul\":8721:8741   */\n      sub\n        /* \"#utility.yul\":8717:8718   */\n      0x00\n        /* \"#utility.yul\":8706:8715   */\n      dup4\n        /* \"#utility.yul\":8702:8719   */\n      add\n        /* \"#utility.yul\":8695:8742   */\n      mstore\n        /* \"#utility.yul\":8759:8909   */\n      tag_287\n        /* \"#utility.yul\":8904:8908   */\n      dup2\n        /* \"#utility.yul\":8895:8901   */\n      dup5\n        /* \"#utility.yul\":8759:8909   */\n      tag_163\n      jump\t// in\n    tag_287:\n        /* \"#utility.yul\":8751:8909   */\n      swap1\n      pop\n        /* \"#utility.yul\":8459:8916   */\n      swap3\n      swap2\n      pop\n      pop\n      jump\t// out\n        /* \"#utility.yul\":8922:9042   */\n    tag_164:\n        /* \"#utility.yul\":8994:9017   */\n      tag_289\n        /* \"#utility.yul\":9011:9016   */\n      dup2\n        /* \"#utility.yul\":8994:9017   */\n      tag_151\n      jump\t// in\n    tag_289:\n        /* \"#utility.yul\":8987:8992   */\n      dup2\n        /* \"#utility.yul\":8984:9018   */\n      eq\n        /* \"#utility.yul\":8974:9036   */\n      tag_290\n      jumpi\n        /* \"#utility.yul\":9032:9033   */\n      0x00\n        /* \"#utility.yul\":9029:9030   */\n      dup1\n        /* \"#utility.yul\":9022:9034   */\n      revert\n        /* \"#utility.yul\":8974:9036   */\n    tag_290:\n        /* \"#utility.yul\":8922:9042   */\n      pop\n      jump\t// out\n        /* \"#utility.yul\":9048:9185   */\n    tag_165:\n        /* \"#utility.yul\":9093:9098   */\n      0x00\n        /* \"#utility.yul\":9131:9137   */\n      dup2\n        /* \"#utility.yul\":9118:9138   */\n      calldataload\n        /* \"#utility.yul\":9109:9138   */\n      swap1\n      pop\n        /* \"#utility.yul\":9147:9179   */\n      tag_292\n        /* \"#utility.yul\":9173:9178   */\n      dup2\n        /* \"#utility.yul\":9147:9179   */\n      tag_164\n      jump\t// in\n    tag_292:\n        /* \"#utility.yul\":9048:9185   */\n      swap3\n      swap2\n      pop\n      pop\n      jump\t// out\n        /* \"#utility.yul\":9191:9518   */\n    tag_34:\n        /* \"#utility.yul\":9249:9255   */\n      0x00\n        /* \"#utility.yul\":9298:9300   */\n      0x20\n        /* \"#utility.yul\":9286:9295   */\n      dup3\n        /* \"#utility.yul\":9277:9284   */\n      dup5\n        /* \"#utility.yul\":9273:9296   */\n      sub\n        /* \"#utility.yul\":9269:9301   */\n      slt\n        /* \"#utility.yul\":9266:9385   */\n      iszero\n      tag_294\n      jumpi\n        /* \"#utility.yul\":9304:9383   */\n      tag_295\n      tag_135\n      jump\t// in\n    tag_295:\n        /* \"#utility.yul\":9266:9385   */\n    tag_294:\n        /* \"#utility.yul\":9424:9425   */\n      0x00\n        /* \"#utility.yul\":9449:9501   */\n      tag_296\n        /* \"#utility.yul\":9493:9500   */\n      dup5\n        /* \"#utility.yul\":9484:9490   */\n      dup3\n        /* \"#utility.yul\":9473:9482   */\n      dup6\n        /* \"#utility.yul\":9469:9491   */\n      add\n        /* \"#utility.yul\":9449:9501   */\n      tag_165\n      jump\t// in\n    tag_296:\n        /* \"#utility.yul\":9439:9501   */\n      swap2\n      pop\n        /* \"#utility.yul\":9395:9511   */\n      pop\n        /* \"#utility.yul\":9191:9518   */\n      swap3\n      swap2\n      pop\n      pop\n      jump\t// out\n        /* \"#utility.yul\":9524:9641   */\n    tag_166:\n        /* \"#utility.yul\":9633:9634   */\n      0x00\n        /* \"#utility.yul\":9630:9631   */\n      dup1\n        /* \"#utility.yul\":9623:9635   */\n      revert\n        /* \"#utility.yul\":9647:9764   */\n    tag_167:\n        /* \"#utility.yul\":9756:9757   */\n      0x00\n        /* \"#utility.yul\":9753:9754   */\n      dup1\n        /* \"#utility.yul\":9746:9758   */\n      revert\n        /* \"#utility.yul\":9770:9950   */\n    tag_168:\n        /* \"#utility.yul\":9818:9895   */\n      0x4e487b7100000000000000000000000000000000000000000000000000000000\n        /* \"#utility.yul\":9815:9816   */\n      0x00\n        /* \"#utility.yul\":9808:9896   */\n      mstore\n        /* \"#utility.yul\":9915:9919   */\n      0x41\n        /* \"#utility.yul\":9912:9913   */\n      0x04\n        /* \"#utility.yul\":9905:9920   */\n      mstore\n        /* \"#utility.yul\":9939:9943   */\n      0x24\n        /* \"#utility.yul\":9936:9937   */\n      0x00\n        /* \"#utility.yul\":9929:9944   */\n      revert\n        /* \"#utility.yul\":9956:10237   */\n    tag_169:\n        /* \"#utility.yul\":10039:10066   */\n      tag_301\n        /* \"#utility.yul\":10061:10065   */\n      dup3\n        /* \"#utility.yul\":10039:10066   */\n      tag_149\n      jump\t// in\n    tag_301:\n        /* \"#utility.yul\":10031:10037   */\n      dup2\n        /* \"#utility.yul\":10027:10067   */\n      add\n        /* \"#utility.yul\":10169:10175   */\n      dup2\n        /* \"#utility.yul\":10157:10167   */\n      dup2\n        /* \"#utility.yul\":10154:10176   */\n      lt\n        /* \"#utility.yul\":10133:10151   */\n      0xffffffffffffffff\n        /* \"#utility.yul\":10121:10131   */\n      dup3\n        /* \"#utility.yul\":10118:10152   */\n      gt\n        /* \"#utility.yul\":10115:10177   */\n      or\n        /* \"#utility.yul\":10112:10200   */\n      iszero\n      tag_302\n      jumpi\n        /* \"#utility.yul\":10180:10198   */\n      tag_303\n      tag_168\n      jump\t// in\n    tag_303:\n        /* \"#utility.yul\":10112:10200   */\n    tag_302:\n        /* \"#utility.yul\":10220:10230   */\n      dup1\n        /* \"#utility.yul\":10216:10218   */\n      0x40\n        /* \"#utility.yul\":10209:10231   */\n      mstore\n        /* \"#utility.yul\":9999:10237   */\n      pop\n        /* \"#utility.yul\":9956:10237   */\n      pop\n      pop\n      jump\t// out\n        /* \"#utility.yul\":10243:10372   */\n    tag_170:\n        /* \"#utility.yul\":10277:10283   */\n      0x00\n        /* \"#utility.yul\":10304:10324   */\n      tag_305\n      tag_134\n      jump\t// in\n    tag_305:\n        /* \"#utility.yul\":10294:10324   */\n      swap1\n      pop\n        /* \"#utility.yul\":10333:10366   */\n      tag_306\n        /* \"#utility.yul\":10361:10365   */\n      dup3\n        /* \"#utility.yul\":10353:10359   */\n      dup3\n        /* \"#utility.yul\":10333:10366   */\n      tag_169\n      jump\t// in\n    tag_306:\n        /* \"#utility.yul\":10243:10372   */\n      swap2\n      swap1\n      pop\n      jump\t// out\n        /* \"#utility.yul\":10378:10686   */\n    tag_171:\n        /* \"#utility.yul\":10440:10444   */\n      0x00\n        /* \"#utility.yul\":10530:10548   */\n      0xffffffffffffffff\n        /* \"#utility.yul\":10522:10528   */\n      dup3\n        /* \"#utility.yul\":10519:10549   */\n      gt\n        /* \"#utility.yul\":10516:10572   */\n      iszero\n      tag_308\n      jumpi\n        /* \"#utility.yul\":10552:10570   */\n      tag_309\n      tag_168\n      jump\t// in\n    tag_309:\n        /* \"#utility.yul\":10516:10572   */\n    tag_308:\n        /* \"#utility.yul\":10590:10619   */\n      tag_310\n        /* \"#utility.yul\":10612:10618   */\n      dup3\n        /* \"#utility.yul\":10590:10619   */\n      tag_149\n      jump\t// in\n    tag_310:\n        /* \"#utility.yul\":10582:10619   */\n      swap1\n      pop\n        /* \"#utility.yul\":10674:10678   */\n      0x20\n        /* \"#utility.yul\":10668:10672   */\n      dup2\n        /* \"#utility.yul\":10664:10679   */\n      add\n        /* \"#utility.yul\":10656:10679   */\n      swap1\n      pop\n        /* \"#utility.yul\":10378:10686   */\n      swap2\n      swap1\n      pop\n      jump\t// out\n        /* \"#utility.yul\":10692:10838   */\n    tag_172:\n        /* \"#utility.yul\":10789:10795   */\n      dup3\n        /* \"#utility.yul\":10784:10787   */\n      dup2\n        /* \"#utility.yul\":10779:10782   */\n      dup4\n        /* \"#utility.yul\":10766:10796   */\n      calldatacopy\n        /* \"#utility.yul\":10830:10831   */\n      0x00\n        /* \"#utility.yul\":10821:10827   */\n      dup4\n        /* \"#utility.yul\":10816:10819   */\n      dup4\n        /* \"#utility.yul\":10812:10828   */\n      add\n        /* \"#utility.yul\":10805:10832   */\n      mstore\n        /* \"#utility.yul\":10692:10838   */\n      pop\n      pop\n      pop\n      jump\t// out\n        /* \"#utility.yul\":10844:11269   */\n    tag_173:\n        /* \"#utility.yul\":10922:10927   */\n      0x00\n        /* \"#utility.yul\":10947:11013   */\n      tag_313\n        /* \"#utility.yul\":10963:11012   */\n      tag_314\n        /* \"#utility.yul\":11005:11011   */\n      dup5\n        /* \"#utility.yul\":10963:11012   */\n      tag_171\n      jump\t// in\n    tag_314:\n        /* \"#utility.yul\":10947:11013   */\n      tag_170\n      jump\t// in\n    tag_313:\n        /* \"#utility.yul\":10938:11013   */\n      swap1\n      pop\n        /* \"#utility.yul\":11036:11042   */\n      dup3\n        /* \"#utility.yul\":11029:11034   */\n      dup2\n        /* \"#utility.yul\":11022:11043   */\n      mstore\n        /* \"#utility.yul\":11074:11078   */\n      0x20\n        /* \"#utility.yul\":11067:11072   */\n      dup2\n        /* \"#utility.yul\":11063:11079   */\n      add\n        /* \"#utility.yul\":11112:11115   */\n      dup5\n        /* \"#utility.yul\":11103:11109   */\n      dup5\n        /* \"#utility.yul\":11098:11101   */\n      dup5\n        /* \"#utility.yul\":11094:11110   */\n      add\n        /* \"#utility.yul\":11091:11116   */\n      gt\n        /* \"#utility.yul\":11088:11200   */\n      iszero\n      tag_315\n      jumpi\n        /* \"#utility.yul\":11119:11198   */\n      tag_316\n      tag_167\n      jump\t// in\n    tag_316:\n        /* \"#utility.yul\":11088:11200   */\n    tag_315:\n        /* \"#utility.yul\":11209:11263   */\n      tag_317\n        /* \"#utility.yul\":11256:11262   */\n      dup5\n        /* \"#utility.yul\":11251:11254   */\n      dup3\n        /* \"#utility.yul\":11246:11249   */\n      dup6\n        /* \"#utility.yul\":11209:11263   */\n      tag_172\n      jump\t// in\n    tag_317:\n        /* \"#utility.yul\":10928:11269   */\n      pop\n        /* \"#utility.yul\":10844:11269   */\n      swap4\n      swap3\n      pop\n      pop\n      pop\n      jump\t// out\n        /* \"#utility.yul\":11289:11629   */\n    tag_174:\n        /* \"#utility.yul\":11345:11350   */\n      0x00\n        /* \"#utility.yul\":11394:11397   */\n      dup3\n        /* \"#utility.yul\":11387:11391   */\n      0x1f\n        /* \"#utility.yul\":11379:11385   */\n      dup4\n        /* \"#utility.yul\":11375:11392   */\n      add\n        /* \"#utility.yul\":11371:11398   */\n      slt\n        /* \"#utility.yul\":11361:11483   */\n      tag_319\n      jumpi\n        /* \"#utility.yul\":11402:11481   */\n      tag_320\n      tag_166\n      jump\t// in\n    tag_320:\n        /* \"#utility.yul\":11361:11483   */\n    tag_319:\n        /* \"#utility.yul\":11519:11525   */\n      dup2\n        /* \"#utility.yul\":11506:11526   */\n      calldataload\n        /* \"#utility.yul\":11544:11623   */\n      tag_321\n        /* \"#utility.yul\":11619:11622   */\n      dup5\n        /* \"#utility.yul\":11611:11617   */\n      dup3\n        /* \"#utility.yul\":11604:11608   */\n      0x20\n        /* \"#utility.yul\":11596:11602   */\n      dup7\n        /* \"#utility.yul\":11592:11609   */\n      add\n        /* \"#utility.yul\":11544:11623   */\n      tag_173\n      jump\t// in\n    tag_321:\n        /* \"#utility.yul\":11535:11623   */\n      swap2\n      pop\n        /* \"#utility.yul\":11351:11629   */\n      pop\n        /* \"#utility.yul\":11289:11629   */\n      swap3\n      swap2\n      pop\n      pop\n      jump\t// out\n        /* \"#utility.yul\":11635:12144   */\n    tag_41:\n        /* \"#utility.yul\":11704:11710   */\n      0x00\n        /* \"#utility.yul\":11753:11755   */\n      0x20\n        /* \"#utility.yul\":11741:11750   */\n      dup3\n        /* \"#utility.yul\":11732:11739   */\n      dup5\n        /* \"#utility.yul\":11728:11751   */\n      sub\n        /* \"#utility.yul\":11724:11756   */\n      slt\n        /* \"#utility.yul\":11721:11840   */\n      iszero\n      tag_323\n      jumpi\n        /* \"#utility.yul\":11759:11838   */\n      tag_324\n      tag_135\n      jump\t// in\n    tag_324:\n        /* \"#utility.yul\":11721:11840   */\n    tag_323:\n        /* \"#utility.yul\":11907:11908   */\n      0x00\n        /* \"#utility.yul\":11896:11905   */\n      dup3\n        /* \"#utility.yul\":11892:11909   */\n      add\n        /* \"#utility.yul\":11879:11910   */\n      calldataload\n        /* \"#utility.yul\":11937:11955   */\n      0xffffffffffffffff\n        /* \"#utility.yul\":11929:11935   */\n      dup2\n        /* \"#utility.yul\":11926:11956   */\n      gt\n        /* \"#utility.yul\":11923:12040   */\n      iszero\n      tag_325\n      jumpi\n        /* \"#utility.yul\":11959:12038   */\n      tag_326\n      tag_136\n      jump\t// in\n    tag_326:\n        /* \"#utility.yul\":11923:12040   */\n    tag_325:\n        /* \"#utility.yul\":12064:12127   */\n      tag_327\n        /* \"#utility.yul\":12119:12126   */\n      dup5\n        /* \"#utility.yul\":12110:12116   */\n      dup3\n        /* \"#utility.yul\":12099:12108   */\n      dup6\n        /* \"#utility.yul\":12095:12117   */\n      add\n        /* \"#utility.yul\":12064:12127   */\n      tag_174\n      jump\t// in\n    tag_327:\n        /* \"#utility.yul\":12054:12127   */\n      swap2\n      pop\n        /* \"#utility.yul\":11850:12137   */\n      pop\n        /* \"#utility.yul\":11635:12144   */\n      swap3\n      swap2\n      pop\n      pop\n      jump\t// out\n        /* \"#utility.yul\":12150:12372   */\n    tag_46:\n        /* \"#utility.yul\":12243:12247   */\n      0x00\n        /* \"#utility.yul\":12281:12283   */\n      0x20\n        /* \"#utility.yul\":12270:12279   */\n      dup3\n        /* \"#utility.yul\":12266:12284   */\n      add\n        /* \"#utility.yul\":12258:12284   */\n      swap1\n      pop\n        /* \"#utility.yul\":12294:12365   */\n      tag_329\n        /* \"#utility.yul\":12362:12363   */\n      0x00\n        /* \"#utility.yul\":12351:12360   */\n      dup4\n        /* \"#utility.yul\":12347:12364   */\n      add\n        /* \"#utility.yul\":12338:12344   */\n      dup5\n        /* \"#utility.yul\":12294:12365   */\n      tag_145\n      jump\t// in\n    tag_329:\n        /* \"#utility.yul\":12150:12372   */\n      swap3\n      swap2\n      pop\n      pop\n      jump\t// out\n        /* \"#utility.yul\":12378:12707   */\n    tag_49:\n        /* \"#utility.yul\":12437:12443   */\n      0x00\n        /* \"#utility.yul\":12486:12488   */\n      0x20\n        /* \"#utility.yul\":12474:12483   */\n      dup3\n        /* \"#utility.yul\":12465:12472   */\n      dup5\n        /* \"#utility.yul\":12461:12484   */\n      sub\n        /* \"#utility.yul\":12457:12489   */\n      slt\n        /* \"#utility.yul\":12454:12573   */\n      iszero\n      tag_331\n      jumpi\n        /* \"#utility.yul\":12492:12571   */\n      tag_332\n      tag_135\n      jump\t// in\n    tag_332:\n        /* \"#utility.yul\":12454:12573   */\n    tag_331:\n        /* \"#utility.yul\":12612:12613   */\n      0x00\n        /* \"#utility.yul\":12637:12690   */\n      tag_333\n        /* \"#utility.yul\":12682:12689   */\n      dup5\n        /* \"#utility.yul\":12673:12679   */\n      dup3\n        /* \"#utility.yul\":12662:12671   */\n      dup6\n        /* \"#utility.yul\":12658:12680   */\n      add\n        /* \"#utility.yul\":12637:12690   */\n      tag_143\n      jump\t// in\n    tag_333:\n        /* \"#utility.yul\":12627:12690   */\n      swap2\n      pop\n        /* \"#utility.yul\":12583:12700   */\n      pop\n        /* \"#utility.yul\":12378:12707   */\n      swap3\n      swap2\n      pop\n      pop\n      jump\t// out\n        /* \"#utility.yul\":12767:13896   */\n    tag_175:\n        /* \"#utility.yul\":12878:12881   */\n      0x00\n        /* \"#utility.yul\":12914:12918   */\n      0xa0\n        /* \"#utility.yul\":12909:12912   */\n      dup4\n        /* \"#utility.yul\":12905:12919   */\n      add\n        /* \"#utility.yul\":12999:13003   */\n      0x00\n        /* \"#utility.yul\":12992:12997   */\n      dup4\n        /* \"#utility.yul\":12988:13004   */\n      add\n        /* \"#utility.yul\":12982:13005   */\n      mload\n        /* \"#utility.yul\":13018:13081   */\n      tag_335\n        /* \"#utility.yul\":13075:13079   */\n      0x00\n        /* \"#utility.yul\":13070:13073   */\n      dup7\n        /* \"#utility.yul\":13066:13080   */\n      add\n        /* \"#utility.yul\":13052:13064   */\n      dup3\n        /* \"#utility.yul\":13018:13081   */\n      tag_156\n      jump\t// in\n    tag_335:\n        /* \"#utility.yul\":12929:13091   */\n      pop\n        /* \"#utility.yul\":13175:13179   */\n      0x20\n        /* \"#utility.yul\":13168:13173   */\n      dup4\n        /* \"#utility.yul\":13164:13180   */\n      add\n        /* \"#utility.yul\":13158:13181   */\n      mload\n        /* \"#utility.yul\":13194:13257   */\n      tag_336\n        /* \"#utility.yul\":13251:13255   */\n      0x20\n        /* \"#utility.yul\":13246:13249   */\n      dup7\n        /* \"#utility.yul\":13242:13256   */\n      add\n        /* \"#utility.yul\":13228:13240   */\n      dup3\n        /* \"#utility.yul\":13194:13257   */\n      tag_157\n      jump\t// in\n    tag_336:\n        /* \"#utility.yul\":13101:13267   */\n      pop\n        /* \"#utility.yul\":13352:13356   */\n      0x40\n        /* \"#utility.yul\":13345:13350   */\n      dup4\n        /* \"#utility.yul\":13341:13357   */\n      add\n        /* \"#utility.yul\":13335:13358   */\n      mload\n        /* \"#utility.yul\":13405:13408   */\n      dup5\n        /* \"#utility.yul\":13399:13403   */\n      dup3\n        /* \"#utility.yul\":13395:13409   */\n      sub\n        /* \"#utility.yul\":13388:13392   */\n      0x40\n        /* \"#utility.yul\":13383:13386   */\n      dup7\n        /* \"#utility.yul\":13379:13393   */\n      add\n        /* \"#utility.yul\":13372:13410   */\n      mstore\n        /* \"#utility.yul\":13431:13504   */\n      tag_337\n        /* \"#utility.yul\":13499:13503   */\n      dup3\n        /* \"#utility.yul\":13485:13497   */\n      dup3\n        /* \"#utility.yul\":13431:13504   */\n      tag_159\n      jump\t// in\n    tag_337:\n        /* \"#utility.yul\":13423:13504   */\n      swap2\n      pop\n        /* \"#utility.yul\":13277:13515   */\n      pop\n        /* \"#utility.yul\":13602:13606   */\n      0x60\n        /* \"#utility.yul\":13595:13600   */\n      dup4\n        /* \"#utility.yul\":13591:13607   */\n      add\n        /* \"#utility.yul\":13585:13608   */\n      mload\n        /* \"#utility.yul\":13621:13684   */\n      tag_338\n        /* \"#utility.yul\":13678:13682   */\n      0x60\n        /* \"#utility.yul\":13673:13676   */\n      dup7\n        /* \"#utility.yul\":13669:13683   */\n      add\n        /* \"#utility.yul\":13655:13667   */\n      dup3\n        /* \"#utility.yul\":13621:13684   */\n      tag_156\n      jump\t// in\n    tag_338:\n        /* \"#utility.yul\":13525:13694   */\n      pop\n        /* \"#utility.yul\":13777:13781   */\n      0x80\n        /* \"#utility.yul\":13770:13775   */\n      dup4\n        /* \"#utility.yul\":13766:13782   */\n      add\n        /* \"#utility.yul\":13760:13783   */\n      mload\n        /* \"#utility.yul\":13796:13859   */\n      tag_339\n        /* \"#utility.yul\":13853:13857   */\n      0x80\n        /* \"#utility.yul\":13848:13851   */\n      dup7\n        /* \"#utility.yul\":13844:13858   */\n      add\n        /* \"#utility.yul\":13830:13842   */\n      dup3\n        /* \"#utility.yul\":13796:13859   */\n      tag_156\n      jump\t// in\n    tag_339:\n        /* \"#utility.yul\":13704:13869   */\n      pop\n        /* \"#utility.yul\":13886:13890   */\n      dup1\n        /* \"#utility.yul\":13879:13890   */\n      swap2\n      pop\n        /* \"#utility.yul\":12883:13896   */\n      pop\n        /* \"#utility.yul\":12767:13896   */\n      swap3\n      swap2\n      pop\n      pop\n      jump\t// out\n        /* \"#utility.yul\":13902:14259   */\n    tag_52:\n        /* \"#utility.yul\":14037:14041   */\n      0x00\n        /* \"#utility.yul\":14075:14077   */\n      0x20\n        /* \"#utility.yul\":14064:14073   */\n      dup3\n        /* \"#utility.yul\":14060:14078   */\n      add\n        /* \"#utility.yul\":14052:14078   */\n      swap1\n      pop\n        /* \"#utility.yul\":14124:14133   */\n      dup2\n        /* \"#utility.yul\":14118:14122   */\n      dup2\n        /* \"#utility.yul\":14114:14134   */\n      sub\n        /* \"#utility.yul\":14110:14111   */\n      0x00\n        /* \"#utility.yul\":14099:14108   */\n      dup4\n        /* \"#utility.yul\":14095:14112   */\n      add\n        /* \"#utility.yul\":14088:14135   */\n      mstore\n        /* \"#utility.yul\":14152:14252   */\n      tag_341\n        /* \"#utility.yul\":14247:14251   */\n      dup2\n        /* \"#utility.yul\":14238:14244   */\n      dup5\n        /* \"#utility.yul\":14152:14252   */\n      tag_175\n      jump\t// in\n    tag_341:\n        /* \"#utility.yul\":14144:14252   */\n      swap1\n      pop\n        /* \"#utility.yul\":13902:14259   */\n      swap3\n      swap2\n      pop\n      pop\n      jump\t// out\n        /* \"#utility.yul\":14265:14445   */\n    tag_176:\n        /* \"#utility.yul\":14313:14390   */\n      0x4e487b7100000000000000000000000000000000000000000000000000000000\n        /* \"#utility.yul\":14310:14311   */\n      0x00\n        /* \"#utility.yul\":14303:14391   */\n      mstore\n        /* \"#utility.yul\":14410:14414   */\n      0x22\n        /* \"#utility.yul\":14407:14408   */\n      0x04\n        /* \"#utility.yul\":14400:14415   */\n      mstore\n        /* \"#utility.yul\":14434:14438   */\n      0x24\n        /* \"#utility.yul\":14431:14432   */\n      0x00\n        /* \"#utility.yul\":14424:14439   */\n      revert\n        /* \"#utility.yul\":14451:14771   */\n    tag_56:\n        /* \"#utility.yul\":14495:14501   */\n      0x00\n        /* \"#utility.yul\":14532:14533   */\n      0x02\n        /* \"#utility.yul\":14526:14530   */\n      dup3\n        /* \"#utility.yul\":14522:14534   */\n      div\n        /* \"#utility.yul\":14512:14534   */\n      swap1\n      pop\n        /* \"#utility.yul\":14579:14580   */\n      0x01\n        /* \"#utility.yul\":14573:14577   */\n      dup3\n        /* \"#utility.yul\":14569:14581   */\n      and\n        /* \"#utility.yul\":14600:14618   */\n      dup1\n        /* \"#utility.yul\":14590:14671   */\n      tag_344\n      jumpi\n        /* \"#utility.yul\":14656:14660   */\n      0x7f\n        /* \"#utility.yul\":14648:14654   */\n      dup3\n        /* \"#utility.yul\":14644:14661   */\n      and\n        /* \"#utility.yul\":14634:14661   */\n      swap2\n      pop\n        /* \"#utility.yul\":14590:14671   */\n    tag_344:\n        /* \"#utility.yul\":14718:14720   */\n      0x20\n        /* \"#utility.yul\":14710:14716   */\n      dup3\n        /* \"#utility.yul\":14707:14721   */\n      lt\n        /* \"#utility.yul\":14687:14705   */\n      dup2\n        /* \"#utility.yul\":14684:14722   */\n      sub\n        /* \"#utility.yul\":14681:14765   */\n      tag_345\n      jumpi\n        /* \"#utility.yul\":14737:14755   */\n      tag_346\n      tag_176\n      jump\t// in\n    tag_346:\n        /* \"#utility.yul\":14681:14765   */\n    tag_345:\n        /* \"#utility.yul\":14502:14771   */\n      pop\n        /* \"#utility.yul\":14451:14771   */\n      swap2\n      swap1\n      pop\n      jump\t// out\n        /* \"#utility.yul\":14777:14957   */\n    tag_73:\n        /* \"#utility.yul\":14825:14902   */\n      0x4e487b7100000000000000000000000000000000000000000000000000000000\n        /* \"#utility.yul\":14822:14823   */\n      0x00\n        /* \"#utility.yul\":14815:14903   */\n      mstore\n        /* \"#utility.yul\":14922:14926   */\n      0x32\n        /* \"#utility.yul\":14919:14920   */\n      0x04\n        /* \"#utility.yul\":14912:14927   */\n      mstore\n        /* \"#utility.yul\":14946:14950   */\n      0x24\n        /* \"#utility.yul\":14943:14944   */\n      0x00\n        /* \"#utility.yul\":14936:14951   */\n      revert\n        /* \"#utility.yul\":14963:15133   */\n    tag_177:\n        /* \"#utility.yul\":15103:15125   */\n      0x547765657420446f6573206e6f74206578697374000000000000000000000000\n        /* \"#utility.yul\":15099:15100   */\n      0x00\n        /* \"#utility.yul\":15091:15097   */\n      dup3\n        /* \"#utility.yul\":15087:15101   */\n      add\n        /* \"#utility.yul\":15080:15126   */\n      mstore\n        /* \"#utility.yul\":14963:15133   */\n      pop\n      jump\t// out\n        /* \"#utility.yul\":15139:15505   */\n    tag_178:\n        /* \"#utility.yul\":15281:15284   */\n      0x00\n        /* \"#utility.yul\":15302:15369   */\n      tag_350\n        /* \"#utility.yul\":15366:15368   */\n      0x14\n        /* \"#utility.yul\":15361:15364   */\n      dup4\n        /* \"#utility.yul\":15302:15369   */\n      tag_147\n      jump\t// in\n    tag_350:\n        /* \"#utility.yul\":15295:15369   */\n      swap2\n      pop\n        /* \"#utility.yul\":15378:15471   */\n      tag_351\n        /* \"#utility.yul\":15467:15470   */\n      dup3\n        /* \"#utility.yul\":15378:15471   */\n      tag_177\n      jump\t// in\n    tag_351:\n        /* \"#utility.yul\":15496:15498   */\n      0x20\n        /* \"#utility.yul\":15491:15494   */\n      dup3\n        /* \"#utility.yul\":15487:15499   */\n      add\n        /* \"#utility.yul\":15480:15499   */\n      swap1\n      pop\n        /* \"#utility.yul\":15139:15505   */\n      swap2\n      swap1\n      pop\n      jump\t// out\n        /* \"#utility.yul\":15511:15930   */\n    tag_77:\n        /* \"#utility.yul\":15677:15681   */\n      0x00\n        /* \"#utility.yul\":15715:15717   */\n      0x20\n        /* \"#utility.yul\":15704:15713   */\n      dup3\n        /* \"#utility.yul\":15700:15718   */\n      add\n        /* \"#utility.yul\":15692:15718   */\n      swap1\n      pop\n        /* \"#utility.yul\":15764:15773   */\n      dup2\n        /* \"#utility.yul\":15758:15762   */\n      dup2\n        /* \"#utility.yul\":15754:15774   */\n      sub\n        /* \"#utility.yul\":15750:15751   */\n      0x00\n        /* \"#utility.yul\":15739:15748   */\n      dup4\n        /* \"#utility.yul\":15735:15752   */\n      add\n        /* \"#utility.yul\":15728:15775   */\n      mstore\n        /* \"#utility.yul\":15792:15923   */\n      tag_353\n        /* \"#utility.yul\":15918:15922   */\n      dup2\n        /* \"#utility.yul\":15792:15923   */\n      tag_178\n      jump\t// in\n    tag_353:\n        /* \"#utility.yul\":15784:15923   */\n      swap1\n      pop\n        /* \"#utility.yul\":15511:15930   */\n      swap2\n      swap1\n      pop\n      jump\t// out\n        /* \"#utility.yul\":15936:16104   */\n    tag_179:\n        /* \"#utility.yul\":16076:16096   */\n      0x747765657420686173206e6f206c696b65730000000000000000000000000000\n        /* \"#utility.yul\":16072:16073   */\n      0x00\n        /* \"#utility.yul\":16064:16070   */\n      dup3\n        /* \"#utility.yul\":16060:16074   */\n      add\n        /* \"#utility.yul\":16053:16097   */\n      mstore\n        /* \"#utility.yul\":15936:16104   */\n      pop\n      jump\t// out\n        /* \"#utility.yul\":16110:16476   */\n    tag_180:\n        /* \"#utility.yul\":16252:16255   */\n      0x00\n        /* \"#utility.yul\":16273:16340   */\n      tag_356\n        /* \"#utility.yul\":16337:16339   */\n      0x12\n        /* \"#utility.yul\":16332:16335   */\n      dup4\n        /* \"#utility.yul\":16273:16340   */\n      tag_147\n      jump\t// in\n    tag_356:\n        /* \"#utility.yul\":16266:16340   */\n      swap2\n      pop\n        /* \"#utility.yul\":16349:16442   */\n      tag_357\n        /* \"#utility.yul\":16438:16441   */\n      dup3\n        /* \"#utility.yul\":16349:16442   */\n      tag_179\n      jump\t// in\n    tag_357:\n        /* \"#utility.yul\":16467:16469   */\n      0x20\n        /* \"#utility.yul\":16462:16465   */\n      dup3\n        /* \"#utility.yul\":16458:16470   */\n      add\n        /* \"#utility.yul\":16451:16470   */\n      swap1\n      pop\n        /* \"#utility.yul\":16110:16476   */\n      swap2\n      swap1\n      pop\n      jump\t// out\n        /* \"#utility.yul\":16482:16901   */\n    tag_83:\n        /* \"#utility.yul\":16648:16652   */\n      0x00\n        /* \"#utility.yul\":16686:16688   */\n      0x20\n        /* \"#utility.yul\":16675:16684   */\n      dup3\n        /* \"#utility.yul\":16671:16689   */\n      add\n        /* \"#utility.yul\":16663:16689   */\n      swap1\n      pop\n        /* \"#utility.yul\":16735:16744   */\n      dup2\n        /* \"#utility.yul\":16729:16733   */\n      dup2\n        /* \"#utility.yul\":16725:16745   */\n      sub\n        /* \"#utility.yul\":16721:16722   */\n      0x00\n        /* \"#utility.yul\":16710:16719   */\n      dup4\n        /* \"#utility.yul\":16706:16723   */\n      add\n        /* \"#utility.yul\":16699:16746   */\n      mstore\n        /* \"#utility.yul\":16763:16894   */\n      tag_359\n        /* \"#utility.yul\":16889:16893   */\n      dup2\n        /* \"#utility.yul\":16763:16894   */\n      tag_180\n      jump\t// in\n    tag_359:\n        /* \"#utility.yul\":16755:16894   */\n      swap1\n      pop\n        /* \"#utility.yul\":16482:16901   */\n      swap2\n      swap1\n      pop\n      jump\t// out\n        /* \"#utility.yul\":16907:17087   */\n    tag_181:\n        /* \"#utility.yul\":16955:17032   */\n      0x4e487b7100000000000000000000000000000000000000000000000000000000\n        /* \"#utility.yul\":16952:16953   */\n      0x00\n        /* \"#utility.yul\":16945:17033   */\n      mstore\n        /* \"#utility.yul\":17052:17056   */\n      0x11\n        /* \"#utility.yul\":17049:17050   */\n      0x04\n        /* \"#utility.yul\":17042:17057   */\n      mstore\n        /* \"#utility.yul\":17076:17080   */\n      0x24\n        /* \"#utility.yul\":17073:17074   */\n      0x00\n        /* \"#utility.yul\":17066:17081   */\n      revert\n        /* \"#utility.yul\":17093:17264   */\n    tag_88:\n        /* \"#utility.yul\":17132:17135   */\n      0x00\n        /* \"#utility.yul\":17155:17179   */\n      tag_362\n        /* \"#utility.yul\":17173:17178   */\n      dup3\n        /* \"#utility.yul\":17155:17179   */\n      tag_141\n      jump\t// in\n    tag_362:\n        /* \"#utility.yul\":17146:17179   */\n      swap2\n      pop\n        /* \"#utility.yul\":17201:17205   */\n      0x00\n        /* \"#utility.yul\":17194:17199   */\n      dup3\n        /* \"#utility.yul\":17191:17206   */\n      sub\n        /* \"#utility.yul\":17188:17229   */\n      tag_363\n      jumpi\n        /* \"#utility.yul\":17209:17227   */\n      tag_364\n      tag_181\n      jump\t// in\n    tag_364:\n        /* \"#utility.yul\":17188:17229   */\n    tag_363:\n        /* \"#utility.yul\":17256:17257   */\n      0x01\n        /* \"#utility.yul\":17249:17254   */\n      dup3\n        /* \"#utility.yul\":17245:17258   */\n      sub\n        /* \"#utility.yul\":17238:17258   */\n      swap1\n      pop\n        /* \"#utility.yul\":17093:17264   */\n      swap2\n      swap1\n      pop\n      jump\t// out\n        /* \"#utility.yul\":17270:17823   */\n    tag_93:\n        /* \"#utility.yul\":17447:17451   */\n      0x00\n        /* \"#utility.yul\":17485:17488   */\n      0x80\n        /* \"#utility.yul\":17474:17483   */\n      dup3\n        /* \"#utility.yul\":17470:17489   */\n      add\n        /* \"#utility.yul\":17462:17489   */\n      swap1\n      pop\n        /* \"#utility.yul\":17499:17570   */\n      tag_366\n        /* \"#utility.yul\":17567:17568   */\n      0x00\n        /* \"#utility.yul\":17556:17565   */\n      dup4\n        /* \"#utility.yul\":17552:17569   */\n      add\n        /* \"#utility.yul\":17543:17549   */\n      dup8\n        /* \"#utility.yul\":17499:17570   */\n      tag_145\n      jump\t// in\n    tag_366:\n        /* \"#utility.yul\":17580:17652   */\n      tag_367\n        /* \"#utility.yul\":17648:17650   */\n      0x20\n        /* \"#utility.yul\":17637:17646   */\n      dup4\n        /* \"#utility.yul\":17633:17651   */\n      add\n        /* \"#utility.yul\":17624:17630   */\n      dup7\n        /* \"#utility.yul\":17580:17652   */\n      tag_145\n      jump\t// in\n    tag_367:\n        /* \"#utility.yul\":17662:17734   */\n      tag_368\n        /* \"#utility.yul\":17730:17732   */\n      0x40\n        /* \"#utility.yul\":17719:17728   */\n      dup4\n        /* \"#utility.yul\":17715:17733   */\n      add\n        /* \"#utility.yul\":17706:17712   */\n      dup6\n        /* \"#utility.yul\":17662:17734   */\n      tag_144\n      jump\t// in\n    tag_368:\n        /* \"#utility.yul\":17744:17816   */\n      tag_369\n        /* \"#utility.yul\":17812:17814   */\n      0x60\n        /* \"#utility.yul\":17801:17810   */\n      dup4\n        /* \"#utility.yul\":17797:17815   */\n      add\n        /* \"#utility.yul\":17788:17794   */\n      dup5\n        /* \"#utility.yul\":17744:17816   */\n      tag_144\n      jump\t// in\n    tag_369:\n        /* \"#utility.yul\":17270:17823   */\n      swap6\n      swap5\n      pop\n      pop\n      pop\n      pop\n      pop\n      jump\t// out\n        /* \"#utility.yul\":17829:18000   */\n    tag_182:\n        /* \"#utility.yul\":17969:17992   */\n      0x594f5520415245204e4f5420544845204f574e45520000000000000000000000\n        /* \"#utility.yul\":17965:17966   */\n      0x00\n        /* \"#utility.yul\":17957:17963   */\n      dup3\n        /* \"#utility.yul\":17953:17967   */\n      add\n        /* \"#utility.yul\":17946:17993   */\n      mstore\n        /* \"#utility.yul\":17829:18000   */\n      pop\n      jump\t// out\n        /* \"#utility.yul\":18006:18372   */\n    tag_183:\n        /* \"#utility.yul\":18148:18151   */\n      0x00\n        /* \"#utility.yul\":18169:18236   */\n      tag_372\n        /* \"#utility.yul\":18233:18235   */\n      0x15\n        /* \"#utility.yul\":18228:18231   */\n      dup4\n        /* \"#utility.yul\":18169:18236   */\n      tag_147\n      jump\t// in\n    tag_372:\n        /* \"#utility.yul\":18162:18236   */\n      swap2\n      pop\n        /* \"#utility.yul\":18245:18338   */\n      tag_373\n        /* \"#utility.yul\":18334:18337   */\n      dup3\n        /* \"#utility.yul\":18245:18338   */\n      tag_182\n      jump\t// in\n    tag_373:\n        /* \"#utility.yul\":18363:18365   */\n      0x20\n        /* \"#utility.yul\":18358:18361   */\n      dup3\n        /* \"#utility.yul\":18354:18366   */\n      add\n        /* \"#utility.yul\":18347:18366   */\n      swap1\n      pop\n        /* \"#utility.yul\":18006:18372   */\n      swap2\n      swap1\n      pop\n      jump\t// out\n        /* \"#utility.yul\":18378:18797   */\n    tag_97:\n        /* \"#utility.yul\":18544:18548   */\n      0x00\n        /* \"#utility.yul\":18582:18584   */\n      0x20\n        /* \"#utility.yul\":18571:18580   */\n      dup3\n        /* \"#utility.yul\":18567:18585   */\n      add\n        /* \"#utility.yul\":18559:18585   */\n      swap1\n      pop\n        /* \"#utility.yul\":18631:18640   */\n      dup2\n        /* \"#utility.yul\":18625:18629   */\n      dup2\n        /* \"#utility.yul\":18621:18641   */\n      sub\n        /* \"#utility.yul\":18617:18618   */\n      0x00\n        /* \"#utility.yul\":18606:18615   */\n      dup4\n        /* \"#utility.yul\":18602:18619   */\n      add\n        /* \"#utility.yul\":18595:18642   */\n      mstore\n        /* \"#utility.yul\":18659:18790   */\n      tag_375\n        /* \"#utility.yul\":18785:18789   */\n      dup2\n        /* \"#utility.yul\":18659:18790   */\n      tag_183\n      jump\t// in\n    tag_375:\n        /* \"#utility.yul\":18651:18790   */\n      swap1\n      pop\n        /* \"#utility.yul\":18378:18797   */\n      swap2\n      swap1\n      pop\n      jump\t// out\n        /* \"#utility.yul\":18803:19036   */\n    tag_109:\n        /* \"#utility.yul\":18842:18845   */\n      0x00\n        /* \"#utility.yul\":18865:18889   */\n      tag_377\n        /* \"#utility.yul\":18883:18888   */\n      dup3\n        /* \"#utility.yul\":18865:18889   */\n      tag_141\n      jump\t// in\n    tag_377:\n        /* \"#utility.yul\":18856:18889   */\n      swap2\n      pop\n        /* \"#utility.yul\":18911:18977   */\n      0xffffffffffffffffffffffffffffffffffffffffffffffffffffffffffffffff\n        /* \"#utility.yul\":18904:18909   */\n      dup3\n        /* \"#utility.yul\":18901:18978   */\n      sub\n        /* \"#utility.yul\":18898:19001   */\n      tag_378\n      jumpi\n        /* \"#utility.yul\":18981:18999   */\n      tag_379\n      tag_181\n      jump\t// in\n    tag_379:\n        /* \"#utility.yul\":18898:19001   */\n    tag_378:\n        /* \"#utility.yul\":19028:19029   */\n      0x01\n        /* \"#utility.yul\":19021:19026   */\n      dup3\n        /* \"#utility.yul\":19017:19030   */\n      add\n        /* \"#utility.yul\":19010:19030   */\n      swap1\n      pop\n        /* \"#utility.yul\":18803:19036   */\n      swap2\n      swap1\n      pop\n      jump\t// out\n        /* \"#utility.yul\":19042:19209   */\n    tag_184:\n        /* \"#utility.yul\":19182:19201   */\n      0x547765657420697320746f6f204c6f6e67000000000000000000000000000000\n        /* \"#utility.yul\":19178:19179   */\n      0x00\n        /* \"#utility.yul\":19170:19176   */\n      dup3\n        /* \"#utility.yul\":19166:19180   */\n      add\n        /* \"#utility.yul\":19159:19202   */\n      mstore\n        /* \"#utility.yul\":19042:19209   */\n      pop\n      jump\t// out\n        /* \"#utility.yul\":19215:19581   */\n    tag_185:\n        /* \"#utility.yul\":19357:19360   */\n      0x00\n        /* \"#utility.yul\":19378:19445   */\n      tag_382\n        /* \"#utility.yul\":19442:19444   */\n      0x11\n        /* \"#utility.yul\":19437:19440   */\n      dup4\n        /* \"#utility.yul\":19378:19445   */\n      tag_147\n      jump\t// in\n    tag_382:\n        /* \"#utility.yul\":19371:19445   */\n      swap2\n      pop\n        /* \"#utility.yul\":19454:19547   */\n      tag_383\n        /* \"#utility.yul\":19543:19546   */\n      dup3\n        /* \"#utility.yul\":19454:19547   */\n      tag_184\n      jump\t// in\n    tag_383:\n        /* \"#utility.yul\":19572:19574   */\n      0x20\n        /* \"#utility.yul\":19567:19570   */\n      dup3\n        /* \"#utility.yul\":19563:19575   */\n      add\n        /* \"#utility.yul\":19556:19575   */\n      swap1\n      pop\n        /* \"#utility.yul\":19215:19581   */\n      swap2\n      swap1\n      pop\n      jump\t// out\n        /* \"#utility.yul\":19587:20006   */\n    tag_117:\n        /* \"#utility.yul\":19753:19757   */\n      0x00\n        /* \"#utility.yul\":19791:19793   */\n      0x20\n        /* \"#utility.yul\":19780:19789   */\n      dup3\n        /* \"#utility.yul\":19776:19794   */\n      add\n        /* \"#utility.yul\":19768:19794   */\n      swap1\n      pop\n        /* \"#utility.yul\":19840:19849   */\n      dup2\n        /* \"#utility.yul\":19834:19838   */\n      dup2\n        /* \"#utility.yul\":19830:19850   */\n      sub\n        /* \"#utility.yul\":19826:19827   */\n      0x00\n        /* \"#utility.yul\":19815:19824   */\n      dup4\n        /* \"#utility.yul\":19811:19828   */\n      add\n        /* \"#utility.yul\":19804:19851   */\n      mstore\n        /* \"#utility.yul\":19868:19999   */\n      tag_385\n        /* \"#utility.yul\":19994:19998   */\n      dup2\n        /* \"#utility.yul\":19868:19999   */\n      tag_185\n      jump\t// in\n    tag_385:\n        /* \"#utility.yul\":19860:19999   */\n      swap1\n      pop\n        /* \"#utility.yul\":19587:20006   */\n      swap2\n      swap1\n      pop\n      jump\t// out\n        /* \"#utility.yul\":20012:20153   */\n    tag_186:\n        /* \"#utility.yul\":20061:20065   */\n      0x00\n        /* \"#utility.yul\":20084:20087   */\n      dup2\n        /* \"#utility.yul\":20076:20087   */\n      swap1\n      pop\n        /* \"#utility.yul\":20107:20110   */\n      dup2\n        /* \"#utility.yul\":20104:20105   */\n      0x00\n        /* \"#utility.yul\":20097:20111   */\n      mstore\n        /* \"#utility.yul\":20141:20145   */\n      0x20\n        /* \"#utility.yul\":20138:20139   */\n      0x00\n        /* \"#utility.yul\":20128:20146   */\n      keccak256\n        /* \"#utility.yul\":20120:20146   */\n      swap1\n      pop\n        /* \"#utility.yul\":20012:20153   */\n      swap2\n      swap1\n      pop\n      jump\t// out\n        /* \"#utility.yul\":20159:20252   */\n    tag_187:\n        /* \"#utility.yul\":20196:20202   */\n      0x00\n        /* \"#utility.yul\":20243:20245   */\n      0x20\n        /* \"#utility.yul\":20238:20240   */\n      0x1f\n        /* \"#utility.yul\":20231:20236   */\n      dup4\n        /* \"#utility.yul\":20227:20241   */\n      add\n        /* \"#utility.yul\":20223:20246   */\n      div\n        /* \"#utility.yul\":20213:20246   */\n      swap1\n      pop\n        /* \"#utility.yul\":20159:20252   */\n      swap2\n      swap1\n      pop\n      jump\t// out\n        /* \"#utility.yul\":20258:20365   */\n    tag_188:\n        /* \"#utility.yul\":20302:20310   */\n      0x00\n        /* \"#utility.yul\":20352:20357   */\n      dup3\n        /* \"#utility.yul\":20346:20350   */\n      dup3\n        /* \"#utility.yul\":20342:20358   */\n      shl\n        /* \"#utility.yul\":20321:20358   */\n      swap1\n      pop\n        /* \"#utility.yul\":20258:20365   */\n      swap3\n      swap2\n      pop\n      pop\n      jump\t// out\n        /* \"#utility.yul\":20371:20764   */\n    tag_189:\n        /* \"#utility.yul\":20440:20446   */\n      0x00\n        /* \"#utility.yul\":20490:20491   */\n      0x08\n        /* \"#utility.yul\":20478:20488   */\n      dup4\n        /* \"#utility.yul\":20474:20492   */\n      mul\n        /* \"#utility.yul\":20513:20610   */\n      tag_390\n        /* \"#utility.yul\":20543:20609   */\n      0xffffffffffffffffffffffffffffffffffffffffffffffffffffffffffffffff\n        /* \"#utility.yul\":20532:20541   */\n      dup3\n        /* \"#utility.yul\":20513:20610   */\n      tag_188\n      jump\t// in\n    tag_390:\n        /* \"#utility.yul\":20631:20670   */\n      tag_391\n        /* \"#utility.yul\":20661:20669   */\n      dup7\n        /* \"#utility.yul\":20650:20659   */\n      dup4\n        /* \"#utility.yul\":20631:20670   */\n      tag_188\n      jump\t// in\n    tag_391:\n        /* \"#utility.yul\":20619:20670   */\n      swap6\n      pop\n        /* \"#utility.yul\":20703:20707   */\n      dup1\n        /* \"#utility.yul\":20699:20708   */\n      not\n        /* \"#utility.yul\":20692:20697   */\n      dup5\n        /* \"#utility.yul\":20688:20709   */\n      and\n        /* \"#utility.yul\":20679:20709   */\n      swap4\n      pop\n        /* \"#utility.yul\":20752:20756   */\n      dup1\n        /* \"#utility.yul\":20742:20750   */\n      dup7\n        /* \"#utility.yul\":20738:20757   */\n      and\n        /* \"#utility.yul\":20731:20736   */\n      dup5\n        /* \"#utility.yul\":20728:20758   */\n      or\n        /* \"#utility.yul\":20718:20758   */\n      swap3\n      pop\n        /* \"#utility.yul\":20447:20764   */\n      pop\n      pop\n        /* \"#utility.yul\":20371:20764   */\n      swap4\n      swap3\n      pop\n      pop\n      pop\n      jump\t// out\n        /* \"#utility.yul\":20770:20830   */\n    tag_190:\n        /* \"#utility.yul\":20798:20801   */\n      0x00\n        /* \"#utility.yul\":20819:20824   */\n      dup2\n        /* \"#utility.yul\":20812:20824   */\n      swap1\n      pop\n        /* \"#utility.yul\":20770:20830   */\n      swap2\n      swap1\n      pop\n      jump\t// out\n        /* \"#utility.yul\":20836:20978   */\n    tag_191:\n        /* \"#utility.yul\":20886:20895   */\n      0x00\n        /* \"#utility.yul\":20919:20972   */\n      tag_394\n        /* \"#utility.yul\":20937:20971   */\n      tag_395\n        /* \"#utility.yul\":20946:20970   */\n      tag_396\n        /* \"#utility.yul\":20964:20969   */\n      dup5\n        /* \"#utility.yul\":20946:20970   */\n      tag_141\n      jump\t// in\n    tag_396:\n        /* \"#utility.yul\":20937:20971   */\n      tag_190\n      jump\t// in\n    tag_395:\n        /* \"#utility.yul\":20919:20972   */\n      tag_141\n      jump\t// in\n    tag_394:\n        /* \"#utility.yul\":20906:20972   */\n      swap1\n      pop\n        /* \"#utility.yul\":20836:20978   */\n      swap2\n      swap1\n      pop\n      jump\t// out\n        /* \"#utility.yul\":20984:21059   */\n    tag_192:\n        /* \"#utility.yul\":21027:21030   */\n      0x00\n        /* \"#utility.yul\":21048:21053   */\n      dup2\n        /* \"#utility.yul\":21041:21053   */\n      swap1\n      pop\n        /* \"#utility.yul\":20984:21059   */\n      swap2\n      swap1\n      pop\n      jump\t// out\n        /* \"#utility.yul\":21065:21334   */\n    tag_193:\n        /* \"#utility.yul\":21175:21214   */\n      tag_399\n        /* \"#utility.yul\":21206:21213   */\n      dup4\n        /* \"#utility.yul\":21175:21214   */\n      tag_191\n      jump\t// in\n    tag_399:\n        /* \"#utility.yul\":21236:21327   */\n      tag_400\n        /* \"#utility.yul\":21285:21326   */\n      tag_401\n        /* \"#utility.yul\":21309:21325   */\n      dup3\n        /* \"#utility.yul\":21285:21326   */\n      tag_192\n      jump\t// in\n    tag_401:\n        /* \"#utility.yul\":21277:21283   */\n      dup5\n        /* \"#utility.yul\":21270:21274   */\n      dup5\n        /* \"#utility.yul\":21264:21275   */\n      sload\n        /* \"#utility.yul\":21236:21327   */\n      tag_189\n      jump\t// in\n    tag_400:\n        /* \"#utility.yul\":21230:21234   */\n      dup3\n        /* \"#utility.yul\":21223:21328   */\n      sstore\n        /* \"#utility.yul\":21141:21334   */\n      pop\n        /* \"#utility.yul\":21065:21334   */\n      pop\n      pop\n      pop\n      jump\t// out\n        /* \"#utility.yul\":21340:21413   */\n    tag_194:\n        /* \"#utility.yul\":21385:21388   */\n      0x00\n        /* \"#utility.yul\":21340:21413   */\n      swap1\n      jump\t// out\n        /* \"#utility.yul\":21419:21608   */\n    tag_195:\n        /* \"#utility.yul\":21496:21528   */\n      tag_404\n      tag_194\n      jump\t// in\n    tag_404:\n        /* \"#utility.yul\":21537:21602   */\n      tag_405\n        /* \"#utility.yul\":21595:21601   */\n      dup2\n        /* \"#utility.yul\":21587:21593   */\n      dup5\n        /* \"#utility.yul\":21581:21585   */\n      dup5\n        /* \"#utility.yul\":21537:21602   */\n      tag_193\n      jump\t// in\n    tag_405:\n        /* \"#utility.yul\":21472:21608   */\n      pop\n        /* \"#utility.yul\":21419:21608   */\n      pop\n      pop\n      jump\t// out\n        /* \"#utility.yul\":21614:21800   */\n    tag_196:\n        /* \"#utility.yul\":21674:21794   */\n    tag_407:\n        /* \"#utility.yul\":21691:21694   */\n      dup2\n        /* \"#utility.yul\":21684:21689   */\n      dup2\n        /* \"#utility.yul\":21681:21695   */\n      lt\n        /* \"#utility.yul\":21674:21794   */\n      iszero\n      tag_409\n      jumpi\n        /* \"#utility.yul\":21745:21784   */\n      tag_410\n        /* \"#utility.yul\":21782:21783   */\n      0x00\n        /* \"#utility.yul\":21775:21780   */\n      dup3\n        /* \"#utility.yul\":21745:21784   */\n      tag_195\n      jump\t// in\n    tag_410:\n        /* \"#utility.yul\":21718:21719   */\n      0x01\n        /* \"#utility.yul\":21711:21716   */\n      dup2\n        /* \"#utility.yul\":21707:21720   */\n      add\n        /* \"#utility.yul\":21698:21720   */\n      swap1\n      pop\n        /* \"#utility.yul\":21674:21794   */\n      jump(tag_407)\n    tag_409:\n        /* \"#utility.yul\":21614:21800   */\n      pop\n      pop\n      jump\t// out\n        /* \"#utility.yul\":21806:22349   */\n    tag_197:\n        /* \"#utility.yul\":21907:21909   */\n      0x1f\n        /* \"#utility.yul\":21902:21905   */\n      dup3\n        /* \"#utility.yul\":21899:21910   */\n      gt\n        /* \"#utility.yul\":21896:22342   */\n      iszero\n      tag_412\n      jumpi\n        /* \"#utility.yul\":21941:21979   */\n      tag_413\n        /* \"#utility.yul\":21973:21978   */\n      dup2\n        /* \"#utility.yul\":21941:21979   */\n      tag_186\n      jump\t// in\n    tag_413:\n        /* \"#utility.yul\":22025:22054   */\n      tag_414\n        /* \"#utility.yul\":22043:22053   */\n      dup5\n        /* \"#utility.yul\":22025:22054   */\n      tag_187\n      jump\t// in\n    tag_414:\n        /* \"#utility.yul\":22015:22023   */\n      dup2\n        /* \"#utility.yul\":22011:22055   */\n      add\n        /* \"#utility.yul\":22208:22210   */\n      0x20\n        /* \"#utility.yul\":22196:22206   */\n      dup6\n        /* \"#utility.yul\":22193:22211   */\n      lt\n        /* \"#utility.yul\":22190:22239   */\n      iszero\n      tag_415\n      jumpi\n        /* \"#utility.yul\":22229:22237   */\n      dup2\n        /* \"#utility.yul\":22214:22237   */\n      swap1\n      pop\n        /* \"#utility.yul\":22190:22239   */\n    tag_415:\n        /* \"#utility.yul\":22252:22332   */\n      tag_416\n        /* \"#utility.yul\":22308:22330   */\n      tag_417\n        /* \"#utility.yul\":22326:22329   */\n      dup6\n        /* \"#utility.yul\":22308:22330   */\n      tag_187\n      jump\t// in\n    tag_417:\n        /* \"#utility.yul\":22298:22306   */\n      dup4\n        /* \"#utility.yul\":22294:22331   */\n      add\n        /* \"#utility.yul\":22281:22292   */\n      dup3\n        /* \"#utility.yul\":22252:22332   */\n      tag_196\n      jump\t// in\n    tag_416:\n        /* \"#utility.yul\":21911:22342   */\n      pop\n      pop\n        /* \"#utility.yul\":21896:22342   */\n    tag_412:\n        /* \"#utility.yul\":21806:22349   */\n      pop\n      pop\n      pop\n      jump\t// out\n        /* \"#utility.yul\":22355:22472   */\n    tag_198:\n        /* \"#utility.yul\":22409:22417   */\n      0x00\n        /* \"#utility.yul\":22459:22464   */\n      dup3\n        /* \"#utility.yul\":22453:22457   */\n      dup3\n        /* \"#utility.yul\":22449:22465   */\n      shr\n        /* \"#utility.yul\":22428:22465   */\n      swap1\n      pop\n        /* \"#utility.yul\":22355:22472   */\n      swap3\n      swap2\n      pop\n      pop\n      jump\t// out\n        /* \"#utility.yul\":22478:22647   */\n    tag_199:\n        /* \"#utility.yul\":22522:22528   */\n      0x00\n        /* \"#utility.yul\":22555:22606   */\n      tag_420\n        /* \"#utility.yul\":22603:22604   */\n      0x00\n        /* \"#utility.yul\":22599:22605   */\n      not\n        /* \"#utility.yul\":22591:22596   */\n      dup5\n        /* \"#utility.yul\":22588:22589   */\n      0x08\n        /* \"#utility.yul\":22584:22597   */\n      mul\n        /* \"#utility.yul\":22555:22606   */\n      tag_198\n      jump\t// in\n    tag_420:\n        /* \"#utility.yul\":22551:22607   */\n      not\n        /* \"#utility.yul\":22636:22640   */\n      dup1\n        /* \"#utility.yul\":22630:22634   */\n      dup4\n        /* \"#utility.yul\":22626:22641   */\n      and\n        /* \"#utility.yul\":22616:22641   */\n      swap2\n      pop\n        /* \"#utility.yul\":22529:22647   */\n      pop\n        /* \"#utility.yul\":22478:22647   */\n      swap3\n      swap2\n      pop\n      pop\n      jump\t// out\n        /* \"#utility.yul\":22652:22947   */\n    tag_200:\n        /* \"#utility.yul\":22728:22732   */\n      0x00\n        /* \"#utility.yul\":22874:22903   */\n      tag_422\n        /* \"#utility.yul\":22899:22902   */\n      dup4\n        /* \"#utility.yul\":22893:22897   */\n      dup4\n        /* \"#utility.yul\":22874:22903   */\n      tag_199\n      jump\t// in\n    tag_422:\n        /* \"#utility.yul\":22866:22903   */\n      swap2\n      pop\n        /* \"#utility.yul\":22936:22939   */\n      dup3\n        /* \"#utility.yul\":22933:22934   */\n      0x02\n        /* \"#utility.yul\":22929:22940   */\n      mul\n        /* \"#utility.yul\":22923:22927   */\n      dup3\n        /* \"#utility.yul\":22920:22941   */\n      or\n        /* \"#utility.yul\":22912:22941   */\n      swap1\n      pop\n        /* \"#utility.yul\":22652:22947   */\n      swap3\n      swap2\n      pop\n      pop\n      jump\t// out\n        /* \"#utility.yul\":22952:24347   */\n    tag_120:\n        /* \"#utility.yul\":23069:23106   */\n      tag_424\n        /* \"#utility.yul\":23102:23105   */\n      dup3\n        /* \"#utility.yul\":23069:23106   */\n      tag_146\n      jump\t// in\n    tag_424:\n        /* \"#utility.yul\":23171:23189   */\n      0xffffffffffffffff\n        /* \"#utility.yul\":23163:23169   */\n      dup2\n        /* \"#utility.yul\":23160:23190   */\n      gt\n        /* \"#utility.yul\":23157:23213   */\n      iszero\n      tag_425\n      jumpi\n        /* \"#utility.yul\":23193:23211   */\n      tag_426\n      tag_168\n      jump\t// in\n    tag_426:\n        /* \"#utility.yul\":23157:23213   */\n    tag_425:\n        /* \"#utility.yul\":23237:23275   */\n      tag_427\n        /* \"#utility.yul\":23269:23273   */\n      dup3\n        /* \"#utility.yul\":23263:23274   */\n      sload\n        /* \"#utility.yul\":23237:23275   */\n      tag_56\n      jump\t// in\n    tag_427:\n        /* \"#utility.yul\":23322:23389   */\n      tag_428\n        /* \"#utility.yul\":23382:23388   */\n      dup3\n        /* \"#utility.yul\":23374:23380   */\n      dup3\n        /* \"#utility.yul\":23368:23372   */\n      dup6\n        /* \"#utility.yul\":23322:23389   */\n      tag_197\n      jump\t// in\n    tag_428:\n        /* \"#utility.yul\":23416:23417   */\n      0x00\n        /* \"#utility.yul\":23440:23444   */\n      0x20\n        /* \"#utility.yul\":23427:23444   */\n      swap1\n      pop\n        /* \"#utility.yul\":23472:23474   */\n      0x1f\n        /* \"#utility.yul\":23464:23470   */\n      dup4\n        /* \"#utility.yul\":23461:23475   */\n      gt\n        /* \"#utility.yul\":23489:23490   */\n      0x01\n        /* \"#utility.yul\":23484:24102   */\n      dup2\n      eq\n      tag_430\n      jumpi\n        /* \"#utility.yul\":24146:24147   */\n      0x00\n        /* \"#utility.yul\":24163:24169   */\n      dup5\n        /* \"#utility.yul\":24160:24237   */\n      iszero\n      tag_431\n      jumpi\n        /* \"#utility.yul\":24212:24221   */\n      dup3\n        /* \"#utility.yul\":24207:24210   */\n      dup8\n        /* \"#utility.yul\":24203:24222   */\n      add\n        /* \"#utility.yul\":24197:24223   */\n      mload\n        /* \"#utility.yul\":24188:24223   */\n      swap1\n      pop\n        /* \"#utility.yul\":24160:24237   */\n    tag_431:\n        /* \"#utility.yul\":24263:24330   */\n      tag_432\n        /* \"#utility.yul\":24323:24329   */\n      dup6\n        /* \"#utility.yul\":24316:24321   */\n      dup3\n        /* \"#utility.yul\":24263:24330   */\n      tag_200\n      jump\t// in\n    tag_432:\n        /* \"#utility.yul\":24257:24261   */\n      dup7\n        /* \"#utility.yul\":24250:24331   */\n      sstore\n        /* \"#utility.yul\":24119:24341   */\n      pop\n        /* \"#utility.yul\":23454:24341   */\n      jump(tag_429)\n        /* \"#utility.yul\":23484:24102   */\n    tag_430:\n        /* \"#utility.yul\":23536:23540   */\n      0x1f\n        /* \"#utility.yul\":23532:23541   */\n      not\n        /* \"#utility.yul\":23524:23530   */\n      dup5\n        /* \"#utility.yul\":23520:23542   */\n      and\n        /* \"#utility.yul\":23570:23607   */\n      tag_433\n        /* \"#utility.yul\":23602:23606   */\n      dup7\n        /* \"#utility.yul\":23570:23607   */\n      tag_186\n      jump\t// in\n    tag_433:\n        /* \"#utility.yul\":23629:23630   */\n      0x00\n        /* \"#utility.yul\":23643:23851   */\n    tag_434:\n        /* \"#utility.yul\":23657:23664   */\n      dup3\n        /* \"#utility.yul\":23654:23655   */\n      dup2\n        /* \"#utility.yul\":23651:23665   */\n      lt\n        /* \"#utility.yul\":23643:23851   */\n      iszero\n      tag_436\n      jumpi\n        /* \"#utility.yul\":23736:23745   */\n      dup5\n        /* \"#utility.yul\":23731:23734   */\n      dup10\n        /* \"#utility.yul\":23727:23746   */\n      add\n        /* \"#utility.yul\":23721:23747   */\n      mload\n        /* \"#utility.yul\":23713:23719   */\n      dup3\n        /* \"#utility.yul\":23706:23748   */\n      sstore\n        /* \"#utility.yul\":23787:23788   */\n      0x01\n        /* \"#utility.yul\":23779:23785   */\n      dup3\n        /* \"#utility.yul\":23775:23789   */\n      add\n        /* \"#utility.yul\":23765:23789   */\n      swap2\n      pop\n        /* \"#utility.yul\":23834:23836   */\n      0x20\n        /* \"#utility.yul\":23823:23832   */\n      dup6\n        /* \"#utility.yul\":23819:23837   */\n      add\n        /* \"#utility.yul\":23806:23837   */\n      swap5\n      pop\n        /* \"#utility.yul\":23680:23684   */\n      0x20\n        /* \"#utility.yul\":23677:23678   */\n      dup2\n        /* \"#utility.yul\":23673:23685   */\n      add\n        /* \"#utility.yul\":23668:23685   */\n      swap1\n      pop\n        /* \"#utility.yul\":23643:23851   */\n      jump(tag_434)\n    tag_436:\n        /* \"#utility.yul\":23879:23885   */\n      dup7\n        /* \"#utility.yul\":23870:23877   */\n      dup4\n        /* \"#utility.yul\":23867:23886   */\n      lt\n        /* \"#utility.yul\":23864:24043   */\n      iszero\n      tag_437\n      jumpi\n        /* \"#utility.yul\":23937:23946   */\n      dup5\n        /* \"#utility.yul\":23932:23935   */\n      dup10\n        /* \"#utility.yul\":23928:23947   */\n      add\n        /* \"#utility.yul\":23922:23948   */\n      mload\n        /* \"#utility.yul\":23980:24028   */\n      tag_438\n        /* \"#utility.yul\":24022:24026   */\n      0x1f\n        /* \"#utility.yul\":24014:24020   */\n      dup10\n        /* \"#utility.yul\":24010:24027   */\n      and\n        /* \"#utility.yul\":23999:24008   */\n      dup3\n        /* \"#utility.yul\":23980:24028   */\n      tag_199\n      jump\t// in\n    tag_438:\n        /* \"#utility.yul\":23972:23978   */\n      dup4\n        /* \"#utility.yul\":23965:24029   */\n      sstore\n        /* \"#utility.yul\":23887:24043   */\n      pop\n        /* \"#utility.yul\":23864:24043   */\n    tag_437:\n        /* \"#utility.yul\":24089:24090   */\n      0x01\n        /* \"#utility.yul\":24085:24086   */\n      0x02\n        /* \"#utility.yul\":24077:24083   */\n      dup9\n        /* \"#utility.yul\":24073:24087   */\n      mul\n        /* \"#utility.yul\":24069:24091   */\n      add\n        /* \"#utility.yul\":24063:24067   */\n      dup9\n        /* \"#utility.yul\":24056:24092   */\n      sstore\n        /* \"#utility.yul\":23491:24102   */\n      pop\n      pop\n      pop\n        /* \"#utility.yul\":23454:24341   */\n    tag_429:\n      pop\n        /* \"#utility.yul\":23044:24347   */\n      pop\n      pop\n      pop\n        /* \"#utility.yul\":22952:24347   */\n      pop\n      pop\n      jump\t// out\n        /* \"#utility.yul\":24353:24997   */\n    tag_122:\n        /* \"#utility.yul\":24550:24554   */\n      0x00\n        /* \"#utility.yul\":24588:24591   */\n      0x80\n        /* \"#utility.yul\":24577:24586   */\n      dup3\n        /* \"#utility.yul\":24573:24592   */\n      add\n        /* \"#utility.yul\":24565:24592   */\n      swap1\n      pop\n        /* \"#utility.yul\":24602:24673   */\n      tag_440\n        /* \"#utility.yul\":24670:24671   */\n      0x00\n        /* \"#utility.yul\":24659:24668   */\n      dup4\n        /* \"#utility.yul\":24655:24672   */\n      add\n        /* \"#utility.yul\":24646:24652   */\n      dup8\n        /* \"#utility.yul\":24602:24673   */\n      tag_144\n      jump\t// in\n    tag_440:\n        /* \"#utility.yul\":24683:24755   */\n      tag_441\n        /* \"#utility.yul\":24751:24753   */\n      0x20\n        /* \"#utility.yul\":24740:24749   */\n      dup4\n        /* \"#utility.yul\":24736:24754   */\n      add\n        /* \"#utility.yul\":24727:24733   */\n      dup7\n        /* \"#utility.yul\":24683:24755   */\n      tag_145\n      jump\t// in\n    tag_441:\n        /* \"#utility.yul\":24802:24811   */\n      dup2\n        /* \"#utility.yul\":24796:24800   */\n      dup2\n        /* \"#utility.yul\":24792:24812   */\n      sub\n        /* \"#utility.yul\":24787:24789   */\n      0x40\n        /* \"#utility.yul\":24776:24785   */\n      dup4\n        /* \"#utility.yul\":24772:24790   */\n      add\n        /* \"#utility.yul\":24765:24813   */\n      mstore\n        /* \"#utility.yul\":24830:24908   */\n      tag_442\n        /* \"#utility.yul\":24903:24907   */\n      dup2\n        /* \"#utility.yul\":24894:24900   */\n      dup6\n        /* \"#utility.yul\":24830:24908   */\n      tag_150\n      jump\t// in\n    tag_442:\n        /* \"#utility.yul\":24822:24908   */\n      swap1\n      pop\n        /* \"#utility.yul\":24918:24990   */\n      tag_443\n        /* \"#utility.yul\":24986:24988   */\n      0x60\n        /* \"#utility.yul\":24975:24984   */\n      dup4\n        /* \"#utility.yul\":24971:24989   */\n      add\n        /* \"#utility.yul\":24962:24968   */\n      dup5\n        /* \"#utility.yul\":24918:24990   */\n      tag_144\n      jump\t// in\n    tag_443:\n        /* \"#utility.yul\":24353:24997   */\n      swap6\n      swap5\n      pop\n      pop\n      pop\n      pop\n      pop\n      jump\t// out\n\n    auxdata: 0xa26469706673582212200c22d3225c83d3d5acc0b34babd756e076947b6552a35f6a7ebac47f71c35ef464736f6c63430008160033\n}\n",
				"bytecode": {
					"linkReferences": {},
					"object": "60806040526101185f806101000a81548161ffff021916908361ffff16021790555034801561002c575f80fd5b503360025f6101000a81548173ffffffffffffffffffffffffffffffffffffffff021916908373ffffffffffffffffffffffffffffffffffffffff1602179055506119848061007a5f395ff3fe608060405234801561000f575f80fd5b5060043610610091575f3560e01c806358bfa4ab1161006457806358bfa4ab14610133578063633782161461014f5780637c9cd2bc1461016b5780638da5cb5b14610187578063c3ad5ecb146101a557610091565b806305a1b4a9146100955780630a50bfb3146100c957806328bb2285146100e75780633d9b569f14610117575b5f80fd5b6100af60048036038101906100aa9190610d9f565b6101d5565b6040516100c0959493929190610e85565b60405180910390f35b6100d16102c6565b6040516100de9190610ef9565b60405180910390f35b61010160048036038101906100fc9190610f12565b6102d7565b60405161010e91906110d1565b60405180910390f35b610131600480360381019061012c9190610d9f565b610472565b005b61014d6004803603810190610148919061111b565b6106c3565b005b61016960048036038101906101649190610d9f565b610770565b005b61018560048036038101906101809190611272565b610921565b005b61018f610b24565b60405161019c91906112b9565b60405180910390f35b6101bf60048036038101906101ba91906112d2565b610b49565b6040516101cc9190611370565b60405180910390f35b6001602052815f5260405f2081815481106101ee575f80fd5b905f5260205f2090600502015f9150915050805f015490806001015f9054906101000a900473ffffffffffffffffffffffffffffffffffffffff1690806002018054610239906113bd565b80601f0160208091040260200160405190810160405280929190818152602001828054610265906113bd565b80156102b05780601f10610287576101008083540402835291602001916102b0565b820191905f5260205f20905b81548152906001019060200180831161029357829003601f168201915b5050505050908060030154908060040154905085565b5f8054906101000a900461ffff1681565b606060015f8373ffffffffffffffffffffffffffffffffffffffff1673ffffffffffffffffffffffffffffffffffffffff1681526020019081526020015f20805480602002602001604051908101604052809291908181526020015f905b82821015610467578382905f5260205f2090600502016040518060a00160405290815f8201548152602001600182015f9054906101000a900473ffffffffffffffffffffffffffffffffffffffff1673ffffffffffffffffffffffffffffffffffffffff1673ffffffffffffffffffffffffffffffffffffffff1681526020016002820180546103c4906113bd565b80601f01602080910402602001604051908101604052809291908181526020018280546103f0906113bd565b801561043b5780601f106104125761010080835404028352916020019161043b565b820191905f5260205f20905b81548152906001019060200180831161041e57829003601f168201915b505050505081526020016003820154815260200160048201548152505081526020019060010190610335565b505050509050919050565b8060015f8473ffffffffffffffffffffffffffffffffffffffff1673ffffffffffffffffffffffffffffffffffffffff1681526020019081526020015f2082815481106104c2576104c16113ed565b5b905f5260205f2090600502015f015414610511576040517f08c379a000000000000000000000000000000000000000000000000000000000815260040161050890611464565b60405180910390fd5b5f60015f8473ffffffffffffffffffffffffffffffffffffffff1673ffffffffffffffffffffffffffffffffffffffff1681526020019081526020015f208281548110610561576105606113ed565b5b905f5260205f20906005020160040154116105b1576040517f08c379a00000000000000000000000000000000000000000000000000000000081526004016105a8906114cc565b60405180910390fd5b60015f8373ffffffffffffffffffffffffffffffffffffffff1673ffffffffffffffffffffffffffffffffffffffff1681526020019081526020015f208181548110610600576105ff6113ed565b5b905f5260205f2090600502016004015f81548092919061061f90611517565b91905055507f273883c252143c4abce776697615e41ca9bc1aac5968c585d1c8ba8ffaa8b3c133838360015f8773ffffffffffffffffffffffffffffffffffffffff1673ffffffffffffffffffffffffffffffffffffffff1681526020019081526020015f208581548110610697576106966113ed565b5b905f5260205f209060050201600401546040516106b7949392919061153e565b60405180910390a15050565b60025f9054906101000a900473ffffffffffffffffffffffffffffffffffffffff1673ffffffffffffffffffffffffffffffffffffffff163373ffffffffffffffffffffffffffffffffffffffff1614610752576040517f08c379a0000000000000000000000000000000000000000000000000000000008152600401610749906115cb565b60405180910390fd5b805f806101000a81548161ffff021916908361ffff16021790555050565b8060015f8473ffffffffffffffffffffffffffffffffffffffff1673ffffffffffffffffffffffffffffffffffffffff1681526020019081526020015f2082815481106107c0576107bf6113ed565b5b905f5260205f2090600502015f01541461080f576040517f08c379a000000000000000000000000000000000000000000000000000000000815260040161080690611464565b60405180910390fd5b60015f8373ffffffffffffffffffffffffffffffffffffffff1673ffffffffffffffffffffffffffffffffffffffff1681526020019081526020015f20818154811061085e5761085d6113ed565b5b905f5260205f2090600502016004015f81548092919061087d906115e9565b91905055507fe8a76fc0f16d11a00d1e93b689b63d76cf60af914dd3d915375dc41d01a0c3c833838360015f8773ffffffffffffffffffffffffffffffffffffffff1673ffffffffffffffffffffffffffffffffffffffff1681526020019081526020015f2085815481106108f5576108f46113ed565b5b905f5260205f20906005020160040154604051610915949392919061153e565b60405180910390a15050565b5f8054906101000a900461ffff1661ffff1681511115610976576040517f08c379a000000000000000000000000000000000000000000000000000000000815260040161096d9061167a565b60405180910390fd5b5f6040518060a0016040528060015f3373ffffffffffffffffffffffffffffffffffffffff1673ffffffffffffffffffffffffffffffffffffffff1681526020019081526020015f208054905081526020013373ffffffffffffffffffffffffffffffffffffffff1681526020018381526020014281526020015f815250905060015f3373ffffffffffffffffffffffffffffffffffffffff1673ffffffffffffffffffffffffffffffffffffffff1681526020019081526020015f2081908060018154018082558091505060019003905f5260205f2090600502015f909190919091505f820151815f01556020820151816001015f6101000a81548173ffffffffffffffffffffffffffffffffffffffff021916908373ffffffffffffffffffffffffffffffffffffffff1602179055506040820151816002019081610abd9190611835565b50606082015181600301556080820151816004015550507f16fd3c13e9d46923e0a8bce11c7b473ec508a72e6c96cd2404b29ce972afc29e815f0151826020015183604001518460600151604051610b189493929190611904565b60405180910390a15050565b60025f9054906101000a900473ffffffffffffffffffffffffffffffffffffffff1681565b610b51610cc0565b60015f3373ffffffffffffffffffffffffffffffffffffffff1673ffffffffffffffffffffffffffffffffffffffff1681526020019081526020015f208281548110610ba057610b9f6113ed565b5b905f5260205f2090600502016040518060a00160405290815f8201548152602001600182015f9054906101000a900473ffffffffffffffffffffffffffffffffffffffff1673ffffffffffffffffffffffffffffffffffffffff1673ffffffffffffffffffffffffffffffffffffffff168152602001600282018054610c25906113bd565b80601f0160208091040260200160405190810160405280929190818152602001828054610c51906113bd565b8015610c9c5780601f10610c7357610100808354040283529160200191610c9c565b820191905f5260205f20905b815481529060010190602001808311610c7f57829003601f168201915b50505050508152602001600382015481526020016004820154815250509050919050565b6040518060a001604052805f81526020015f73ffffffffffffffffffffffffffffffffffffffff168152602001606081526020015f81526020015f81525090565b5f604051905090565b5f80fd5b5f80fd5b5f73ffffffffffffffffffffffffffffffffffffffff82169050919050565b5f610d3b82610d12565b9050919050565b610d4b81610d31565b8114610d55575f80fd5b50565b5f81359050610d6681610d42565b92915050565b5f819050919050565b610d7e81610d6c565b8114610d88575f80fd5b50565b5f81359050610d9981610d75565b92915050565b5f8060408385031215610db557610db4610d0a565b5b5f610dc285828601610d58565b9250506020610dd385828601610d8b565b9150509250929050565b610de681610d6c565b82525050565b610df581610d31565b82525050565b5f81519050919050565b5f82825260208201905092915050565b5f5b83811015610e32578082015181840152602081019050610e17565b5f8484015250505050565b5f601f19601f8301169050919050565b5f610e5782610dfb565b610e618185610e05565b9350610e71818560208601610e15565b610e7a81610e3d565b840191505092915050565b5f60a082019050610e985f830188610ddd565b610ea56020830187610dec565b8181036040830152610eb78186610e4d565b9050610ec66060830185610ddd565b610ed36080830184610ddd565b9695505050505050565b5f61ffff82169050919050565b610ef381610edd565b82525050565b5f602082019050610f0c5f830184610eea565b92915050565b5f60208284031215610f2757610f26610d0a565b5b5f610f3484828501610d58565b91505092915050565b5f81519050919050565b5f82825260208201905092915050565b5f819050602082019050919050565b610f6f81610d6c565b82525050565b610f7e81610d31565b82525050565b5f82825260208201905092915050565b5f610f9e82610dfb565b610fa88185610f84565b9350610fb8818560208601610e15565b610fc181610e3d565b840191505092915050565b5f60a083015f830151610fe15f860182610f66565b506020830151610ff46020860182610f75565b506040830151848203604086015261100c8282610f94565b91505060608301516110216060860182610f66565b5060808301516110346080860182610f66565b508091505092915050565b5f61104a8383610fcc565b905092915050565b5f602082019050919050565b5f61106882610f3d565b6110728185610f47565b93508360208202850161108485610f57565b805f5b858110156110bf57848403895281516110a0858261103f565b94506110ab83611052565b925060208a01995050600181019050611087565b50829750879550505050505092915050565b5f6020820190508181035f8301526110e9818461105e565b905092915050565b6110fa81610edd565b8114611104575f80fd5b50565b5f81359050611115816110f1565b92915050565b5f602082840312156111305761112f610d0a565b5b5f61113d84828501611107565b91505092915050565b5f80fd5b5f80fd5b7f4e487b71000000000000000000000000000000000000000000000000000000005f52604160045260245ffd5b61118482610e3d565b810181811067ffffffffffffffff821117156111a3576111a261114e565b5b80604052505050565b5f6111b5610d01565b90506111c1828261117b565b919050565b5f67ffffffffffffffff8211156111e0576111df61114e565b5b6111e982610e3d565b9050602081019050919050565b828183375f83830152505050565b5f611216611211846111c6565b6111ac565b9050828152602081018484840111156112325761123161114a565b5b61123d8482856111f6565b509392505050565b5f82601f83011261125957611258611146565b5b8135611269848260208601611204565b91505092915050565b5f6020828403121561128757611286610d0a565b5b5f82013567ffffffffffffffff8111156112a4576112a3610d0e565b5b6112b084828501611245565b91505092915050565b5f6020820190506112cc5f830184610dec565b92915050565b5f602082840312156112e7576112e6610d0a565b5b5f6112f484828501610d8b565b91505092915050565b5f60a083015f8301516113125f860182610f66565b5060208301516113256020860182610f75565b506040830151848203604086015261133d8282610f94565b91505060608301516113526060860182610f66565b5060808301516113656080860182610f66565b508091505092915050565b5f6020820190508181035f83015261138881846112fd565b905092915050565b7f4e487b71000000000000000000000000000000000000000000000000000000005f52602260045260245ffd5b5f60028204905060018216806113d457607f821691505b6020821081036113e7576113e6611390565b5b50919050565b7f4e487b71000000000000000000000000000000000000000000000000000000005f52603260045260245ffd5b7f547765657420446f6573206e6f742065786973740000000000000000000000005f82015250565b5f61144e601483610e05565b91506114598261141a565b602082019050919050565b5f6020820190508181035f83015261147b81611442565b9050919050565b7f747765657420686173206e6f206c696b657300000000000000000000000000005f82015250565b5f6114b6601283610e05565b91506114c182611482565b602082019050919050565b5f6020820190508181035f8301526114e3816114aa565b9050919050565b7f4e487b71000000000000000000000000000000000000000000000000000000005f52601160045260245ffd5b5f61152182610d6c565b91505f8203611533576115326114ea565b5b600182039050919050565b5f6080820190506115515f830187610dec565b61155e6020830186610dec565b61156b6040830185610ddd565b6115786060830184610ddd565b95945050505050565b7f594f5520415245204e4f5420544845204f574e455200000000000000000000005f82015250565b5f6115b5601583610e05565b91506115c082611581565b602082019050919050565b5f6020820190508181035f8301526115e2816115a9565b9050919050565b5f6115f382610d6c565b91507fffffffffffffffffffffffffffffffffffffffffffffffffffffffffffffffff8203611625576116246114ea565b5b600182019050919050565b7f547765657420697320746f6f204c6f6e670000000000000000000000000000005f82015250565b5f611664601183610e05565b915061166f82611630565b602082019050919050565b5f6020820190508181035f83015261169181611658565b9050919050565b5f819050815f5260205f209050919050565b5f6020601f8301049050919050565b5f82821b905092915050565b5f600883026116f47fffffffffffffffffffffffffffffffffffffffffffffffffffffffffffffffff826116b9565b6116fe86836116b9565b95508019841693508086168417925050509392505050565b5f819050919050565b5f61173961173461172f84610d6c565b611716565b610d6c565b9050919050565b5f819050919050565b6117528361171f565b61176661175e82611740565b8484546116c5565b825550505050565b5f90565b61177a61176e565b611785818484611749565b505050565b5b818110156117a85761179d5f82611772565b60018101905061178b565b5050565b601f8211156117ed576117be81611698565b6117c7846116aa565b810160208510156117d6578190505b6117ea6117e2856116aa565b83018261178a565b50505b505050565b5f82821c905092915050565b5f61180d5f19846008026117f2565b1980831691505092915050565b5f61182583836117fe565b9150826002028217905092915050565b61183e82610dfb565b67ffffffffffffffff8111156118575761185661114e565b5b61186182546113bd565b61186c8282856117ac565b5f60209050601f83116001811461189d575f841561188b578287015190505b611895858261181a565b8655506118fc565b601f1984166118ab86611698565b5f5b828110156118d2578489015182556001820191506020850194506020810190506118ad565b868310156118ef57848901516118eb601f8916826117fe565b8355505b6001600288020188555050505b505050505050565b5f6080820190506119175f830187610ddd565b6119246020830186610dec565b81810360408301526119368185610e4d565b90506119456060830184610ddd565b9594505050505056fea26469706673582212200c22d3225c83d3d5acc0b34babd756e076947b6552a35f6a7ebac47f71c35ef464736f6c63430008160033",
					"opcodes": "PUSH1 0x80 PUSH1 0x40 MSTORE PUSH2 0x118 PUSH0 DUP1 PUSH2 0x100 EXP DUP2 SLOAD DUP2 PUSH2 0xFFFF MUL NOT AND SWAP1 DUP4 PUSH2 0xFFFF AND MUL OR SWAP1 SSTORE POP CALLVALUE DUP1 ISZERO PUSH2 0x2C JUMPI PUSH0 DUP1 REVERT JUMPDEST POP CALLER PUSH1 0x2 PUSH0 PUSH2 0x100 EXP DUP2 SLOAD DUP2 PUSH20 0xFFFFFFFFFFFFFFFFFFFFFFFFFFFFFFFFFFFFFFFF MUL NOT AND SWAP1 DUP4 PUSH20 0xFFFFFFFFFFFFFFFFFFFFFFFFFFFFFFFFFFFFFFFF AND MUL OR SWAP1 SSTORE POP PUSH2 0x1984 DUP1 PUSH2 0x7A PUSH0 CODECOPY PUSH0 RETURN INVALID PUSH1 0x80 PUSH1 0x40 MSTORE CALLVALUE DUP1 ISZERO PUSH2 0xF JUMPI PUSH0 DUP1 REVERT JUMPDEST POP PUSH1 0x4 CALLDATASIZE LT PUSH2 0x91 JUMPI PUSH0 CALLDATALOAD PUSH1 0xE0 SHR DUP1 PUSH4 0x58BFA4AB GT PUSH2 0x64 JUMPI DUP1 PUSH4 0x58BFA4AB EQ PUSH2 0x133 JUMPI DUP1 PUSH4 0x63378216 EQ PUSH2 0x14F JUMPI DUP1 PUSH4 0x7C9CD2BC EQ PUSH2 0x16B JUMPI DUP1 PUSH4 0x8DA5CB5B EQ PUSH2 0x187 JUMPI DUP1 PUSH4 0xC3AD5ECB EQ PUSH2 0x1A5 JUMPI PUSH2 0x91 JUMP JUMPDEST DUP1 PUSH4 0x5A1B4A9 EQ PUSH2 0x95 JUMPI DUP1 PUSH4 0xA50BFB3 EQ PUSH2 0xC9 JUMPI DUP1 PUSH4 0x28BB2285 EQ PUSH2 0xE7 JUMPI DUP1 PUSH4 0x3D9B569F EQ PUSH2 0x117 JUMPI JUMPDEST PUSH0 DUP1 REVERT JUMPDEST PUSH2 0xAF PUSH1 0x4 DUP1 CALLDATASIZE SUB DUP2 ADD SWAP1 PUSH2 0xAA SWAP2 SWAP1 PUSH2 0xD9F JUMP JUMPDEST PUSH2 0x1D5 JUMP JUMPDEST PUSH1 0x40 MLOAD PUSH2 0xC0 SWAP6 SWAP5 SWAP4 SWAP3 SWAP2 SWAP1 PUSH2 0xE85 JUMP JUMPDEST PUSH1 0x40 MLOAD DUP1 SWAP2 SUB SWAP1 RETURN JUMPDEST PUSH2 0xD1 PUSH2 0x2C6 JUMP JUMPDEST PUSH1 0x40 MLOAD PUSH2 0xDE SWAP2 SWAP1 PUSH2 0xEF9 JUMP JUMPDEST PUSH1 0x40 MLOAD DUP1 SWAP2 SUB SWAP1 RETURN JUMPDEST PUSH2 0x101 PUSH1 0x4 DUP1 CALLDATASIZE SUB DUP2 ADD SWAP1 PUSH2 0xFC SWAP2 SWAP1 PUSH2 0xF12 JUMP JUMPDEST PUSH2 0x2D7 JUMP JUMPDEST PUSH1 0x40 MLOAD PUSH2 0x10E SWAP2 SWAP1 PUSH2 0x10D1 JUMP JUMPDEST PUSH1 0x40 MLOAD DUP1 SWAP2 SUB SWAP1 RETURN JUMPDEST PUSH2 0x131 PUSH1 0x4 DUP1 CALLDATASIZE SUB DUP2 ADD SWAP1 PUSH2 0x12C SWAP2 SWAP1 PUSH2 0xD9F JUMP JUMPDEST PUSH2 0x472 JUMP JUMPDEST STOP JUMPDEST PUSH2 0x14D PUSH1 0x4 DUP1 CALLDATASIZE SUB DUP2 ADD SWAP1 PUSH2 0x148 SWAP2 SWAP1 PUSH2 0x111B JUMP JUMPDEST PUSH2 0x6C3 JUMP JUMPDEST STOP JUMPDEST PUSH2 0x169 PUSH1 0x4 DUP1 CALLDATASIZE SUB DUP2 ADD SWAP1 PUSH2 0x164 SWAP2 SWAP1 PUSH2 0xD9F JUMP JUMPDEST PUSH2 0x770 JUMP JUMPDEST STOP JUMPDEST PUSH2 0x185 PUSH1 0x4 DUP1 CALLDATASIZE SUB DUP2 ADD SWAP1 PUSH2 0x180 SWAP2 SWAP1 PUSH2 0x1272 JUMP JUMPDEST PUSH2 0x921 JUMP JUMPDEST STOP JUMPDEST PUSH2 0x18F PUSH2 0xB24 JUMP JUMPDEST PUSH1 0x40 MLOAD PUSH2 0x19C SWAP2 SWAP1 PUSH2 0x12B9 JUMP JUMPDEST PUSH1 0x40 MLOAD DUP1 SWAP2 SUB SWAP1 RETURN JUMPDEST PUSH2 0x1BF PUSH1 0x4 DUP1 CALLDATASIZE SUB DUP2 ADD SWAP1 PUSH2 0x1BA SWAP2 SWAP1 PUSH2 0x12D2 JUMP JUMPDEST PUSH2 0xB49 JUMP JUMPDEST PUSH1 0x40 MLOAD PUSH2 0x1CC SWAP2 SWAP1 PUSH2 0x1370 JUMP JUMPDEST PUSH1 0x40 MLOAD DUP1 SWAP2 SUB SWAP1 RETURN JUMPDEST PUSH1 0x1 PUSH1 0x20 MSTORE DUP2 PUSH0 MSTORE PUSH1 0x40 PUSH0 KECCAK256 DUP2 DUP2 SLOAD DUP2 LT PUSH2 0x1EE JUMPI PUSH0 DUP1 REVERT JUMPDEST SWAP1 PUSH0 MSTORE PUSH1 0x20 PUSH0 KECCAK256 SWAP1 PUSH1 0x5 MUL ADD PUSH0 SWAP2 POP SWAP2 POP POP DUP1 PUSH0 ADD SLOAD SWAP1 DUP1 PUSH1 0x1 ADD PUSH0 SWAP1 SLOAD SWAP1 PUSH2 0x100 EXP SWAP1 DIV PUSH20 0xFFFFFFFFFFFFFFFFFFFFFFFFFFFFFFFFFFFFFFFF AND SWAP1 DUP1 PUSH1 0x2 ADD DUP1 SLOAD PUSH2 0x239 SWAP1 PUSH2 0x13BD JUMP JUMPDEST DUP1 PUSH1 0x1F ADD PUSH1 0x20 DUP1 SWAP2 DIV MUL PUSH1 0x20 ADD PUSH1 0x40 MLOAD SWAP1 DUP2 ADD PUSH1 0x40 MSTORE DUP1 SWAP3 SWAP2 SWAP1 DUP2 DUP2 MSTORE PUSH1 0x20 ADD DUP3 DUP1 SLOAD PUSH2 0x265 SWAP1 PUSH2 0x13BD JUMP JUMPDEST DUP1 ISZERO PUSH2 0x2B0 JUMPI DUP1 PUSH1 0x1F LT PUSH2 0x287 JUMPI PUSH2 0x100 DUP1 DUP4 SLOAD DIV MUL DUP4 MSTORE SWAP2 PUSH1 0x20 ADD SWAP2 PUSH2 0x2B0 JUMP JUMPDEST DUP3 ADD SWAP2 SWAP1 PUSH0 MSTORE PUSH1 0x20 PUSH0 KECCAK256 SWAP1 JUMPDEST DUP2 SLOAD DUP2 MSTORE SWAP1 PUSH1 0x1 ADD SWAP1 PUSH1 0x20 ADD DUP1 DUP4 GT PUSH2 0x293 JUMPI DUP3 SWAP1 SUB PUSH1 0x1F AND DUP3 ADD SWAP2 JUMPDEST POP POP POP POP POP SWAP1 DUP1 PUSH1 0x3 ADD SLOAD SWAP1 DUP1 PUSH1 0x4 ADD SLOAD SWAP1 POP DUP6 JUMP JUMPDEST PUSH0 DUP1 SLOAD SWAP1 PUSH2 0x100 EXP SWAP1 DIV PUSH2 0xFFFF AND DUP2 JUMP JUMPDEST PUSH1 0x60 PUSH1 0x1 PUSH0 DUP4 PUSH20 0xFFFFFFFFFFFFFFFFFFFFFFFFFFFFFFFFFFFFFFFF AND PUSH20 0xFFFFFFFFFFFFFFFFFFFFFFFFFFFFFFFFFFFFFFFF AND DUP2 MSTORE PUSH1 0x20 ADD SWAP1 DUP2 MSTORE PUSH1 0x20 ADD PUSH0 KECCAK256 DUP1 SLOAD DUP1 PUSH1 0x20 MUL PUSH1 0x20 ADD PUSH1 0x40 MLOAD SWAP1 DUP2 ADD PUSH1 0x40 MSTORE DUP1 SWAP3 SWAP2 SWAP1 DUP2 DUP2 MSTORE PUSH1 0x20 ADD PUSH0 SWAP1 JUMPDEST DUP3 DUP3 LT ISZERO PUSH2 0x467 JUMPI DUP4 DUP3 SWAP1 PUSH0 MSTORE PUSH1 0x20 PUSH0 KECCAK256 SWAP1 PUSH1 0x5 MUL ADD PUSH1 0x40 MLOAD DUP1 PUSH1 0xA0 ADD PUSH1 0x40 MSTORE SWAP1 DUP2 PUSH0 DUP3 ADD SLOAD DUP2 MSTORE PUSH1 0x20 ADD PUSH1 0x1 DUP3 ADD PUSH0 SWAP1 SLOAD SWAP1 PUSH2 0x100 EXP SWAP1 DIV PUSH20 0xFFFFFFFFFFFFFFFFFFFFFFFFFFFFFFFFFFFFFFFF AND PUSH20 0xFFFFFFFFFFFFFFFFFFFFFFFFFFFFFFFFFFFFFFFF AND PUSH20 0xFFFFFFFFFFFFFFFFFFFFFFFFFFFFFFFFFFFFFFFF AND DUP2 MSTORE PUSH1 0x20 ADD PUSH1 0x2 DUP3 ADD DUP1 SLOAD PUSH2 0x3C4 SWAP1 PUSH2 0x13BD JUMP JUMPDEST DUP1 PUSH1 0x1F ADD PUSH1 0x20 DUP1 SWAP2 DIV MUL PUSH1 0x20 ADD PUSH1 0x40 MLOAD SWAP1 DUP2 ADD PUSH1 0x40 MSTORE DUP1 SWAP3 SWAP2 SWAP1 DUP2 DUP2 MSTORE PUSH1 0x20 ADD DUP3 DUP1 SLOAD PUSH2 0x3F0 SWAP1 PUSH2 0x13BD JUMP JUMPDEST DUP1 ISZERO PUSH2 0x43B JUMPI DUP1 PUSH1 0x1F LT PUSH2 0x412 JUMPI PUSH2 0x100 DUP1 DUP4 SLOAD DIV MUL DUP4 MSTORE SWAP2 PUSH1 0x20 ADD SWAP2 PUSH2 0x43B JUMP JUMPDEST DUP3 ADD SWAP2 SWAP1 PUSH0 MSTORE PUSH1 0x20 PUSH0 KECCAK256 SWAP1 JUMPDEST DUP2 SLOAD DUP2 MSTORE SWAP1 PUSH1 0x1 ADD SWAP1 PUSH1 0x20 ADD DUP1 DUP4 GT PUSH2 0x41E JUMPI DUP3 SWAP1 SUB PUSH1 0x1F AND DUP3 ADD SWAP2 JUMPDEST POP POP POP POP POP DUP2 MSTORE PUSH1 0x20 ADD PUSH1 0x3 DUP3 ADD SLOAD DUP2 MSTORE PUSH1 0x20 ADD PUSH1 0x4 DUP3 ADD SLOAD DUP2 MSTORE POP POP DUP2 MSTORE PUSH1 0x20 ADD SWAP1 PUSH1 0x1 ADD SWAP1 PUSH2 0x335 JUMP JUMPDEST POP POP POP POP SWAP1 POP SWAP2 SWAP1 POP JUMP JUMPDEST DUP1 PUSH1 0x1 PUSH0 DUP5 PUSH20 0xFFFFFFFFFFFFFFFFFFFFFFFFFFFFFFFFFFFFFFFF AND PUSH20 0xFFFFFFFFFFFFFFFFFFFFFFFFFFFFFFFFFFFFFFFF AND DUP2 MSTORE PUSH1 0x20 ADD SWAP1 DUP2 MSTORE PUSH1 0x20 ADD PUSH0 KECCAK256 DUP3 DUP2 SLOAD DUP2 LT PUSH2 0x4C2 JUMPI PUSH2 0x4C1 PUSH2 0x13ED JUMP JUMPDEST JUMPDEST SWAP1 PUSH0 MSTORE PUSH1 0x20 PUSH0 KECCAK256 SWAP1 PUSH1 0x5 MUL ADD PUSH0 ADD SLOAD EQ PUSH2 0x511 JUMPI PUSH1 0x40 MLOAD PUSH32 0x8C379A000000000000000000000000000000000000000000000000000000000 DUP2 MSTORE PUSH1 0x4 ADD PUSH2 0x508 SWAP1 PUSH2 0x1464 JUMP JUMPDEST PUSH1 0x40 MLOAD DUP1 SWAP2 SUB SWAP1 REVERT JUMPDEST PUSH0 PUSH1 0x1 PUSH0 DUP5 PUSH20 0xFFFFFFFFFFFFFFFFFFFFFFFFFFFFFFFFFFFFFFFF AND PUSH20 0xFFFFFFFFFFFFFFFFFFFFFFFFFFFFFFFFFFFFFFFF AND DUP2 MSTORE PUSH1 0x20 ADD SWAP1 DUP2 MSTORE PUSH1 0x20 ADD PUSH0 KECCAK256 DUP3 DUP2 SLOAD DUP2 LT PUSH2 0x561 JUMPI PUSH2 0x560 PUSH2 0x13ED JUMP JUMPDEST JUMPDEST SWAP1 PUSH0 MSTORE PUSH1 0x20 PUSH0 KECCAK256 SWAP1 PUSH1 0x5 MUL ADD PUSH1 0x4 ADD SLOAD GT PUSH2 0x5B1 JUMPI PUSH1 0x40 MLOAD PUSH32 0x8C379A000000000000000000000000000000000000000000000000000000000 DUP2 MSTORE PUSH1 0x4 ADD PUSH2 0x5A8 SWAP1 PUSH2 0x14CC JUMP JUMPDEST PUSH1 0x40 MLOAD DUP1 SWAP2 SUB SWAP1 REVERT JUMPDEST PUSH1 0x1 PUSH0 DUP4 PUSH20 0xFFFFFFFFFFFFFFFFFFFFFFFFFFFFFFFFFFFFFFFF AND PUSH20 0xFFFFFFFFFFFFFFFFFFFFFFFFFFFFFFFFFFFFFFFF AND DUP2 MSTORE PUSH1 0x20 ADD SWAP1 DUP2 MSTORE PUSH1 0x20 ADD PUSH0 KECCAK256 DUP2 DUP2 SLOAD DUP2 LT PUSH2 0x600 JUMPI PUSH2 0x5FF PUSH2 0x13ED JUMP JUMPDEST JUMPDEST SWAP1 PUSH0 MSTORE PUSH1 0x20 PUSH0 KECCAK256 SWAP1 PUSH1 0x5 MUL ADD PUSH1 0x4 ADD PUSH0 DUP2 SLOAD DUP1 SWAP3 SWAP2 SWAP1 PUSH2 0x61F SWAP1 PUSH2 0x1517 JUMP JUMPDEST SWAP2 SWAP1 POP SSTORE POP PUSH32 0x273883C252143C4ABCE776697615E41CA9BC1AAC5968C585D1C8BA8FFAA8B3C1 CALLER DUP4 DUP4 PUSH1 0x1 PUSH0 DUP8 PUSH20 0xFFFFFFFFFFFFFFFFFFFFFFFFFFFFFFFFFFFFFFFF AND PUSH20 0xFFFFFFFFFFFFFFFFFFFFFFFFFFFFFFFFFFFFFFFF AND DUP2 MSTORE PUSH1 0x20 ADD SWAP1 DUP2 MSTORE PUSH1 0x20 ADD PUSH0 KECCAK256 DUP6 DUP2 SLOAD DUP2 LT PUSH2 0x697 JUMPI PUSH2 0x696 PUSH2 0x13ED JUMP JUMPDEST JUMPDEST SWAP1 PUSH0 MSTORE PUSH1 0x20 PUSH0 KECCAK256 SWAP1 PUSH1 0x5 MUL ADD PUSH1 0x4 ADD SLOAD PUSH1 0x40 MLOAD PUSH2 0x6B7 SWAP5 SWAP4 SWAP3 SWAP2 SWAP1 PUSH2 0x153E JUMP JUMPDEST PUSH1 0x40 MLOAD DUP1 SWAP2 SUB SWAP1 LOG1 POP POP JUMP JUMPDEST PUSH1 0x2 PUSH0 SWAP1 SLOAD SWAP1 PUSH2 0x100 EXP SWAP1 DIV PUSH20 0xFFFFFFFFFFFFFFFFFFFFFFFFFFFFFFFFFFFFFFFF AND PUSH20 0xFFFFFFFFFFFFFFFFFFFFFFFFFFFFFFFFFFFFFFFF AND CALLER PUSH20 0xFFFFFFFFFFFFFFFFFFFFFFFFFFFFFFFFFFFFFFFF AND EQ PUSH2 0x752 JUMPI PUSH1 0x40 MLOAD PUSH32 0x8C379A000000000000000000000000000000000000000000000000000000000 DUP2 MSTORE PUSH1 0x4 ADD PUSH2 0x749 SWAP1 PUSH2 0x15CB JUMP JUMPDEST PUSH1 0x40 MLOAD DUP1 SWAP2 SUB SWAP1 REVERT JUMPDEST DUP1 PUSH0 DUP1 PUSH2 0x100 EXP DUP2 SLOAD DUP2 PUSH2 0xFFFF MUL NOT AND SWAP1 DUP4 PUSH2 0xFFFF AND MUL OR SWAP1 SSTORE POP POP JUMP JUMPDEST DUP1 PUSH1 0x1 PUSH0 DUP5 PUSH20 0xFFFFFFFFFFFFFFFFFFFFFFFFFFFFFFFFFFFFFFFF AND PUSH20 0xFFFFFFFFFFFFFFFFFFFFFFFFFFFFFFFFFFFFFFFF AND DUP2 MSTORE PUSH1 0x20 ADD SWAP1 DUP2 MSTORE PUSH1 0x20 ADD PUSH0 KECCAK256 DUP3 DUP2 SLOAD DUP2 LT PUSH2 0x7C0 JUMPI PUSH2 0x7BF PUSH2 0x13ED JUMP JUMPDEST JUMPDEST SWAP1 PUSH0 MSTORE PUSH1 0x20 PUSH0 KECCAK256 SWAP1 PUSH1 0x5 MUL ADD PUSH0 ADD SLOAD EQ PUSH2 0x80F JUMPI PUSH1 0x40 MLOAD PUSH32 0x8C379A000000000000000000000000000000000000000000000000000000000 DUP2 MSTORE PUSH1 0x4 ADD PUSH2 0x806 SWAP1 PUSH2 0x1464 JUMP JUMPDEST PUSH1 0x40 MLOAD DUP1 SWAP2 SUB SWAP1 REVERT JUMPDEST PUSH1 0x1 PUSH0 DUP4 PUSH20 0xFFFFFFFFFFFFFFFFFFFFFFFFFFFFFFFFFFFFFFFF AND PUSH20 0xFFFFFFFFFFFFFFFFFFFFFFFFFFFFFFFFFFFFFFFF AND DUP2 MSTORE PUSH1 0x20 ADD SWAP1 DUP2 MSTORE PUSH1 0x20 ADD PUSH0 KECCAK256 DUP2 DUP2 SLOAD DUP2 LT PUSH2 0x85E JUMPI PUSH2 0x85D PUSH2 0x13ED JUMP JUMPDEST JUMPDEST SWAP1 PUSH0 MSTORE PUSH1 0x20 PUSH0 KECCAK256 SWAP1 PUSH1 0x5 MUL ADD PUSH1 0x4 ADD PUSH0 DUP2 SLOAD DUP1 SWAP3 SWAP2 SWAP1 PUSH2 0x87D SWAP1 PUSH2 0x15E9 JUMP JUMPDEST SWAP2 SWAP1 POP SSTORE POP PUSH32 0xE8A76FC0F16D11A00D1E93B689B63D76CF60AF914DD3D915375DC41D01A0C3C8 CALLER DUP4 DUP4 PUSH1 0x1 PUSH0 DUP8 PUSH20 0xFFFFFFFFFFFFFFFFFFFFFFFFFFFFFFFFFFFFFFFF AND PUSH20 0xFFFFFFFFFFFFFFFFFFFFFFFFFFFFFFFFFFFFFFFF AND DUP2 MSTORE PUSH1 0x20 ADD SWAP1 DUP2 MSTORE PUSH1 0x20 ADD PUSH0 KECCAK256 DUP6 DUP2 SLOAD DUP2 LT PUSH2 0x8F5 JUMPI PUSH2 0x8F4 PUSH2 0x13ED JUMP JUMPDEST JUMPDEST SWAP1 PUSH0 MSTORE PUSH1 0x20 PUSH0 KECCAK256 SWAP1 PUSH1 0x5 MUL ADD PUSH1 0x4 ADD SLOAD PUSH1 0x40 MLOAD PUSH2 0x915 SWAP5 SWAP4 SWAP3 SWAP2 SWAP1 PUSH2 0x153E JUMP JUMPDEST PUSH1 0x40 MLOAD DUP1 SWAP2 SUB SWAP1 LOG1 POP POP JUMP JUMPDEST PUSH0 DUP1 SLOAD SWAP1 PUSH2 0x100 EXP SWAP1 DIV PUSH2 0xFFFF AND PUSH2 0xFFFF AND DUP2 MLOAD GT ISZERO PUSH2 0x976 JUMPI PUSH1 0x40 MLOAD PUSH32 0x8C379A000000000000000000000000000000000000000000000000000000000 DUP2 MSTORE PUSH1 0x4 ADD PUSH2 0x96D SWAP1 PUSH2 0x167A JUMP JUMPDEST PUSH1 0x40 MLOAD DUP1 SWAP2 SUB SWAP1 REVERT JUMPDEST PUSH0 PUSH1 0x40 MLOAD DUP1 PUSH1 0xA0 ADD PUSH1 0x40 MSTORE DUP1 PUSH1 0x1 PUSH0 CALLER PUSH20 0xFFFFFFFFFFFFFFFFFFFFFFFFFFFFFFFFFFFFFFFF AND PUSH20 0xFFFFFFFFFFFFFFFFFFFFFFFFFFFFFFFFFFFFFFFF AND DUP2 MSTORE PUSH1 0x20 ADD SWAP1 DUP2 MSTORE PUSH1 0x20 ADD PUSH0 KECCAK256 DUP1 SLOAD SWAP1 POP DUP2 MSTORE PUSH1 0x20 ADD CALLER PUSH20 0xFFFFFFFFFFFFFFFFFFFFFFFFFFFFFFFFFFFFFFFF AND DUP2 MSTORE PUSH1 0x20 ADD DUP4 DUP2 MSTORE PUSH1 0x20 ADD TIMESTAMP DUP2 MSTORE PUSH1 0x20 ADD PUSH0 DUP2 MSTORE POP SWAP1 POP PUSH1 0x1 PUSH0 CALLER PUSH20 0xFFFFFFFFFFFFFFFFFFFFFFFFFFFFFFFFFFFFFFFF AND PUSH20 0xFFFFFFFFFFFFFFFFFFFFFFFFFFFFFFFFFFFFFFFF AND DUP2 MSTORE PUSH1 0x20 ADD SWAP1 DUP2 MSTORE PUSH1 0x20 ADD PUSH0 KECCAK256 DUP2 SWAP1 DUP1 PUSH1 0x1 DUP2 SLOAD ADD DUP1 DUP3 SSTORE DUP1 SWAP2 POP POP PUSH1 0x1 SWAP1 SUB SWAP1 PUSH0 MSTORE PUSH1 0x20 PUSH0 KECCAK256 SWAP1 PUSH1 0x5 MUL ADD PUSH0 SWAP1 SWAP2 SWAP1 SWAP2 SWAP1 SWAP2 POP PUSH0 DUP3 ADD MLOAD DUP2 PUSH0 ADD SSTORE PUSH1 0x20 DUP3 ADD MLOAD DUP2 PUSH1 0x1 ADD PUSH0 PUSH2 0x100 EXP DUP2 SLOAD DUP2 PUSH20 0xFFFFFFFFFFFFFFFFFFFFFFFFFFFFFFFFFFFFFFFF MUL NOT AND SWAP1 DUP4 PUSH20 0xFFFFFFFFFFFFFFFFFFFFFFFFFFFFFFFFFFFFFFFF AND MUL OR SWAP1 SSTORE POP PUSH1 0x40 DUP3 ADD MLOAD DUP2 PUSH1 0x2 ADD SWAP1 DUP2 PUSH2 0xABD SWAP2 SWAP1 PUSH2 0x1835 JUMP JUMPDEST POP PUSH1 0x60 DUP3 ADD MLOAD DUP2 PUSH1 0x3 ADD SSTORE PUSH1 0x80 DUP3 ADD MLOAD DUP2 PUSH1 0x4 ADD SSTORE POP POP PUSH32 0x16FD3C13E9D46923E0A8BCE11C7B473EC508A72E6C96CD2404B29CE972AFC29E DUP2 PUSH0 ADD MLOAD DUP3 PUSH1 0x20 ADD MLOAD DUP4 PUSH1 0x40 ADD MLOAD DUP5 PUSH1 0x60 ADD MLOAD PUSH1 0x40 MLOAD PUSH2 0xB18 SWAP5 SWAP4 SWAP3 SWAP2 SWAP1 PUSH2 0x1904 JUMP JUMPDEST PUSH1 0x40 MLOAD DUP1 SWAP2 SUB SWAP1 LOG1 POP POP JUMP JUMPDEST PUSH1 0x2 PUSH0 SWAP1 SLOAD SWAP1 PUSH2 0x100 EXP SWAP1 DIV PUSH20 0xFFFFFFFFFFFFFFFFFFFFFFFFFFFFFFFFFFFFFFFF AND DUP2 JUMP JUMPDEST PUSH2 0xB51 PUSH2 0xCC0 JUMP JUMPDEST PUSH1 0x1 PUSH0 CALLER PUSH20 0xFFFFFFFFFFFFFFFFFFFFFFFFFFFFFFFFFFFFFFFF AND PUSH20 0xFFFFFFFFFFFFFFFFFFFFFFFFFFFFFFFFFFFFFFFF AND DUP2 MSTORE PUSH1 0x20 ADD SWAP1 DUP2 MSTORE PUSH1 0x20 ADD PUSH0 KECCAK256 DUP3 DUP2 SLOAD DUP2 LT PUSH2 0xBA0 JUMPI PUSH2 0xB9F PUSH2 0x13ED JUMP JUMPDEST JUMPDEST SWAP1 PUSH0 MSTORE PUSH1 0x20 PUSH0 KECCAK256 SWAP1 PUSH1 0x5 MUL ADD PUSH1 0x40 MLOAD DUP1 PUSH1 0xA0 ADD PUSH1 0x40 MSTORE SWAP1 DUP2 PUSH0 DUP3 ADD SLOAD DUP2 MSTORE PUSH1 0x20 ADD PUSH1 0x1 DUP3 ADD PUSH0 SWAP1 SLOAD SWAP1 PUSH2 0x100 EXP SWAP1 DIV PUSH20 0xFFFFFFFFFFFFFFFFFFFFFFFFFFFFFFFFFFFFFFFF AND PUSH20 0xFFFFFFFFFFFFFFFFFFFFFFFFFFFFFFFFFFFFFFFF AND PUSH20 0xFFFFFFFFFFFFFFFFFFFFFFFFFFFFFFFFFFFFFFFF AND DUP2 MSTORE PUSH1 0x20 ADD PUSH1 0x2 DUP3 ADD DUP1 SLOAD PUSH2 0xC25 SWAP1 PUSH2 0x13BD JUMP JUMPDEST DUP1 PUSH1 0x1F ADD PUSH1 0x20 DUP1 SWAP2 DIV MUL PUSH1 0x20 ADD PUSH1 0x40 MLOAD SWAP1 DUP2 ADD PUSH1 0x40 MSTORE DUP1 SWAP3 SWAP2 SWAP1 DUP2 DUP2 MSTORE PUSH1 0x20 ADD DUP3 DUP1 SLOAD PUSH2 0xC51 SWAP1 PUSH2 0x13BD JUMP JUMPDEST DUP1 ISZERO PUSH2 0xC9C JUMPI DUP1 PUSH1 0x1F LT PUSH2 0xC73 JUMPI PUSH2 0x100 DUP1 DUP4 SLOAD DIV MUL DUP4 MSTORE SWAP2 PUSH1 0x20 ADD SWAP2 PUSH2 0xC9C JUMP JUMPDEST DUP3 ADD SWAP2 SWAP1 PUSH0 MSTORE PUSH1 0x20 PUSH0 KECCAK256 SWAP1 JUMPDEST DUP2 SLOAD DUP2 MSTORE SWAP1 PUSH1 0x1 ADD SWAP1 PUSH1 0x20 ADD DUP1 DUP4 GT PUSH2 0xC7F JUMPI DUP3 SWAP1 SUB PUSH1 0x1F AND DUP3 ADD SWAP2 JUMPDEST POP POP POP POP POP DUP2 MSTORE PUSH1 0x20 ADD PUSH1 0x3 DUP3 ADD SLOAD DUP2 MSTORE PUSH1 0x20 ADD PUSH1 0x4 DUP3 ADD SLOAD DUP2 MSTORE POP POP SWAP1 POP SWAP2 SWAP1 POP JUMP JUMPDEST PUSH1 0x40 MLOAD DUP1 PUSH1 0xA0 ADD PUSH1 0x40 MSTORE DUP1 PUSH0 DUP2 MSTORE PUSH1 0x20 ADD PUSH0 PUSH20 0xFFFFFFFFFFFFFFFFFFFFFFFFFFFFFFFFFFFFFFFF AND DUP2 MSTORE PUSH1 0x20 ADD PUSH1 0x60 DUP2 MSTORE PUSH1 0x20 ADD PUSH0 DUP2 MSTORE PUSH1 0x20 ADD PUSH0 DUP2 MSTORE POP SWAP1 JUMP JUMPDEST PUSH0 PUSH1 0x40 MLOAD SWAP1 POP SWAP1 JUMP JUMPDEST PUSH0 DUP1 REVERT JUMPDEST PUSH0 DUP1 REVERT JUMPDEST PUSH0 PUSH20 0xFFFFFFFFFFFFFFFFFFFFFFFFFFFFFFFFFFFFFFFF DUP3 AND SWAP1 POP SWAP2 SWAP1 POP JUMP JUMPDEST PUSH0 PUSH2 0xD3B DUP3 PUSH2 0xD12 JUMP JUMPDEST SWAP1 POP SWAP2 SWAP1 POP JUMP JUMPDEST PUSH2 0xD4B DUP2 PUSH2 0xD31 JUMP JUMPDEST DUP2 EQ PUSH2 0xD55 JUMPI PUSH0 DUP1 REVERT JUMPDEST POP JUMP JUMPDEST PUSH0 DUP2 CALLDATALOAD SWAP1 POP PUSH2 0xD66 DUP2 PUSH2 0xD42 JUMP JUMPDEST SWAP3 SWAP2 POP POP JUMP JUMPDEST PUSH0 DUP2 SWAP1 POP SWAP2 SWAP1 POP JUMP JUMPDEST PUSH2 0xD7E DUP2 PUSH2 0xD6C JUMP JUMPDEST DUP2 EQ PUSH2 0xD88 JUMPI PUSH0 DUP1 REVERT JUMPDEST POP JUMP JUMPDEST PUSH0 DUP2 CALLDATALOAD SWAP1 POP PUSH2 0xD99 DUP2 PUSH2 0xD75 JUMP JUMPDEST SWAP3 SWAP2 POP POP JUMP JUMPDEST PUSH0 DUP1 PUSH1 0x40 DUP4 DUP6 SUB SLT ISZERO PUSH2 0xDB5 JUMPI PUSH2 0xDB4 PUSH2 0xD0A JUMP JUMPDEST JUMPDEST PUSH0 PUSH2 0xDC2 DUP6 DUP3 DUP7 ADD PUSH2 0xD58 JUMP JUMPDEST SWAP3 POP POP PUSH1 0x20 PUSH2 0xDD3 DUP6 DUP3 DUP7 ADD PUSH2 0xD8B JUMP JUMPDEST SWAP2 POP POP SWAP3 POP SWAP3 SWAP1 POP JUMP JUMPDEST PUSH2 0xDE6 DUP2 PUSH2 0xD6C JUMP JUMPDEST DUP3 MSTORE POP POP JUMP JUMPDEST PUSH2 0xDF5 DUP2 PUSH2 0xD31 JUMP JUMPDEST DUP3 MSTORE POP POP JUMP JUMPDEST PUSH0 DUP2 MLOAD SWAP1 POP SWAP2 SWAP1 POP JUMP JUMPDEST PUSH0 DUP3 DUP3 MSTORE PUSH1 0x20 DUP3 ADD SWAP1 POP SWAP3 SWAP2 POP POP JUMP JUMPDEST PUSH0 JUMPDEST DUP4 DUP2 LT ISZERO PUSH2 0xE32 JUMPI DUP1 DUP3 ADD MLOAD DUP2 DUP5 ADD MSTORE PUSH1 0x20 DUP2 ADD SWAP1 POP PUSH2 0xE17 JUMP JUMPDEST PUSH0 DUP5 DUP5 ADD MSTORE POP POP POP POP JUMP JUMPDEST PUSH0 PUSH1 0x1F NOT PUSH1 0x1F DUP4 ADD AND SWAP1 POP SWAP2 SWAP1 POP JUMP JUMPDEST PUSH0 PUSH2 0xE57 DUP3 PUSH2 0xDFB JUMP JUMPDEST PUSH2 0xE61 DUP2 DUP6 PUSH2 0xE05 JUMP JUMPDEST SWAP4 POP PUSH2 0xE71 DUP2 DUP6 PUSH1 0x20 DUP7 ADD PUSH2 0xE15 JUMP JUMPDEST PUSH2 0xE7A DUP2 PUSH2 0xE3D JUMP JUMPDEST DUP5 ADD SWAP2 POP POP SWAP3 SWAP2 POP POP JUMP JUMPDEST PUSH0 PUSH1 0xA0 DUP3 ADD SWAP1 POP PUSH2 0xE98 PUSH0 DUP4 ADD DUP9 PUSH2 0xDDD JUMP JUMPDEST PUSH2 0xEA5 PUSH1 0x20 DUP4 ADD DUP8 PUSH2 0xDEC JUMP JUMPDEST DUP2 DUP2 SUB PUSH1 0x40 DUP4 ADD MSTORE PUSH2 0xEB7 DUP2 DUP7 PUSH2 0xE4D JUMP JUMPDEST SWAP1 POP PUSH2 0xEC6 PUSH1 0x60 DUP4 ADD DUP6 PUSH2 0xDDD JUMP JUMPDEST PUSH2 0xED3 PUSH1 0x80 DUP4 ADD DUP5 PUSH2 0xDDD JUMP JUMPDEST SWAP7 SWAP6 POP POP POP POP POP POP JUMP JUMPDEST PUSH0 PUSH2 0xFFFF DUP3 AND SWAP1 POP SWAP2 SWAP1 POP JUMP JUMPDEST PUSH2 0xEF3 DUP2 PUSH2 0xEDD JUMP JUMPDEST DUP3 MSTORE POP POP JUMP JUMPDEST PUSH0 PUSH1 0x20 DUP3 ADD SWAP1 POP PUSH2 0xF0C PUSH0 DUP4 ADD DUP5 PUSH2 0xEEA JUMP JUMPDEST SWAP3 SWAP2 POP POP JUMP JUMPDEST PUSH0 PUSH1 0x20 DUP3 DUP5 SUB SLT ISZERO PUSH2 0xF27 JUMPI PUSH2 0xF26 PUSH2 0xD0A JUMP JUMPDEST JUMPDEST PUSH0 PUSH2 0xF34 DUP5 DUP3 DUP6 ADD PUSH2 0xD58 JUMP JUMPDEST SWAP2 POP POP SWAP3 SWAP2 POP POP JUMP JUMPDEST PUSH0 DUP2 MLOAD SWAP1 POP SWAP2 SWAP1 POP JUMP JUMPDEST PUSH0 DUP3 DUP3 MSTORE PUSH1 0x20 DUP3 ADD SWAP1 POP SWAP3 SWAP2 POP POP JUMP JUMPDEST PUSH0 DUP2 SWAP1 POP PUSH1 0x20 DUP3 ADD SWAP1 POP SWAP2 SWAP1 POP JUMP JUMPDEST PUSH2 0xF6F DUP2 PUSH2 0xD6C JUMP JUMPDEST DUP3 MSTORE POP POP JUMP JUMPDEST PUSH2 0xF7E DUP2 PUSH2 0xD31 JUMP JUMPDEST DUP3 MSTORE POP POP JUMP JUMPDEST PUSH0 DUP3 DUP3 MSTORE PUSH1 0x20 DUP3 ADD SWAP1 POP SWAP3 SWAP2 POP POP JUMP JUMPDEST PUSH0 PUSH2 0xF9E DUP3 PUSH2 0xDFB JUMP JUMPDEST PUSH2 0xFA8 DUP2 DUP6 PUSH2 0xF84 JUMP JUMPDEST SWAP4 POP PUSH2 0xFB8 DUP2 DUP6 PUSH1 0x20 DUP7 ADD PUSH2 0xE15 JUMP JUMPDEST PUSH2 0xFC1 DUP2 PUSH2 0xE3D JUMP JUMPDEST DUP5 ADD SWAP2 POP POP SWAP3 SWAP2 POP POP JUMP JUMPDEST PUSH0 PUSH1 0xA0 DUP4 ADD PUSH0 DUP4 ADD MLOAD PUSH2 0xFE1 PUSH0 DUP7 ADD DUP3 PUSH2 0xF66 JUMP JUMPDEST POP PUSH1 0x20 DUP4 ADD MLOAD PUSH2 0xFF4 PUSH1 0x20 DUP7 ADD DUP3 PUSH2 0xF75 JUMP JUMPDEST POP PUSH1 0x40 DUP4 ADD MLOAD DUP5 DUP3 SUB PUSH1 0x40 DUP7 ADD MSTORE PUSH2 0x100C DUP3 DUP3 PUSH2 0xF94 JUMP JUMPDEST SWAP2 POP POP PUSH1 0x60 DUP4 ADD MLOAD PUSH2 0x1021 PUSH1 0x60 DUP7 ADD DUP3 PUSH2 0xF66 JUMP JUMPDEST POP PUSH1 0x80 DUP4 ADD MLOAD PUSH2 0x1034 PUSH1 0x80 DUP7 ADD DUP3 PUSH2 0xF66 JUMP JUMPDEST POP DUP1 SWAP2 POP POP SWAP3 SWAP2 POP POP JUMP JUMPDEST PUSH0 PUSH2 0x104A DUP4 DUP4 PUSH2 0xFCC JUMP JUMPDEST SWAP1 POP SWAP3 SWAP2 POP POP JUMP JUMPDEST PUSH0 PUSH1 0x20 DUP3 ADD SWAP1 POP SWAP2 SWAP1 POP JUMP JUMPDEST PUSH0 PUSH2 0x1068 DUP3 PUSH2 0xF3D JUMP JUMPDEST PUSH2 0x1072 DUP2 DUP6 PUSH2 0xF47 JUMP JUMPDEST SWAP4 POP DUP4 PUSH1 0x20 DUP3 MUL DUP6 ADD PUSH2 0x1084 DUP6 PUSH2 0xF57 JUMP JUMPDEST DUP1 PUSH0 JUMPDEST DUP6 DUP2 LT ISZERO PUSH2 0x10BF JUMPI DUP5 DUP5 SUB DUP10 MSTORE DUP2 MLOAD PUSH2 0x10A0 DUP6 DUP3 PUSH2 0x103F JUMP JUMPDEST SWAP5 POP PUSH2 0x10AB DUP4 PUSH2 0x1052 JUMP JUMPDEST SWAP3 POP PUSH1 0x20 DUP11 ADD SWAP10 POP POP PUSH1 0x1 DUP2 ADD SWAP1 POP PUSH2 0x1087 JUMP JUMPDEST POP DUP3 SWAP8 POP DUP8 SWAP6 POP POP POP POP POP POP SWAP3 SWAP2 POP POP JUMP JUMPDEST PUSH0 PUSH1 0x20 DUP3 ADD SWAP1 POP DUP2 DUP2 SUB PUSH0 DUP4 ADD MSTORE PUSH2 0x10E9 DUP2 DUP5 PUSH2 0x105E JUMP JUMPDEST SWAP1 POP SWAP3 SWAP2 POP POP JUMP JUMPDEST PUSH2 0x10FA DUP2 PUSH2 0xEDD JUMP JUMPDEST DUP2 EQ PUSH2 0x1104 JUMPI PUSH0 DUP1 REVERT JUMPDEST POP JUMP JUMPDEST PUSH0 DUP2 CALLDATALOAD SWAP1 POP PUSH2 0x1115 DUP2 PUSH2 0x10F1 JUMP JUMPDEST SWAP3 SWAP2 POP POP JUMP JUMPDEST PUSH0 PUSH1 0x20 DUP3 DUP5 SUB SLT ISZERO PUSH2 0x1130 JUMPI PUSH2 0x112F PUSH2 0xD0A JUMP JUMPDEST JUMPDEST PUSH0 PUSH2 0x113D DUP5 DUP3 DUP6 ADD PUSH2 0x1107 JUMP JUMPDEST SWAP2 POP POP SWAP3 SWAP2 POP POP JUMP JUMPDEST PUSH0 DUP1 REVERT JUMPDEST PUSH0 DUP1 REVERT JUMPDEST PUSH32 0x4E487B7100000000000000000000000000000000000000000000000000000000 PUSH0 MSTORE PUSH1 0x41 PUSH1 0x4 MSTORE PUSH1 0x24 PUSH0 REVERT JUMPDEST PUSH2 0x1184 DUP3 PUSH2 0xE3D JUMP JUMPDEST DUP2 ADD DUP2 DUP2 LT PUSH8 0xFFFFFFFFFFFFFFFF DUP3 GT OR ISZERO PUSH2 0x11A3 JUMPI PUSH2 0x11A2 PUSH2 0x114E JUMP JUMPDEST JUMPDEST DUP1 PUSH1 0x40 MSTORE POP POP POP JUMP JUMPDEST PUSH0 PUSH2 0x11B5 PUSH2 0xD01 JUMP JUMPDEST SWAP1 POP PUSH2 0x11C1 DUP3 DUP3 PUSH2 0x117B JUMP JUMPDEST SWAP2 SWAP1 POP JUMP JUMPDEST PUSH0 PUSH8 0xFFFFFFFFFFFFFFFF DUP3 GT ISZERO PUSH2 0x11E0 JUMPI PUSH2 0x11DF PUSH2 0x114E JUMP JUMPDEST JUMPDEST PUSH2 0x11E9 DUP3 PUSH2 0xE3D JUMP JUMPDEST SWAP1 POP PUSH1 0x20 DUP2 ADD SWAP1 POP SWAP2 SWAP1 POP JUMP JUMPDEST DUP3 DUP2 DUP4 CALLDATACOPY PUSH0 DUP4 DUP4 ADD MSTORE POP POP POP JUMP JUMPDEST PUSH0 PUSH2 0x1216 PUSH2 0x1211 DUP5 PUSH2 0x11C6 JUMP JUMPDEST PUSH2 0x11AC JUMP JUMPDEST SWAP1 POP DUP3 DUP2 MSTORE PUSH1 0x20 DUP2 ADD DUP5 DUP5 DUP5 ADD GT ISZERO PUSH2 0x1232 JUMPI PUSH2 0x1231 PUSH2 0x114A JUMP JUMPDEST JUMPDEST PUSH2 0x123D DUP5 DUP3 DUP6 PUSH2 0x11F6 JUMP JUMPDEST POP SWAP4 SWAP3 POP POP POP JUMP JUMPDEST PUSH0 DUP3 PUSH1 0x1F DUP4 ADD SLT PUSH2 0x1259 JUMPI PUSH2 0x1258 PUSH2 0x1146 JUMP JUMPDEST JUMPDEST DUP2 CALLDATALOAD PUSH2 0x1269 DUP5 DUP3 PUSH1 0x20 DUP7 ADD PUSH2 0x1204 JUMP JUMPDEST SWAP2 POP POP SWAP3 SWAP2 POP POP JUMP JUMPDEST PUSH0 PUSH1 0x20 DUP3 DUP5 SUB SLT ISZERO PUSH2 0x1287 JUMPI PUSH2 0x1286 PUSH2 0xD0A JUMP JUMPDEST JUMPDEST PUSH0 DUP3 ADD CALLDATALOAD PUSH8 0xFFFFFFFFFFFFFFFF DUP2 GT ISZERO PUSH2 0x12A4 JUMPI PUSH2 0x12A3 PUSH2 0xD0E JUMP JUMPDEST JUMPDEST PUSH2 0x12B0 DUP5 DUP3 DUP6 ADD PUSH2 0x1245 JUMP JUMPDEST SWAP2 POP POP SWAP3 SWAP2 POP POP JUMP JUMPDEST PUSH0 PUSH1 0x20 DUP3 ADD SWAP1 POP PUSH2 0x12CC PUSH0 DUP4 ADD DUP5 PUSH2 0xDEC JUMP JUMPDEST SWAP3 SWAP2 POP POP JUMP JUMPDEST PUSH0 PUSH1 0x20 DUP3 DUP5 SUB SLT ISZERO PUSH2 0x12E7 JUMPI PUSH2 0x12E6 PUSH2 0xD0A JUMP JUMPDEST JUMPDEST PUSH0 PUSH2 0x12F4 DUP5 DUP3 DUP6 ADD PUSH2 0xD8B JUMP JUMPDEST SWAP2 POP POP SWAP3 SWAP2 POP POP JUMP JUMPDEST PUSH0 PUSH1 0xA0 DUP4 ADD PUSH0 DUP4 ADD MLOAD PUSH2 0x1312 PUSH0 DUP7 ADD DUP3 PUSH2 0xF66 JUMP JUMPDEST POP PUSH1 0x20 DUP4 ADD MLOAD PUSH2 0x1325 PUSH1 0x20 DUP7 ADD DUP3 PUSH2 0xF75 JUMP JUMPDEST POP PUSH1 0x40 DUP4 ADD MLOAD DUP5 DUP3 SUB PUSH1 0x40 DUP7 ADD MSTORE PUSH2 0x133D DUP3 DUP3 PUSH2 0xF94 JUMP JUMPDEST SWAP2 POP POP PUSH1 0x60 DUP4 ADD MLOAD PUSH2 0x1352 PUSH1 0x60 DUP7 ADD DUP3 PUSH2 0xF66 JUMP JUMPDEST POP PUSH1 0x80 DUP4 ADD MLOAD PUSH2 0x1365 PUSH1 0x80 DUP7 ADD DUP3 PUSH2 0xF66 JUMP JUMPDEST POP DUP1 SWAP2 POP POP SWAP3 SWAP2 POP POP JUMP JUMPDEST PUSH0 PUSH1 0x20 DUP3 ADD SWAP1 POP DUP2 DUP2 SUB PUSH0 DUP4 ADD MSTORE PUSH2 0x1388 DUP2 DUP5 PUSH2 0x12FD JUMP JUMPDEST SWAP1 POP SWAP3 SWAP2 POP POP JUMP JUMPDEST PUSH32 0x4E487B7100000000000000000000000000000000000000000000000000000000 PUSH0 MSTORE PUSH1 0x22 PUSH1 0x4 MSTORE PUSH1 0x24 PUSH0 REVERT JUMPDEST PUSH0 PUSH1 0x2 DUP3 DIV SWAP1 POP PUSH1 0x1 DUP3 AND DUP1 PUSH2 0x13D4 JUMPI PUSH1 0x7F DUP3 AND SWAP2 POP JUMPDEST PUSH1 0x20 DUP3 LT DUP2 SUB PUSH2 0x13E7 JUMPI PUSH2 0x13E6 PUSH2 0x1390 JUMP JUMPDEST JUMPDEST POP SWAP2 SWAP1 POP JUMP JUMPDEST PUSH32 0x4E487B7100000000000000000000000000000000000000000000000000000000 PUSH0 MSTORE PUSH1 0x32 PUSH1 0x4 MSTORE PUSH1 0x24 PUSH0 REVERT JUMPDEST PUSH32 0x547765657420446F6573206E6F74206578697374000000000000000000000000 PUSH0 DUP3 ADD MSTORE POP JUMP JUMPDEST PUSH0 PUSH2 0x144E PUSH1 0x14 DUP4 PUSH2 0xE05 JUMP JUMPDEST SWAP2 POP PUSH2 0x1459 DUP3 PUSH2 0x141A JUMP JUMPDEST PUSH1 0x20 DUP3 ADD SWAP1 POP SWAP2 SWAP1 POP JUMP JUMPDEST PUSH0 PUSH1 0x20 DUP3 ADD SWAP1 POP DUP2 DUP2 SUB PUSH0 DUP4 ADD MSTORE PUSH2 0x147B DUP2 PUSH2 0x1442 JUMP JUMPDEST SWAP1 POP SWAP2 SWAP1 POP JUMP JUMPDEST PUSH32 0x747765657420686173206E6F206C696B65730000000000000000000000000000 PUSH0 DUP3 ADD MSTORE POP JUMP JUMPDEST PUSH0 PUSH2 0x14B6 PUSH1 0x12 DUP4 PUSH2 0xE05 JUMP JUMPDEST SWAP2 POP PUSH2 0x14C1 DUP3 PUSH2 0x1482 JUMP JUMPDEST PUSH1 0x20 DUP3 ADD SWAP1 POP SWAP2 SWAP1 POP JUMP JUMPDEST PUSH0 PUSH1 0x20 DUP3 ADD SWAP1 POP DUP2 DUP2 SUB PUSH0 DUP4 ADD MSTORE PUSH2 0x14E3 DUP2 PUSH2 0x14AA JUMP JUMPDEST SWAP1 POP SWAP2 SWAP1 POP JUMP JUMPDEST PUSH32 0x4E487B7100000000000000000000000000000000000000000000000000000000 PUSH0 MSTORE PUSH1 0x11 PUSH1 0x4 MSTORE PUSH1 0x24 PUSH0 REVERT JUMPDEST PUSH0 PUSH2 0x1521 DUP3 PUSH2 0xD6C JUMP JUMPDEST SWAP2 POP PUSH0 DUP3 SUB PUSH2 0x1533 JUMPI PUSH2 0x1532 PUSH2 0x14EA JUMP JUMPDEST JUMPDEST PUSH1 0x1 DUP3 SUB SWAP1 POP SWAP2 SWAP1 POP JUMP JUMPDEST PUSH0 PUSH1 0x80 DUP3 ADD SWAP1 POP PUSH2 0x1551 PUSH0 DUP4 ADD DUP8 PUSH2 0xDEC JUMP JUMPDEST PUSH2 0x155E PUSH1 0x20 DUP4 ADD DUP7 PUSH2 0xDEC JUMP JUMPDEST PUSH2 0x156B PUSH1 0x40 DUP4 ADD DUP6 PUSH2 0xDDD JUMP JUMPDEST PUSH2 0x1578 PUSH1 0x60 DUP4 ADD DUP5 PUSH2 0xDDD JUMP JUMPDEST SWAP6 SWAP5 POP POP POP POP POP JUMP JUMPDEST PUSH32 0x594F5520415245204E4F5420544845204F574E45520000000000000000000000 PUSH0 DUP3 ADD MSTORE POP JUMP JUMPDEST PUSH0 PUSH2 0x15B5 PUSH1 0x15 DUP4 PUSH2 0xE05 JUMP JUMPDEST SWAP2 POP PUSH2 0x15C0 DUP3 PUSH2 0x1581 JUMP JUMPDEST PUSH1 0x20 DUP3 ADD SWAP1 POP SWAP2 SWAP1 POP JUMP JUMPDEST PUSH0 PUSH1 0x20 DUP3 ADD SWAP1 POP DUP2 DUP2 SUB PUSH0 DUP4 ADD MSTORE PUSH2 0x15E2 DUP2 PUSH2 0x15A9 JUMP JUMPDEST SWAP1 POP SWAP2 SWAP1 POP JUMP JUMPDEST PUSH0 PUSH2 0x15F3 DUP3 PUSH2 0xD6C JUMP JUMPDEST SWAP2 POP PUSH32 0xFFFFFFFFFFFFFFFFFFFFFFFFFFFFFFFFFFFFFFFFFFFFFFFFFFFFFFFFFFFFFFFF DUP3 SUB PUSH2 0x1625 JUMPI PUSH2 0x1624 PUSH2 0x14EA JUMP JUMPDEST JUMPDEST PUSH1 0x1 DUP3 ADD SWAP1 POP SWAP2 SWAP1 POP JUMP JUMPDEST PUSH32 0x547765657420697320746F6F204C6F6E67000000000000000000000000000000 PUSH0 DUP3 ADD MSTORE POP JUMP JUMPDEST PUSH0 PUSH2 0x1664 PUSH1 0x11 DUP4 PUSH2 0xE05 JUMP JUMPDEST SWAP2 POP PUSH2 0x166F DUP3 PUSH2 0x1630 JUMP JUMPDEST PUSH1 0x20 DUP3 ADD SWAP1 POP SWAP2 SWAP1 POP JUMP JUMPDEST PUSH0 PUSH1 0x20 DUP3 ADD SWAP1 POP DUP2 DUP2 SUB PUSH0 DUP4 ADD MSTORE PUSH2 0x1691 DUP2 PUSH2 0x1658 JUMP JUMPDEST SWAP1 POP SWAP2 SWAP1 POP JUMP JUMPDEST PUSH0 DUP2 SWAP1 POP DUP2 PUSH0 MSTORE PUSH1 0x20 PUSH0 KECCAK256 SWAP1 POP SWAP2 SWAP1 POP JUMP JUMPDEST PUSH0 PUSH1 0x20 PUSH1 0x1F DUP4 ADD DIV SWAP1 POP SWAP2 SWAP1 POP JUMP JUMPDEST PUSH0 DUP3 DUP3 SHL SWAP1 POP SWAP3 SWAP2 POP POP JUMP JUMPDEST PUSH0 PUSH1 0x8 DUP4 MUL PUSH2 0x16F4 PUSH32 0xFFFFFFFFFFFFFFFFFFFFFFFFFFFFFFFFFFFFFFFFFFFFFFFFFFFFFFFFFFFFFFFF DUP3 PUSH2 0x16B9 JUMP JUMPDEST PUSH2 0x16FE DUP7 DUP4 PUSH2 0x16B9 JUMP JUMPDEST SWAP6 POP DUP1 NOT DUP5 AND SWAP4 POP DUP1 DUP7 AND DUP5 OR SWAP3 POP POP POP SWAP4 SWAP3 POP POP POP JUMP JUMPDEST PUSH0 DUP2 SWAP1 POP SWAP2 SWAP1 POP JUMP JUMPDEST PUSH0 PUSH2 0x1739 PUSH2 0x1734 PUSH2 0x172F DUP5 PUSH2 0xD6C JUMP JUMPDEST PUSH2 0x1716 JUMP JUMPDEST PUSH2 0xD6C JUMP JUMPDEST SWAP1 POP SWAP2 SWAP1 POP JUMP JUMPDEST PUSH0 DUP2 SWAP1 POP SWAP2 SWAP1 POP JUMP JUMPDEST PUSH2 0x1752 DUP4 PUSH2 0x171F JUMP JUMPDEST PUSH2 0x1766 PUSH2 0x175E DUP3 PUSH2 0x1740 JUMP JUMPDEST DUP5 DUP5 SLOAD PUSH2 0x16C5 JUMP JUMPDEST DUP3 SSTORE POP POP POP POP JUMP JUMPDEST PUSH0 SWAP1 JUMP JUMPDEST PUSH2 0x177A PUSH2 0x176E JUMP JUMPDEST PUSH2 0x1785 DUP2 DUP5 DUP5 PUSH2 0x1749 JUMP JUMPDEST POP POP POP JUMP JUMPDEST JUMPDEST DUP2 DUP2 LT ISZERO PUSH2 0x17A8 JUMPI PUSH2 0x179D PUSH0 DUP3 PUSH2 0x1772 JUMP JUMPDEST PUSH1 0x1 DUP2 ADD SWAP1 POP PUSH2 0x178B JUMP JUMPDEST POP POP JUMP JUMPDEST PUSH1 0x1F DUP3 GT ISZERO PUSH2 0x17ED JUMPI PUSH2 0x17BE DUP2 PUSH2 0x1698 JUMP JUMPDEST PUSH2 0x17C7 DUP5 PUSH2 0x16AA JUMP JUMPDEST DUP2 ADD PUSH1 0x20 DUP6 LT ISZERO PUSH2 0x17D6 JUMPI DUP2 SWAP1 POP JUMPDEST PUSH2 0x17EA PUSH2 0x17E2 DUP6 PUSH2 0x16AA JUMP JUMPDEST DUP4 ADD DUP3 PUSH2 0x178A JUMP JUMPDEST POP POP JUMPDEST POP POP POP JUMP JUMPDEST PUSH0 DUP3 DUP3 SHR SWAP1 POP SWAP3 SWAP2 POP POP JUMP JUMPDEST PUSH0 PUSH2 0x180D PUSH0 NOT DUP5 PUSH1 0x8 MUL PUSH2 0x17F2 JUMP JUMPDEST NOT DUP1 DUP4 AND SWAP2 POP POP SWAP3 SWAP2 POP POP JUMP JUMPDEST PUSH0 PUSH2 0x1825 DUP4 DUP4 PUSH2 0x17FE JUMP JUMPDEST SWAP2 POP DUP3 PUSH1 0x2 MUL DUP3 OR SWAP1 POP SWAP3 SWAP2 POP POP JUMP JUMPDEST PUSH2 0x183E DUP3 PUSH2 0xDFB JUMP JUMPDEST PUSH8 0xFFFFFFFFFFFFFFFF DUP2 GT ISZERO PUSH2 0x1857 JUMPI PUSH2 0x1856 PUSH2 0x114E JUMP JUMPDEST JUMPDEST PUSH2 0x1861 DUP3 SLOAD PUSH2 0x13BD JUMP JUMPDEST PUSH2 0x186C DUP3 DUP3 DUP6 PUSH2 0x17AC JUMP JUMPDEST PUSH0 PUSH1 0x20 SWAP1 POP PUSH1 0x1F DUP4 GT PUSH1 0x1 DUP2 EQ PUSH2 0x189D JUMPI PUSH0 DUP5 ISZERO PUSH2 0x188B JUMPI DUP3 DUP8 ADD MLOAD SWAP1 POP JUMPDEST PUSH2 0x1895 DUP6 DUP3 PUSH2 0x181A JUMP JUMPDEST DUP7 SSTORE POP PUSH2 0x18FC JUMP JUMPDEST PUSH1 0x1F NOT DUP5 AND PUSH2 0x18AB DUP7 PUSH2 0x1698 JUMP JUMPDEST PUSH0 JUMPDEST DUP3 DUP2 LT ISZERO PUSH2 0x18D2 JUMPI DUP5 DUP10 ADD MLOAD DUP3 SSTORE PUSH1 0x1 DUP3 ADD SWAP2 POP PUSH1 0x20 DUP6 ADD SWAP5 POP PUSH1 0x20 DUP2 ADD SWAP1 POP PUSH2 0x18AD JUMP JUMPDEST DUP7 DUP4 LT ISZERO PUSH2 0x18EF JUMPI DUP5 DUP10 ADD MLOAD PUSH2 0x18EB PUSH1 0x1F DUP10 AND DUP3 PUSH2 0x17FE JUMP JUMPDEST DUP4 SSTORE POP JUMPDEST PUSH1 0x1 PUSH1 0x2 DUP9 MUL ADD DUP9 SSTORE POP POP POP JUMPDEST POP POP POP POP POP POP JUMP JUMPDEST PUSH0 PUSH1 0x80 DUP3 ADD SWAP1 POP PUSH2 0x1917 PUSH0 DUP4 ADD DUP8 PUSH2 0xDDD JUMP JUMPDEST PUSH2 0x1924 PUSH1 0x20 DUP4 ADD DUP7 PUSH2 0xDEC JUMP JUMPDEST DUP2 DUP2 SUB PUSH1 0x40 DUP4 ADD MSTORE PUSH2 0x1936 DUP2 DUP6 PUSH2 0xE4D JUMP JUMPDEST SWAP1 POP PUSH2 0x1945 PUSH1 0x60 DUP4 ADD DUP5 PUSH2 0xDDD JUMP JUMPDEST SWAP6 SWAP5 POP POP POP POP POP JUMP INVALID LOG2 PUSH5 0x6970667358 0x22 SLT KECCAK256 0xC 0x22 0xD3 0x22 0x5C DUP4 0xD3 0xD5 0xAC 0xC0 0xB3 0x4B 0xAB 0xD7 JUMP 0xE0 PUSH23 0x947B6552A35F6A7EBAC47F71C35EF464736F6C63430008 AND STOP CALLER "
				},
				"gasEstimates": {
					"creation": {
						"codeDepositCost": "1306400",
						"executionCost": "49892",
						"totalCost": "1356292"
					},
					"external": {
						"MAX_TWEET_Length()": "2486",
						"changeTweetLength(uint16)": "26842",
						"createTweet(string)": "infinite",
						"getTweet(uint256)": "infinite",
						"getalltweets(address)": "infinite",
						"likeTweet(address,uint256)": "infinite",
						"owner()": "2574",
						"tweets(address,uint256)": "infinite",
						"unlikeTweet(address,uint256)": "infinite"
					}
				},
				"methodIdentifiers": {
					"MAX_TWEET_Length()": "0a50bfb3",
					"changeTweetLength(uint16)": "58bfa4ab",
					"createTweet(string)": "7c9cd2bc",
					"getTweet(uint256)": "c3ad5ecb",
					"getalltweets(address)": "28bb2285",
					"likeTweet(address,uint256)": "63378216",
					"owner()": "8da5cb5b",
					"tweets(address,uint256)": "05a1b4a9",
					"unlikeTweet(address,uint256)": "3d9b569f"
				}
			},
			"storageLayout": {
				"storage": [
					{
						"astId": 4,
						"contract": "contracts/Twitter.sol:Twitter2",
						"label": "MAX_TWEET_Length",
						"offset": 0,
						"slot": "0",
						"type": "t_uint16"
					},
					{
						"astId": 23,
						"contract": "contracts/Twitter.sol:Twitter2",
						"label": "tweets",
						"offset": 0,
						"slot": "1",
						"type": "t_mapping(t_address,t_array(t_struct(Tweet)16_storage)dyn_storage)"
					},
					{
						"astId": 25,
						"contract": "contracts/Twitter.sol:Twitter2",
						"label": "owner",
						"offset": 0,
						"slot": "2",
						"type": "t_address"
					}
				],
				"types": {
					"t_address": {
						"encoding": "inplace",
						"label": "address",
						"numberOfBytes": "20"
					},
					"t_array(t_struct(Tweet)16_storage)dyn_storage": {
						"base": "t_struct(Tweet)16_storage",
						"encoding": "dynamic_array",
						"label": "struct Twitter2.Tweet[]",
						"numberOfBytes": "32"
					},
					"t_mapping(t_address,t_array(t_struct(Tweet)16_storage)dyn_storage)": {
						"encoding": "mapping",
						"key": "t_address",
						"label": "mapping(address => struct Twitter2.Tweet[])",
						"numberOfBytes": "32",
						"value": "t_array(t_struct(Tweet)16_storage)dyn_storage"
					},
					"t_string_storage": {
						"encoding": "bytes",
						"label": "string",
						"numberOfBytes": "32"
					},
					"t_struct(Tweet)16_storage": {
						"encoding": "inplace",
						"label": "struct Twitter2.Tweet",
						"members": [
							{
								"astId": 7,
								"contract": "contracts/Twitter.sol:Twitter2",
								"label": "id",
								"offset": 0,
								"slot": "0",
								"type": "t_uint256"
							},
							{
								"astId": 9,
								"contract": "contracts/Twitter.sol:Twitter2",
								"label": "author",
								"offset": 0,
								"slot": "1",
								"type": "t_address"
							},
							{
								"astId": 11,
								"contract": "contracts/Twitter.sol:Twitter2",
								"label": "content",
								"offset": 0,
								"slot": "2",
								"type": "t_string_storage"
							},
							{
								"astId": 13,
								"contract": "contracts/Twitter.sol:Twitter2",
								"label": "timestamp",
								"offset": 0,
								"slot": "3",
								"type": "t_uint256"
							},
							{
								"astId": 15,
								"contract": "contracts/Twitter.sol:Twitter2",
								"label": "likes",
								"offset": 0,
								"slot": "4",
								"type": "t_uint256"
							}
						],
						"numberOfBytes": "160"
					},
					"t_uint16": {
						"encoding": "inplace",
						"label": "uint16",
						"numberOfBytes": "2"
					},
					"t_uint256": {
						"encoding": "inplace",
						"label": "uint256",
						"numberOfBytes": "32"
					}
				}
			},
			"userdoc": {
				"kind": "user",
				"methods": {
					"constructor": {
						"notice": "creating the constructor"
					},
					"tweets(address,uint256)": {
						"notice": "end struct"
					},
					"unlikeTweet(address,uint256)": {
						"notice": "function to unlike"
					}
				},
				"version": 1
			}
		}
	}
}