{
	"data": {
		"bytecode": {
			"linkReferences": {},
			"object": "608060405234801561000f575f80fd5b505f80819055506101cf806100235f395ff3fe608060405234801561000f575f80fd5b5060043610610034575f3560e01c80635c449c0014610038578063da76d5cd14610054575b5f80fd5b610052600480360381019061004d91906100db565b610070565b005b61006e600480360381019061006991906100db565b61008a565b005b805f808282546100809190610133565b9250508190555050565b805f8082825461009a9190610166565b9250508190555050565b5f80fd5b5f819050919050565b6100ba816100a8565b81146100c4575f80fd5b50565b5f813590506100d5816100b1565b92915050565b5f602082840312156100f0576100ef6100a4565b5b5f6100fd848285016100c7565b91505092915050565b7f4e487b71000000000000000000000000000000000000000000000000000000005f52601160045260245ffd5b5f61013d826100a8565b9150610148836100a8565b92508282019050808211156101605761015f610106565b5b92915050565b5f610170826100a8565b915061017b836100a8565b925082820390508181111561019357610192610106565b5b9291505056fea2646970667358221220f1321ab28feaa96bc6a7e695fb79cbc020130936ad289dfa8732bf39350de4ab64736f6c63430008160033",
			"opcodes": "PUSH1 0x80 PUSH1 0x40 MSTORE CALLVALUE DUP1 ISZERO PUSH2 0xF JUMPI PUSH0 DUP1 REVERT JUMPDEST POP PUSH0 DUP1 DUP2 SWAP1 SSTORE POP PUSH2 0x1CF DUP1 PUSH2 0x23 PUSH0 CODECOPY PUSH0 RETURN INVALID PUSH1 0x80 PUSH1 0x40 MSTORE CALLVALUE DUP1 ISZERO PUSH2 0xF JUMPI PUSH0 DUP1 REVERT JUMPDEST POP PUSH1 0x4 CALLDATASIZE LT PUSH2 0x34 JUMPI PUSH0 CALLDATALOAD PUSH1 0xE0 SHR DUP1 PUSH4 0x5C449C00 EQ PUSH2 0x38 JUMPI DUP1 PUSH4 0xDA76D5CD EQ PUSH2 0x54 JUMPI JUMPDEST PUSH0 DUP1 REVERT JUMPDEST PUSH2 0x52 PUSH1 0x4 DUP1 CALLDATASIZE SUB DUP2 ADD SWAP1 PUSH2 0x4D SWAP2 SWAP1 PUSH2 0xDB JUMP JUMPDEST PUSH2 0x70 JUMP JUMPDEST STOP JUMPDEST PUSH2 0x6E PUSH1 0x4 DUP1 CALLDATASIZE SUB DUP2 ADD SWAP1 PUSH2 0x69 SWAP2 SWAP1 PUSH2 0xDB JUMP JUMPDEST PUSH2 0x8A JUMP JUMPDEST STOP JUMPDEST DUP1 PUSH0 DUP1 DUP3 DUP3 SLOAD PUSH2 0x80 SWAP2 SWAP1 PUSH2 0x133 JUMP JUMPDEST SWAP3 POP POP DUP2 SWAP1 SSTORE POP POP JUMP JUMPDEST DUP1 PUSH0 DUP1 DUP3 DUP3 SLOAD PUSH2 0x9A SWAP2 SWAP1 PUSH2 0x166 JUMP JUMPDEST SWAP3 POP POP DUP2 SWAP1 SSTORE POP POP JUMP JUMPDEST PUSH0 DUP1 REVERT JUMPDEST PUSH0 DUP2 SWAP1 POP SWAP2 SWAP1 POP JUMP JUMPDEST PUSH2 0xBA DUP2 PUSH2 0xA8 JUMP JUMPDEST DUP2 EQ PUSH2 0xC4 JUMPI PUSH0 DUP1 REVERT JUMPDEST POP JUMP JUMPDEST PUSH0 DUP2 CALLDATALOAD SWAP1 POP PUSH2 0xD5 DUP2 PUSH2 0xB1 JUMP JUMPDEST SWAP3 SWAP2 POP POP JUMP JUMPDEST PUSH0 PUSH1 0x20 DUP3 DUP5 SUB SLT ISZERO PUSH2 0xF0 JUMPI PUSH2 0xEF PUSH2 0xA4 JUMP JUMPDEST JUMPDEST PUSH0 PUSH2 0xFD DUP5 DUP3 DUP6 ADD PUSH2 0xC7 JUMP JUMPDEST SWAP2 POP POP SWAP3 SWAP2 POP POP JUMP JUMPDEST PUSH32 0x4E487B7100000000000000000000000000000000000000000000000000000000 PUSH0 MSTORE PUSH1 0x11 PUSH1 0x4 MSTORE PUSH1 0x24 PUSH0 REVERT JUMPDEST PUSH0 PUSH2 0x13D DUP3 PUSH2 0xA8 JUMP JUMPDEST SWAP2 POP PUSH2 0x148 DUP4 PUSH2 0xA8 JUMP JUMPDEST SWAP3 POP DUP3 DUP3 ADD SWAP1 POP DUP1 DUP3 GT ISZERO PUSH2 0x160 JUMPI PUSH2 0x15F PUSH2 0x106 JUMP JUMPDEST JUMPDEST SWAP3 SWAP2 POP POP JUMP JUMPDEST PUSH0 PUSH2 0x170 DUP3 PUSH2 0xA8 JUMP JUMPDEST SWAP2 POP PUSH2 0x17B DUP4 PUSH2 0xA8 JUMP JUMPDEST SWAP3 POP DUP3 DUP3 SUB SWAP1 POP DUP2 DUP2 GT ISZERO PUSH2 0x193 JUMPI PUSH2 0x192 PUSH2 0x106 JUMP JUMPDEST JUMPDEST SWAP3 SWAP2 POP POP JUMP INVALID LOG2 PUSH5 0x6970667358 0x22 SLT KECCAK256 CALL ORIGIN BYTE 0xB2 DUP16 0xEA 0xA9 PUSH12 0xC6A7E695FB79CBC020130936 0xAD 0x28 SWAP14 STATICCALL DUP8 ORIGIN 0xBF CODECOPY CALLDATALOAD 0xD 0xE4 0xAB PUSH5 0x736F6C6343 STOP ADDMOD AND STOP CALLER "
		},
		"gasEstimates": {
			"creation": {
				"codeDepositCost": "92600",
				"executionCost": "5152",
				"totalCost": "97752"
			},
			"external": {
				"sendBalance(uint256)": "infinite",
				"withdrawBalance(uint256)": "infinite"
			}
		},
		"methodIdentifiers": {
			"sendBalance(uint256)": "5c449c00",
			"withdrawBalance(uint256)": "da76d5cd"
		}
	},
	"abi": [
		{
			"inputs": [],
			"stateMutability": "nonpayable",
			"type": "constructor"
		},
		{
			"inputs": [
				{
					"internalType": "uint256",
					"name": "amount",
					"type": "uint256"
				}
			],
			"name": "sendBalance",
			"outputs": [],
			"stateMutability": "nonpayable",
			"type": "function"
		},
		{
			"inputs": [
				{
					"internalType": "uint256",
					"name": "amount",
					"type": "uint256"
				}
			],
			"name": "withdrawBalance",
			"outputs": [],
			"stateMutability": "nonpayable",
			"type": "function"
		}
	]
}